{
  "_format": "hh-sol-artifact-1",
  "contractName": "SwapSingle",
  "sourceName": "contracts/v2/SwapSingle.sol",
  "abi": [
    {
      "inputs": [
        {
          "internalType": "address",
          "name": "_owner",
          "type": "address"
        }
      ],
      "stateMutability": "nonpayable",
      "type": "constructor"
    },
    {
      "anonymous": false,
      "inputs": [
        {
          "indexed": false,
          "internalType": "string",
          "name": "message",
          "type": "string"
        }
      ],
      "name": "log",
      "type": "event"
    },
    {
      "anonymous": false,
      "inputs": [
        {
          "indexed": false,
          "internalType": "string",
          "name": "message",
          "type": "string"
        },
        {
          "indexed": false,
          "internalType": "address",
          "name": "val",
          "type": "address"
        }
      ],
      "name": "logAddress",
      "type": "event"
    },
    {
      "anonymous": false,
      "inputs": [
        {
          "indexed": false,
          "internalType": "string",
          "name": "message",
          "type": "string"
        },
        {
          "indexed": false,
          "internalType": "uint256",
          "name": "val",
          "type": "uint256"
        }
      ],
      "name": "logValue",
      "type": "event"
    },
    {
      "inputs": [],
      "name": "checkOwner",
      "outputs": [
        {
          "internalType": "address",
          "name": "",
          "type": "address"
        }
      ],
      "stateMutability": "view",
      "type": "function"
    },
    {
      "inputs": [
        {
          "internalType": "address",
          "name": "routerAID",
          "type": "address"
        },
        {
          "internalType": "address",
          "name": "routerBID",
          "type": "address"
        },
        {
          "internalType": "uint256",
          "name": "tradeSize",
          "type": "uint256"
        },
        {
          "internalType": "uint256",
          "name": "amountOut",
          "type": "uint256"
        },
        {
          "internalType": "address[]",
          "name": "path0",
          "type": "address[]"
        },
        {
          "internalType": "address[]",
          "name": "path1",
          "type": "address[]"
        },
        {
          "internalType": "address",
          "name": "to",
          "type": "address"
        },
        {
          "internalType": "uint256",
          "name": "deadline",
          "type": "uint256"
        }
      ],
      "name": "swapSingle",
      "outputs": [],
      "stateMutability": "nonpayable",
      "type": "function"
    }
  ],
  "bytecode": "0x608060405234801561001057600080fd5b50604051610e13380380610e1383398101604081905261002f91610054565b600080546001600160a01b0319166001600160a01b0392909216919091179055610084565b60006020828403121561006657600080fd5b81516001600160a01b038116811461007d57600080fd5b9392505050565b610d80806100936000396000f3fe608060405234801561001057600080fd5b50600436106100365760003560e01c806329b9d97b1461003b578063cdbce03d14610050575b600080fd5b61004e610049366004610a22565b61006f565b005b600054604080516001600160a01b039092168252519081900360200190f35b610090604051806060016040528060278152602001610d0360279139610875565b6000846000815181106100a5576100a5610ad5565b602002602001015190506000856001815181106100c4576100c4610ad5565b602090810291909101015160405163095ea7b360e01b81526001600160a01b03808d16600483015260001960248301529192508b918b919085169063095ea7b3906044016020604051808303816000875af1158015610127573d6000803e3d6000fd5b505050506040513d601f19601f8201168201806040525081019061014b9190610aeb565b5060405163095ea7b360e01b81526001600160a01b038c81166004830152600019602483015285169063095ea7b3906044016020604051808303816000875af115801561019c573d6000803e3d6000fd5b505050506040513d601f19601f820116820180604052508101906101c09190610aeb565b5060405163095ea7b360e01b81526001600160a01b038d81166004830152600019602483015284169063095ea7b3906044016020604051808303816000875af1158015610211573d6000803e3d6000fd5b505050506040513d601f19601f820116820180604052508101906102359190610aeb565b5060405163095ea7b360e01b81526001600160a01b038c81166004830152600019602483015284169063095ea7b3906044016020604051808303816000875af1158015610286573d6000803e3d6000fd5b505050506040513d601f19601f820116820180604052508101906102aa9190610aeb565b506102e96040518060400160405280601c81526020017f5377617053696e676c653a20746f6b656e496e20617070726f76656400000000815250610875565b61030a604051806060016040528060288152602001610cdb60289139610875565b604080518082018252601781527f7369676e65722062616c616e636520546f6b656e496e3a000000000000000000602082015290516370a0823160e01b81523360048201526103ae91906001600160a01b038716906370a0823190602401602060405180830381865afa158015610385573d6000803e3d6000fd5b505050506040513d601f19601f820116820180604052508101906103a99190610b14565b6108bb565b6103ed6040518060400160405280601781526020017f5377617053696e676c653a20747261646553697a653a200000000000000000008152508b6108bb565b61042c6040518060400160405280601781526020017f5377617053696e676c653a20616d6f756e744f75743a200000000000000000008152508a6108bb565b6040516338ed173960e01b81526000906001600160a01b038416906338ed173990610463908e908e908e9030908d90600401610b71565b6000604051808303816000875af1158015610482573d6000803e3d6000fd5b505050506040513d6000823e601f3d908101601f191682016040526104aa9190810190610bad565b90506104ea6040518060400160405280602081526020017f5377617053696e676c653a206669727374207377617020636f6d706c65746564815250610875565b6105436040518060400160405280601781526020017f5377617053696e676c653a2073776170496e5b315d3a200000000000000000008152508260018151811061053657610536610ad5565b60200260200101516108bb565b60405163095ea7b360e01b81526001600160a01b038d81166004830152600019602483015285169063095ea7b3906044016020604051808303816000875af1158015610593573d6000803e3d6000fd5b505050506040513d601f19601f820116820180604052508101906105b79190610aeb565b506000826001600160a01b031663d06ca61f836001815181106105dc576105dc610ad5565b60200260200101518b6040518363ffffffff1660e01b8152600401610602929190610c3e565b600060405180830381865afa15801561061f573d6000803e3d6000fd5b505050506040513d6000823e601f3d908101601f191682016040526106479190810190610bad565b90508b8160018151811061065d5761065d610ad5565b6020026020010151116106cc5760405162461bcd60e51b815260206004820152602d60248201527f4572726f72205377617053696e676c653a20496e73756666696369656e74206f60448201526c1d5d1c1d5d0e8815185c99d95d609a1b606482015260840160405180910390fd5b826001600160a01b0316638803dbee836001815181106106ee576106ee610ad5565b60200260200101518e8c8c8c6040518663ffffffff1660e01b815260040161071a959493929190610b71565b6000604051808303816000875af1158015610739573d6000803e3d6000fd5b505050506040513d6000823e601f3d908101601f191682016040526107619190810190610bad565b50610783604051806060016040528060218152602001610d2a60219139610875565b6040516370a0823160e01b81523060048201526001600160a01b0387169063a9059cbb90339083906370a0823190602401602060405180830381865afa1580156107d1573d6000803e3d6000fd5b505050506040513d601f19601f820116820180604052508101906107f59190610b14565b6040516001600160e01b031960e085901b1681526001600160a01b03909216600483015260248201526044016020604051808303816000875af1158015610840573d6000803e3d6000fd5b505050506040513d601f19601f820116820180604052508101906108649190610aeb565b505050505050505050505050505050565b6108b8816040516024016108899190610ca5565b60408051601f198184030181529190526020810180516001600160e01b031663104c13eb60e21b179052610904565b50565b61090082826040516024016108d1929190610cb8565b60408051601f198184030181529190526020810180516001600160e01b0316632d839cb360e21b179052610904565b5050565b6108b88160006a636f6e736f6c652e6c6f679050600080835160208501845afa505050565b80356001600160a01b038116811461094057600080fd5b919050565b634e487b7160e01b600052604160045260246000fd5b604051601f8201601f1916810167ffffffffffffffff8111828210171561098457610984610945565b604052919050565b600067ffffffffffffffff8211156109a6576109a6610945565b5060051b60200190565b600082601f8301126109c157600080fd5b813560206109d66109d18361098c565b61095b565b82815260059290921b840181019181810190868411156109f557600080fd5b8286015b84811015610a1757610a0a81610929565b83529183019183016109f9565b509695505050505050565b600080600080600080600080610100898b031215610a3f57600080fd5b610a4889610929565b9750610a5660208a01610929565b96506040890135955060608901359450608089013567ffffffffffffffff80821115610a8157600080fd5b610a8d8c838d016109b0565b955060a08b0135915080821115610aa357600080fd5b50610ab08b828c016109b0565b935050610abf60c08a01610929565b915060e089013590509295985092959890939650565b634e487b7160e01b600052603260045260246000fd5b600060208284031215610afd57600080fd5b81518015158114610b0d57600080fd5b9392505050565b600060208284031215610b2657600080fd5b5051919050565b600081518084526020808501945080840160005b83811015610b665781516001600160a01b031687529582019590820190600101610b41565b509495945050505050565b85815284602082015260a060408201526000610b9060a0830186610b2d565b6001600160a01b0394909416606083015250608001529392505050565b60006020808385031215610bc057600080fd5b825167ffffffffffffffff811115610bd757600080fd5b8301601f81018513610be857600080fd5b8051610bf66109d18261098c565b81815260059190911b82018301908381019087831115610c1557600080fd5b928401925b82841015610c3357835182529284019290840190610c1a565b979650505050505050565b828152604060208201526000610c576040830184610b2d565b949350505050565b6000815180845260005b81811015610c8557602081850181015186830182015201610c69565b506000602082860101526020601f19601f83011685010191505092915050565b602081526000610b0d6020830184610c5f565b604081526000610ccb6040830185610c5f565b9050826020830152939250505056fe5377617053696e676c653a20746f6b656e496e2062616c616e636520636865636b207061737365645377617053696e676c653a207377617053696e676c6520636f6e747261637420656e74657265645377617053696e676c653a207365636f6e64207377617020636f6d706c65746564a264697066735822122049ecf6f7f9b601185b490a03bab0c1a9d65497007c3852896829d191f268f25964736f6c63430008130033",
  "linkReferences": {},
  "deployedLinkReferences": {}
}