{
  "_format": "hh-sol-artifact-1",
  "contractName": "SwapSingle",
  "sourceName": "contracts/v2/SwapSingle.sol",
  "abi": [
    {
      "inputs": [
        {
          "internalType": "address",
          "name": "_owner",
          "type": "address"
        }
      ],
      "stateMutability": "nonpayable",
      "type": "constructor"
    },
    {
      "anonymous": false,
      "inputs": [
        {
          "indexed": false,
          "internalType": "string",
          "name": "message",
          "type": "string"
        }
      ],
      "name": "log",
      "type": "event"
    },
    {
      "anonymous": false,
      "inputs": [
        {
          "indexed": false,
          "internalType": "string",
          "name": "message",
          "type": "string"
        },
        {
          "indexed": false,
          "internalType": "address",
          "name": "val",
          "type": "address"
        }
      ],
      "name": "logAddress",
      "type": "event"
    },
    {
      "anonymous": false,
      "inputs": [
        {
          "indexed": false,
          "internalType": "string",
          "name": "message",
          "type": "string"
        },
        {
          "indexed": false,
          "internalType": "uint256",
          "name": "val",
          "type": "uint256"
        }
      ],
      "name": "logValue",
      "type": "event"
    },
    {
      "inputs": [],
      "name": "checkOwner",
      "outputs": [
        {
          "internalType": "address",
          "name": "",
          "type": "address"
        }
      ],
      "stateMutability": "view",
      "type": "function"
    },
    {
      "inputs": [
        {
          "internalType": "address",
          "name": "routerAID",
          "type": "address"
        },
        {
          "internalType": "address",
          "name": "routerBID",
          "type": "address"
        },
        {
          "internalType": "uint256",
          "name": "tradeSize",
          "type": "uint256"
        },
        {
          "internalType": "uint256",
          "name": "amountOutA",
          "type": "uint256"
        },
        {
          "internalType": "address[]",
          "name": "path0",
          "type": "address[]"
        },
        {
          "internalType": "address[]",
          "name": "path1",
          "type": "address[]"
        },
        {
          "internalType": "address",
          "name": "to",
          "type": "address"
        },
        {
          "internalType": "uint256",
          "name": "deadline",
          "type": "uint256"
        }
      ],
      "name": "swapSingle",
      "outputs": [],
      "stateMutability": "nonpayable",
      "type": "function"
    }
  ],
  "bytecode": "0x608060405234801561001057600080fd5b50604051610e46380380610e4683398101604081905261002f91610054565b600080546001600160a01b0319166001600160a01b0392909216919091179055610084565b60006020828403121561006657600080fd5b81516001600160a01b038116811461007d57600080fd5b9392505050565b610db3806100936000396000f3fe608060405234801561001057600080fd5b50600436106100365760003560e01c806329b9d97b1461003b578063cdbce03d14610050575b600080fd5b61004e610049366004610a2e565b61006f565b005b600054604080516001600160a01b039092168252519081900360200190f35b610090604051806060016040528060278152602001610d3660279139610881565b6000846000815181106100a5576100a5610ae1565b60200260200101519050600085600187516100c09190610af7565b815181106100d0576100d0610ae1565b602090810291909101015160405163095ea7b360e01b81526001600160a01b03808d16600483015260001960248301529192508b918b919085169063095ea7b3906044016020604051808303816000875af1158015610133573d6000803e3d6000fd5b505050506040513d601f19601f820116820180604052508101906101579190610b1e565b5060405163095ea7b360e01b81526001600160a01b038c81166004830152600019602483015285169063095ea7b3906044016020604051808303816000875af11580156101a8573d6000803e3d6000fd5b505050506040513d601f19601f820116820180604052508101906101cc9190610b1e565b5060405163095ea7b360e01b81526001600160a01b038d81166004830152600019602483015284169063095ea7b3906044016020604051808303816000875af115801561021d573d6000803e3d6000fd5b505050506040513d601f19601f820116820180604052508101906102419190610b1e565b5060405163095ea7b360e01b81526001600160a01b038c81166004830152600019602483015284169063095ea7b3906044016020604051808303816000875af1158015610292573d6000803e3d6000fd5b505050506040513d601f19601f820116820180604052508101906102b69190610b1e565b506102f56040518060400160405280601c81526020017f5377617053696e676c653a20746f6b656e496e20617070726f76656400000000815250610881565b610316604051806060016040528060288152602001610d0e60289139610881565b604080518082018252601781527f7369676e65722062616c616e636520546f6b656e496e3a000000000000000000602082015290516370a0823160e01b81523360048201526103ba91906001600160a01b038716906370a0823190602401602060405180830381865afa158015610391573d6000803e3d6000fd5b505050506040513d601f19601f820116820180604052508101906103b59190610b47565b6108c7565b6103f96040518060400160405280601781526020017f5377617053696e676c653a20747261646553697a653a200000000000000000008152508b6108c7565b6104386040518060400160405280601881526020017f5377617053696e676c653a20616d6f756e744f7574413a2000000000000000008152508a6108c7565b6040516338ed173960e01b81526000906001600160a01b038416906338ed17399061046f908e908e908e9030908d90600401610ba4565b6000604051808303816000875af115801561048e573d6000803e3d6000fd5b505050506040513d6000823e601f3d908101601f191682016040526104b69190810190610be0565b90506104f66040518060400160405280602081526020017f5377617053696e676c653a206669727374207377617020636f6d706c65746564815250610881565b61054f6040518060400160405280601781526020017f5377617053696e676c653a2073776170496e5b315d3a200000000000000000008152508260018151811061054257610542610ae1565b60200260200101516108c7565b60405163095ea7b360e01b81526001600160a01b038d81166004830152600019602483015285169063095ea7b3906044016020604051808303816000875af115801561059f573d6000803e3d6000fd5b505050506040513d601f19601f820116820180604052508101906105c39190610b1e565b506000826001600160a01b031663d06ca61f836001815181106105e8576105e8610ae1565b60200260200101518b6040518363ffffffff1660e01b815260040161060e929190610c71565b600060405180830381865afa15801561062b573d6000803e3d6000fd5b505050506040513d6000823e601f3d908101601f191682016040526106539190810190610be0565b90508b8160018151811061066957610669610ae1565b6020026020010151116106d85760405162461bcd60e51b815260206004820152602d60248201527f4572726f72205377617053696e676c653a20496e73756666696369656e74206f60448201526c1d5d1c1d5d0e8815185c99d95d609a1b606482015260840160405180910390fd5b826001600160a01b0316638803dbee836001815181106106fa576106fa610ae1565b60200260200101518e8c8c8c6040518663ffffffff1660e01b8152600401610726959493929190610ba4565b6000604051808303816000875af1158015610745573d6000803e3d6000fd5b505050506040513d6000823e601f3d908101601f1916820160405261076d9190810190610be0565b5061078f604051806060016040528060218152602001610d5d60219139610881565b6040516370a0823160e01b81523060048201526001600160a01b0387169063a9059cbb90339083906370a0823190602401602060405180830381865afa1580156107dd573d6000803e3d6000fd5b505050506040513d601f19601f820116820180604052508101906108019190610b47565b6040516001600160e01b031960e085901b1681526001600160a01b03909216600483015260248201526044016020604051808303816000875af115801561084c573d6000803e3d6000fd5b505050506040513d601f19601f820116820180604052508101906108709190610b1e565b505050505050505050505050505050565b6108c4816040516024016108959190610cd8565b60408051601f198184030181529190526020810180516001600160e01b031663104c13eb60e21b179052610910565b50565b61090c82826040516024016108dd929190610ceb565b60408051601f198184030181529190526020810180516001600160e01b0316632d839cb360e21b179052610910565b5050565b6108c48160006a636f6e736f6c652e6c6f679050600080835160208501845afa505050565b80356001600160a01b038116811461094c57600080fd5b919050565b634e487b7160e01b600052604160045260246000fd5b604051601f8201601f1916810167ffffffffffffffff8111828210171561099057610990610951565b604052919050565b600067ffffffffffffffff8211156109b2576109b2610951565b5060051b60200190565b600082601f8301126109cd57600080fd5b813560206109e26109dd83610998565b610967565b82815260059290921b84018101918181019086841115610a0157600080fd5b8286015b84811015610a2357610a1681610935565b8352918301918301610a05565b509695505050505050565b600080600080600080600080610100898b031215610a4b57600080fd5b610a5489610935565b9750610a6260208a01610935565b96506040890135955060608901359450608089013567ffffffffffffffff80821115610a8d57600080fd5b610a998c838d016109bc565b955060a08b0135915080821115610aaf57600080fd5b50610abc8b828c016109bc565b935050610acb60c08a01610935565b915060e089013590509295985092959890939650565b634e487b7160e01b600052603260045260246000fd5b81810381811115610b1857634e487b7160e01b600052601160045260246000fd5b92915050565b600060208284031215610b3057600080fd5b81518015158114610b4057600080fd5b9392505050565b600060208284031215610b5957600080fd5b5051919050565b600081518084526020808501945080840160005b83811015610b995781516001600160a01b031687529582019590820190600101610b74565b509495945050505050565b85815284602082015260a060408201526000610bc360a0830186610b60565b6001600160a01b0394909416606083015250608001529392505050565b60006020808385031215610bf357600080fd5b825167ffffffffffffffff811115610c0a57600080fd5b8301601f81018513610c1b57600080fd5b8051610c296109dd82610998565b81815260059190911b82018301908381019087831115610c4857600080fd5b928401925b82841015610c6657835182529284019290840190610c4d565b979650505050505050565b828152604060208201526000610c8a6040830184610b60565b949350505050565b6000815180845260005b81811015610cb857602081850181015186830182015201610c9c565b506000602082860101526020601f19601f83011685010191505092915050565b602081526000610b406020830184610c92565b604081526000610cfe6040830185610c92565b9050826020830152939250505056fe5377617053696e676c653a20746f6b656e496e2062616c616e636520636865636b207061737365645377617053696e676c653a207377617053696e676c6520636f6e747261637420656e74657265645377617053696e676c653a207365636f6e64207377617020636f6d706c65746564a2646970667358221220e3eeff9a3ffdaf242c2b17d5db8bf1adffca6651d13e26ce645c2bcafd61acb564736f6c63430008130033",
  "linkReferences": {},
  "deployedLinkReferences": {}
}