{
  "_format": "hh-sol-artifact-1",
  "contractName": "SwapSingle",
  "sourceName": "contracts/v2/SwapSingle.sol",
  "abi": [
    {
      "inputs": [
        {
          "internalType": "address",
          "name": "_owner",
          "type": "address"
        }
      ],
      "stateMutability": "nonpayable",
      "type": "constructor"
    },
    {
      "anonymous": false,
      "inputs": [
        {
          "indexed": false,
          "internalType": "string",
          "name": "message",
          "type": "string"
        }
      ],
      "name": "log",
      "type": "event"
    },
    {
      "anonymous": false,
      "inputs": [
        {
          "indexed": false,
          "internalType": "string",
          "name": "message",
          "type": "string"
        },
        {
          "indexed": false,
          "internalType": "address",
          "name": "val",
          "type": "address"
        }
      ],
      "name": "logAddress",
      "type": "event"
    },
    {
      "anonymous": false,
      "inputs": [
        {
          "indexed": false,
          "internalType": "string",
          "name": "message",
          "type": "string"
        },
        {
          "indexed": false,
          "internalType": "uint256",
          "name": "val",
          "type": "uint256"
        }
      ],
      "name": "logValue",
      "type": "event"
    },
    {
      "inputs": [],
      "name": "checkOwner",
      "outputs": [
        {
          "internalType": "address",
          "name": "",
          "type": "address"
        }
      ],
      "stateMutability": "view",
      "type": "function"
    },
    {
      "inputs": [
        {
          "internalType": "address",
          "name": "routerAID",
          "type": "address"
        },
        {
          "internalType": "address",
          "name": "routerBID",
          "type": "address"
        },
        {
          "internalType": "uint256",
          "name": "tradeSize",
          "type": "uint256"
        },
        {
          "internalType": "uint256",
          "name": "amountOutA",
          "type": "uint256"
        },
        {
          "internalType": "uint256",
          "name": "amountOutB",
          "type": "uint256"
        },
        {
          "internalType": "address[]",
          "name": "path0",
          "type": "address[]"
        },
        {
          "internalType": "address[]",
          "name": "path1",
          "type": "address[]"
        },
        {
          "internalType": "address",
          "name": "to",
          "type": "address"
        },
        {
          "internalType": "uint256",
          "name": "deadline",
          "type": "uint256"
        }
      ],
      "name": "swapSingle",
      "outputs": [],
      "stateMutability": "nonpayable",
      "type": "function"
    }
  ],
  "bytecode": "0x608060405234801561001057600080fd5b50604051610d12380380610d1283398101604081905261002f91610054565b600080546001600160a01b0319166001600160a01b0392909216919091179055610084565b60006020828403121561006657600080fd5b81516001600160a01b038116811461007d57600080fd5b9392505050565b610c7f806100936000396000f3fe608060405234801561001057600080fd5b50600436106100365760003560e01c80630c05c7af1461003b578063cdbce03d14610050575b600080fd5b61004e6100493660046108f0565b61006f565b005b600054604080516001600160a01b039092168252519081900360200190f35b610090604051806060016040528060278152602001610c0260279139610743565b6000846000815181106100a5576100a56109ad565b60200260200101519050600085600187516100c091906109c3565b815181106100d0576100d06109ad565b602090810291909101015160405163095ea7b360e01b81526001600160a01b03808e166004830152602482018c90529192508c918c919085169063095ea7b3906044016020604051808303816000875af1158015610132573d6000803e3d6000fd5b505050506040513d601f19601f8201168201806040525081019061015691906109ea565b5060405163095ea7b360e01b81526001600160a01b038e81166004830152602482018c905284169063095ea7b3906044016020604051808303816000875af11580156101a6573d6000803e3d6000fd5b505050506040513d601f19601f820116820180604052508101906101ca91906109ea565b506102096040518060400160405280601c81526020017f5377617053696e676c653a20746f6b656e496e20617070726f76656400000000815250610743565b61022a604051806060016040528060288152602001610bda60289139610743565b604080518082018252601781527f7369676e65722062616c616e636520546f6b656e496e3a000000000000000000602082015290516370a0823160e01b81523360048201526102ce91906001600160a01b038716906370a0823190602401602060405180830381865afa1580156102a5573d6000803e3d6000fd5b505050506040513d601f19601f820116820180604052508101906102c99190610a13565b610789565b61030d6040518060400160405280601781526020017f5377617053696e676c653a20747261646553697a653a200000000000000000008152508c610789565b6040516338ed173960e01b81526000906001600160a01b038416906338ed173990610344908f908f908e9030908d90600401610a70565b6000604051808303816000875af1158015610363573d6000803e3d6000fd5b505050506040513d6000823e601f3d908101601f1916820160405261038b9190810190610aac565b90506103cb6040518060400160405280602081526020017f5377617053696e676c653a206669727374207377617020636f6d706c65746564815250610743565b6000826001600160a01b031663d06ca61f836001815181106103ef576103ef6109ad565b60200260200101518b6040518363ffffffff1660e01b8152600401610415929190610b3d565b600060405180830381865afa158015610432573d6000803e3d6000fd5b505050506040513d6000823e601f3d908101601f1916820160405261045a9190810190610aac565b90508160018151811061046f5761046f6109ad565b60200260200101518160018151811061048a5761048a6109ad565b6020026020010151116104f95760405162461bcd60e51b815260206004820152602d60248201527f4572726f72205377617053696e676c653a20496e73756666696369656e74206f60448201526c1d5d1c1d5d0e8815185c99d95d609a1b606482015260840160405180910390fd5b846001600160a01b031663095ea7b38f8460018151811061051c5761051c6109ad565b60200260200101516040518363ffffffff1660e01b81526004016105559291906001600160a01b03929092168252602082015260400190565b6020604051808303816000875af1158015610574573d6000803e3d6000fd5b505050506040513d601f19601f8201168201806040525081019061059891906109ea565b50826001600160a01b03166338ed1739836001815181106105bb576105bb6109ad565b60200260200101518d8c8c8c6040518663ffffffff1660e01b81526004016105e7959493929190610a70565b6000604051808303816000875af1158015610606573d6000803e3d6000fd5b505050506040513d6000823e601f3d908101601f1916820160405261062e9190810190610aac565b50610650604051806060016040528060218152602001610c2960219139610743565b6040516370a0823160e01b81523060048201526001600160a01b0387169063a9059cbb90339083906370a0823190602401602060405180830381865afa15801561069e573d6000803e3d6000fd5b505050506040513d601f19601f820116820180604052508101906106c29190610a13565b6040516001600160e01b031960e085901b1681526001600160a01b03909216600483015260248201526044016020604051808303816000875af115801561070d573d6000803e3d6000fd5b505050506040513d601f19601f8201168201806040525081019061073191906109ea565b50505050505050505050505050505050565b610786816040516024016107579190610ba4565b60408051601f198184030181529190526020810180516001600160e01b031663104c13eb60e21b1790526107d2565b50565b6107ce828260405160240161079f929190610bb7565b60408051601f198184030181529190526020810180516001600160e01b0316632d839cb360e21b1790526107d2565b5050565b6107868160006a636f6e736f6c652e6c6f679050600080835160208501845afa505050565b80356001600160a01b038116811461080e57600080fd5b919050565b634e487b7160e01b600052604160045260246000fd5b604051601f8201601f1916810167ffffffffffffffff8111828210171561085257610852610813565b604052919050565b600067ffffffffffffffff82111561087457610874610813565b5060051b60200190565b600082601f83011261088f57600080fd5b813560206108a461089f8361085a565b610829565b82815260059290921b840181019181810190868411156108c357600080fd5b8286015b848110156108e5576108d8816107f7565b83529183019183016108c7565b509695505050505050565b60008060008060008060008060006101208a8c03121561090f57600080fd5b6109188a6107f7565b985061092660208b016107f7565b975060408a0135965060608a0135955060808a0135945060a08a013567ffffffffffffffff8082111561095857600080fd5b6109648d838e0161087e565b955060c08c013591508082111561097a57600080fd5b506109878c828d0161087e565b93505061099660e08b016107f7565b91506101008a013590509295985092959850929598565b634e487b7160e01b600052603260045260246000fd5b818103818111156109e457634e487b7160e01b600052601160045260246000fd5b92915050565b6000602082840312156109fc57600080fd5b81518015158114610a0c57600080fd5b9392505050565b600060208284031215610a2557600080fd5b5051919050565b600081518084526020808501945080840160005b83811015610a655781516001600160a01b031687529582019590820190600101610a40565b509495945050505050565b85815284602082015260a060408201526000610a8f60a0830186610a2c565b6001600160a01b0394909416606083015250608001529392505050565b60006020808385031215610abf57600080fd5b825167ffffffffffffffff811115610ad657600080fd5b8301601f81018513610ae757600080fd5b8051610af561089f8261085a565b81815260059190911b82018301908381019087831115610b1457600080fd5b928401925b82841015610b3257835182529284019290840190610b19565b979650505050505050565b828152604060208201526000610b566040830184610a2c565b949350505050565b6000815180845260005b81811015610b8457602081850181015186830182015201610b68565b506000602082860101526020601f19601f83011685010191505092915050565b602081526000610a0c6020830184610b5e565b604081526000610bca6040830185610b5e565b9050826020830152939250505056fe5377617053696e676c653a20746f6b656e496e2062616c616e636520636865636b207061737365645377617053696e676c653a207377617053696e676c6520636f6e747261637420656e74657265645377617053696e676c653a207365636f6e64207377617020636f6d706c65746564a264697066735822122080941ec3079be091d45fb57e9e616494fceda68db237b154542148bc330e145364736f6c63430008130033",
  "linkReferences": {},
  "deployedLinkReferences": {}
}