{"contracts/v2/flashMultiTest.sol":{"flashMultiTest":{"abi":[{"inputs":[{"internalType":"address","name":"_owner","type":"address"}],"stateMutability":"nonpayable","type":"constructor"},{"stateMutability":"payable","type":"fallback"},{"inputs":[],"name":"checkOwner","outputs":[{"internalType":"address","name":"","type":"address"}],"stateMutability":"view","type":"function"},{"inputs":[{"internalType":"address","name":"loanFactory","type":"address"},{"internalType":"address","name":"loanRouter","type":"address"},{"internalType":"address","name":"recipientRouter","type":"address"},{"internalType":"address","name":"token0ID","type":"address"},{"internalType":"address","name":"token1ID","type":"address"},{"internalType":"uint256","name":"amount0In","type":"uint256"},{"internalType":"uint256","name":"amount1Out","type":"uint256"},{"internalType":"uint256","name":"amountToRepay","type":"uint256"}],"name":"flashSwap","outputs":[],"stateMutability":"nonpayable","type":"function"},{"inputs":[{"internalType":"uint256","name":"loanAmount","type":"uint256"},{"internalType":"uint256","name":"amount1Repay","type":"uint256"},{"internalType":"uint256","name":"amount1Out","type":"uint256"},{"internalType":"address","name":"loanRouter","type":"address"},{"internalType":"address","name":"recipientRouter","type":"address"},{"internalType":"address[]","name":"path","type":"address[]"}],"name":"getAmounts","outputs":[{"internalType":"uint256","name":"amountOut","type":"uint256"}],"stateMutability":"nonpayable","type":"function"},{"inputs":[],"name":"getK","outputs":[{"internalType":"uint256","name":"k","type":"uint256"}],"stateMutability":"view","type":"function"},{"inputs":[{"internalType":"address","name":"sender","type":"address"},{"internalType":"uint256","name":"amount0","type":"uint256"},{"internalType":"uint256","name":"amount1","type":"uint256"},{"internalType":"bytes","name":"data","type":"bytes"}],"name":"uniswapV2Call","outputs":[],"stateMutability":"nonpayable","type":"function"},{"stateMutability":"payable","type":"receive"}],"evm":{"bytecode":{"linkReferences":{},"object":"608060405234801561001057600080fd5b50604051620024a7380380620024a783398101604081905261003191610056565b600080546001600160a01b0319166001600160a01b0392909216919091179055610086565b60006020828403121561006857600080fd5b81516001600160a01b038116811461007f57600080fd5b9392505050565b61241180620000966000396000f3fe60806040526004361061004b5760003560e01c806310d1e85c14610054578063601a9e6214610074578063cdbce03d146100a7578063de60dce4146100cf578063ee39e7a0146100ef57005b3661005257005b005b34801561006057600080fd5b5061005261006f366004611d76565b610104565b34801561008057600080fd5b5061009461008f366004611e77565b610aff565b6040519081526020015b60405180910390f35b3480156100b357600080fd5b506000546040516001600160a01b03909116815260200161009e565b3480156100db57600080fd5b506100526100ea366004611f59565b611185565b3480156100fb57600080fd5b5061009461197a565b61013a604051806040016040528060158152602001741d5b9a5cddd85c158c90d85b1b08115b9d195c9959605a1b815250611a19565b60408051600280825260608201835260009260208301908036833701905050905061018e604051806040016040528060128152602001714465636f64696e67204c6f616e204461746160701b815250611a19565b6000808080806101a087890189611fe3565b945094509450945094506101dc60405180604001604052806011815260200170131bd85b8811185d1848111958dbd91959607a1b815250611a19565b336001600160a01b0316630dfe16816040518163ffffffff1660e01b8152600401602060405180830381865afa15801561021a573d6000803e3d6000fd5b505050506040513d601f19601f8201168201806040525081019061023e919061203e565b8660008151811061025157610251612062565b60200260200101906001600160a01b031690816001600160a01b031681525050336001600160a01b031663d21220a76040518163ffffffff1660e01b8152600401602060405180830381865afa1580156102af573d6000803e3d6000fd5b505050506040513d601f19601f820116820180604052508101906102d3919061203e565b866001815181106102e6576102e6612062565b60200260200101906001600160a01b031690816001600160a01b031681525050846001600160a01b031663e6a439058760008151811061032857610328612062565b60200260200101518860018151811061034357610343612062565b60200260200101516040518363ffffffff1660e01b815260040161037d9291906001600160a01b0392831681529116602082015260400190565b602060405180830381865afa15801561039a573d6000803e3d6000fd5b505050506040513d601f19601f820116820180604052508101906103be919061203e565b600180546001600160a01b0319166001600160a01b039290921691909117905560006103e861197a565b90506104296040518060400160405280601781526020017f556e6973776170204b204265666f726520537761703a2000000000000000000081525082611a5f565b60408051808201909152601a81527f4c6f616e506f6f6c20616464726573733a3a3a3a3a3a3a3a3a20000000000000602082015260015461047391906001600160a01b0316611aa8565b6104b26040518060400160405280601a81526020017f54617267657420616464726573733a3a3a3a3a3a3a3a3a3a3a2000000000000081525030611aa8565b6104f16040518060400160405280601a81526020017f6d73672e73656e64657220616464726573733a3a3a3a3a3a3a2000000000000081525033611aa8565b6001546001600160a01b031633146105465760405162461bcd60e51b8152602060048201526013602482015272115c9c9bdc8e88155b985d5d1a1bdc9a5e9959606a1b60448201526064015b60405180910390fd5b6001600160a01b038c1630146105925760405162461bcd60e51b815260206004820152601160248201527022b93937b91d102737ba1039b2b73232b960791b604482015260640161053d565b8a158061059d575089155b6105e25760405162461bcd60e51b81526020600482015260166024820152754572726f723a20496e76616c696420616d6f756e747360501b604482015260640161053d565b6000876000815181106105f7576105f7612062565b6020026020010151905060008860018151811061061657610616612062565b6020026020010151905061066c6040518060400160405280601081526020016f02a37b5b2b7181030b2323932b9b99d160851b8152508a60008151811061065f5761065f612062565b6020026020010151611aa8565b6106ab6040518060400160405280601081526020016f02a37b5b2b7189030b2323932b9b99d160851b8152508a60018151811061065f5761065f612062565b604080518082018252601d81527f4e657720746f6b656e302062616c616e636520286c6f616e6564293a20000000602082015290516370a0823160e01b815230600482015261075091906001600160a01b038516906370a08231906024015b602060405180830381865afa158015610727573d6000803e3d6000fd5b505050506040513d601f19601f8201168201806040525081019061074b9190612078565b611a5f565b6107716040518060600160405280602981526020016123b360299139611a19565b60405163095ea7b360e01b81526001600160a01b038781166004830152602482018f905283169063095ea7b3906044016020604051808303816000875af11580156107c0573d6000803e3d6000fd5b505050506040513d601f19601f820116820180604052508101906107e49190612091565b5061084f60405180604001604052806012815260200171020b8383937bb32b2103a37903a3930b232960751b8152508e6040518060400160405280601d81526020017f206f6620746f6b656e30206f6e20726563697069656e74526f75746572000000815250611aed565b604080518082018252601c81527f62616c616e636520546f6b656e303a3a3a3a3a3a3a3a3a3a3a3a3a2000000000602082015290516370a0823160e01b81523060048201526108b291906001600160a01b038516906370a082319060240161070a565b604080518082018252601c81527f62616c616e636520546f6b656e313a3a3a3a3a3a3a3a3a3a3a3a3a2000000000602082015290516370a0823160e01b815230600482015261091591906001600160a01b038416906370a082319060240161070a565b60006109258e86888b8b8f610aff565b90506109666040518060400160405280601c81526020017f416d6f756e74206f75742061667465722072657061796d656e743a200000000081525082611a5f565b604080518082018252601c81527f4e65772062616c616e6365206f6620746f6b656e313a3a3a3a3a3a2000000000602082015290516370a0823160e01b81523060048201526109c991906001600160a01b038516906370a082319060240161070a565b6000546040516370a0823160e01b81523060048201526001600160a01b038481169263a9059cbb9291169083906370a0823190602401602060405180830381865afa158015610a1c573d6000803e3d6000fd5b505050506040513d601f19601f82011682018060405250810190610a409190612078565b6040516001600160e01b031960e085901b1681526001600160a01b03909216600483015260248201526044016020604051808303816000875af1158015610a8b573d6000803e3d6000fd5b505050506040513d601f19601f82011682018060405250810190610aaf9190612091565b50610aee6040518060400160405280601b81526020017f5472616e7366657272656420746f6b656e3120746f206f776e65720000000000815250611a19565b505050505050505050505050505050565b6000610b346040518060400160405280601281526020017119d95d105b5bdd5b9d1cc8115b9d195c995960721b815250611a19565b600082600081518110610b4957610b49612062565b60200260200101519050600083600181518110610b6857610b68612062565b6020026020010151905060004361012c610b8291906120c9565b90506000610b918b8988611b39565b9050610bec6040518060400160405280601a81526020017f52657061796d656e742063616c63756c617465643a3a3a3a3a2000000000000081525082600081518110610bdf57610bdf612062565b6020026020010151611a5f565b610c2b6040518060400160405280601a81526020017f52657061796d656e742065787065637465643a3a3a3a3a3a3a200000000000008152508b611a5f565b610c6a6040518060400160405280601a81526020017f4d494e494d554d20416d6f756e74312065787065637465643a200000000000008152508a611a5f565b610cc060405180604001604052806009815260200168029bbb0b83834b733960bd1b8152508c6040518060400160405280601281526020017120746f6b656e3020666f7220746f6b656e3160701b815250611aed565b866001600160a01b03166338ed17398c83600081518110610ce357610ce3612062565b60200260200101518930876040518663ffffffff1660e01b8152600401610d0e959493929190612120565b6000604051808303816000875af1158015610d2d573d6000803e3d6000fd5b505050506040513d6000823e601f3d908101601f19168201604052610d55919081019061215c565b600181518110610d6757610d67612062565b60200260200101519450610da16040518060400160405280600f81526020016e53776170203120636f6d706c65746560881b815250611a19565b610dd860405180604001604052806015815260200174020b6b7bab73a1037baba103932b1b4b2bb32b21d1605d1b81525086611a5f565b610e0f60405180604001604052806015815260200174020b6b7bab73a1037baba1032bc3832b1ba32b21d1605d1b8152508a611a5f565b610e466040518060400160405280601581526020017402932b830bcb6b2b73a1032bc3832b1ba32b21d1d1605d1b8152508b611a5f565b610e8a6040518060400160405280601581526020017402932b830bcb6b2b73a1031b0b631bab0ba32b21d1605d1b81525082600081518110610bdf57610bdf612062565b60405163095ea7b360e01b8152336004820152602481018b90526001600160a01b0384169063095ea7b3906044016020604051808303816000875af1158015610ed7573d6000803e3d6000fd5b505050506040513d601f19601f82011682018060405250810190610efb9190612091565b50610f5360405180604001604052806012815260200171020b8383937bb32b2103a37903a3930b232960751b8152508b6040518060400160405280600a815260200169206f6620746f6b656e3160b01b815250611aed565b826001600160a01b03166323b872dd303384600081518110610f7757610f77612062565b60209081029190910101516040516001600160e01b031960e086901b1681526001600160a01b03938416600482015292909116602483015260448201526064016020604051808303816000875af1158015610fd6573d6000803e3d6000fd5b505050506040513d601f19601f82011682018060405250810190610ffa9190612091565b506110576040518060400160405280600b81526020016a02a3930b739b332b932b2160ad1b8152508b60405180604001604052806016815260200175081bd9881d1bdad95b8c481d1bc81b1bd85b941bdbdb60521b815250611aed565b604080518082018252601081526f03130b630b731b2902a37b5b2b7181d160851b602082015290516370a0823160e01b81523060048201526110ad91906001600160a01b038716906370a082319060240161070a565b604080518082018252601081526f03130b630b731b2902a37b5b2b7189d160851b602082015290516370a0823160e01b815230600482015261110391906001600160a01b038616906370a082319060240161070a565b600061110d61197a565b90506111476040518060400160405280601681526020017502ab734b9bbb0b810259020b33a32b91029bbb0b81d160551b81525082611a5f565b6111766040518060400160405280600e81526020016d526570617920636f6d706c65746560901b815250611a19565b50505050509695505050505050565b6111c36040518060400160405280601f81526020017f436f6e747261637420666c6173684d756c74695465737420456e746572656400815250611a19565b604080518082019091526012815271027bbb732b91d1d1d1d1d1d1d1d1d1d1d1d160751b602082015260005461120291906001600160a01b0316611aa8565b6112366040518060400160405280601281526020017102637b0b7102330b1ba37b93c9d1d1d1d1d160751b81525089611aa8565b61126a6040518060400160405280601281526020017102637b0b7102937baba32b91d1d1d1d1d1d160751b81525088611aa8565b61129e6040518060400160405280601281526020017102932b1b4b834b2b73a102937baba32b91d160751b81525087611aa8565b6112c86040518060400160405280600881526020016702a37b5b2b7181d160c51b81525086611aa8565b6112f26040518060400160405280600881526020016702a37b5b2b7189d160c51b81525085611aa8565b61132660405180604001604052806012815260200171020b6b7bab73a1824b71d1d1d1d1d1d1d1d160751b81525084611a5f565b61135a60405180604001604052806012815260200171020b6b7bab73a18a7baba1d1d1d1d1d1d1d160751b81525083611a5f565b61138e60405180604001604052806012815260200171020b6b7bab73a2a37a932b830bc9d1d1d1d160751b81525082611a5f565b6000546001600160a01b031633146113f95760405162461bcd60e51b815260206004820152602860248201527f4572726f723a204f6e6c79206f776e65722063616e2063616c6c207468697320604482015267333ab731ba34b7b760c11b606482015260840161053d565b60405163e6a4390560e01b81526001600160a01b038681166004830152858116602483015289169063e6a4390590604401602060405180830381865afa158015611447573d6000803e3d6000fd5b505050506040513d601f19601f8201168201806040525081019061146b919061203e565b600180546001600160a01b0319166001600160a01b0392909216919091179055604080518082019091526015815274030b6b7bab73a1824b7103932b8bab2b9ba32b21d1605d1b60208201526114c19084611a5f565b6114f860405180604001604052806015815260200174030b6b7bab73a18a7baba1032bc3832b1ba32b21d1605d1b81525083611a5f565b604080518082018252601e81527f436f6e74726163742042616c616e6365204265666f726520537761703a200000602082015290516370a0823160e01b815230600482015261155b91906001600160a01b038816906370a082319060240161070a565b60408051808201909152600e81526d02830b4b91030b2323932b9b99d160951b602082015260015461159691906001600160a01b0316611aa8565b6001546001600160a01b03166115ee5760405162461bcd60e51b815260206004820152601a60248201527f4572726f723a205061697220646f6573206e6f74206578697374000000000000604482015260640161053d565b60008311806115fd5750600082115b61168b5760405162461bcd60e51b815260206004820152605360248201527f4572726f723a20496e76616c696420616d6f756e747330206f7220616d6f756e60448201527f7473313a20616d6f756e7430496e206f7220616d6f756e74314f7574206d75736064820152720742062652067726561746572207468616e203606c1b608482015260a40161053d565b604080516001600160a01b038a8116602083015289811682840152881660608201526080810184905260a0808201849052825180830390910181526101008201909252600c60c082019081526b11185d1848195b98dbd9195960a21b60e0909201919091526116f990611a19565b60015460405163095ea7b360e01b81526001600160a01b039182166004820152602481018690529087169063095ea7b3906044016020604051808303816000875af115801561174c573d6000803e3d6000fd5b505050506040513d601f19601f820116820180604052508101906117709190612091565b5060015460405163022c0d9f60e01b81526001600160a01b039091169063022c0d9f906117a890879060009030908790600401612233565b600060405180830381600087803b1580156117c257600080fd5b505af11580156117d6573d6000803e3d6000fd5b5050604080518082018252601e81527f4e657720436f6e74726163742042616c616e63652028546f6b656e30293a0000602082015290516370a0823160e01b815230600482015261183e93509091506001600160a01b038916906370a082319060240161070a565b604080518082018252601e81527f4e657720436f6e74726163742042616c616e63652028546f6b656e31293a0000602082015290516370a0823160e01b81523060048201526118a191906001600160a01b038816906370a082319060240161070a565b604080518082018252601e81527f4e6577204f776e65722042616c616e63652028546f6b656e30293a3a3a3a0000602082015260005491516370a0823160e01b81526001600160a01b039283166004820152611908928916906370a082319060240161070a565b604080518082018252601e81527f4e6577204f776e65722042616c616e63652028546f6b656e31293a3a3a3a0000602082015260005491516370a0823160e01b81526001600160a01b03928316600482015261196f928816906370a082319060240161070a565b505050505050505050565b6000806000600160009054906101000a90046001600160a01b03166001600160a01b0316630902f1ac6040518163ffffffff1660e01b8152600401606060405180830381865afa1580156119d2573d6000803e3d6000fd5b505050506040513d601f19601f820116820180604052508101906119f69190612286565b509092509050611a126001600160701b03808416908316611ccf565b9250505090565b611a5c81604051602401611a2d91906122d6565b60408051601f198184030181529190526020810180516001600160e01b031663104c13eb60e21b179052611d3c565b50565b611aa48282604051602401611a759291906122e9565b60408051601f198184030181529190526020810180516001600160e01b0316632d839cb360e21b179052611d3c565b5050565b611aa48282604051602401611abe92919061230b565b60408051601f198184030181529190526020810180516001600160e01b031663319af33360e01b179052611d3c565b611b34838383604051602401611b0593929190612335565b60408051601f198184030181529190526020810180516001600160e01b0316635970e08960e01b179052611d3c565b505050565b6060336001600160a01b031663d21220a76040518163ffffffff1660e01b8152600401602060405180830381865afa158015611b79573d6000803e3d6000fd5b505050506040513d601f19601f82011682018060405250810190611b9d919061203e565b82600081518110611bb057611bb0612062565b60200260200101906001600160a01b031690816001600160a01b031681525050336001600160a01b0316630dfe16816040518163ffffffff1660e01b8152600401602060405180830381865afa158015611c0e573d6000803e3d6000fd5b505050506040513d601f19601f82011682018060405250810190611c32919061203e565b82600181518110611c4557611c45612062565b6001600160a01b0392831660209182029290920101526040516307c0329d60e21b815290841690631f00ca7490611c829087908690600401612360565b600060405180830381865afa158015611c9f573d6000803e3d6000fd5b505050506040513d6000823e601f3d908101601f19168201604052611cc7919081019061215c565b949350505050565b6000811580611cf357508282611ce58183612379565b9250611cf19083612390565b145b611d365760405162461bcd60e51b815260206004820152601460248201527364732d6d6174682d6d756c2d6f766572666c6f7760601b604482015260640161053d565b92915050565b611a5c8160006a636f6e736f6c652e6c6f679050600080835160208501845afa505050565b6001600160a01b0381168114611a5c57600080fd5b600080600080600060808688031215611d8e57600080fd5b8535611d9981611d61565b94506020860135935060408601359250606086013567ffffffffffffffff80821115611dc457600080fd5b818801915088601f830112611dd857600080fd5b813581811115611de757600080fd5b896020828501011115611df957600080fd5b9699959850939650602001949392505050565b634e487b7160e01b600052604160045260246000fd5b604051601f8201601f1916810167ffffffffffffffff81118282101715611e4b57611e4b611e0c565b604052919050565b600067ffffffffffffffff821115611e6d57611e6d611e0c565b5060051b60200190565b60008060008060008060c08789031215611e9057600080fd5b863595506020808801359550604088013594506060880135611eb181611d61565b93506080880135611ec181611d61565b925060a088013567ffffffffffffffff811115611edd57600080fd5b8801601f81018a13611eee57600080fd5b8035611f01611efc82611e53565b611e22565b81815260059190911b8201830190838101908c831115611f2057600080fd5b928401925b82841015611f47578335611f3881611d61565b82529284019290840190611f25565b80955050505050509295509295509295565b600080600080600080600080610100898b031215611f7657600080fd5b8835611f8181611d61565b97506020890135611f9181611d61565b96506040890135611fa181611d61565b95506060890135611fb181611d61565b94506080890135611fc181611d61565b979a969950949793969560a0850135955060c08501359460e001359350915050565b600080600080600060a08688031215611ffb57600080fd5b853561200681611d61565b9450602086013561201681611d61565b9350604086013561202681611d61565b94979396509394606081013594506080013592915050565b60006020828403121561205057600080fd5b815161205b81611d61565b9392505050565b634e487b7160e01b600052603260045260246000fd5b60006020828403121561208a57600080fd5b5051919050565b6000602082840312156120a357600080fd5b8151801515811461205b57600080fd5b634e487b7160e01b600052601160045260246000fd5b80820180821115611d3657611d366120b3565b600081518084526020808501945080840160005b838110156121155781516001600160a01b0316875295820195908201906001016120f0565b509495945050505050565b85815284602082015260a06040820152600061213f60a08301866120dc565b6001600160a01b0394909416606083015250608001529392505050565b6000602080838503121561216f57600080fd5b825167ffffffffffffffff81111561218657600080fd5b8301601f8101851361219757600080fd5b80516121a5611efc82611e53565b81815260059190911b820183019083810190878311156121c457600080fd5b928401925b828410156121e2578351825292840192908401906121c9565b979650505050505050565b6000815180845260005b81811015612213576020818501810151868301820152016121f7565b506000602082860101526020601f19601f83011685010191505092915050565b84815283602082015260018060a01b038316604082015260806060820152600061226060808301846121ed565b9695505050505050565b80516001600160701b038116811461228157600080fd5b919050565b60008060006060848603121561229b57600080fd5b6122a48461226a565b92506122b26020850161226a565b9150604084015163ffffffff811681146122cb57600080fd5b809150509250925092565b60208152600061205b60208301846121ed565b6040815260006122fc60408301856121ed565b90508260208301529392505050565b60408152600061231e60408301856121ed565b905060018060a01b03831660208301529392505050565b60608152600061234860608301866121ed565b846020840152828103604084015261226081856121ed565b828152604060208201526000611cc760408301846120dc565b8082028115828204841417611d3657611d366120b3565b6000826123ad57634e487b7160e01b600052601260045260246000fd5b50049056fe417070726f76696e6720726563697069656e74526f7574657220746f20747261646520746f6b656e30a2646970667358221220037772f9572efdc7dbbc51dbefc505b2a564b823d2685e76a348dc83a4bd62cc64736f6c63430008130033","opcodes":"PUSH1 0x80 PUSH1 0x40 MSTORE CALLVALUE DUP1 ISZERO PUSH2 0x10 JUMPI PUSH1 0x0 DUP1 REVERT JUMPDEST POP PUSH1 0x40 MLOAD PUSH3 0x24A7 CODESIZE SUB DUP1 PUSH3 0x24A7 DUP4 CODECOPY DUP2 ADD PUSH1 0x40 DUP2 SWAP1 MSTORE PUSH2 0x31 SWAP2 PUSH2 0x56 JUMP JUMPDEST PUSH1 0x0 DUP1 SLOAD PUSH1 0x1 PUSH1 0x1 PUSH1 0xA0 SHL SUB NOT AND PUSH1 0x1 PUSH1 0x1 PUSH1 0xA0 SHL SUB SWAP3 SWAP1 SWAP3 AND SWAP2 SWAP1 SWAP2 OR SWAP1 SSTORE PUSH2 0x86 JUMP JUMPDEST PUSH1 0x0 PUSH1 0x20 DUP3 DUP5 SUB SLT ISZERO PUSH2 0x68 JUMPI PUSH1 0x0 DUP1 REVERT JUMPDEST DUP2 MLOAD PUSH1 0x1 PUSH1 0x1 PUSH1 0xA0 SHL SUB DUP2 AND DUP2 EQ PUSH2 0x7F JUMPI PUSH1 0x0 DUP1 REVERT JUMPDEST SWAP4 SWAP3 POP POP POP JUMP JUMPDEST PUSH2 0x2411 DUP1 PUSH3 0x96 PUSH1 0x0 CODECOPY PUSH1 0x0 RETURN INVALID PUSH1 0x80 PUSH1 0x40 MSTORE PUSH1 0x4 CALLDATASIZE LT PUSH2 0x4B JUMPI PUSH1 0x0 CALLDATALOAD PUSH1 0xE0 SHR DUP1 PUSH4 0x10D1E85C EQ PUSH2 0x54 JUMPI DUP1 PUSH4 0x601A9E62 EQ PUSH2 0x74 JUMPI DUP1 PUSH4 0xCDBCE03D EQ PUSH2 0xA7 JUMPI DUP1 PUSH4 0xDE60DCE4 EQ PUSH2 0xCF JUMPI DUP1 PUSH4 0xEE39E7A0 EQ PUSH2 0xEF JUMPI STOP JUMPDEST CALLDATASIZE PUSH2 0x52 JUMPI STOP JUMPDEST STOP JUMPDEST CALLVALUE DUP1 ISZERO PUSH2 0x60 JUMPI PUSH1 0x0 DUP1 REVERT JUMPDEST POP PUSH2 0x52 PUSH2 0x6F CALLDATASIZE PUSH1 0x4 PUSH2 0x1D76 JUMP JUMPDEST PUSH2 0x104 JUMP JUMPDEST CALLVALUE DUP1 ISZERO PUSH2 0x80 JUMPI PUSH1 0x0 DUP1 REVERT JUMPDEST POP PUSH2 0x94 PUSH2 0x8F CALLDATASIZE PUSH1 0x4 PUSH2 0x1E77 JUMP JUMPDEST PUSH2 0xAFF JUMP JUMPDEST PUSH1 0x40 MLOAD SWAP1 DUP2 MSTORE PUSH1 0x20 ADD JUMPDEST PUSH1 0x40 MLOAD DUP1 SWAP2 SUB SWAP1 RETURN JUMPDEST CALLVALUE DUP1 ISZERO PUSH2 0xB3 JUMPI PUSH1 0x0 DUP1 REVERT JUMPDEST POP PUSH1 0x0 SLOAD PUSH1 0x40 MLOAD PUSH1 0x1 PUSH1 0x1 PUSH1 0xA0 SHL SUB SWAP1 SWAP2 AND DUP2 MSTORE PUSH1 0x20 ADD PUSH2 0x9E JUMP JUMPDEST CALLVALUE DUP1 ISZERO PUSH2 0xDB JUMPI PUSH1 0x0 DUP1 REVERT JUMPDEST POP PUSH2 0x52 PUSH2 0xEA CALLDATASIZE PUSH1 0x4 PUSH2 0x1F59 JUMP JUMPDEST PUSH2 0x1185 JUMP JUMPDEST CALLVALUE DUP1 ISZERO PUSH2 0xFB JUMPI PUSH1 0x0 DUP1 REVERT JUMPDEST POP PUSH2 0x94 PUSH2 0x197A JUMP JUMPDEST PUSH2 0x13A PUSH1 0x40 MLOAD DUP1 PUSH1 0x40 ADD PUSH1 0x40 MSTORE DUP1 PUSH1 0x15 DUP2 MSTORE PUSH1 0x20 ADD PUSH21 0x1D5B9A5CDDD85C158C90D85B1B08115B9D195C9959 PUSH1 0x5A SHL DUP2 MSTORE POP PUSH2 0x1A19 JUMP JUMPDEST PUSH1 0x40 DUP1 MLOAD PUSH1 0x2 DUP1 DUP3 MSTORE PUSH1 0x60 DUP3 ADD DUP4 MSTORE PUSH1 0x0 SWAP3 PUSH1 0x20 DUP4 ADD SWAP1 DUP1 CALLDATASIZE DUP4 CALLDATACOPY ADD SWAP1 POP POP SWAP1 POP PUSH2 0x18E PUSH1 0x40 MLOAD DUP1 PUSH1 0x40 ADD PUSH1 0x40 MSTORE DUP1 PUSH1 0x12 DUP2 MSTORE PUSH1 0x20 ADD PUSH18 0x4465636F64696E67204C6F616E2044617461 PUSH1 0x70 SHL DUP2 MSTORE POP PUSH2 0x1A19 JUMP JUMPDEST PUSH1 0x0 DUP1 DUP1 DUP1 DUP1 PUSH2 0x1A0 DUP8 DUP10 ADD DUP10 PUSH2 0x1FE3 JUMP JUMPDEST SWAP5 POP SWAP5 POP SWAP5 POP SWAP5 POP SWAP5 POP PUSH2 0x1DC PUSH1 0x40 MLOAD DUP1 PUSH1 0x40 ADD PUSH1 0x40 MSTORE DUP1 PUSH1 0x11 DUP2 MSTORE PUSH1 0x20 ADD PUSH17 0x131BD85B8811185D1848111958DBD91959 PUSH1 0x7A SHL DUP2 MSTORE POP PUSH2 0x1A19 JUMP JUMPDEST CALLER PUSH1 0x1 PUSH1 0x1 PUSH1 0xA0 SHL SUB AND PUSH4 0xDFE1681 PUSH1 0x40 MLOAD DUP2 PUSH4 0xFFFFFFFF AND PUSH1 0xE0 SHL DUP2 MSTORE PUSH1 0x4 ADD PUSH1 0x20 PUSH1 0x40 MLOAD DUP1 DUP4 SUB DUP2 DUP7 GAS STATICCALL ISZERO DUP1 ISZERO PUSH2 0x21A JUMPI RETURNDATASIZE PUSH1 0x0 DUP1 RETURNDATACOPY RETURNDATASIZE PUSH1 0x0 REVERT JUMPDEST POP POP POP POP PUSH1 0x40 MLOAD RETURNDATASIZE PUSH1 0x1F NOT PUSH1 0x1F DUP3 ADD AND DUP3 ADD DUP1 PUSH1 0x40 MSTORE POP DUP2 ADD SWAP1 PUSH2 0x23E SWAP2 SWAP1 PUSH2 0x203E JUMP JUMPDEST DUP7 PUSH1 0x0 DUP2 MLOAD DUP2 LT PUSH2 0x251 JUMPI PUSH2 0x251 PUSH2 0x2062 JUMP JUMPDEST PUSH1 0x20 MUL PUSH1 0x20 ADD ADD SWAP1 PUSH1 0x1 PUSH1 0x1 PUSH1 0xA0 SHL SUB AND SWAP1 DUP2 PUSH1 0x1 PUSH1 0x1 PUSH1 0xA0 SHL SUB AND DUP2 MSTORE POP POP CALLER PUSH1 0x1 PUSH1 0x1 PUSH1 0xA0 SHL SUB AND PUSH4 0xD21220A7 PUSH1 0x40 MLOAD DUP2 PUSH4 0xFFFFFFFF AND PUSH1 0xE0 SHL DUP2 MSTORE PUSH1 0x4 ADD PUSH1 0x20 PUSH1 0x40 MLOAD DUP1 DUP4 SUB DUP2 DUP7 GAS STATICCALL ISZERO DUP1 ISZERO PUSH2 0x2AF JUMPI RETURNDATASIZE PUSH1 0x0 DUP1 RETURNDATACOPY RETURNDATASIZE PUSH1 0x0 REVERT JUMPDEST POP POP POP POP PUSH1 0x40 MLOAD RETURNDATASIZE PUSH1 0x1F NOT PUSH1 0x1F DUP3 ADD AND DUP3 ADD DUP1 PUSH1 0x40 MSTORE POP DUP2 ADD SWAP1 PUSH2 0x2D3 SWAP2 SWAP1 PUSH2 0x203E JUMP JUMPDEST DUP7 PUSH1 0x1 DUP2 MLOAD DUP2 LT PUSH2 0x2E6 JUMPI PUSH2 0x2E6 PUSH2 0x2062 JUMP JUMPDEST PUSH1 0x20 MUL PUSH1 0x20 ADD ADD SWAP1 PUSH1 0x1 PUSH1 0x1 PUSH1 0xA0 SHL SUB AND SWAP1 DUP2 PUSH1 0x1 PUSH1 0x1 PUSH1 0xA0 SHL SUB AND DUP2 MSTORE POP POP DUP5 PUSH1 0x1 PUSH1 0x1 PUSH1 0xA0 SHL SUB AND PUSH4 0xE6A43905 DUP8 PUSH1 0x0 DUP2 MLOAD DUP2 LT PUSH2 0x328 JUMPI PUSH2 0x328 PUSH2 0x2062 JUMP JUMPDEST PUSH1 0x20 MUL PUSH1 0x20 ADD ADD MLOAD DUP9 PUSH1 0x1 DUP2 MLOAD DUP2 LT PUSH2 0x343 JUMPI PUSH2 0x343 PUSH2 0x2062 JUMP JUMPDEST PUSH1 0x20 MUL PUSH1 0x20 ADD ADD MLOAD PUSH1 0x40 MLOAD DUP4 PUSH4 0xFFFFFFFF AND PUSH1 0xE0 SHL DUP2 MSTORE PUSH1 0x4 ADD PUSH2 0x37D SWAP3 SWAP2 SWAP1 PUSH1 0x1 PUSH1 0x1 PUSH1 0xA0 SHL SUB SWAP3 DUP4 AND DUP2 MSTORE SWAP2 AND PUSH1 0x20 DUP3 ADD MSTORE PUSH1 0x40 ADD SWAP1 JUMP JUMPDEST PUSH1 0x20 PUSH1 0x40 MLOAD DUP1 DUP4 SUB DUP2 DUP7 GAS STATICCALL ISZERO DUP1 ISZERO PUSH2 0x39A JUMPI RETURNDATASIZE PUSH1 0x0 DUP1 RETURNDATACOPY RETURNDATASIZE PUSH1 0x0 REVERT JUMPDEST POP POP POP POP PUSH1 0x40 MLOAD RETURNDATASIZE PUSH1 0x1F NOT PUSH1 0x1F DUP3 ADD AND DUP3 ADD DUP1 PUSH1 0x40 MSTORE POP DUP2 ADD SWAP1 PUSH2 0x3BE SWAP2 SWAP1 PUSH2 0x203E JUMP JUMPDEST PUSH1 0x1 DUP1 SLOAD PUSH1 0x1 PUSH1 0x1 PUSH1 0xA0 SHL SUB NOT AND PUSH1 0x1 PUSH1 0x1 PUSH1 0xA0 SHL SUB SWAP3 SWAP1 SWAP3 AND SWAP2 SWAP1 SWAP2 OR SWAP1 SSTORE PUSH1 0x0 PUSH2 0x3E8 PUSH2 0x197A JUMP JUMPDEST SWAP1 POP PUSH2 0x429 PUSH1 0x40 MLOAD DUP1 PUSH1 0x40 ADD PUSH1 0x40 MSTORE DUP1 PUSH1 0x17 DUP2 MSTORE PUSH1 0x20 ADD PUSH32 0x556E6973776170204B204265666F726520537761703A20000000000000000000 DUP2 MSTORE POP DUP3 PUSH2 0x1A5F JUMP JUMPDEST PUSH1 0x40 DUP1 MLOAD DUP1 DUP3 ADD SWAP1 SWAP2 MSTORE PUSH1 0x1A DUP2 MSTORE PUSH32 0x4C6F616E506F6F6C20616464726573733A3A3A3A3A3A3A3A3A20000000000000 PUSH1 0x20 DUP3 ADD MSTORE PUSH1 0x1 SLOAD PUSH2 0x473 SWAP2 SWAP1 PUSH1 0x1 PUSH1 0x1 PUSH1 0xA0 SHL SUB AND PUSH2 0x1AA8 JUMP JUMPDEST PUSH2 0x4B2 PUSH1 0x40 MLOAD DUP1 PUSH1 0x40 ADD PUSH1 0x40 MSTORE DUP1 PUSH1 0x1A DUP2 MSTORE PUSH1 0x20 ADD PUSH32 0x54617267657420616464726573733A3A3A3A3A3A3A3A3A3A3A20000000000000 DUP2 MSTORE POP ADDRESS PUSH2 0x1AA8 JUMP JUMPDEST PUSH2 0x4F1 PUSH1 0x40 MLOAD DUP1 PUSH1 0x40 ADD PUSH1 0x40 MSTORE DUP1 PUSH1 0x1A DUP2 MSTORE PUSH1 0x20 ADD PUSH32 0x6D73672E73656E64657220616464726573733A3A3A3A3A3A3A20000000000000 DUP2 MSTORE POP CALLER PUSH2 0x1AA8 JUMP JUMPDEST PUSH1 0x1 SLOAD PUSH1 0x1 PUSH1 0x1 PUSH1 0xA0 SHL SUB AND CALLER EQ PUSH2 0x546 JUMPI PUSH1 0x40 MLOAD PUSH3 0x461BCD PUSH1 0xE5 SHL DUP2 MSTORE PUSH1 0x20 PUSH1 0x4 DUP3 ADD MSTORE PUSH1 0x13 PUSH1 0x24 DUP3 ADD MSTORE PUSH19 0x115C9C9BDC8E88155B985D5D1A1BDC9A5E9959 PUSH1 0x6A SHL PUSH1 0x44 DUP3 ADD MSTORE PUSH1 0x64 ADD JUMPDEST PUSH1 0x40 MLOAD DUP1 SWAP2 SUB SWAP1 REVERT JUMPDEST PUSH1 0x1 PUSH1 0x1 PUSH1 0xA0 SHL SUB DUP13 AND ADDRESS EQ PUSH2 0x592 JUMPI PUSH1 0x40 MLOAD PUSH3 0x461BCD PUSH1 0xE5 SHL DUP2 MSTORE PUSH1 0x20 PUSH1 0x4 DUP3 ADD MSTORE PUSH1 0x11 PUSH1 0x24 DUP3 ADD MSTORE PUSH17 0x22B93937B91D102737BA1039B2B73232B9 PUSH1 0x79 SHL PUSH1 0x44 DUP3 ADD MSTORE PUSH1 0x64 ADD PUSH2 0x53D JUMP JUMPDEST DUP11 ISZERO DUP1 PUSH2 0x59D JUMPI POP DUP10 ISZERO JUMPDEST PUSH2 0x5E2 JUMPI PUSH1 0x40 MLOAD PUSH3 0x461BCD PUSH1 0xE5 SHL DUP2 MSTORE PUSH1 0x20 PUSH1 0x4 DUP3 ADD MSTORE PUSH1 0x16 PUSH1 0x24 DUP3 ADD MSTORE PUSH22 0x4572726F723A20496E76616C696420616D6F756E7473 PUSH1 0x50 SHL PUSH1 0x44 DUP3 ADD MSTORE PUSH1 0x64 ADD PUSH2 0x53D JUMP JUMPDEST PUSH1 0x0 DUP8 PUSH1 0x0 DUP2 MLOAD DUP2 LT PUSH2 0x5F7 JUMPI PUSH2 0x5F7 PUSH2 0x2062 JUMP JUMPDEST PUSH1 0x20 MUL PUSH1 0x20 ADD ADD MLOAD SWAP1 POP PUSH1 0x0 DUP9 PUSH1 0x1 DUP2 MLOAD DUP2 LT PUSH2 0x616 JUMPI PUSH2 0x616 PUSH2 0x2062 JUMP JUMPDEST PUSH1 0x20 MUL PUSH1 0x20 ADD ADD MLOAD SWAP1 POP PUSH2 0x66C PUSH1 0x40 MLOAD DUP1 PUSH1 0x40 ADD PUSH1 0x40 MSTORE DUP1 PUSH1 0x10 DUP2 MSTORE PUSH1 0x20 ADD PUSH16 0x2A37B5B2B7181030B2323932B9B99D1 PUSH1 0x85 SHL DUP2 MSTORE POP DUP11 PUSH1 0x0 DUP2 MLOAD DUP2 LT PUSH2 0x65F JUMPI PUSH2 0x65F PUSH2 0x2062 JUMP JUMPDEST PUSH1 0x20 MUL PUSH1 0x20 ADD ADD MLOAD PUSH2 0x1AA8 JUMP JUMPDEST PUSH2 0x6AB PUSH1 0x40 MLOAD DUP1 PUSH1 0x40 ADD PUSH1 0x40 MSTORE DUP1 PUSH1 0x10 DUP2 MSTORE PUSH1 0x20 ADD PUSH16 0x2A37B5B2B7189030B2323932B9B99D1 PUSH1 0x85 SHL DUP2 MSTORE POP DUP11 PUSH1 0x1 DUP2 MLOAD DUP2 LT PUSH2 0x65F JUMPI PUSH2 0x65F PUSH2 0x2062 JUMP JUMPDEST PUSH1 0x40 DUP1 MLOAD DUP1 DUP3 ADD DUP3 MSTORE PUSH1 0x1D DUP2 MSTORE PUSH32 0x4E657720746F6B656E302062616C616E636520286C6F616E6564293A20000000 PUSH1 0x20 DUP3 ADD MSTORE SWAP1 MLOAD PUSH4 0x70A08231 PUSH1 0xE0 SHL DUP2 MSTORE ADDRESS PUSH1 0x4 DUP3 ADD MSTORE PUSH2 0x750 SWAP2 SWAP1 PUSH1 0x1 PUSH1 0x1 PUSH1 0xA0 SHL SUB DUP6 AND SWAP1 PUSH4 0x70A08231 SWAP1 PUSH1 0x24 ADD JUMPDEST PUSH1 0x20 PUSH1 0x40 MLOAD DUP1 DUP4 SUB DUP2 DUP7 GAS STATICCALL ISZERO DUP1 ISZERO PUSH2 0x727 JUMPI RETURNDATASIZE PUSH1 0x0 DUP1 RETURNDATACOPY RETURNDATASIZE PUSH1 0x0 REVERT JUMPDEST POP POP POP POP PUSH1 0x40 MLOAD RETURNDATASIZE PUSH1 0x1F NOT PUSH1 0x1F DUP3 ADD AND DUP3 ADD DUP1 PUSH1 0x40 MSTORE POP DUP2 ADD SWAP1 PUSH2 0x74B SWAP2 SWAP1 PUSH2 0x2078 JUMP JUMPDEST PUSH2 0x1A5F JUMP JUMPDEST PUSH2 0x771 PUSH1 0x40 MLOAD DUP1 PUSH1 0x60 ADD PUSH1 0x40 MSTORE DUP1 PUSH1 0x29 DUP2 MSTORE PUSH1 0x20 ADD PUSH2 0x23B3 PUSH1 0x29 SWAP2 CODECOPY PUSH2 0x1A19 JUMP JUMPDEST PUSH1 0x40 MLOAD PUSH4 0x95EA7B3 PUSH1 0xE0 SHL DUP2 MSTORE PUSH1 0x1 PUSH1 0x1 PUSH1 0xA0 SHL SUB DUP8 DUP2 AND PUSH1 0x4 DUP4 ADD MSTORE PUSH1 0x24 DUP3 ADD DUP16 SWAP1 MSTORE DUP4 AND SWAP1 PUSH4 0x95EA7B3 SWAP1 PUSH1 0x44 ADD PUSH1 0x20 PUSH1 0x40 MLOAD DUP1 DUP4 SUB DUP2 PUSH1 0x0 DUP8 GAS CALL ISZERO DUP1 ISZERO PUSH2 0x7C0 JUMPI RETURNDATASIZE PUSH1 0x0 DUP1 RETURNDATACOPY RETURNDATASIZE PUSH1 0x0 REVERT JUMPDEST POP POP POP POP PUSH1 0x40 MLOAD RETURNDATASIZE PUSH1 0x1F NOT PUSH1 0x1F DUP3 ADD AND DUP3 ADD DUP1 PUSH1 0x40 MSTORE POP DUP2 ADD SWAP1 PUSH2 0x7E4 SWAP2 SWAP1 PUSH2 0x2091 JUMP JUMPDEST POP PUSH2 0x84F PUSH1 0x40 MLOAD DUP1 PUSH1 0x40 ADD PUSH1 0x40 MSTORE DUP1 PUSH1 0x12 DUP2 MSTORE PUSH1 0x20 ADD PUSH18 0x20B8383937BB32B2103A37903A3930B2329 PUSH1 0x75 SHL DUP2 MSTORE POP DUP15 PUSH1 0x40 MLOAD DUP1 PUSH1 0x40 ADD PUSH1 0x40 MSTORE DUP1 PUSH1 0x1D DUP2 MSTORE PUSH1 0x20 ADD PUSH32 0x206F6620746F6B656E30206F6E20726563697069656E74526F75746572000000 DUP2 MSTORE POP PUSH2 0x1AED JUMP JUMPDEST PUSH1 0x40 DUP1 MLOAD DUP1 DUP3 ADD DUP3 MSTORE PUSH1 0x1C DUP2 MSTORE PUSH32 0x62616C616E636520546F6B656E303A3A3A3A3A3A3A3A3A3A3A3A3A2000000000 PUSH1 0x20 DUP3 ADD MSTORE SWAP1 MLOAD PUSH4 0x70A08231 PUSH1 0xE0 SHL DUP2 MSTORE ADDRESS PUSH1 0x4 DUP3 ADD MSTORE PUSH2 0x8B2 SWAP2 SWAP1 PUSH1 0x1 PUSH1 0x1 PUSH1 0xA0 SHL SUB DUP6 AND SWAP1 PUSH4 0x70A08231 SWAP1 PUSH1 0x24 ADD PUSH2 0x70A JUMP JUMPDEST PUSH1 0x40 DUP1 MLOAD DUP1 DUP3 ADD DUP3 MSTORE PUSH1 0x1C DUP2 MSTORE PUSH32 0x62616C616E636520546F6B656E313A3A3A3A3A3A3A3A3A3A3A3A3A2000000000 PUSH1 0x20 DUP3 ADD MSTORE SWAP1 MLOAD PUSH4 0x70A08231 PUSH1 0xE0 SHL DUP2 MSTORE ADDRESS PUSH1 0x4 DUP3 ADD MSTORE PUSH2 0x915 SWAP2 SWAP1 PUSH1 0x1 PUSH1 0x1 PUSH1 0xA0 SHL SUB DUP5 AND SWAP1 PUSH4 0x70A08231 SWAP1 PUSH1 0x24 ADD PUSH2 0x70A JUMP JUMPDEST PUSH1 0x0 PUSH2 0x925 DUP15 DUP7 DUP9 DUP12 DUP12 DUP16 PUSH2 0xAFF JUMP JUMPDEST SWAP1 POP PUSH2 0x966 PUSH1 0x40 MLOAD DUP1 PUSH1 0x40 ADD PUSH1 0x40 MSTORE DUP1 PUSH1 0x1C DUP2 MSTORE PUSH1 0x20 ADD PUSH32 0x416D6F756E74206F75742061667465722072657061796D656E743A2000000000 DUP2 MSTORE POP DUP3 PUSH2 0x1A5F JUMP JUMPDEST PUSH1 0x40 DUP1 MLOAD DUP1 DUP3 ADD DUP3 MSTORE PUSH1 0x1C DUP2 MSTORE PUSH32 0x4E65772062616C616E6365206F6620746F6B656E313A3A3A3A3A3A2000000000 PUSH1 0x20 DUP3 ADD MSTORE SWAP1 MLOAD PUSH4 0x70A08231 PUSH1 0xE0 SHL DUP2 MSTORE ADDRESS PUSH1 0x4 DUP3 ADD MSTORE PUSH2 0x9C9 SWAP2 SWAP1 PUSH1 0x1 PUSH1 0x1 PUSH1 0xA0 SHL SUB DUP6 AND SWAP1 PUSH4 0x70A08231 SWAP1 PUSH1 0x24 ADD PUSH2 0x70A JUMP JUMPDEST PUSH1 0x0 SLOAD PUSH1 0x40 MLOAD PUSH4 0x70A08231 PUSH1 0xE0 SHL DUP2 MSTORE ADDRESS PUSH1 0x4 DUP3 ADD MSTORE PUSH1 0x1 PUSH1 0x1 PUSH1 0xA0 SHL SUB DUP5 DUP2 AND SWAP3 PUSH4 0xA9059CBB SWAP3 SWAP2 AND SWAP1 DUP4 SWAP1 PUSH4 0x70A08231 SWAP1 PUSH1 0x24 ADD PUSH1 0x20 PUSH1 0x40 MLOAD DUP1 DUP4 SUB DUP2 DUP7 GAS STATICCALL ISZERO DUP1 ISZERO PUSH2 0xA1C JUMPI RETURNDATASIZE PUSH1 0x0 DUP1 RETURNDATACOPY RETURNDATASIZE PUSH1 0x0 REVERT JUMPDEST POP POP POP POP PUSH1 0x40 MLOAD RETURNDATASIZE PUSH1 0x1F NOT PUSH1 0x1F DUP3 ADD AND DUP3 ADD DUP1 PUSH1 0x40 MSTORE POP DUP2 ADD SWAP1 PUSH2 0xA40 SWAP2 SWAP1 PUSH2 0x2078 JUMP JUMPDEST PUSH1 0x40 MLOAD PUSH1 0x1 PUSH1 0x1 PUSH1 0xE0 SHL SUB NOT PUSH1 0xE0 DUP6 SWAP1 SHL AND DUP2 MSTORE PUSH1 0x1 PUSH1 0x1 PUSH1 0xA0 SHL SUB SWAP1 SWAP3 AND PUSH1 0x4 DUP4 ADD MSTORE PUSH1 0x24 DUP3 ADD MSTORE PUSH1 0x44 ADD PUSH1 0x20 PUSH1 0x40 MLOAD DUP1 DUP4 SUB DUP2 PUSH1 0x0 DUP8 GAS CALL ISZERO DUP1 ISZERO PUSH2 0xA8B JUMPI RETURNDATASIZE PUSH1 0x0 DUP1 RETURNDATACOPY RETURNDATASIZE PUSH1 0x0 REVERT JUMPDEST POP POP POP POP PUSH1 0x40 MLOAD RETURNDATASIZE PUSH1 0x1F NOT PUSH1 0x1F DUP3 ADD AND DUP3 ADD DUP1 PUSH1 0x40 MSTORE POP DUP2 ADD SWAP1 PUSH2 0xAAF SWAP2 SWAP1 PUSH2 0x2091 JUMP JUMPDEST POP PUSH2 0xAEE PUSH1 0x40 MLOAD DUP1 PUSH1 0x40 ADD PUSH1 0x40 MSTORE DUP1 PUSH1 0x1B DUP2 MSTORE PUSH1 0x20 ADD PUSH32 0x5472616E7366657272656420746F6B656E3120746F206F776E65720000000000 DUP2 MSTORE POP PUSH2 0x1A19 JUMP JUMPDEST POP POP POP POP POP POP POP POP POP POP POP POP POP POP POP JUMP JUMPDEST PUSH1 0x0 PUSH2 0xB34 PUSH1 0x40 MLOAD DUP1 PUSH1 0x40 ADD PUSH1 0x40 MSTORE DUP1 PUSH1 0x12 DUP2 MSTORE PUSH1 0x20 ADD PUSH18 0x19D95D105B5BDD5B9D1CC8115B9D195C9959 PUSH1 0x72 SHL DUP2 MSTORE POP PUSH2 0x1A19 JUMP JUMPDEST PUSH1 0x0 DUP3 PUSH1 0x0 DUP2 MLOAD DUP2 LT PUSH2 0xB49 JUMPI PUSH2 0xB49 PUSH2 0x2062 JUMP JUMPDEST PUSH1 0x20 MUL PUSH1 0x20 ADD ADD MLOAD SWAP1 POP PUSH1 0x0 DUP4 PUSH1 0x1 DUP2 MLOAD DUP2 LT PUSH2 0xB68 JUMPI PUSH2 0xB68 PUSH2 0x2062 JUMP JUMPDEST PUSH1 0x20 MUL PUSH1 0x20 ADD ADD MLOAD SWAP1 POP PUSH1 0x0 NUMBER PUSH2 0x12C PUSH2 0xB82 SWAP2 SWAP1 PUSH2 0x20C9 JUMP JUMPDEST SWAP1 POP PUSH1 0x0 PUSH2 0xB91 DUP12 DUP10 DUP9 PUSH2 0x1B39 JUMP JUMPDEST SWAP1 POP PUSH2 0xBEC PUSH1 0x40 MLOAD DUP1 PUSH1 0x40 ADD PUSH1 0x40 MSTORE DUP1 PUSH1 0x1A DUP2 MSTORE PUSH1 0x20 ADD PUSH32 0x52657061796D656E742063616C63756C617465643A3A3A3A3A20000000000000 DUP2 MSTORE POP DUP3 PUSH1 0x0 DUP2 MLOAD DUP2 LT PUSH2 0xBDF JUMPI PUSH2 0xBDF PUSH2 0x2062 JUMP JUMPDEST PUSH1 0x20 MUL PUSH1 0x20 ADD ADD MLOAD PUSH2 0x1A5F JUMP JUMPDEST PUSH2 0xC2B PUSH1 0x40 MLOAD DUP1 PUSH1 0x40 ADD PUSH1 0x40 MSTORE DUP1 PUSH1 0x1A DUP2 MSTORE PUSH1 0x20 ADD PUSH32 0x52657061796D656E742065787065637465643A3A3A3A3A3A3A20000000000000 DUP2 MSTORE POP DUP12 PUSH2 0x1A5F JUMP JUMPDEST PUSH2 0xC6A PUSH1 0x40 MLOAD DUP1 PUSH1 0x40 ADD PUSH1 0x40 MSTORE DUP1 PUSH1 0x1A DUP2 MSTORE PUSH1 0x20 ADD PUSH32 0x4D494E494D554D20416D6F756E74312065787065637465643A20000000000000 DUP2 MSTORE POP DUP11 PUSH2 0x1A5F JUMP JUMPDEST PUSH2 0xCC0 PUSH1 0x40 MLOAD DUP1 PUSH1 0x40 ADD PUSH1 0x40 MSTORE DUP1 PUSH1 0x9 DUP2 MSTORE PUSH1 0x20 ADD PUSH9 0x29BBB0B83834B7339 PUSH1 0xBD SHL DUP2 MSTORE POP DUP13 PUSH1 0x40 MLOAD DUP1 PUSH1 0x40 ADD PUSH1 0x40 MSTORE DUP1 PUSH1 0x12 DUP2 MSTORE PUSH1 0x20 ADD PUSH18 0x20746F6B656E3020666F7220746F6B656E31 PUSH1 0x70 SHL DUP2 MSTORE POP PUSH2 0x1AED JUMP JUMPDEST DUP7 PUSH1 0x1 PUSH1 0x1 PUSH1 0xA0 SHL SUB AND PUSH4 0x38ED1739 DUP13 DUP4 PUSH1 0x0 DUP2 MLOAD DUP2 LT PUSH2 0xCE3 JUMPI PUSH2 0xCE3 PUSH2 0x2062 JUMP JUMPDEST PUSH1 0x20 MUL PUSH1 0x20 ADD ADD MLOAD DUP10 ADDRESS DUP8 PUSH1 0x40 MLOAD DUP7 PUSH4 0xFFFFFFFF AND PUSH1 0xE0 SHL DUP2 MSTORE PUSH1 0x4 ADD PUSH2 0xD0E SWAP6 SWAP5 SWAP4 SWAP3 SWAP2 SWAP1 PUSH2 0x2120 JUMP JUMPDEST PUSH1 0x0 PUSH1 0x40 MLOAD DUP1 DUP4 SUB DUP2 PUSH1 0x0 DUP8 GAS CALL ISZERO DUP1 ISZERO PUSH2 0xD2D JUMPI RETURNDATASIZE PUSH1 0x0 DUP1 RETURNDATACOPY RETURNDATASIZE PUSH1 0x0 REVERT JUMPDEST POP POP POP POP PUSH1 0x40 MLOAD RETURNDATASIZE PUSH1 0x0 DUP3 RETURNDATACOPY PUSH1 0x1F RETURNDATASIZE SWAP1 DUP2 ADD PUSH1 0x1F NOT AND DUP3 ADD PUSH1 0x40 MSTORE PUSH2 0xD55 SWAP2 SWAP1 DUP2 ADD SWAP1 PUSH2 0x215C JUMP JUMPDEST PUSH1 0x1 DUP2 MLOAD DUP2 LT PUSH2 0xD67 JUMPI PUSH2 0xD67 PUSH2 0x2062 JUMP JUMPDEST PUSH1 0x20 MUL PUSH1 0x20 ADD ADD MLOAD SWAP5 POP PUSH2 0xDA1 PUSH1 0x40 MLOAD DUP1 PUSH1 0x40 ADD PUSH1 0x40 MSTORE DUP1 PUSH1 0xF DUP2 MSTORE PUSH1 0x20 ADD PUSH15 0x53776170203120636F6D706C657465 PUSH1 0x88 SHL DUP2 MSTORE POP PUSH2 0x1A19 JUMP JUMPDEST PUSH2 0xDD8 PUSH1 0x40 MLOAD DUP1 PUSH1 0x40 ADD PUSH1 0x40 MSTORE DUP1 PUSH1 0x15 DUP2 MSTORE PUSH1 0x20 ADD PUSH21 0x20B6B7BAB73A1037BABA103932B1B4B2BB32B21D1 PUSH1 0x5D SHL DUP2 MSTORE POP DUP7 PUSH2 0x1A5F JUMP JUMPDEST PUSH2 0xE0F PUSH1 0x40 MLOAD DUP1 PUSH1 0x40 ADD PUSH1 0x40 MSTORE DUP1 PUSH1 0x15 DUP2 MSTORE PUSH1 0x20 ADD PUSH21 0x20B6B7BAB73A1037BABA1032BC3832B1BA32B21D1 PUSH1 0x5D SHL DUP2 MSTORE POP DUP11 PUSH2 0x1A5F JUMP JUMPDEST PUSH2 0xE46 PUSH1 0x40 MLOAD DUP1 PUSH1 0x40 ADD PUSH1 0x40 MSTORE DUP1 PUSH1 0x15 DUP2 MSTORE PUSH1 0x20 ADD PUSH21 0x2932B830BCB6B2B73A1032BC3832B1BA32B21D1D1 PUSH1 0x5D SHL DUP2 MSTORE POP DUP12 PUSH2 0x1A5F JUMP JUMPDEST PUSH2 0xE8A PUSH1 0x40 MLOAD DUP1 PUSH1 0x40 ADD PUSH1 0x40 MSTORE DUP1 PUSH1 0x15 DUP2 MSTORE PUSH1 0x20 ADD PUSH21 0x2932B830BCB6B2B73A1031B0B631BAB0BA32B21D1 PUSH1 0x5D SHL DUP2 MSTORE POP DUP3 PUSH1 0x0 DUP2 MLOAD DUP2 LT PUSH2 0xBDF JUMPI PUSH2 0xBDF PUSH2 0x2062 JUMP JUMPDEST PUSH1 0x40 MLOAD PUSH4 0x95EA7B3 PUSH1 0xE0 SHL DUP2 MSTORE CALLER PUSH1 0x4 DUP3 ADD MSTORE PUSH1 0x24 DUP2 ADD DUP12 SWAP1 MSTORE PUSH1 0x1 PUSH1 0x1 PUSH1 0xA0 SHL SUB DUP5 AND SWAP1 PUSH4 0x95EA7B3 SWAP1 PUSH1 0x44 ADD PUSH1 0x20 PUSH1 0x40 MLOAD DUP1 DUP4 SUB DUP2 PUSH1 0x0 DUP8 GAS CALL ISZERO DUP1 ISZERO PUSH2 0xED7 JUMPI RETURNDATASIZE PUSH1 0x0 DUP1 RETURNDATACOPY RETURNDATASIZE PUSH1 0x0 REVERT JUMPDEST POP POP POP POP PUSH1 0x40 MLOAD RETURNDATASIZE PUSH1 0x1F NOT PUSH1 0x1F DUP3 ADD AND DUP3 ADD DUP1 PUSH1 0x40 MSTORE POP DUP2 ADD SWAP1 PUSH2 0xEFB SWAP2 SWAP1 PUSH2 0x2091 JUMP JUMPDEST POP PUSH2 0xF53 PUSH1 0x40 MLOAD DUP1 PUSH1 0x40 ADD PUSH1 0x40 MSTORE DUP1 PUSH1 0x12 DUP2 MSTORE PUSH1 0x20 ADD PUSH18 0x20B8383937BB32B2103A37903A3930B2329 PUSH1 0x75 SHL DUP2 MSTORE POP DUP12 PUSH1 0x40 MLOAD DUP1 PUSH1 0x40 ADD PUSH1 0x40 MSTORE DUP1 PUSH1 0xA DUP2 MSTORE PUSH1 0x20 ADD PUSH10 0x206F6620746F6B656E31 PUSH1 0xB0 SHL DUP2 MSTORE POP PUSH2 0x1AED JUMP JUMPDEST DUP3 PUSH1 0x1 PUSH1 0x1 PUSH1 0xA0 SHL SUB AND PUSH4 0x23B872DD ADDRESS CALLER DUP5 PUSH1 0x0 DUP2 MLOAD DUP2 LT PUSH2 0xF77 JUMPI PUSH2 0xF77 PUSH2 0x2062 JUMP JUMPDEST PUSH1 0x20 SWAP1 DUP2 MUL SWAP2 SWAP1 SWAP2 ADD ADD MLOAD PUSH1 0x40 MLOAD PUSH1 0x1 PUSH1 0x1 PUSH1 0xE0 SHL SUB NOT PUSH1 0xE0 DUP7 SWAP1 SHL AND DUP2 MSTORE PUSH1 0x1 PUSH1 0x1 PUSH1 0xA0 SHL SUB SWAP4 DUP5 AND PUSH1 0x4 DUP3 ADD MSTORE SWAP3 SWAP1 SWAP2 AND PUSH1 0x24 DUP4 ADD MSTORE PUSH1 0x44 DUP3 ADD MSTORE PUSH1 0x64 ADD PUSH1 0x20 PUSH1 0x40 MLOAD DUP1 DUP4 SUB DUP2 PUSH1 0x0 DUP8 GAS CALL ISZERO DUP1 ISZERO PUSH2 0xFD6 JUMPI RETURNDATASIZE PUSH1 0x0 DUP1 RETURNDATACOPY RETURNDATASIZE PUSH1 0x0 REVERT JUMPDEST POP POP POP POP PUSH1 0x40 MLOAD RETURNDATASIZE PUSH1 0x1F NOT PUSH1 0x1F DUP3 ADD AND DUP3 ADD DUP1 PUSH1 0x40 MSTORE POP DUP2 ADD SWAP1 PUSH2 0xFFA SWAP2 SWAP1 PUSH2 0x2091 JUMP JUMPDEST POP PUSH2 0x1057 PUSH1 0x40 MLOAD DUP1 PUSH1 0x40 ADD PUSH1 0x40 MSTORE DUP1 PUSH1 0xB DUP2 MSTORE PUSH1 0x20 ADD PUSH11 0x2A3930B739B332B932B21 PUSH1 0xAD SHL DUP2 MSTORE POP DUP12 PUSH1 0x40 MLOAD DUP1 PUSH1 0x40 ADD PUSH1 0x40 MSTORE DUP1 PUSH1 0x16 DUP2 MSTORE PUSH1 0x20 ADD PUSH22 0x81BD9881D1BDAD95B8C481D1BC81B1BD85B941BDBDB PUSH1 0x52 SHL DUP2 MSTORE POP PUSH2 0x1AED JUMP JUMPDEST PUSH1 0x40 DUP1 MLOAD DUP1 DUP3 ADD DUP3 MSTORE PUSH1 0x10 DUP2 MSTORE PUSH16 0x3130B630B731B2902A37B5B2B7181D1 PUSH1 0x85 SHL PUSH1 0x20 DUP3 ADD MSTORE SWAP1 MLOAD PUSH4 0x70A08231 PUSH1 0xE0 SHL DUP2 MSTORE ADDRESS PUSH1 0x4 DUP3 ADD MSTORE PUSH2 0x10AD SWAP2 SWAP1 PUSH1 0x1 PUSH1 0x1 PUSH1 0xA0 SHL SUB DUP8 AND SWAP1 PUSH4 0x70A08231 SWAP1 PUSH1 0x24 ADD PUSH2 0x70A JUMP JUMPDEST PUSH1 0x40 DUP1 MLOAD DUP1 DUP3 ADD DUP3 MSTORE PUSH1 0x10 DUP2 MSTORE PUSH16 0x3130B630B731B2902A37B5B2B7189D1 PUSH1 0x85 SHL PUSH1 0x20 DUP3 ADD MSTORE SWAP1 MLOAD PUSH4 0x70A08231 PUSH1 0xE0 SHL DUP2 MSTORE ADDRESS PUSH1 0x4 DUP3 ADD MSTORE PUSH2 0x1103 SWAP2 SWAP1 PUSH1 0x1 PUSH1 0x1 PUSH1 0xA0 SHL SUB DUP7 AND SWAP1 PUSH4 0x70A08231 SWAP1 PUSH1 0x24 ADD PUSH2 0x70A JUMP JUMPDEST PUSH1 0x0 PUSH2 0x110D PUSH2 0x197A JUMP JUMPDEST SWAP1 POP PUSH2 0x1147 PUSH1 0x40 MLOAD DUP1 PUSH1 0x40 ADD PUSH1 0x40 MSTORE DUP1 PUSH1 0x16 DUP2 MSTORE PUSH1 0x20 ADD PUSH22 0x2AB734B9BBB0B810259020B33A32B91029BBB0B81D1 PUSH1 0x55 SHL DUP2 MSTORE POP DUP3 PUSH2 0x1A5F JUMP JUMPDEST PUSH2 0x1176 PUSH1 0x40 MLOAD DUP1 PUSH1 0x40 ADD PUSH1 0x40 MSTORE DUP1 PUSH1 0xE DUP2 MSTORE PUSH1 0x20 ADD PUSH14 0x526570617920636F6D706C657465 PUSH1 0x90 SHL DUP2 MSTORE POP PUSH2 0x1A19 JUMP JUMPDEST POP POP POP POP POP SWAP7 SWAP6 POP POP POP POP POP POP JUMP JUMPDEST PUSH2 0x11C3 PUSH1 0x40 MLOAD DUP1 PUSH1 0x40 ADD PUSH1 0x40 MSTORE DUP1 PUSH1 0x1F DUP2 MSTORE PUSH1 0x20 ADD PUSH32 0x436F6E747261637420666C6173684D756C74695465737420456E746572656400 DUP2 MSTORE POP PUSH2 0x1A19 JUMP JUMPDEST PUSH1 0x40 DUP1 MLOAD DUP1 DUP3 ADD SWAP1 SWAP2 MSTORE PUSH1 0x12 DUP2 MSTORE PUSH18 0x27BBB732B91D1D1D1D1D1D1D1D1D1D1D1D1 PUSH1 0x75 SHL PUSH1 0x20 DUP3 ADD MSTORE PUSH1 0x0 SLOAD PUSH2 0x1202 SWAP2 SWAP1 PUSH1 0x1 PUSH1 0x1 PUSH1 0xA0 SHL SUB AND PUSH2 0x1AA8 JUMP JUMPDEST PUSH2 0x1236 PUSH1 0x40 MLOAD DUP1 PUSH1 0x40 ADD PUSH1 0x40 MSTORE DUP1 PUSH1 0x12 DUP2 MSTORE PUSH1 0x20 ADD PUSH18 0x2637B0B7102330B1BA37B93C9D1D1D1D1D1 PUSH1 0x75 SHL DUP2 MSTORE POP DUP10 PUSH2 0x1AA8 JUMP JUMPDEST PUSH2 0x126A PUSH1 0x40 MLOAD DUP1 PUSH1 0x40 ADD PUSH1 0x40 MSTORE DUP1 PUSH1 0x12 DUP2 MSTORE PUSH1 0x20 ADD PUSH18 0x2637B0B7102937BABA32B91D1D1D1D1D1D1 PUSH1 0x75 SHL DUP2 MSTORE POP DUP9 PUSH2 0x1AA8 JUMP JUMPDEST PUSH2 0x129E PUSH1 0x40 MLOAD DUP1 PUSH1 0x40 ADD PUSH1 0x40 MSTORE DUP1 PUSH1 0x12 DUP2 MSTORE PUSH1 0x20 ADD PUSH18 0x2932B1B4B834B2B73A102937BABA32B91D1 PUSH1 0x75 SHL DUP2 MSTORE POP DUP8 PUSH2 0x1AA8 JUMP JUMPDEST PUSH2 0x12C8 PUSH1 0x40 MLOAD DUP1 PUSH1 0x40 ADD PUSH1 0x40 MSTORE DUP1 PUSH1 0x8 DUP2 MSTORE PUSH1 0x20 ADD PUSH8 0x2A37B5B2B7181D1 PUSH1 0xC5 SHL DUP2 MSTORE POP DUP7 PUSH2 0x1AA8 JUMP JUMPDEST PUSH2 0x12F2 PUSH1 0x40 MLOAD DUP1 PUSH1 0x40 ADD PUSH1 0x40 MSTORE DUP1 PUSH1 0x8 DUP2 MSTORE PUSH1 0x20 ADD PUSH8 0x2A37B5B2B7189D1 PUSH1 0xC5 SHL DUP2 MSTORE POP DUP6 PUSH2 0x1AA8 JUMP JUMPDEST PUSH2 0x1326 PUSH1 0x40 MLOAD DUP1 PUSH1 0x40 ADD PUSH1 0x40 MSTORE DUP1 PUSH1 0x12 DUP2 MSTORE PUSH1 0x20 ADD PUSH18 0x20B6B7BAB73A1824B71D1D1D1D1D1D1D1D1 PUSH1 0x75 SHL DUP2 MSTORE POP DUP5 PUSH2 0x1A5F JUMP JUMPDEST PUSH2 0x135A PUSH1 0x40 MLOAD DUP1 PUSH1 0x40 ADD PUSH1 0x40 MSTORE DUP1 PUSH1 0x12 DUP2 MSTORE PUSH1 0x20 ADD PUSH18 0x20B6B7BAB73A18A7BABA1D1D1D1D1D1D1D1 PUSH1 0x75 SHL DUP2 MSTORE POP DUP4 PUSH2 0x1A5F JUMP JUMPDEST PUSH2 0x138E PUSH1 0x40 MLOAD DUP1 PUSH1 0x40 ADD PUSH1 0x40 MSTORE DUP1 PUSH1 0x12 DUP2 MSTORE PUSH1 0x20 ADD PUSH18 0x20B6B7BAB73A2A37A932B830BC9D1D1D1D1 PUSH1 0x75 SHL DUP2 MSTORE POP DUP3 PUSH2 0x1A5F JUMP JUMPDEST PUSH1 0x0 SLOAD PUSH1 0x1 PUSH1 0x1 PUSH1 0xA0 SHL SUB AND CALLER EQ PUSH2 0x13F9 JUMPI PUSH1 0x40 MLOAD PUSH3 0x461BCD PUSH1 0xE5 SHL DUP2 MSTORE PUSH1 0x20 PUSH1 0x4 DUP3 ADD MSTORE PUSH1 0x28 PUSH1 0x24 DUP3 ADD MSTORE PUSH32 0x4572726F723A204F6E6C79206F776E65722063616E2063616C6C207468697320 PUSH1 0x44 DUP3 ADD MSTORE PUSH8 0x333AB731BA34B7B7 PUSH1 0xC1 SHL PUSH1 0x64 DUP3 ADD MSTORE PUSH1 0x84 ADD PUSH2 0x53D JUMP JUMPDEST PUSH1 0x40 MLOAD PUSH4 0xE6A43905 PUSH1 0xE0 SHL DUP2 MSTORE PUSH1 0x1 PUSH1 0x1 PUSH1 0xA0 SHL SUB DUP7 DUP2 AND PUSH1 0x4 DUP4 ADD MSTORE DUP6 DUP2 AND PUSH1 0x24 DUP4 ADD MSTORE DUP10 AND SWAP1 PUSH4 0xE6A43905 SWAP1 PUSH1 0x44 ADD PUSH1 0x20 PUSH1 0x40 MLOAD DUP1 DUP4 SUB DUP2 DUP7 GAS STATICCALL ISZERO DUP1 ISZERO PUSH2 0x1447 JUMPI RETURNDATASIZE PUSH1 0x0 DUP1 RETURNDATACOPY RETURNDATASIZE PUSH1 0x0 REVERT JUMPDEST POP POP POP POP PUSH1 0x40 MLOAD RETURNDATASIZE PUSH1 0x1F NOT PUSH1 0x1F DUP3 ADD AND DUP3 ADD DUP1 PUSH1 0x40 MSTORE POP DUP2 ADD SWAP1 PUSH2 0x146B SWAP2 SWAP1 PUSH2 0x203E JUMP JUMPDEST PUSH1 0x1 DUP1 SLOAD PUSH1 0x1 PUSH1 0x1 PUSH1 0xA0 SHL SUB NOT AND PUSH1 0x1 PUSH1 0x1 PUSH1 0xA0 SHL SUB SWAP3 SWAP1 SWAP3 AND SWAP2 SWAP1 SWAP2 OR SWAP1 SSTORE PUSH1 0x40 DUP1 MLOAD DUP1 DUP3 ADD SWAP1 SWAP2 MSTORE PUSH1 0x15 DUP2 MSTORE PUSH21 0x30B6B7BAB73A1824B7103932B8BAB2B9BA32B21D1 PUSH1 0x5D SHL PUSH1 0x20 DUP3 ADD MSTORE PUSH2 0x14C1 SWAP1 DUP5 PUSH2 0x1A5F JUMP JUMPDEST PUSH2 0x14F8 PUSH1 0x40 MLOAD DUP1 PUSH1 0x40 ADD PUSH1 0x40 MSTORE DUP1 PUSH1 0x15 DUP2 MSTORE PUSH1 0x20 ADD PUSH21 0x30B6B7BAB73A18A7BABA1032BC3832B1BA32B21D1 PUSH1 0x5D SHL DUP2 MSTORE POP DUP4 PUSH2 0x1A5F JUMP JUMPDEST PUSH1 0x40 DUP1 MLOAD DUP1 DUP3 ADD DUP3 MSTORE PUSH1 0x1E DUP2 MSTORE PUSH32 0x436F6E74726163742042616C616E6365204265666F726520537761703A200000 PUSH1 0x20 DUP3 ADD MSTORE SWAP1 MLOAD PUSH4 0x70A08231 PUSH1 0xE0 SHL DUP2 MSTORE ADDRESS PUSH1 0x4 DUP3 ADD MSTORE PUSH2 0x155B SWAP2 SWAP1 PUSH1 0x1 PUSH1 0x1 PUSH1 0xA0 SHL SUB DUP9 AND SWAP1 PUSH4 0x70A08231 SWAP1 PUSH1 0x24 ADD PUSH2 0x70A JUMP JUMPDEST PUSH1 0x40 DUP1 MLOAD DUP1 DUP3 ADD SWAP1 SWAP2 MSTORE PUSH1 0xE DUP2 MSTORE PUSH14 0x2830B4B91030B2323932B9B99D1 PUSH1 0x95 SHL PUSH1 0x20 DUP3 ADD MSTORE PUSH1 0x1 SLOAD PUSH2 0x1596 SWAP2 SWAP1 PUSH1 0x1 PUSH1 0x1 PUSH1 0xA0 SHL SUB AND PUSH2 0x1AA8 JUMP JUMPDEST PUSH1 0x1 SLOAD PUSH1 0x1 PUSH1 0x1 PUSH1 0xA0 SHL SUB AND PUSH2 0x15EE JUMPI PUSH1 0x40 MLOAD PUSH3 0x461BCD PUSH1 0xE5 SHL DUP2 MSTORE PUSH1 0x20 PUSH1 0x4 DUP3 ADD MSTORE PUSH1 0x1A PUSH1 0x24 DUP3 ADD MSTORE PUSH32 0x4572726F723A205061697220646F6573206E6F74206578697374000000000000 PUSH1 0x44 DUP3 ADD MSTORE PUSH1 0x64 ADD PUSH2 0x53D JUMP JUMPDEST PUSH1 0x0 DUP4 GT DUP1 PUSH2 0x15FD JUMPI POP PUSH1 0x0 DUP3 GT JUMPDEST PUSH2 0x168B JUMPI PUSH1 0x40 MLOAD PUSH3 0x461BCD PUSH1 0xE5 SHL DUP2 MSTORE PUSH1 0x20 PUSH1 0x4 DUP3 ADD MSTORE PUSH1 0x53 PUSH1 0x24 DUP3 ADD MSTORE PUSH32 0x4572726F723A20496E76616C696420616D6F756E747330206F7220616D6F756E PUSH1 0x44 DUP3 ADD MSTORE PUSH32 0x7473313A20616D6F756E7430496E206F7220616D6F756E74314F7574206D7573 PUSH1 0x64 DUP3 ADD MSTORE PUSH19 0x742062652067726561746572207468616E203 PUSH1 0x6C SHL PUSH1 0x84 DUP3 ADD MSTORE PUSH1 0xA4 ADD PUSH2 0x53D JUMP JUMPDEST PUSH1 0x40 DUP1 MLOAD PUSH1 0x1 PUSH1 0x1 PUSH1 0xA0 SHL SUB DUP11 DUP2 AND PUSH1 0x20 DUP4 ADD MSTORE DUP10 DUP2 AND DUP3 DUP5 ADD MSTORE DUP9 AND PUSH1 0x60 DUP3 ADD MSTORE PUSH1 0x80 DUP2 ADD DUP5 SWAP1 MSTORE PUSH1 0xA0 DUP1 DUP3 ADD DUP5 SWAP1 MSTORE DUP3 MLOAD DUP1 DUP4 SUB SWAP1 SWAP2 ADD DUP2 MSTORE PUSH2 0x100 DUP3 ADD SWAP1 SWAP3 MSTORE PUSH1 0xC PUSH1 0xC0 DUP3 ADD SWAP1 DUP2 MSTORE PUSH12 0x11185D1848195B98DBD91959 PUSH1 0xA2 SHL PUSH1 0xE0 SWAP1 SWAP3 ADD SWAP2 SWAP1 SWAP2 MSTORE PUSH2 0x16F9 SWAP1 PUSH2 0x1A19 JUMP JUMPDEST PUSH1 0x1 SLOAD PUSH1 0x40 MLOAD PUSH4 0x95EA7B3 PUSH1 0xE0 SHL DUP2 MSTORE PUSH1 0x1 PUSH1 0x1 PUSH1 0xA0 SHL SUB SWAP2 DUP3 AND PUSH1 0x4 DUP3 ADD MSTORE PUSH1 0x24 DUP2 ADD DUP7 SWAP1 MSTORE SWAP1 DUP8 AND SWAP1 PUSH4 0x95EA7B3 SWAP1 PUSH1 0x44 ADD PUSH1 0x20 PUSH1 0x40 MLOAD DUP1 DUP4 SUB DUP2 PUSH1 0x0 DUP8 GAS CALL ISZERO DUP1 ISZERO PUSH2 0x174C JUMPI RETURNDATASIZE PUSH1 0x0 DUP1 RETURNDATACOPY RETURNDATASIZE PUSH1 0x0 REVERT JUMPDEST POP POP POP POP PUSH1 0x40 MLOAD RETURNDATASIZE PUSH1 0x1F NOT PUSH1 0x1F DUP3 ADD AND DUP3 ADD DUP1 PUSH1 0x40 MSTORE POP DUP2 ADD SWAP1 PUSH2 0x1770 SWAP2 SWAP1 PUSH2 0x2091 JUMP JUMPDEST POP PUSH1 0x1 SLOAD PUSH1 0x40 MLOAD PUSH4 0x22C0D9F PUSH1 0xE0 SHL DUP2 MSTORE PUSH1 0x1 PUSH1 0x1 PUSH1 0xA0 SHL SUB SWAP1 SWAP2 AND SWAP1 PUSH4 0x22C0D9F SWAP1 PUSH2 0x17A8 SWAP1 DUP8 SWAP1 PUSH1 0x0 SWAP1 ADDRESS SWAP1 DUP8 SWAP1 PUSH1 0x4 ADD PUSH2 0x2233 JUMP JUMPDEST PUSH1 0x0 PUSH1 0x40 MLOAD DUP1 DUP4 SUB DUP2 PUSH1 0x0 DUP8 DUP1 EXTCODESIZE ISZERO DUP1 ISZERO PUSH2 0x17C2 JUMPI PUSH1 0x0 DUP1 REVERT JUMPDEST POP GAS CALL ISZERO DUP1 ISZERO PUSH2 0x17D6 JUMPI RETURNDATASIZE PUSH1 0x0 DUP1 RETURNDATACOPY RETURNDATASIZE PUSH1 0x0 REVERT JUMPDEST POP POP PUSH1 0x40 DUP1 MLOAD DUP1 DUP3 ADD DUP3 MSTORE PUSH1 0x1E DUP2 MSTORE PUSH32 0x4E657720436F6E74726163742042616C616E63652028546F6B656E30293A0000 PUSH1 0x20 DUP3 ADD MSTORE SWAP1 MLOAD PUSH4 0x70A08231 PUSH1 0xE0 SHL DUP2 MSTORE ADDRESS PUSH1 0x4 DUP3 ADD MSTORE PUSH2 0x183E SWAP4 POP SWAP1 SWAP2 POP PUSH1 0x1 PUSH1 0x1 PUSH1 0xA0 SHL SUB DUP10 AND SWAP1 PUSH4 0x70A08231 SWAP1 PUSH1 0x24 ADD PUSH2 0x70A JUMP JUMPDEST PUSH1 0x40 DUP1 MLOAD DUP1 DUP3 ADD DUP3 MSTORE PUSH1 0x1E DUP2 MSTORE PUSH32 0x4E657720436F6E74726163742042616C616E63652028546F6B656E31293A0000 PUSH1 0x20 DUP3 ADD MSTORE SWAP1 MLOAD PUSH4 0x70A08231 PUSH1 0xE0 SHL DUP2 MSTORE ADDRESS PUSH1 0x4 DUP3 ADD MSTORE PUSH2 0x18A1 SWAP2 SWAP1 PUSH1 0x1 PUSH1 0x1 PUSH1 0xA0 SHL SUB DUP9 AND SWAP1 PUSH4 0x70A08231 SWAP1 PUSH1 0x24 ADD PUSH2 0x70A JUMP JUMPDEST PUSH1 0x40 DUP1 MLOAD DUP1 DUP3 ADD DUP3 MSTORE PUSH1 0x1E DUP2 MSTORE PUSH32 0x4E6577204F776E65722042616C616E63652028546F6B656E30293A3A3A3A0000 PUSH1 0x20 DUP3 ADD MSTORE PUSH1 0x0 SLOAD SWAP2 MLOAD PUSH4 0x70A08231 PUSH1 0xE0 SHL DUP2 MSTORE PUSH1 0x1 PUSH1 0x1 PUSH1 0xA0 SHL SUB SWAP3 DUP4 AND PUSH1 0x4 DUP3 ADD MSTORE PUSH2 0x1908 SWAP3 DUP10 AND SWAP1 PUSH4 0x70A08231 SWAP1 PUSH1 0x24 ADD PUSH2 0x70A JUMP JUMPDEST PUSH1 0x40 DUP1 MLOAD DUP1 DUP3 ADD DUP3 MSTORE PUSH1 0x1E DUP2 MSTORE PUSH32 0x4E6577204F776E65722042616C616E63652028546F6B656E31293A3A3A3A0000 PUSH1 0x20 DUP3 ADD MSTORE PUSH1 0x0 SLOAD SWAP2 MLOAD PUSH4 0x70A08231 PUSH1 0xE0 SHL DUP2 MSTORE PUSH1 0x1 PUSH1 0x1 PUSH1 0xA0 SHL SUB SWAP3 DUP4 AND PUSH1 0x4 DUP3 ADD MSTORE PUSH2 0x196F SWAP3 DUP9 AND SWAP1 PUSH4 0x70A08231 SWAP1 PUSH1 0x24 ADD PUSH2 0x70A JUMP JUMPDEST POP POP POP POP POP POP POP POP POP JUMP JUMPDEST PUSH1 0x0 DUP1 PUSH1 0x0 PUSH1 0x1 PUSH1 0x0 SWAP1 SLOAD SWAP1 PUSH2 0x100 EXP SWAP1 DIV PUSH1 0x1 PUSH1 0x1 PUSH1 0xA0 SHL SUB AND PUSH1 0x1 PUSH1 0x1 PUSH1 0xA0 SHL SUB AND PUSH4 0x902F1AC PUSH1 0x40 MLOAD DUP2 PUSH4 0xFFFFFFFF AND PUSH1 0xE0 SHL DUP2 MSTORE PUSH1 0x4 ADD PUSH1 0x60 PUSH1 0x40 MLOAD DUP1 DUP4 SUB DUP2 DUP7 GAS STATICCALL ISZERO DUP1 ISZERO PUSH2 0x19D2 JUMPI RETURNDATASIZE PUSH1 0x0 DUP1 RETURNDATACOPY RETURNDATASIZE PUSH1 0x0 REVERT JUMPDEST POP POP POP POP PUSH1 0x40 MLOAD RETURNDATASIZE PUSH1 0x1F NOT PUSH1 0x1F DUP3 ADD AND DUP3 ADD DUP1 PUSH1 0x40 MSTORE POP DUP2 ADD SWAP1 PUSH2 0x19F6 SWAP2 SWAP1 PUSH2 0x2286 JUMP JUMPDEST POP SWAP1 SWAP3 POP SWAP1 POP PUSH2 0x1A12 PUSH1 0x1 PUSH1 0x1 PUSH1 0x70 SHL SUB DUP1 DUP5 AND SWAP1 DUP4 AND PUSH2 0x1CCF JUMP JUMPDEST SWAP3 POP POP POP SWAP1 JUMP JUMPDEST PUSH2 0x1A5C DUP2 PUSH1 0x40 MLOAD PUSH1 0x24 ADD PUSH2 0x1A2D SWAP2 SWAP1 PUSH2 0x22D6 JUMP JUMPDEST PUSH1 0x40 DUP1 MLOAD PUSH1 0x1F NOT DUP2 DUP5 SUB ADD DUP2 MSTORE SWAP2 SWAP1 MSTORE PUSH1 0x20 DUP2 ADD DUP1 MLOAD PUSH1 0x1 PUSH1 0x1 PUSH1 0xE0 SHL SUB AND PUSH4 0x104C13EB PUSH1 0xE2 SHL OR SWAP1 MSTORE PUSH2 0x1D3C JUMP JUMPDEST POP JUMP JUMPDEST PUSH2 0x1AA4 DUP3 DUP3 PUSH1 0x40 MLOAD PUSH1 0x24 ADD PUSH2 0x1A75 SWAP3 SWAP2 SWAP1 PUSH2 0x22E9 JUMP JUMPDEST PUSH1 0x40 DUP1 MLOAD PUSH1 0x1F NOT DUP2 DUP5 SUB ADD DUP2 MSTORE SWAP2 SWAP1 MSTORE PUSH1 0x20 DUP2 ADD DUP1 MLOAD PUSH1 0x1 PUSH1 0x1 PUSH1 0xE0 SHL SUB AND PUSH4 0x2D839CB3 PUSH1 0xE2 SHL OR SWAP1 MSTORE PUSH2 0x1D3C JUMP JUMPDEST POP POP JUMP JUMPDEST PUSH2 0x1AA4 DUP3 DUP3 PUSH1 0x40 MLOAD PUSH1 0x24 ADD PUSH2 0x1ABE SWAP3 SWAP2 SWAP1 PUSH2 0x230B JUMP JUMPDEST PUSH1 0x40 DUP1 MLOAD PUSH1 0x1F NOT DUP2 DUP5 SUB ADD DUP2 MSTORE SWAP2 SWAP1 MSTORE PUSH1 0x20 DUP2 ADD DUP1 MLOAD PUSH1 0x1 PUSH1 0x1 PUSH1 0xE0 SHL SUB AND PUSH4 0x319AF333 PUSH1 0xE0 SHL OR SWAP1 MSTORE PUSH2 0x1D3C JUMP JUMPDEST PUSH2 0x1B34 DUP4 DUP4 DUP4 PUSH1 0x40 MLOAD PUSH1 0x24 ADD PUSH2 0x1B05 SWAP4 SWAP3 SWAP2 SWAP1 PUSH2 0x2335 JUMP JUMPDEST PUSH1 0x40 DUP1 MLOAD PUSH1 0x1F NOT DUP2 DUP5 SUB ADD DUP2 MSTORE SWAP2 SWAP1 MSTORE PUSH1 0x20 DUP2 ADD DUP1 MLOAD PUSH1 0x1 PUSH1 0x1 PUSH1 0xE0 SHL SUB AND PUSH4 0x5970E089 PUSH1 0xE0 SHL OR SWAP1 MSTORE PUSH2 0x1D3C JUMP JUMPDEST POP POP POP JUMP JUMPDEST PUSH1 0x60 CALLER PUSH1 0x1 PUSH1 0x1 PUSH1 0xA0 SHL SUB AND PUSH4 0xD21220A7 PUSH1 0x40 MLOAD DUP2 PUSH4 0xFFFFFFFF AND PUSH1 0xE0 SHL DUP2 MSTORE PUSH1 0x4 ADD PUSH1 0x20 PUSH1 0x40 MLOAD DUP1 DUP4 SUB DUP2 DUP7 GAS STATICCALL ISZERO DUP1 ISZERO PUSH2 0x1B79 JUMPI RETURNDATASIZE PUSH1 0x0 DUP1 RETURNDATACOPY RETURNDATASIZE PUSH1 0x0 REVERT JUMPDEST POP POP POP POP PUSH1 0x40 MLOAD RETURNDATASIZE PUSH1 0x1F NOT PUSH1 0x1F DUP3 ADD AND DUP3 ADD DUP1 PUSH1 0x40 MSTORE POP DUP2 ADD SWAP1 PUSH2 0x1B9D SWAP2 SWAP1 PUSH2 0x203E JUMP JUMPDEST DUP3 PUSH1 0x0 DUP2 MLOAD DUP2 LT PUSH2 0x1BB0 JUMPI PUSH2 0x1BB0 PUSH2 0x2062 JUMP JUMPDEST PUSH1 0x20 MUL PUSH1 0x20 ADD ADD SWAP1 PUSH1 0x1 PUSH1 0x1 PUSH1 0xA0 SHL SUB AND SWAP1 DUP2 PUSH1 0x1 PUSH1 0x1 PUSH1 0xA0 SHL SUB AND DUP2 MSTORE POP POP CALLER PUSH1 0x1 PUSH1 0x1 PUSH1 0xA0 SHL SUB AND PUSH4 0xDFE1681 PUSH1 0x40 MLOAD DUP2 PUSH4 0xFFFFFFFF AND PUSH1 0xE0 SHL DUP2 MSTORE PUSH1 0x4 ADD PUSH1 0x20 PUSH1 0x40 MLOAD DUP1 DUP4 SUB DUP2 DUP7 GAS STATICCALL ISZERO DUP1 ISZERO PUSH2 0x1C0E JUMPI RETURNDATASIZE PUSH1 0x0 DUP1 RETURNDATACOPY RETURNDATASIZE PUSH1 0x0 REVERT JUMPDEST POP POP POP POP PUSH1 0x40 MLOAD RETURNDATASIZE PUSH1 0x1F NOT PUSH1 0x1F DUP3 ADD AND DUP3 ADD DUP1 PUSH1 0x40 MSTORE POP DUP2 ADD SWAP1 PUSH2 0x1C32 SWAP2 SWAP1 PUSH2 0x203E JUMP JUMPDEST DUP3 PUSH1 0x1 DUP2 MLOAD DUP2 LT PUSH2 0x1C45 JUMPI PUSH2 0x1C45 PUSH2 0x2062 JUMP JUMPDEST PUSH1 0x1 PUSH1 0x1 PUSH1 0xA0 SHL SUB SWAP3 DUP4 AND PUSH1 0x20 SWAP2 DUP3 MUL SWAP3 SWAP1 SWAP3 ADD ADD MSTORE PUSH1 0x40 MLOAD PUSH4 0x7C0329D PUSH1 0xE2 SHL DUP2 MSTORE SWAP1 DUP5 AND SWAP1 PUSH4 0x1F00CA74 SWAP1 PUSH2 0x1C82 SWAP1 DUP8 SWAP1 DUP7 SWAP1 PUSH1 0x4 ADD PUSH2 0x2360 JUMP JUMPDEST PUSH1 0x0 PUSH1 0x40 MLOAD DUP1 DUP4 SUB DUP2 DUP7 GAS STATICCALL ISZERO DUP1 ISZERO PUSH2 0x1C9F JUMPI RETURNDATASIZE PUSH1 0x0 DUP1 RETURNDATACOPY RETURNDATASIZE PUSH1 0x0 REVERT JUMPDEST POP POP POP POP PUSH1 0x40 MLOAD RETURNDATASIZE PUSH1 0x0 DUP3 RETURNDATACOPY PUSH1 0x1F RETURNDATASIZE SWAP1 DUP2 ADD PUSH1 0x1F NOT AND DUP3 ADD PUSH1 0x40 MSTORE PUSH2 0x1CC7 SWAP2 SWAP1 DUP2 ADD SWAP1 PUSH2 0x215C JUMP JUMPDEST SWAP5 SWAP4 POP POP POP POP JUMP JUMPDEST PUSH1 0x0 DUP2 ISZERO DUP1 PUSH2 0x1CF3 JUMPI POP DUP3 DUP3 PUSH2 0x1CE5 DUP2 DUP4 PUSH2 0x2379 JUMP JUMPDEST SWAP3 POP PUSH2 0x1CF1 SWAP1 DUP4 PUSH2 0x2390 JUMP JUMPDEST EQ JUMPDEST PUSH2 0x1D36 JUMPI PUSH1 0x40 MLOAD PUSH3 0x461BCD PUSH1 0xE5 SHL DUP2 MSTORE PUSH1 0x20 PUSH1 0x4 DUP3 ADD MSTORE PUSH1 0x14 PUSH1 0x24 DUP3 ADD MSTORE PUSH20 0x64732D6D6174682D6D756C2D6F766572666C6F77 PUSH1 0x60 SHL PUSH1 0x44 DUP3 ADD MSTORE PUSH1 0x64 ADD PUSH2 0x53D JUMP JUMPDEST SWAP3 SWAP2 POP POP JUMP JUMPDEST PUSH2 0x1A5C DUP2 PUSH1 0x0 PUSH11 0x636F6E736F6C652E6C6F67 SWAP1 POP PUSH1 0x0 DUP1 DUP4 MLOAD PUSH1 0x20 DUP6 ADD DUP5 GAS STATICCALL POP POP POP JUMP JUMPDEST PUSH1 0x1 PUSH1 0x1 PUSH1 0xA0 SHL SUB DUP2 AND DUP2 EQ PUSH2 0x1A5C JUMPI PUSH1 0x0 DUP1 REVERT JUMPDEST PUSH1 0x0 DUP1 PUSH1 0x0 DUP1 PUSH1 0x0 PUSH1 0x80 DUP7 DUP9 SUB SLT ISZERO PUSH2 0x1D8E JUMPI PUSH1 0x0 DUP1 REVERT JUMPDEST DUP6 CALLDATALOAD PUSH2 0x1D99 DUP2 PUSH2 0x1D61 JUMP JUMPDEST SWAP5 POP PUSH1 0x20 DUP7 ADD CALLDATALOAD SWAP4 POP PUSH1 0x40 DUP7 ADD CALLDATALOAD SWAP3 POP PUSH1 0x60 DUP7 ADD CALLDATALOAD PUSH8 0xFFFFFFFFFFFFFFFF DUP1 DUP3 GT ISZERO PUSH2 0x1DC4 JUMPI PUSH1 0x0 DUP1 REVERT JUMPDEST DUP2 DUP9 ADD SWAP2 POP DUP9 PUSH1 0x1F DUP4 ADD SLT PUSH2 0x1DD8 JUMPI PUSH1 0x0 DUP1 REVERT JUMPDEST DUP2 CALLDATALOAD DUP2 DUP2 GT ISZERO PUSH2 0x1DE7 JUMPI PUSH1 0x0 DUP1 REVERT JUMPDEST DUP10 PUSH1 0x20 DUP3 DUP6 ADD ADD GT ISZERO PUSH2 0x1DF9 JUMPI PUSH1 0x0 DUP1 REVERT JUMPDEST SWAP7 SWAP10 SWAP6 SWAP9 POP SWAP4 SWAP7 POP PUSH1 0x20 ADD SWAP5 SWAP4 SWAP3 POP POP POP JUMP JUMPDEST PUSH4 0x4E487B71 PUSH1 0xE0 SHL PUSH1 0x0 MSTORE PUSH1 0x41 PUSH1 0x4 MSTORE PUSH1 0x24 PUSH1 0x0 REVERT JUMPDEST PUSH1 0x40 MLOAD PUSH1 0x1F DUP3 ADD PUSH1 0x1F NOT AND DUP2 ADD PUSH8 0xFFFFFFFFFFFFFFFF DUP2 GT DUP3 DUP3 LT OR ISZERO PUSH2 0x1E4B JUMPI PUSH2 0x1E4B PUSH2 0x1E0C JUMP JUMPDEST PUSH1 0x40 MSTORE SWAP2 SWAP1 POP JUMP JUMPDEST PUSH1 0x0 PUSH8 0xFFFFFFFFFFFFFFFF DUP3 GT ISZERO PUSH2 0x1E6D JUMPI PUSH2 0x1E6D PUSH2 0x1E0C JUMP JUMPDEST POP PUSH1 0x5 SHL PUSH1 0x20 ADD SWAP1 JUMP JUMPDEST PUSH1 0x0 DUP1 PUSH1 0x0 DUP1 PUSH1 0x0 DUP1 PUSH1 0xC0 DUP8 DUP10 SUB SLT ISZERO PUSH2 0x1E90 JUMPI PUSH1 0x0 DUP1 REVERT JUMPDEST DUP7 CALLDATALOAD SWAP6 POP PUSH1 0x20 DUP1 DUP9 ADD CALLDATALOAD SWAP6 POP PUSH1 0x40 DUP9 ADD CALLDATALOAD SWAP5 POP PUSH1 0x60 DUP9 ADD CALLDATALOAD PUSH2 0x1EB1 DUP2 PUSH2 0x1D61 JUMP JUMPDEST SWAP4 POP PUSH1 0x80 DUP9 ADD CALLDATALOAD PUSH2 0x1EC1 DUP2 PUSH2 0x1D61 JUMP JUMPDEST SWAP3 POP PUSH1 0xA0 DUP9 ADD CALLDATALOAD PUSH8 0xFFFFFFFFFFFFFFFF DUP2 GT ISZERO PUSH2 0x1EDD JUMPI PUSH1 0x0 DUP1 REVERT JUMPDEST DUP9 ADD PUSH1 0x1F DUP2 ADD DUP11 SGT PUSH2 0x1EEE JUMPI PUSH1 0x0 DUP1 REVERT JUMPDEST DUP1 CALLDATALOAD PUSH2 0x1F01 PUSH2 0x1EFC DUP3 PUSH2 0x1E53 JUMP JUMPDEST PUSH2 0x1E22 JUMP JUMPDEST DUP2 DUP2 MSTORE PUSH1 0x5 SWAP2 SWAP1 SWAP2 SHL DUP3 ADD DUP4 ADD SWAP1 DUP4 DUP2 ADD SWAP1 DUP13 DUP4 GT ISZERO PUSH2 0x1F20 JUMPI PUSH1 0x0 DUP1 REVERT JUMPDEST SWAP3 DUP5 ADD SWAP3 JUMPDEST DUP3 DUP5 LT ISZERO PUSH2 0x1F47 JUMPI DUP4 CALLDATALOAD PUSH2 0x1F38 DUP2 PUSH2 0x1D61 JUMP JUMPDEST DUP3 MSTORE SWAP3 DUP5 ADD SWAP3 SWAP1 DUP5 ADD SWAP1 PUSH2 0x1F25 JUMP JUMPDEST DUP1 SWAP6 POP POP POP POP POP POP SWAP3 SWAP6 POP SWAP3 SWAP6 POP SWAP3 SWAP6 JUMP JUMPDEST PUSH1 0x0 DUP1 PUSH1 0x0 DUP1 PUSH1 0x0 DUP1 PUSH1 0x0 DUP1 PUSH2 0x100 DUP10 DUP12 SUB SLT ISZERO PUSH2 0x1F76 JUMPI PUSH1 0x0 DUP1 REVERT JUMPDEST DUP9 CALLDATALOAD PUSH2 0x1F81 DUP2 PUSH2 0x1D61 JUMP JUMPDEST SWAP8 POP PUSH1 0x20 DUP10 ADD CALLDATALOAD PUSH2 0x1F91 DUP2 PUSH2 0x1D61 JUMP JUMPDEST SWAP7 POP PUSH1 0x40 DUP10 ADD CALLDATALOAD PUSH2 0x1FA1 DUP2 PUSH2 0x1D61 JUMP JUMPDEST SWAP6 POP PUSH1 0x60 DUP10 ADD CALLDATALOAD PUSH2 0x1FB1 DUP2 PUSH2 0x1D61 JUMP JUMPDEST SWAP5 POP PUSH1 0x80 DUP10 ADD CALLDATALOAD PUSH2 0x1FC1 DUP2 PUSH2 0x1D61 JUMP JUMPDEST SWAP8 SWAP11 SWAP7 SWAP10 POP SWAP5 SWAP8 SWAP4 SWAP7 SWAP6 PUSH1 0xA0 DUP6 ADD CALLDATALOAD SWAP6 POP PUSH1 0xC0 DUP6 ADD CALLDATALOAD SWAP5 PUSH1 0xE0 ADD CALLDATALOAD SWAP4 POP SWAP2 POP POP JUMP JUMPDEST PUSH1 0x0 DUP1 PUSH1 0x0 DUP1 PUSH1 0x0 PUSH1 0xA0 DUP7 DUP9 SUB SLT ISZERO PUSH2 0x1FFB JUMPI PUSH1 0x0 DUP1 REVERT JUMPDEST DUP6 CALLDATALOAD PUSH2 0x2006 DUP2 PUSH2 0x1D61 JUMP JUMPDEST SWAP5 POP PUSH1 0x20 DUP7 ADD CALLDATALOAD PUSH2 0x2016 DUP2 PUSH2 0x1D61 JUMP JUMPDEST SWAP4 POP PUSH1 0x40 DUP7 ADD CALLDATALOAD PUSH2 0x2026 DUP2 PUSH2 0x1D61 JUMP JUMPDEST SWAP5 SWAP8 SWAP4 SWAP7 POP SWAP4 SWAP5 PUSH1 0x60 DUP2 ADD CALLDATALOAD SWAP5 POP PUSH1 0x80 ADD CALLDATALOAD SWAP3 SWAP2 POP POP JUMP JUMPDEST PUSH1 0x0 PUSH1 0x20 DUP3 DUP5 SUB SLT ISZERO PUSH2 0x2050 JUMPI PUSH1 0x0 DUP1 REVERT JUMPDEST DUP2 MLOAD PUSH2 0x205B DUP2 PUSH2 0x1D61 JUMP JUMPDEST SWAP4 SWAP3 POP POP POP JUMP JUMPDEST PUSH4 0x4E487B71 PUSH1 0xE0 SHL PUSH1 0x0 MSTORE PUSH1 0x32 PUSH1 0x4 MSTORE PUSH1 0x24 PUSH1 0x0 REVERT JUMPDEST PUSH1 0x0 PUSH1 0x20 DUP3 DUP5 SUB SLT ISZERO PUSH2 0x208A JUMPI PUSH1 0x0 DUP1 REVERT JUMPDEST POP MLOAD SWAP2 SWAP1 POP JUMP JUMPDEST PUSH1 0x0 PUSH1 0x20 DUP3 DUP5 SUB SLT ISZERO PUSH2 0x20A3 JUMPI PUSH1 0x0 DUP1 REVERT JUMPDEST DUP2 MLOAD DUP1 ISZERO ISZERO DUP2 EQ PUSH2 0x205B JUMPI PUSH1 0x0 DUP1 REVERT JUMPDEST PUSH4 0x4E487B71 PUSH1 0xE0 SHL PUSH1 0x0 MSTORE PUSH1 0x11 PUSH1 0x4 MSTORE PUSH1 0x24 PUSH1 0x0 REVERT JUMPDEST DUP1 DUP3 ADD DUP1 DUP3 GT ISZERO PUSH2 0x1D36 JUMPI PUSH2 0x1D36 PUSH2 0x20B3 JUMP JUMPDEST PUSH1 0x0 DUP2 MLOAD DUP1 DUP5 MSTORE PUSH1 0x20 DUP1 DUP6 ADD SWAP5 POP DUP1 DUP5 ADD PUSH1 0x0 JUMPDEST DUP4 DUP2 LT ISZERO PUSH2 0x2115 JUMPI DUP2 MLOAD PUSH1 0x1 PUSH1 0x1 PUSH1 0xA0 SHL SUB AND DUP8 MSTORE SWAP6 DUP3 ADD SWAP6 SWAP1 DUP3 ADD SWAP1 PUSH1 0x1 ADD PUSH2 0x20F0 JUMP JUMPDEST POP SWAP5 SWAP6 SWAP5 POP POP POP POP POP JUMP JUMPDEST DUP6 DUP2 MSTORE DUP5 PUSH1 0x20 DUP3 ADD MSTORE PUSH1 0xA0 PUSH1 0x40 DUP3 ADD MSTORE PUSH1 0x0 PUSH2 0x213F PUSH1 0xA0 DUP4 ADD DUP7 PUSH2 0x20DC JUMP JUMPDEST PUSH1 0x1 PUSH1 0x1 PUSH1 0xA0 SHL SUB SWAP5 SWAP1 SWAP5 AND PUSH1 0x60 DUP4 ADD MSTORE POP PUSH1 0x80 ADD MSTORE SWAP4 SWAP3 POP POP POP JUMP JUMPDEST PUSH1 0x0 PUSH1 0x20 DUP1 DUP4 DUP6 SUB SLT ISZERO PUSH2 0x216F JUMPI PUSH1 0x0 DUP1 REVERT JUMPDEST DUP3 MLOAD PUSH8 0xFFFFFFFFFFFFFFFF DUP2 GT ISZERO PUSH2 0x2186 JUMPI PUSH1 0x0 DUP1 REVERT JUMPDEST DUP4 ADD PUSH1 0x1F DUP2 ADD DUP6 SGT PUSH2 0x2197 JUMPI PUSH1 0x0 DUP1 REVERT JUMPDEST DUP1 MLOAD PUSH2 0x21A5 PUSH2 0x1EFC DUP3 PUSH2 0x1E53 JUMP JUMPDEST DUP2 DUP2 MSTORE PUSH1 0x5 SWAP2 SWAP1 SWAP2 SHL DUP3 ADD DUP4 ADD SWAP1 DUP4 DUP2 ADD SWAP1 DUP8 DUP4 GT ISZERO PUSH2 0x21C4 JUMPI PUSH1 0x0 DUP1 REVERT JUMPDEST SWAP3 DUP5 ADD SWAP3 JUMPDEST DUP3 DUP5 LT ISZERO PUSH2 0x21E2 JUMPI DUP4 MLOAD DUP3 MSTORE SWAP3 DUP5 ADD SWAP3 SWAP1 DUP5 ADD SWAP1 PUSH2 0x21C9 JUMP JUMPDEST SWAP8 SWAP7 POP POP POP POP POP POP POP JUMP JUMPDEST PUSH1 0x0 DUP2 MLOAD DUP1 DUP5 MSTORE PUSH1 0x0 JUMPDEST DUP2 DUP2 LT ISZERO PUSH2 0x2213 JUMPI PUSH1 0x20 DUP2 DUP6 ADD DUP2 ADD MLOAD DUP7 DUP4 ADD DUP3 ADD MSTORE ADD PUSH2 0x21F7 JUMP JUMPDEST POP PUSH1 0x0 PUSH1 0x20 DUP3 DUP7 ADD ADD MSTORE PUSH1 0x20 PUSH1 0x1F NOT PUSH1 0x1F DUP4 ADD AND DUP6 ADD ADD SWAP2 POP POP SWAP3 SWAP2 POP POP JUMP JUMPDEST DUP5 DUP2 MSTORE DUP4 PUSH1 0x20 DUP3 ADD MSTORE PUSH1 0x1 DUP1 PUSH1 0xA0 SHL SUB DUP4 AND PUSH1 0x40 DUP3 ADD MSTORE PUSH1 0x80 PUSH1 0x60 DUP3 ADD MSTORE PUSH1 0x0 PUSH2 0x2260 PUSH1 0x80 DUP4 ADD DUP5 PUSH2 0x21ED JUMP JUMPDEST SWAP7 SWAP6 POP POP POP POP POP POP JUMP JUMPDEST DUP1 MLOAD PUSH1 0x1 PUSH1 0x1 PUSH1 0x70 SHL SUB DUP2 AND DUP2 EQ PUSH2 0x2281 JUMPI PUSH1 0x0 DUP1 REVERT JUMPDEST SWAP2 SWAP1 POP JUMP JUMPDEST PUSH1 0x0 DUP1 PUSH1 0x0 PUSH1 0x60 DUP5 DUP7 SUB SLT ISZERO PUSH2 0x229B JUMPI PUSH1 0x0 DUP1 REVERT JUMPDEST PUSH2 0x22A4 DUP5 PUSH2 0x226A JUMP JUMPDEST SWAP3 POP PUSH2 0x22B2 PUSH1 0x20 DUP6 ADD PUSH2 0x226A JUMP JUMPDEST SWAP2 POP PUSH1 0x40 DUP5 ADD MLOAD PUSH4 0xFFFFFFFF DUP2 AND DUP2 EQ PUSH2 0x22CB JUMPI PUSH1 0x0 DUP1 REVERT JUMPDEST DUP1 SWAP2 POP POP SWAP3 POP SWAP3 POP SWAP3 JUMP JUMPDEST PUSH1 0x20 DUP2 MSTORE PUSH1 0x0 PUSH2 0x205B PUSH1 0x20 DUP4 ADD DUP5 PUSH2 0x21ED JUMP JUMPDEST PUSH1 0x40 DUP2 MSTORE PUSH1 0x0 PUSH2 0x22FC PUSH1 0x40 DUP4 ADD DUP6 PUSH2 0x21ED JUMP JUMPDEST SWAP1 POP DUP3 PUSH1 0x20 DUP4 ADD MSTORE SWAP4 SWAP3 POP POP POP JUMP JUMPDEST PUSH1 0x40 DUP2 MSTORE PUSH1 0x0 PUSH2 0x231E PUSH1 0x40 DUP4 ADD DUP6 PUSH2 0x21ED JUMP JUMPDEST SWAP1 POP PUSH1 0x1 DUP1 PUSH1 0xA0 SHL SUB DUP4 AND PUSH1 0x20 DUP4 ADD MSTORE SWAP4 SWAP3 POP POP POP JUMP JUMPDEST PUSH1 0x60 DUP2 MSTORE PUSH1 0x0 PUSH2 0x2348 PUSH1 0x60 DUP4 ADD DUP7 PUSH2 0x21ED JUMP JUMPDEST DUP5 PUSH1 0x20 DUP5 ADD MSTORE DUP3 DUP2 SUB PUSH1 0x40 DUP5 ADD MSTORE PUSH2 0x2260 DUP2 DUP6 PUSH2 0x21ED JUMP JUMPDEST DUP3 DUP2 MSTORE PUSH1 0x40 PUSH1 0x20 DUP3 ADD MSTORE PUSH1 0x0 PUSH2 0x1CC7 PUSH1 0x40 DUP4 ADD DUP5 PUSH2 0x20DC JUMP JUMPDEST DUP1 DUP3 MUL DUP2 ISZERO DUP3 DUP3 DIV DUP5 EQ OR PUSH2 0x1D36 JUMPI PUSH2 0x1D36 PUSH2 0x20B3 JUMP JUMPDEST PUSH1 0x0 DUP3 PUSH2 0x23AD JUMPI PUSH4 0x4E487B71 PUSH1 0xE0 SHL PUSH1 0x0 MSTORE PUSH1 0x12 PUSH1 0x4 MSTORE PUSH1 0x24 PUSH1 0x0 REVERT JUMPDEST POP DIV SWAP1 JUMP INVALID COINBASE PUSH17 0x70726F76696E6720726563697069656E74 MSTORE PUSH16 0x7574657220746F20747261646520746F PUSH12 0x656E30A26469706673582212 KECCAK256 SUB PUSH24 0x72F9572EFDC7DBBC51DBEFC505B2A564B823D2685E76A348 0xDC DUP4 LOG4 0xBD PUSH3 0xCC6473 PUSH16 0x6C634300081300330000000000000000 "},"methodIdentifiers":{"checkOwner()":"cdbce03d","flashSwap(address,address,address,address,address,uint256,uint256,uint256)":"de60dce4","getAmounts(uint256,uint256,uint256,address,address,address[])":"601a9e62","getK()":"ee39e7a0","uniswapV2Call(address,uint256,uint256,bytes)":"10d1e85c"}}}}}