{"contracts/v2/flashMulti.sol":{"flashMulti":{"abi":[{"inputs":[{"internalType":"address","name":"_owner","type":"address"}],"stateMutability":"nonpayable","type":"constructor"},{"anonymous":false,"inputs":[{"indexed":false,"internalType":"string","name":"message","type":"string"}],"name":"log","type":"event"},{"anonymous":false,"inputs":[{"indexed":false,"internalType":"string","name":"message","type":"string"},{"indexed":false,"internalType":"address","name":"val","type":"address"}],"name":"logAddress","type":"event"},{"anonymous":false,"inputs":[{"indexed":false,"internalType":"string","name":"message","type":"string"},{"indexed":false,"internalType":"uint256","name":"val","type":"uint256"}],"name":"logValue","type":"event"},{"stateMutability":"payable","type":"fallback"},{"inputs":[],"name":"checkOwner","outputs":[{"internalType":"address","name":"","type":"address"}],"stateMutability":"view","type":"function"},{"inputs":[{"internalType":"address","name":"loanFactory","type":"address"},{"internalType":"address","name":"loanRouter","type":"address"},{"internalType":"address","name":"recipientRouter","type":"address"},{"internalType":"address","name":"token0ID","type":"address"},{"internalType":"address","name":"token1ID","type":"address"},{"internalType":"uint256","name":"amount0In","type":"uint256"},{"internalType":"uint256","name":"amount1Out","type":"uint256"},{"internalType":"uint256","name":"amountToRepay","type":"uint256"}],"name":"flashSwap","outputs":[],"stateMutability":"nonpayable","type":"function"},{"inputs":[],"name":"getK","outputs":[{"internalType":"uint256","name":"k","type":"uint256"}],"stateMutability":"view","type":"function"},{"inputs":[],"name":"owner","outputs":[{"internalType":"address","name":"","type":"address"}],"stateMutability":"view","type":"function"},{"inputs":[],"name":"pair","outputs":[{"internalType":"contract IUniswapV2Pair","name":"","type":"address"}],"stateMutability":"view","type":"function"},{"inputs":[{"internalType":"address","name":"sender","type":"address"},{"internalType":"uint256","name":"amount0","type":"uint256"},{"internalType":"uint256","name":"amount1","type":"uint256"},{"internalType":"bytes","name":"data","type":"bytes"}],"name":"uniswapV2Call","outputs":[],"stateMutability":"nonpayable","type":"function"},{"stateMutability":"payable","type":"receive"}],"evm":{"bytecode":{"linkReferences":{},"object":"608060405234801561001057600080fd5b506040516114d43803806114d483398101604081905261002f91610054565b600080546001600160a01b0319166001600160a01b0392909216919091179055610084565b60006020828403121561006657600080fd5b81516001600160a01b038116811461007d57600080fd5b9392505050565b611441806100936000396000f3fe6080604052600436106100565760003560e01c806310d1e85c1461005f5780638da5cb5b1461007f578063a8aa1b31146100bc578063cdbce03d146100dc578063de60dce4146100fa578063ee39e7a01461011a57005b3661005d57005b005b34801561006b57600080fd5b5061005d61007a366004610f74565b61013d565b34801561008b57600080fd5b5060005461009f906001600160a01b031681565b6040516001600160a01b0390911681526020015b60405180910390f35b3480156100c857600080fd5b5060015461009f906001600160a01b031681565b3480156100e857600080fd5b506000546001600160a01b031661009f565b34801561010657600080fd5b5061005d61011536600461100a565b610665565b34801561012657600080fd5b5061012f61094a565b6040519081526020016100b3565b604080516002808252606082018352600092602083019080368337019050509050600080808080610170878901896110aa565b94509450945094509450336001600160a01b0316630dfe16816040518163ffffffff1660e01b8152600401602060405180830381865afa1580156101b8573d6000803e3d6000fd5b505050506040513d601f19601f820116820180604052508101906101dc9190611105565b866000815181106101ef576101ef611129565b60200260200101906001600160a01b031690816001600160a01b031681525050336001600160a01b031663d21220a76040518163ffffffff1660e01b8152600401602060405180830381865afa15801561024d573d6000803e3d6000fd5b505050506040513d601f19601f820116820180604052508101906102719190611105565b8660018151811061028457610284611129565b60200260200101906001600160a01b031690816001600160a01b031681525050846001600160a01b031663e6a43905876000815181106102c6576102c6611129565b6020026020010151886001815181106102e1576102e1611129565b60200260200101516040518363ffffffff1660e01b815260040161031b9291906001600160a01b0392831681529116602082015260400190565b602060405180830381865afa158015610338573d6000803e3d6000fd5b505050506040513d601f19601f8201168201806040525081019061035c9190611105565b600180546001600160a01b0319166001600160a01b0392909216918217905533146103c45760405162461bcd60e51b8152602060048201526013602482015272115c9c9bdc8e88155b985d5d1a1bdc9a5e9959606a1b60448201526064015b60405180910390fd5b6001600160a01b038b1630146104105760405162461bcd60e51b815260206004820152601160248201527022b93937b91d102737ba1039b2b73232b960791b60448201526064016103bb565b89158061041b575088155b6104605760405162461bcd60e51b81526020600482015260166024820152754572726f723a20496e76616c696420616d6f756e747360501b60448201526064016103bb565b60008660018151811061047557610475611129565b60200260200101519050600061048f8c848689898d6109e9565b6000546040516370a0823160e01b81523060048201529192506001600160a01b038481169263a9059cbb92919091169083906370a0823190602401602060405180830381865afa1580156104e7573d6000803e3d6000fd5b505050506040513d601f19601f8201168201806040525081019061050b919061113f565b6040516001600160e01b031960e085901b1681526001600160a01b03909216600483015260248201526044016020604051808303816000875af1158015610556573d6000803e3d6000fd5b505050506040513d601f19601f8201168201806040525081019061057a9190611158565b506040516370a0823160e01b81523060048201526001600160a01b038316906370a0823190602401602060405180830381865afa1580156105bf573d6000803e3d6000fd5b505050506040513d601f19601f820116820180604052508101906105e3919061113f565b156106565760405162461bcd60e51b815260206004820152603860248201527f4572726f723a205472616e73666572206661696c65642064756520746f20746f60448201527f6b656e312062616c616e6365206e6f74206265696e672030000000000000000060648201526084016103bb565b50505050505050505050505050565b6000546001600160a01b031633146106d05760405162461bcd60e51b815260206004820152602860248201527f4572726f723a204f6e6c79206f776e65722063616e2063616c6c207468697320604482015267333ab731ba34b7b760c11b60648201526084016103bb565b60405163e6a4390560e01b81526001600160a01b038681166004830152858116602483015289169063e6a4390590604401602060405180830381865afa15801561071e573d6000803e3d6000fd5b505050506040513d601f19601f820116820180604052508101906107429190611105565b600180546001600160a01b0319166001600160a01b039290921691821790556107ad5760405162461bcd60e51b815260206004820152601a60248201527f4572726f723a205061697220646f6573206e6f7420657869737400000000000060448201526064016103bb565b604080516001600160a01b03808b166020830152808a169282019290925290871660608201526080810183905260a0810182905260009060c00160408051808303601f190181529082905260015463095ea7b360e01b83526001600160a01b0390811660048401526024830187905290925087169063095ea7b3906044016020604051808303816000875af115801561084a573d6000803e3d6000fd5b505050506040513d601f19601f8201168201806040525081019061086e9190611158565b50600084116108e55760405162461bcd60e51b815260206004820152603a60248201527f4572726f723a20496e76616c696420616d6f756e7430496e3a20616d6f756e7460448201527f30496e206d7573742062652067726561746572207468616e203000000000000060648201526084016103bb565b60015460405163022c0d9f60e01b81526001600160a01b039091169063022c0d9f9061091c9087906000903090879060040161117a565b600060405180830381600087803b15801561093657600080fd5b505af1158015610656573d6000803e3d6000fd5b6000806000600160009054906101000a90046001600160a01b03166001600160a01b0316630902f1ac6040518163ffffffff1660e01b8152600401606060405180830381865afa1580156109a2573d6000803e3d6000fd5b505050506040513d601f19601f820116820180604052508101906109c69190611202565b5090925090506109e26001600160701b03808416908316610d59565b9250505090565b600080826000815181106109ff576109ff611129565b60200260200101519050600083600181518110610a1e57610a1e611129565b60200260200101519050600043600a610a379190611268565b90506000610a468b8988610dc6565b60405163095ea7b360e01b81526001600160a01b038981166004830152602482018e90529192509085169063095ea7b3906044016020604051808303816000875af1158015610a99573d6000803e3d6000fd5b505050506040513d601f19601f82011682018060405250810190610abd9190611158565b506040516338ed173960e01b81526001600160a01b038816906338ed173990610af2908e908d908b90309089906004016112bf565b6000604051808303816000875af1158015610b11573d6000803e3d6000fd5b505050506040513d6000823e601f3d908101601f19168201604052610b3991908101906112fb565b600181518110610b4b57610b4b611129565b60200260200101519450826001600160a01b031663095ea7b33383600081518110610b7857610b78611129565b60200260200101516040518363ffffffff1660e01b8152600401610bb19291906001600160a01b03929092168252602082015260400190565b6020604051808303816000875af1158015610bd0573d6000803e3d6000fd5b505050506040513d601f19601f82011682018060405250810190610bf49190611158565b50826001600160a01b03166323b872dd303384600081518110610c1957610c19611129565b60209081029190910101516040516001600160e01b031960e086901b1681526001600160a01b03938416600482015292909116602483015260448201526064016020604051808303816000875af1158015610c78573d6000803e3d6000fd5b505050506040513d601f19601f82011682018060405250810190610c9c9190611158565b506040516370a0823160e01b81523060048201526001600160a01b038416906370a0823190602401602060405180830381865afa158015610ce1573d6000803e3d6000fd5b505050506040513d601f19601f82011682018060405250810190610d05919061113f565b15610d4b5760405162461bcd60e51b8152602060048201526016602482015275115c9c9bdc8e88151c985b9cd9995c8819985a5b195960521b60448201526064016103bb565b505050509695505050505050565b6000811580610d7d57508282610d6f81836113b9565b9250610d7b90836113d0565b145b610dc05760405162461bcd60e51b815260206004820152601460248201527364732d6d6174682d6d756c2d6f766572666c6f7760601b60448201526064016103bb565b92915050565b6060336001600160a01b031663d21220a76040518163ffffffff1660e01b8152600401602060405180830381865afa158015610e06573d6000803e3d6000fd5b505050506040513d601f19601f82011682018060405250810190610e2a9190611105565b82600081518110610e3d57610e3d611129565b60200260200101906001600160a01b031690816001600160a01b031681525050336001600160a01b0316630dfe16816040518163ffffffff1660e01b8152600401602060405180830381865afa158015610e9b573d6000803e3d6000fd5b505050506040513d601f19601f82011682018060405250810190610ebf9190611105565b82600181518110610ed257610ed2611129565b6001600160a01b0392831660209182029290920101526040516307c0329d60e21b815290841690631f00ca7490610f0f90879086906004016113f2565b600060405180830381865afa158015610f2c573d6000803e3d6000fd5b505050506040513d6000823e601f3d908101601f19168201604052610f5491908101906112fb565b949350505050565b6001600160a01b0381168114610f7157600080fd5b50565b600080600080600060808688031215610f8c57600080fd5b8535610f9781610f5c565b94506020860135935060408601359250606086013567ffffffffffffffff80821115610fc257600080fd5b818801915088601f830112610fd657600080fd5b813581811115610fe557600080fd5b896020828501011115610ff757600080fd5b9699959850939650602001949392505050565b600080600080600080600080610100898b03121561102757600080fd5b883561103281610f5c565b9750602089013561104281610f5c565b9650604089013561105281610f5c565b9550606089013561106281610f5c565b9450608089013561107281610f5c565b979a969950949793969560a0850135955060c08501359460e001359350915050565b634e487b7160e01b600052604160045260246000fd5b600080600080600060a086880312156110c257600080fd5b85356110cd81610f5c565b945060208601356110dd81610f5c565b935060408601356110ed81610f5c565b94979396509394606081013594506080013592915050565b60006020828403121561111757600080fd5b815161112281610f5c565b9392505050565b634e487b7160e01b600052603260045260246000fd5b60006020828403121561115157600080fd5b5051919050565b60006020828403121561116a57600080fd5b8151801515811461112257600080fd5b84815260006020858184015260018060a01b038516604084015260806060840152835180608085015260005b818110156111c25785810183015185820160a0015282016111a6565b50600060a0828601015260a0601f19601f8301168501019250505095945050505050565b80516001600160701b03811681146111fd57600080fd5b919050565b60008060006060848603121561121757600080fd5b611220846111e6565b925061122e602085016111e6565b9150604084015163ffffffff8116811461124757600080fd5b809150509250925092565b634e487b7160e01b600052601160045260246000fd5b80820180821115610dc057610dc0611252565b600081518084526020808501945080840160005b838110156112b45781516001600160a01b03168752958201959082019060010161128f565b509495945050505050565b85815284602082015260a0604082015260006112de60a083018661127b565b6001600160a01b0394909416606083015250608001529392505050565b6000602080838503121561130e57600080fd5b825167ffffffffffffffff8082111561132657600080fd5b818501915085601f83011261133a57600080fd5b81518181111561134c5761134c611094565b8060051b604051601f19603f8301168101818110858211171561137157611371611094565b60405291825284820192508381018501918883111561138f57600080fd5b938501935b828510156113ad57845184529385019392850192611394565b98975050505050505050565b8082028115828204841417610dc057610dc0611252565b6000826113ed57634e487b7160e01b600052601260045260246000fd5b500490565b828152604060208201526000610f54604083018461127b56fea26469706673582212207add30a5e603618c38b339488b8fca10beacce244d50c8981ebe8c2fcfc80d6464736f6c63430008130033","opcodes":"PUSH1 0x80 PUSH1 0x40 MSTORE CALLVALUE DUP1 ISZERO PUSH2 0x10 JUMPI PUSH1 0x0 DUP1 REVERT JUMPDEST POP PUSH1 0x40 MLOAD PUSH2 0x14D4 CODESIZE SUB DUP1 PUSH2 0x14D4 DUP4 CODECOPY DUP2 ADD PUSH1 0x40 DUP2 SWAP1 MSTORE PUSH2 0x2F SWAP2 PUSH2 0x54 JUMP JUMPDEST PUSH1 0x0 DUP1 SLOAD PUSH1 0x1 PUSH1 0x1 PUSH1 0xA0 SHL SUB NOT AND PUSH1 0x1 PUSH1 0x1 PUSH1 0xA0 SHL SUB SWAP3 SWAP1 SWAP3 AND SWAP2 SWAP1 SWAP2 OR SWAP1 SSTORE PUSH2 0x84 JUMP JUMPDEST PUSH1 0x0 PUSH1 0x20 DUP3 DUP5 SUB SLT ISZERO PUSH2 0x66 JUMPI PUSH1 0x0 DUP1 REVERT JUMPDEST DUP2 MLOAD PUSH1 0x1 PUSH1 0x1 PUSH1 0xA0 SHL SUB DUP2 AND DUP2 EQ PUSH2 0x7D JUMPI PUSH1 0x0 DUP1 REVERT JUMPDEST SWAP4 SWAP3 POP POP POP JUMP JUMPDEST PUSH2 0x1441 DUP1 PUSH2 0x93 PUSH1 0x0 CODECOPY PUSH1 0x0 RETURN INVALID PUSH1 0x80 PUSH1 0x40 MSTORE PUSH1 0x4 CALLDATASIZE LT PUSH2 0x56 JUMPI PUSH1 0x0 CALLDATALOAD PUSH1 0xE0 SHR DUP1 PUSH4 0x10D1E85C EQ PUSH2 0x5F JUMPI DUP1 PUSH4 0x8DA5CB5B EQ PUSH2 0x7F JUMPI DUP1 PUSH4 0xA8AA1B31 EQ PUSH2 0xBC JUMPI DUP1 PUSH4 0xCDBCE03D EQ PUSH2 0xDC JUMPI DUP1 PUSH4 0xDE60DCE4 EQ PUSH2 0xFA JUMPI DUP1 PUSH4 0xEE39E7A0 EQ PUSH2 0x11A JUMPI STOP JUMPDEST CALLDATASIZE PUSH2 0x5D JUMPI STOP JUMPDEST STOP JUMPDEST CALLVALUE DUP1 ISZERO PUSH2 0x6B JUMPI PUSH1 0x0 DUP1 REVERT JUMPDEST POP PUSH2 0x5D PUSH2 0x7A CALLDATASIZE PUSH1 0x4 PUSH2 0xF74 JUMP JUMPDEST PUSH2 0x13D JUMP JUMPDEST CALLVALUE DUP1 ISZERO PUSH2 0x8B JUMPI PUSH1 0x0 DUP1 REVERT JUMPDEST POP PUSH1 0x0 SLOAD PUSH2 0x9F SWAP1 PUSH1 0x1 PUSH1 0x1 PUSH1 0xA0 SHL SUB AND DUP2 JUMP JUMPDEST PUSH1 0x40 MLOAD PUSH1 0x1 PUSH1 0x1 PUSH1 0xA0 SHL SUB SWAP1 SWAP2 AND DUP2 MSTORE PUSH1 0x20 ADD JUMPDEST PUSH1 0x40 MLOAD DUP1 SWAP2 SUB SWAP1 RETURN JUMPDEST CALLVALUE DUP1 ISZERO PUSH2 0xC8 JUMPI PUSH1 0x0 DUP1 REVERT JUMPDEST POP PUSH1 0x1 SLOAD PUSH2 0x9F SWAP1 PUSH1 0x1 PUSH1 0x1 PUSH1 0xA0 SHL SUB AND DUP2 JUMP JUMPDEST CALLVALUE DUP1 ISZERO PUSH2 0xE8 JUMPI PUSH1 0x0 DUP1 REVERT JUMPDEST POP PUSH1 0x0 SLOAD PUSH1 0x1 PUSH1 0x1 PUSH1 0xA0 SHL SUB AND PUSH2 0x9F JUMP JUMPDEST CALLVALUE DUP1 ISZERO PUSH2 0x106 JUMPI PUSH1 0x0 DUP1 REVERT JUMPDEST POP PUSH2 0x5D PUSH2 0x115 CALLDATASIZE PUSH1 0x4 PUSH2 0x100A JUMP JUMPDEST PUSH2 0x665 JUMP JUMPDEST CALLVALUE DUP1 ISZERO PUSH2 0x126 JUMPI PUSH1 0x0 DUP1 REVERT JUMPDEST POP PUSH2 0x12F PUSH2 0x94A JUMP JUMPDEST PUSH1 0x40 MLOAD SWAP1 DUP2 MSTORE PUSH1 0x20 ADD PUSH2 0xB3 JUMP JUMPDEST PUSH1 0x40 DUP1 MLOAD PUSH1 0x2 DUP1 DUP3 MSTORE PUSH1 0x60 DUP3 ADD DUP4 MSTORE PUSH1 0x0 SWAP3 PUSH1 0x20 DUP4 ADD SWAP1 DUP1 CALLDATASIZE DUP4 CALLDATACOPY ADD SWAP1 POP POP SWAP1 POP PUSH1 0x0 DUP1 DUP1 DUP1 DUP1 PUSH2 0x170 DUP8 DUP10 ADD DUP10 PUSH2 0x10AA JUMP JUMPDEST SWAP5 POP SWAP5 POP SWAP5 POP SWAP5 POP SWAP5 POP CALLER PUSH1 0x1 PUSH1 0x1 PUSH1 0xA0 SHL SUB AND PUSH4 0xDFE1681 PUSH1 0x40 MLOAD DUP2 PUSH4 0xFFFFFFFF AND PUSH1 0xE0 SHL DUP2 MSTORE PUSH1 0x4 ADD PUSH1 0x20 PUSH1 0x40 MLOAD DUP1 DUP4 SUB DUP2 DUP7 GAS STATICCALL ISZERO DUP1 ISZERO PUSH2 0x1B8 JUMPI RETURNDATASIZE PUSH1 0x0 DUP1 RETURNDATACOPY RETURNDATASIZE PUSH1 0x0 REVERT JUMPDEST POP POP POP POP PUSH1 0x40 MLOAD RETURNDATASIZE PUSH1 0x1F NOT PUSH1 0x1F DUP3 ADD AND DUP3 ADD DUP1 PUSH1 0x40 MSTORE POP DUP2 ADD SWAP1 PUSH2 0x1DC SWAP2 SWAP1 PUSH2 0x1105 JUMP JUMPDEST DUP7 PUSH1 0x0 DUP2 MLOAD DUP2 LT PUSH2 0x1EF JUMPI PUSH2 0x1EF PUSH2 0x1129 JUMP JUMPDEST PUSH1 0x20 MUL PUSH1 0x20 ADD ADD SWAP1 PUSH1 0x1 PUSH1 0x1 PUSH1 0xA0 SHL SUB AND SWAP1 DUP2 PUSH1 0x1 PUSH1 0x1 PUSH1 0xA0 SHL SUB AND DUP2 MSTORE POP POP CALLER PUSH1 0x1 PUSH1 0x1 PUSH1 0xA0 SHL SUB AND PUSH4 0xD21220A7 PUSH1 0x40 MLOAD DUP2 PUSH4 0xFFFFFFFF AND PUSH1 0xE0 SHL DUP2 MSTORE PUSH1 0x4 ADD PUSH1 0x20 PUSH1 0x40 MLOAD DUP1 DUP4 SUB DUP2 DUP7 GAS STATICCALL ISZERO DUP1 ISZERO PUSH2 0x24D JUMPI RETURNDATASIZE PUSH1 0x0 DUP1 RETURNDATACOPY RETURNDATASIZE PUSH1 0x0 REVERT JUMPDEST POP POP POP POP PUSH1 0x40 MLOAD RETURNDATASIZE PUSH1 0x1F NOT PUSH1 0x1F DUP3 ADD AND DUP3 ADD DUP1 PUSH1 0x40 MSTORE POP DUP2 ADD SWAP1 PUSH2 0x271 SWAP2 SWAP1 PUSH2 0x1105 JUMP JUMPDEST DUP7 PUSH1 0x1 DUP2 MLOAD DUP2 LT PUSH2 0x284 JUMPI PUSH2 0x284 PUSH2 0x1129 JUMP JUMPDEST PUSH1 0x20 MUL PUSH1 0x20 ADD ADD SWAP1 PUSH1 0x1 PUSH1 0x1 PUSH1 0xA0 SHL SUB AND SWAP1 DUP2 PUSH1 0x1 PUSH1 0x1 PUSH1 0xA0 SHL SUB AND DUP2 MSTORE POP POP DUP5 PUSH1 0x1 PUSH1 0x1 PUSH1 0xA0 SHL SUB AND PUSH4 0xE6A43905 DUP8 PUSH1 0x0 DUP2 MLOAD DUP2 LT PUSH2 0x2C6 JUMPI PUSH2 0x2C6 PUSH2 0x1129 JUMP JUMPDEST PUSH1 0x20 MUL PUSH1 0x20 ADD ADD MLOAD DUP9 PUSH1 0x1 DUP2 MLOAD DUP2 LT PUSH2 0x2E1 JUMPI PUSH2 0x2E1 PUSH2 0x1129 JUMP JUMPDEST PUSH1 0x20 MUL PUSH1 0x20 ADD ADD MLOAD PUSH1 0x40 MLOAD DUP4 PUSH4 0xFFFFFFFF AND PUSH1 0xE0 SHL DUP2 MSTORE PUSH1 0x4 ADD PUSH2 0x31B SWAP3 SWAP2 SWAP1 PUSH1 0x1 PUSH1 0x1 PUSH1 0xA0 SHL SUB SWAP3 DUP4 AND DUP2 MSTORE SWAP2 AND PUSH1 0x20 DUP3 ADD MSTORE PUSH1 0x40 ADD SWAP1 JUMP JUMPDEST PUSH1 0x20 PUSH1 0x40 MLOAD DUP1 DUP4 SUB DUP2 DUP7 GAS STATICCALL ISZERO DUP1 ISZERO PUSH2 0x338 JUMPI RETURNDATASIZE PUSH1 0x0 DUP1 RETURNDATACOPY RETURNDATASIZE PUSH1 0x0 REVERT JUMPDEST POP POP POP POP PUSH1 0x40 MLOAD RETURNDATASIZE PUSH1 0x1F NOT PUSH1 0x1F DUP3 ADD AND DUP3 ADD DUP1 PUSH1 0x40 MSTORE POP DUP2 ADD SWAP1 PUSH2 0x35C SWAP2 SWAP1 PUSH2 0x1105 JUMP JUMPDEST PUSH1 0x1 DUP1 SLOAD PUSH1 0x1 PUSH1 0x1 PUSH1 0xA0 SHL SUB NOT AND PUSH1 0x1 PUSH1 0x1 PUSH1 0xA0 SHL SUB SWAP3 SWAP1 SWAP3 AND SWAP2 DUP3 OR SWAP1 SSTORE CALLER EQ PUSH2 0x3C4 JUMPI PUSH1 0x40 MLOAD PUSH3 0x461BCD PUSH1 0xE5 SHL DUP2 MSTORE PUSH1 0x20 PUSH1 0x4 DUP3 ADD MSTORE PUSH1 0x13 PUSH1 0x24 DUP3 ADD MSTORE PUSH19 0x115C9C9BDC8E88155B985D5D1A1BDC9A5E9959 PUSH1 0x6A SHL PUSH1 0x44 DUP3 ADD MSTORE PUSH1 0x64 ADD JUMPDEST PUSH1 0x40 MLOAD DUP1 SWAP2 SUB SWAP1 REVERT JUMPDEST PUSH1 0x1 PUSH1 0x1 PUSH1 0xA0 SHL SUB DUP12 AND ADDRESS EQ PUSH2 0x410 JUMPI PUSH1 0x40 MLOAD PUSH3 0x461BCD PUSH1 0xE5 SHL DUP2 MSTORE PUSH1 0x20 PUSH1 0x4 DUP3 ADD MSTORE PUSH1 0x11 PUSH1 0x24 DUP3 ADD MSTORE PUSH17 0x22B93937B91D102737BA1039B2B73232B9 PUSH1 0x79 SHL PUSH1 0x44 DUP3 ADD MSTORE PUSH1 0x64 ADD PUSH2 0x3BB JUMP JUMPDEST DUP10 ISZERO DUP1 PUSH2 0x41B JUMPI POP DUP9 ISZERO JUMPDEST PUSH2 0x460 JUMPI PUSH1 0x40 MLOAD PUSH3 0x461BCD PUSH1 0xE5 SHL DUP2 MSTORE PUSH1 0x20 PUSH1 0x4 DUP3 ADD MSTORE PUSH1 0x16 PUSH1 0x24 DUP3 ADD MSTORE PUSH22 0x4572726F723A20496E76616C696420616D6F756E7473 PUSH1 0x50 SHL PUSH1 0x44 DUP3 ADD MSTORE PUSH1 0x64 ADD PUSH2 0x3BB JUMP JUMPDEST PUSH1 0x0 DUP7 PUSH1 0x1 DUP2 MLOAD DUP2 LT PUSH2 0x475 JUMPI PUSH2 0x475 PUSH2 0x1129 JUMP JUMPDEST PUSH1 0x20 MUL PUSH1 0x20 ADD ADD MLOAD SWAP1 POP PUSH1 0x0 PUSH2 0x48F DUP13 DUP5 DUP7 DUP10 DUP10 DUP14 PUSH2 0x9E9 JUMP JUMPDEST PUSH1 0x0 SLOAD PUSH1 0x40 MLOAD PUSH4 0x70A08231 PUSH1 0xE0 SHL DUP2 MSTORE ADDRESS PUSH1 0x4 DUP3 ADD MSTORE SWAP2 SWAP3 POP PUSH1 0x1 PUSH1 0x1 PUSH1 0xA0 SHL SUB DUP5 DUP2 AND SWAP3 PUSH4 0xA9059CBB SWAP3 SWAP2 SWAP1 SWAP2 AND SWAP1 DUP4 SWAP1 PUSH4 0x70A08231 SWAP1 PUSH1 0x24 ADD PUSH1 0x20 PUSH1 0x40 MLOAD DUP1 DUP4 SUB DUP2 DUP7 GAS STATICCALL ISZERO DUP1 ISZERO PUSH2 0x4E7 JUMPI RETURNDATASIZE PUSH1 0x0 DUP1 RETURNDATACOPY RETURNDATASIZE PUSH1 0x0 REVERT JUMPDEST POP POP POP POP PUSH1 0x40 MLOAD RETURNDATASIZE PUSH1 0x1F NOT PUSH1 0x1F DUP3 ADD AND DUP3 ADD DUP1 PUSH1 0x40 MSTORE POP DUP2 ADD SWAP1 PUSH2 0x50B SWAP2 SWAP1 PUSH2 0x113F JUMP JUMPDEST PUSH1 0x40 MLOAD PUSH1 0x1 PUSH1 0x1 PUSH1 0xE0 SHL SUB NOT PUSH1 0xE0 DUP6 SWAP1 SHL AND DUP2 MSTORE PUSH1 0x1 PUSH1 0x1 PUSH1 0xA0 SHL SUB SWAP1 SWAP3 AND PUSH1 0x4 DUP4 ADD MSTORE PUSH1 0x24 DUP3 ADD MSTORE PUSH1 0x44 ADD PUSH1 0x20 PUSH1 0x40 MLOAD DUP1 DUP4 SUB DUP2 PUSH1 0x0 DUP8 GAS CALL ISZERO DUP1 ISZERO PUSH2 0x556 JUMPI RETURNDATASIZE PUSH1 0x0 DUP1 RETURNDATACOPY RETURNDATASIZE PUSH1 0x0 REVERT JUMPDEST POP POP POP POP PUSH1 0x40 MLOAD RETURNDATASIZE PUSH1 0x1F NOT PUSH1 0x1F DUP3 ADD AND DUP3 ADD DUP1 PUSH1 0x40 MSTORE POP DUP2 ADD SWAP1 PUSH2 0x57A SWAP2 SWAP1 PUSH2 0x1158 JUMP JUMPDEST POP PUSH1 0x40 MLOAD PUSH4 0x70A08231 PUSH1 0xE0 SHL DUP2 MSTORE ADDRESS PUSH1 0x4 DUP3 ADD MSTORE PUSH1 0x1 PUSH1 0x1 PUSH1 0xA0 SHL SUB DUP4 AND SWAP1 PUSH4 0x70A08231 SWAP1 PUSH1 0x24 ADD PUSH1 0x20 PUSH1 0x40 MLOAD DUP1 DUP4 SUB DUP2 DUP7 GAS STATICCALL ISZERO DUP1 ISZERO PUSH2 0x5BF JUMPI RETURNDATASIZE PUSH1 0x0 DUP1 RETURNDATACOPY RETURNDATASIZE PUSH1 0x0 REVERT JUMPDEST POP POP POP POP PUSH1 0x40 MLOAD RETURNDATASIZE PUSH1 0x1F NOT PUSH1 0x1F DUP3 ADD AND DUP3 ADD DUP1 PUSH1 0x40 MSTORE POP DUP2 ADD SWAP1 PUSH2 0x5E3 SWAP2 SWAP1 PUSH2 0x113F JUMP JUMPDEST ISZERO PUSH2 0x656 JUMPI PUSH1 0x40 MLOAD PUSH3 0x461BCD PUSH1 0xE5 SHL DUP2 MSTORE PUSH1 0x20 PUSH1 0x4 DUP3 ADD MSTORE PUSH1 0x38 PUSH1 0x24 DUP3 ADD MSTORE PUSH32 0xYOURKEYHERE PUSH1 0x44 DUP3 ADD MSTORE PUSH32 0xYOURKEYHERE PUSH1 0x64 DUP3 ADD MSTORE PUSH1 0x84 ADD PUSH2 0x3BB JUMP JUMPDEST POP POP POP POP POP POP POP POP POP POP POP POP POP JUMP JUMPDEST PUSH1 0x0 SLOAD PUSH1 0x1 PUSH1 0x1 PUSH1 0xA0 SHL SUB AND CALLER EQ PUSH2 0x6D0 JUMPI PUSH1 0x40 MLOAD PUSH3 0x461BCD PUSH1 0xE5 SHL DUP2 MSTORE PUSH1 0x20 PUSH1 0x4 DUP3 ADD MSTORE PUSH1 0x28 PUSH1 0x24 DUP3 ADD MSTORE PUSH32 0xYOURKEYHERE PUSH1 0x44 DUP3 ADD MSTORE PUSH8 0x333AB731BA34B7B7 PUSH1 0xC1 SHL PUSH1 0x64 DUP3 ADD MSTORE PUSH1 0x84 ADD PUSH2 0x3BB JUMP JUMPDEST PUSH1 0x40 MLOAD PUSH4 0xE6A43905 PUSH1 0xE0 SHL DUP2 MSTORE PUSH1 0x1 PUSH1 0x1 PUSH1 0xA0 SHL SUB DUP7 DUP2 AND PUSH1 0x4 DUP4 ADD MSTORE DUP6 DUP2 AND PUSH1 0x24 DUP4 ADD MSTORE DUP10 AND SWAP1 PUSH4 0xE6A43905 SWAP1 PUSH1 0x44 ADD PUSH1 0x20 PUSH1 0x40 MLOAD DUP1 DUP4 SUB DUP2 DUP7 GAS STATICCALL ISZERO DUP1 ISZERO PUSH2 0x71E JUMPI RETURNDATASIZE PUSH1 0x0 DUP1 RETURNDATACOPY RETURNDATASIZE PUSH1 0x0 REVERT JUMPDEST POP POP POP POP PUSH1 0x40 MLOAD RETURNDATASIZE PUSH1 0x1F NOT PUSH1 0x1F DUP3 ADD AND DUP3 ADD DUP1 PUSH1 0x40 MSTORE POP DUP2 ADD SWAP1 PUSH2 0x742 SWAP2 SWAP1 PUSH2 0x1105 JUMP JUMPDEST PUSH1 0x1 DUP1 SLOAD PUSH1 0x1 PUSH1 0x1 PUSH1 0xA0 SHL SUB NOT AND PUSH1 0x1 PUSH1 0x1 PUSH1 0xA0 SHL SUB SWAP3 SWAP1 SWAP3 AND SWAP2 DUP3 OR SWAP1 SSTORE PUSH2 0x7AD JUMPI PUSH1 0x40 MLOAD PUSH3 0x461BCD PUSH1 0xE5 SHL DUP2 MSTORE PUSH1 0x20 PUSH1 0x4 DUP3 ADD MSTORE PUSH1 0x1A PUSH1 0x24 DUP3 ADD MSTORE PUSH32 0xYOURKEYHERE PUSH1 0x44 DUP3 ADD MSTORE PUSH1 0x64 ADD PUSH2 0x3BB JUMP JUMPDEST PUSH1 0x40 DUP1 MLOAD PUSH1 0x1 PUSH1 0x1 PUSH1 0xA0 SHL SUB DUP1 DUP12 AND PUSH1 0x20 DUP4 ADD MSTORE DUP1 DUP11 AND SWAP3 DUP3 ADD SWAP3 SWAP1 SWAP3 MSTORE SWAP1 DUP8 AND PUSH1 0x60 DUP3 ADD MSTORE PUSH1 0x80 DUP2 ADD DUP4 SWAP1 MSTORE PUSH1 0xA0 DUP2 ADD DUP3 SWAP1 MSTORE PUSH1 0x0 SWAP1 PUSH1 0xC0 ADD PUSH1 0x40 DUP1 MLOAD DUP1 DUP4 SUB PUSH1 0x1F NOT ADD DUP2 MSTORE SWAP1 DUP3 SWAP1 MSTORE PUSH1 0x1 SLOAD PUSH4 0x95EA7B3 PUSH1 0xE0 SHL DUP4 MSTORE PUSH1 0x1 PUSH1 0x1 PUSH1 0xA0 SHL SUB SWAP1 DUP2 AND PUSH1 0x4 DUP5 ADD MSTORE PUSH1 0x24 DUP4 ADD DUP8 SWAP1 MSTORE SWAP1 SWAP3 POP DUP8 AND SWAP1 PUSH4 0x95EA7B3 SWAP1 PUSH1 0x44 ADD PUSH1 0x20 PUSH1 0x40 MLOAD DUP1 DUP4 SUB DUP2 PUSH1 0x0 DUP8 GAS CALL ISZERO DUP1 ISZERO PUSH2 0x84A JUMPI RETURNDATASIZE PUSH1 0x0 DUP1 RETURNDATACOPY RETURNDATASIZE PUSH1 0x0 REVERT JUMPDEST POP POP POP POP PUSH1 0x40 MLOAD RETURNDATASIZE PUSH1 0x1F NOT PUSH1 0x1F DUP3 ADD AND DUP3 ADD DUP1 PUSH1 0x40 MSTORE POP DUP2 ADD SWAP1 PUSH2 0x86E SWAP2 SWAP1 PUSH2 0x1158 JUMP JUMPDEST POP PUSH1 0x0 DUP5 GT PUSH2 0x8E5 JUMPI PUSH1 0x40 MLOAD PUSH3 0x461BCD PUSH1 0xE5 SHL DUP2 MSTORE PUSH1 0x20 PUSH1 0x4 DUP3 ADD MSTORE PUSH1 0x3A PUSH1 0x24 DUP3 ADD MSTORE PUSH32 0xYOURKEYHERE PUSH1 0x44 DUP3 ADD MSTORE PUSH32 0xYOURKEYHERE PUSH1 0x64 DUP3 ADD MSTORE PUSH1 0x84 ADD PUSH2 0x3BB JUMP JUMPDEST PUSH1 0x1 SLOAD PUSH1 0x40 MLOAD PUSH4 0x22C0D9F PUSH1 0xE0 SHL DUP2 MSTORE PUSH1 0x1 PUSH1 0x1 PUSH1 0xA0 SHL SUB SWAP1 SWAP2 AND SWAP1 PUSH4 0x22C0D9F SWAP1 PUSH2 0x91C SWAP1 DUP8 SWAP1 PUSH1 0x0 SWAP1 ADDRESS SWAP1 DUP8 SWAP1 PUSH1 0x4 ADD PUSH2 0x117A JUMP JUMPDEST PUSH1 0x0 PUSH1 0x40 MLOAD DUP1 DUP4 SUB DUP2 PUSH1 0x0 DUP8 DUP1 EXTCODESIZE ISZERO DUP1 ISZERO PUSH2 0x936 JUMPI PUSH1 0x0 DUP1 REVERT JUMPDEST POP GAS CALL ISZERO DUP1 ISZERO PUSH2 0x656 JUMPI RETURNDATASIZE PUSH1 0x0 DUP1 RETURNDATACOPY RETURNDATASIZE PUSH1 0x0 REVERT JUMPDEST PUSH1 0x0 DUP1 PUSH1 0x0 PUSH1 0x1 PUSH1 0x0 SWAP1 SLOAD SWAP1 PUSH2 0x100 EXP SWAP1 DIV PUSH1 0x1 PUSH1 0x1 PUSH1 0xA0 SHL SUB AND PUSH1 0x1 PUSH1 0x1 PUSH1 0xA0 SHL SUB AND PUSH4 0x902F1AC PUSH1 0x40 MLOAD DUP2 PUSH4 0xFFFFFFFF AND PUSH1 0xE0 SHL DUP2 MSTORE PUSH1 0x4 ADD PUSH1 0x60 PUSH1 0x40 MLOAD DUP1 DUP4 SUB DUP2 DUP7 GAS STATICCALL ISZERO DUP1 ISZERO PUSH2 0x9A2 JUMPI RETURNDATASIZE PUSH1 0x0 DUP1 RETURNDATACOPY RETURNDATASIZE PUSH1 0x0 REVERT JUMPDEST POP POP POP POP PUSH1 0x40 MLOAD RETURNDATASIZE PUSH1 0x1F NOT PUSH1 0x1F DUP3 ADD AND DUP3 ADD DUP1 PUSH1 0x40 MSTORE POP DUP2 ADD SWAP1 PUSH2 0x9C6 SWAP2 SWAP1 PUSH2 0x1202 JUMP JUMPDEST POP SWAP1 SWAP3 POP SWAP1 POP PUSH2 0x9E2 PUSH1 0x1 PUSH1 0x1 PUSH1 0x70 SHL SUB DUP1 DUP5 AND SWAP1 DUP4 AND PUSH2 0xD59 JUMP JUMPDEST SWAP3 POP POP POP SWAP1 JUMP JUMPDEST PUSH1 0x0 DUP1 DUP3 PUSH1 0x0 DUP2 MLOAD DUP2 LT PUSH2 0x9FF JUMPI PUSH2 0x9FF PUSH2 0x1129 JUMP JUMPDEST PUSH1 0x20 MUL PUSH1 0x20 ADD ADD MLOAD SWAP1 POP PUSH1 0x0 DUP4 PUSH1 0x1 DUP2 MLOAD DUP2 LT PUSH2 0xA1E JUMPI PUSH2 0xA1E PUSH2 0x1129 JUMP JUMPDEST PUSH1 0x20 MUL PUSH1 0x20 ADD ADD MLOAD SWAP1 POP PUSH1 0x0 NUMBER PUSH1 0xA PUSH2 0xA37 SWAP2 SWAP1 PUSH2 0x1268 JUMP JUMPDEST SWAP1 POP PUSH1 0x0 PUSH2 0xA46 DUP12 DUP10 DUP9 PUSH2 0xDC6 JUMP JUMPDEST PUSH1 0x40 MLOAD PUSH4 0x95EA7B3 PUSH1 0xE0 SHL DUP2 MSTORE PUSH1 0x1 PUSH1 0x1 PUSH1 0xA0 SHL SUB DUP10 DUP2 AND PUSH1 0x4 DUP4 ADD MSTORE PUSH1 0x24 DUP3 ADD DUP15 SWAP1 MSTORE SWAP2 SWAP3 POP SWAP1 DUP6 AND SWAP1 PUSH4 0x95EA7B3 SWAP1 PUSH1 0x44 ADD PUSH1 0x20 PUSH1 0x40 MLOAD DUP1 DUP4 SUB DUP2 PUSH1 0x0 DUP8 GAS CALL ISZERO DUP1 ISZERO PUSH2 0xA99 JUMPI RETURNDATASIZE PUSH1 0x0 DUP1 RETURNDATACOPY RETURNDATASIZE PUSH1 0x0 REVERT JUMPDEST POP POP POP POP PUSH1 0x40 MLOAD RETURNDATASIZE PUSH1 0x1F NOT PUSH1 0x1F DUP3 ADD AND DUP3 ADD DUP1 PUSH1 0x40 MSTORE POP DUP2 ADD SWAP1 PUSH2 0xABD SWAP2 SWAP1 PUSH2 0x1158 JUMP JUMPDEST POP PUSH1 0x40 MLOAD PUSH4 0x38ED1739 PUSH1 0xE0 SHL DUP2 MSTORE PUSH1 0x1 PUSH1 0x1 PUSH1 0xA0 SHL SUB DUP9 AND SWAP1 PUSH4 0x38ED1739 SWAP1 PUSH2 0xAF2 SWAP1 DUP15 SWAP1 DUP14 SWAP1 DUP12 SWAP1 ADDRESS SWAP1 DUP10 SWAP1 PUSH1 0x4 ADD PUSH2 0x12BF JUMP JUMPDEST PUSH1 0x0 PUSH1 0x40 MLOAD DUP1 DUP4 SUB DUP2 PUSH1 0x0 DUP8 GAS CALL ISZERO DUP1 ISZERO PUSH2 0xB11 JUMPI RETURNDATASIZE PUSH1 0x0 DUP1 RETURNDATACOPY RETURNDATASIZE PUSH1 0x0 REVERT JUMPDEST POP POP POP POP PUSH1 0x40 MLOAD RETURNDATASIZE PUSH1 0x0 DUP3 RETURNDATACOPY PUSH1 0x1F RETURNDATASIZE SWAP1 DUP2 ADD PUSH1 0x1F NOT AND DUP3 ADD PUSH1 0x40 MSTORE PUSH2 0xB39 SWAP2 SWAP1 DUP2 ADD SWAP1 PUSH2 0x12FB JUMP JUMPDEST PUSH1 0x1 DUP2 MLOAD DUP2 LT PUSH2 0xB4B JUMPI PUSH2 0xB4B PUSH2 0x1129 JUMP JUMPDEST PUSH1 0x20 MUL PUSH1 0x20 ADD ADD MLOAD SWAP5 POP DUP3 PUSH1 0x1 PUSH1 0x1 PUSH1 0xA0 SHL SUB AND PUSH4 0x95EA7B3 CALLER DUP4 PUSH1 0x0 DUP2 MLOAD DUP2 LT PUSH2 0xB78 JUMPI PUSH2 0xB78 PUSH2 0x1129 JUMP JUMPDEST PUSH1 0x20 MUL PUSH1 0x20 ADD ADD MLOAD PUSH1 0x40 MLOAD DUP4 PUSH4 0xFFFFFFFF AND PUSH1 0xE0 SHL DUP2 MSTORE PUSH1 0x4 ADD PUSH2 0xBB1 SWAP3 SWAP2 SWAP1 PUSH1 0x1 PUSH1 0x1 PUSH1 0xA0 SHL SUB SWAP3 SWAP1 SWAP3 AND DUP3 MSTORE PUSH1 0x20 DUP3 ADD MSTORE PUSH1 0x40 ADD SWAP1 JUMP JUMPDEST PUSH1 0x20 PUSH1 0x40 MLOAD DUP1 DUP4 SUB DUP2 PUSH1 0x0 DUP8 GAS CALL ISZERO DUP1 ISZERO PUSH2 0xBD0 JUMPI RETURNDATASIZE PUSH1 0x0 DUP1 RETURNDATACOPY RETURNDATASIZE PUSH1 0x0 REVERT JUMPDEST POP POP POP POP PUSH1 0x40 MLOAD RETURNDATASIZE PUSH1 0x1F NOT PUSH1 0x1F DUP3 ADD AND DUP3 ADD DUP1 PUSH1 0x40 MSTORE POP DUP2 ADD SWAP1 PUSH2 0xBF4 SWAP2 SWAP1 PUSH2 0x1158 JUMP JUMPDEST POP DUP3 PUSH1 0x1 PUSH1 0x1 PUSH1 0xA0 SHL SUB AND PUSH4 0x23B872DD ADDRESS CALLER DUP5 PUSH1 0x0 DUP2 MLOAD DUP2 LT PUSH2 0xC19 JUMPI PUSH2 0xC19 PUSH2 0x1129 JUMP JUMPDEST PUSH1 0x20 SWAP1 DUP2 MUL SWAP2 SWAP1 SWAP2 ADD ADD MLOAD PUSH1 0x40 MLOAD PUSH1 0x1 PUSH1 0x1 PUSH1 0xE0 SHL SUB NOT PUSH1 0xE0 DUP7 SWAP1 SHL AND DUP2 MSTORE PUSH1 0x1 PUSH1 0x1 PUSH1 0xA0 SHL SUB SWAP4 DUP5 AND PUSH1 0x4 DUP3 ADD MSTORE SWAP3 SWAP1 SWAP2 AND PUSH1 0x24 DUP4 ADD MSTORE PUSH1 0x44 DUP3 ADD MSTORE PUSH1 0x64 ADD PUSH1 0x20 PUSH1 0x40 MLOAD DUP1 DUP4 SUB DUP2 PUSH1 0x0 DUP8 GAS CALL ISZERO DUP1 ISZERO PUSH2 0xC78 JUMPI RETURNDATASIZE PUSH1 0x0 DUP1 RETURNDATACOPY RETURNDATASIZE PUSH1 0x0 REVERT JUMPDEST POP POP POP POP PUSH1 0x40 MLOAD RETURNDATASIZE PUSH1 0x1F NOT PUSH1 0x1F DUP3 ADD AND DUP3 ADD DUP1 PUSH1 0x40 MSTORE POP DUP2 ADD SWAP1 PUSH2 0xC9C SWAP2 SWAP1 PUSH2 0x1158 JUMP JUMPDEST POP PUSH1 0x40 MLOAD PUSH4 0x70A08231 PUSH1 0xE0 SHL DUP2 MSTORE ADDRESS PUSH1 0x4 DUP3 ADD MSTORE PUSH1 0x1 PUSH1 0x1 PUSH1 0xA0 SHL SUB DUP5 AND SWAP1 PUSH4 0x70A08231 SWAP1 PUSH1 0x24 ADD PUSH1 0x20 PUSH1 0x40 MLOAD DUP1 DUP4 SUB DUP2 DUP7 GAS STATICCALL ISZERO DUP1 ISZERO PUSH2 0xCE1 JUMPI RETURNDATASIZE PUSH1 0x0 DUP1 RETURNDATACOPY RETURNDATASIZE PUSH1 0x0 REVERT JUMPDEST POP POP POP POP PUSH1 0x40 MLOAD RETURNDATASIZE PUSH1 0x1F NOT PUSH1 0x1F DUP3 ADD AND DUP3 ADD DUP1 PUSH1 0x40 MSTORE POP DUP2 ADD SWAP1 PUSH2 0xD05 SWAP2 SWAP1 PUSH2 0x113F JUMP JUMPDEST ISZERO PUSH2 0xD4B JUMPI PUSH1 0x40 MLOAD PUSH3 0x461BCD PUSH1 0xE5 SHL DUP2 MSTORE PUSH1 0x20 PUSH1 0x4 DUP3 ADD MSTORE PUSH1 0x16 PUSH1 0x24 DUP3 ADD MSTORE PUSH22 0x115C9C9BDC8E88151C985B9CD9995C8819985A5B1959 PUSH1 0x52 SHL PUSH1 0x44 DUP3 ADD MSTORE PUSH1 0x64 ADD PUSH2 0x3BB JUMP JUMPDEST POP POP POP POP SWAP7 SWAP6 POP POP POP POP POP POP JUMP JUMPDEST PUSH1 0x0 DUP2 ISZERO DUP1 PUSH2 0xD7D JUMPI POP DUP3 DUP3 PUSH2 0xD6F DUP2 DUP4 PUSH2 0x13B9 JUMP JUMPDEST SWAP3 POP PUSH2 0xD7B SWAP1 DUP4 PUSH2 0x13D0 JUMP JUMPDEST EQ JUMPDEST PUSH2 0xDC0 JUMPI PUSH1 0x40 MLOAD PUSH3 0x461BCD PUSH1 0xE5 SHL DUP2 MSTORE PUSH1 0x20 PUSH1 0x4 DUP3 ADD MSTORE PUSH1 0x14 PUSH1 0x24 DUP3 ADD MSTORE PUSH20 0x64732D6D6174682D6D756C2D6F766572666C6F77 PUSH1 0x60 SHL PUSH1 0x44 DUP3 ADD MSTORE PUSH1 0x64 ADD PUSH2 0x3BB JUMP JUMPDEST SWAP3 SWAP2 POP POP JUMP JUMPDEST PUSH1 0x60 CALLER PUSH1 0x1 PUSH1 0x1 PUSH1 0xA0 SHL SUB AND PUSH4 0xD21220A7 PUSH1 0x40 MLOAD DUP2 PUSH4 0xFFFFFFFF AND PUSH1 0xE0 SHL DUP2 MSTORE PUSH1 0x4 ADD PUSH1 0x20 PUSH1 0x40 MLOAD DUP1 DUP4 SUB DUP2 DUP7 GAS STATICCALL ISZERO DUP1 ISZERO PUSH2 0xE06 JUMPI RETURNDATASIZE PUSH1 0x0 DUP1 RETURNDATACOPY RETURNDATASIZE PUSH1 0x0 REVERT JUMPDEST POP POP POP POP PUSH1 0x40 MLOAD RETURNDATASIZE PUSH1 0x1F NOT PUSH1 0x1F DUP3 ADD AND DUP3 ADD DUP1 PUSH1 0x40 MSTORE POP DUP2 ADD SWAP1 PUSH2 0xE2A SWAP2 SWAP1 PUSH2 0x1105 JUMP JUMPDEST DUP3 PUSH1 0x0 DUP2 MLOAD DUP2 LT PUSH2 0xE3D JUMPI PUSH2 0xE3D PUSH2 0x1129 JUMP JUMPDEST PUSH1 0x20 MUL PUSH1 0x20 ADD ADD SWAP1 PUSH1 0x1 PUSH1 0x1 PUSH1 0xA0 SHL SUB AND SWAP1 DUP2 PUSH1 0x1 PUSH1 0x1 PUSH1 0xA0 SHL SUB AND DUP2 MSTORE POP POP CALLER PUSH1 0x1 PUSH1 0x1 PUSH1 0xA0 SHL SUB AND PUSH4 0xDFE1681 PUSH1 0x40 MLOAD DUP2 PUSH4 0xFFFFFFFF AND PUSH1 0xE0 SHL DUP2 MSTORE PUSH1 0x4 ADD PUSH1 0x20 PUSH1 0x40 MLOAD DUP1 DUP4 SUB DUP2 DUP7 GAS STATICCALL ISZERO DUP1 ISZERO PUSH2 0xE9B JUMPI RETURNDATASIZE PUSH1 0x0 DUP1 RETURNDATACOPY RETURNDATASIZE PUSH1 0x0 REVERT JUMPDEST POP POP POP POP PUSH1 0x40 MLOAD RETURNDATASIZE PUSH1 0x1F NOT PUSH1 0x1F DUP3 ADD AND DUP3 ADD DUP1 PUSH1 0x40 MSTORE POP DUP2 ADD SWAP1 PUSH2 0xEBF SWAP2 SWAP1 PUSH2 0x1105 JUMP JUMPDEST DUP3 PUSH1 0x1 DUP2 MLOAD DUP2 LT PUSH2 0xED2 JUMPI PUSH2 0xED2 PUSH2 0x1129 JUMP JUMPDEST PUSH1 0x1 PUSH1 0x1 PUSH1 0xA0 SHL SUB SWAP3 DUP4 AND PUSH1 0x20 SWAP2 DUP3 MUL SWAP3 SWAP1 SWAP3 ADD ADD MSTORE PUSH1 0x40 MLOAD PUSH4 0x7C0329D PUSH1 0xE2 SHL DUP2 MSTORE SWAP1 DUP5 AND SWAP1 PUSH4 0x1F00CA74 SWAP1 PUSH2 0xF0F SWAP1 DUP8 SWAP1 DUP7 SWAP1 PUSH1 0x4 ADD PUSH2 0x13F2 JUMP JUMPDEST PUSH1 0x0 PUSH1 0x40 MLOAD DUP1 DUP4 SUB DUP2 DUP7 GAS STATICCALL ISZERO DUP1 ISZERO PUSH2 0xF2C JUMPI RETURNDATASIZE PUSH1 0x0 DUP1 RETURNDATACOPY RETURNDATASIZE PUSH1 0x0 REVERT JUMPDEST POP POP POP POP PUSH1 0x40 MLOAD RETURNDATASIZE PUSH1 0x0 DUP3 RETURNDATACOPY PUSH1 0x1F RETURNDATASIZE SWAP1 DUP2 ADD PUSH1 0x1F NOT AND DUP3 ADD PUSH1 0x40 MSTORE PUSH2 0xF54 SWAP2 SWAP1 DUP2 ADD SWAP1 PUSH2 0x12FB JUMP JUMPDEST SWAP5 SWAP4 POP POP POP POP JUMP JUMPDEST PUSH1 0x1 PUSH1 0x1 PUSH1 0xA0 SHL SUB DUP2 AND DUP2 EQ PUSH2 0xF71 JUMPI PUSH1 0x0 DUP1 REVERT JUMPDEST POP JUMP JUMPDEST PUSH1 0x0 DUP1 PUSH1 0x0 DUP1 PUSH1 0x0 PUSH1 0x80 DUP7 DUP9 SUB SLT ISZERO PUSH2 0xF8C JUMPI PUSH1 0x0 DUP1 REVERT JUMPDEST DUP6 CALLDATALOAD PUSH2 0xF97 DUP2 PUSH2 0xF5C JUMP JUMPDEST SWAP5 POP PUSH1 0x20 DUP7 ADD CALLDATALOAD SWAP4 POP PUSH1 0x40 DUP7 ADD CALLDATALOAD SWAP3 POP PUSH1 0x60 DUP7 ADD CALLDATALOAD PUSH8 0xFFFFFFFFFFFFFFFF DUP1 DUP3 GT ISZERO PUSH2 0xFC2 JUMPI PUSH1 0x0 DUP1 REVERT JUMPDEST DUP2 DUP9 ADD SWAP2 POP DUP9 PUSH1 0x1F DUP4 ADD SLT PUSH2 0xFD6 JUMPI PUSH1 0x0 DUP1 REVERT JUMPDEST DUP2 CALLDATALOAD DUP2 DUP2 GT ISZERO PUSH2 0xFE5 JUMPI PUSH1 0x0 DUP1 REVERT JUMPDEST DUP10 PUSH1 0x20 DUP3 DUP6 ADD ADD GT ISZERO PUSH2 0xFF7 JUMPI PUSH1 0x0 DUP1 REVERT JUMPDEST SWAP7 SWAP10 SWAP6 SWAP9 POP SWAP4 SWAP7 POP PUSH1 0x20 ADD SWAP5 SWAP4 SWAP3 POP POP POP JUMP JUMPDEST PUSH1 0x0 DUP1 PUSH1 0x0 DUP1 PUSH1 0x0 DUP1 PUSH1 0x0 DUP1 PUSH2 0x100 DUP10 DUP12 SUB SLT ISZERO PUSH2 0x1027 JUMPI PUSH1 0x0 DUP1 REVERT JUMPDEST DUP9 CALLDATALOAD PUSH2 0x1032 DUP2 PUSH2 0xF5C JUMP JUMPDEST SWAP8 POP PUSH1 0x20 DUP10 ADD CALLDATALOAD PUSH2 0x1042 DUP2 PUSH2 0xF5C JUMP JUMPDEST SWAP7 POP PUSH1 0x40 DUP10 ADD CALLDATALOAD PUSH2 0x1052 DUP2 PUSH2 0xF5C JUMP JUMPDEST SWAP6 POP PUSH1 0x60 DUP10 ADD CALLDATALOAD PUSH2 0x1062 DUP2 PUSH2 0xF5C JUMP JUMPDEST SWAP5 POP PUSH1 0x80 DUP10 ADD CALLDATALOAD PUSH2 0x1072 DUP2 PUSH2 0xF5C JUMP JUMPDEST SWAP8 SWAP11 SWAP7 SWAP10 POP SWAP5 SWAP8 SWAP4 SWAP7 SWAP6 PUSH1 0xA0 DUP6 ADD CALLDATALOAD SWAP6 POP PUSH1 0xC0 DUP6 ADD CALLDATALOAD SWAP5 PUSH1 0xE0 ADD CALLDATALOAD SWAP4 POP SWAP2 POP POP JUMP JUMPDEST PUSH4 0x4E487B71 PUSH1 0xE0 SHL PUSH1 0x0 MSTORE PUSH1 0x41 PUSH1 0x4 MSTORE PUSH1 0x24 PUSH1 0x0 REVERT JUMPDEST PUSH1 0x0 DUP1 PUSH1 0x0 DUP1 PUSH1 0x0 PUSH1 0xA0 DUP7 DUP9 SUB SLT ISZERO PUSH2 0x10C2 JUMPI PUSH1 0x0 DUP1 REVERT JUMPDEST DUP6 CALLDATALOAD PUSH2 0x10CD DUP2 PUSH2 0xF5C JUMP JUMPDEST SWAP5 POP PUSH1 0x20 DUP7 ADD CALLDATALOAD PUSH2 0x10DD DUP2 PUSH2 0xF5C JUMP JUMPDEST SWAP4 POP PUSH1 0x40 DUP7 ADD CALLDATALOAD PUSH2 0x10ED DUP2 PUSH2 0xF5C JUMP JUMPDEST SWAP5 SWAP8 SWAP4 SWAP7 POP SWAP4 SWAP5 PUSH1 0x60 DUP2 ADD CALLDATALOAD SWAP5 POP PUSH1 0x80 ADD CALLDATALOAD SWAP3 SWAP2 POP POP JUMP JUMPDEST PUSH1 0x0 PUSH1 0x20 DUP3 DUP5 SUB SLT ISZERO PUSH2 0x1117 JUMPI PUSH1 0x0 DUP1 REVERT JUMPDEST DUP2 MLOAD PUSH2 0x1122 DUP2 PUSH2 0xF5C JUMP JUMPDEST SWAP4 SWAP3 POP POP POP JUMP JUMPDEST PUSH4 0x4E487B71 PUSH1 0xE0 SHL PUSH1 0x0 MSTORE PUSH1 0x32 PUSH1 0x4 MSTORE PUSH1 0x24 PUSH1 0x0 REVERT JUMPDEST PUSH1 0x0 PUSH1 0x20 DUP3 DUP5 SUB SLT ISZERO PUSH2 0x1151 JUMPI PUSH1 0x0 DUP1 REVERT JUMPDEST POP MLOAD SWAP2 SWAP1 POP JUMP JUMPDEST PUSH1 0x0 PUSH1 0x20 DUP3 DUP5 SUB SLT ISZERO PUSH2 0x116A JUMPI PUSH1 0x0 DUP1 REVERT JUMPDEST DUP2 MLOAD DUP1 ISZERO ISZERO DUP2 EQ PUSH2 0x1122 JUMPI PUSH1 0x0 DUP1 REVERT JUMPDEST DUP5 DUP2 MSTORE PUSH1 0x0 PUSH1 0x20 DUP6 DUP2 DUP5 ADD MSTORE PUSH1 0x1 DUP1 PUSH1 0xA0 SHL SUB DUP6 AND PUSH1 0x40 DUP5 ADD MSTORE PUSH1 0x80 PUSH1 0x60 DUP5 ADD MSTORE DUP4 MLOAD DUP1 PUSH1 0x80 DUP6 ADD MSTORE PUSH1 0x0 JUMPDEST DUP2 DUP2 LT ISZERO PUSH2 0x11C2 JUMPI DUP6 DUP2 ADD DUP4 ADD MLOAD DUP6 DUP3 ADD PUSH1 0xA0 ADD MSTORE DUP3 ADD PUSH2 0x11A6 JUMP JUMPDEST POP PUSH1 0x0 PUSH1 0xA0 DUP3 DUP7 ADD ADD MSTORE PUSH1 0xA0 PUSH1 0x1F NOT PUSH1 0x1F DUP4 ADD AND DUP6 ADD ADD SWAP3 POP POP POP SWAP6 SWAP5 POP POP POP POP POP JUMP JUMPDEST DUP1 MLOAD PUSH1 0x1 PUSH1 0x1 PUSH1 0x70 SHL SUB DUP2 AND DUP2 EQ PUSH2 0x11FD JUMPI PUSH1 0x0 DUP1 REVERT JUMPDEST SWAP2 SWAP1 POP JUMP JUMPDEST PUSH1 0x0 DUP1 PUSH1 0x0 PUSH1 0x60 DUP5 DUP7 SUB SLT ISZERO PUSH2 0x1217 JUMPI PUSH1 0x0 DUP1 REVERT JUMPDEST PUSH2 0x1220 DUP5 PUSH2 0x11E6 JUMP JUMPDEST SWAP3 POP PUSH2 0x122E PUSH1 0x20 DUP6 ADD PUSH2 0x11E6 JUMP JUMPDEST SWAP2 POP PUSH1 0x40 DUP5 ADD MLOAD PUSH4 0xFFFFFFFF DUP2 AND DUP2 EQ PUSH2 0x1247 JUMPI PUSH1 0x0 DUP1 REVERT JUMPDEST DUP1 SWAP2 POP POP SWAP3 POP SWAP3 POP SWAP3 JUMP JUMPDEST PUSH4 0x4E487B71 PUSH1 0xE0 SHL PUSH1 0x0 MSTORE PUSH1 0x11 PUSH1 0x4 MSTORE PUSH1 0x24 PUSH1 0x0 REVERT JUMPDEST DUP1 DUP3 ADD DUP1 DUP3 GT ISZERO PUSH2 0xDC0 JUMPI PUSH2 0xDC0 PUSH2 0x1252 JUMP JUMPDEST PUSH1 0x0 DUP2 MLOAD DUP1 DUP5 MSTORE PUSH1 0x20 DUP1 DUP6 ADD SWAP5 POP DUP1 DUP5 ADD PUSH1 0x0 JUMPDEST DUP4 DUP2 LT ISZERO PUSH2 0x12B4 JUMPI DUP2 MLOAD PUSH1 0x1 PUSH1 0x1 PUSH1 0xA0 SHL SUB AND DUP8 MSTORE SWAP6 DUP3 ADD SWAP6 SWAP1 DUP3 ADD SWAP1 PUSH1 0x1 ADD PUSH2 0x128F JUMP JUMPDEST POP SWAP5 SWAP6 SWAP5 POP POP POP POP POP JUMP JUMPDEST DUP6 DUP2 MSTORE DUP5 PUSH1 0x20 DUP3 ADD MSTORE PUSH1 0xA0 PUSH1 0x40 DUP3 ADD MSTORE PUSH1 0x0 PUSH2 0x12DE PUSH1 0xA0 DUP4 ADD DUP7 PUSH2 0x127B JUMP JUMPDEST PUSH1 0x1 PUSH1 0x1 PUSH1 0xA0 SHL SUB SWAP5 SWAP1 SWAP5 AND PUSH1 0x60 DUP4 ADD MSTORE POP PUSH1 0x80 ADD MSTORE SWAP4 SWAP3 POP POP POP JUMP JUMPDEST PUSH1 0x0 PUSH1 0x20 DUP1 DUP4 DUP6 SUB SLT ISZERO PUSH2 0x130E JUMPI PUSH1 0x0 DUP1 REVERT JUMPDEST DUP3 MLOAD PUSH8 0xFFFFFFFFFFFFFFFF DUP1 DUP3 GT ISZERO PUSH2 0x1326 JUMPI PUSH1 0x0 DUP1 REVERT JUMPDEST DUP2 DUP6 ADD SWAP2 POP DUP6 PUSH1 0x1F DUP4 ADD SLT PUSH2 0x133A JUMPI PUSH1 0x0 DUP1 REVERT JUMPDEST DUP2 MLOAD DUP2 DUP2 GT ISZERO PUSH2 0x134C JUMPI PUSH2 0x134C PUSH2 0x1094 JUMP JUMPDEST DUP1 PUSH1 0x5 SHL PUSH1 0x40 MLOAD PUSH1 0x1F NOT PUSH1 0x3F DUP4 ADD AND DUP2 ADD DUP2 DUP2 LT DUP6 DUP3 GT OR ISZERO PUSH2 0x1371 JUMPI PUSH2 0x1371 PUSH2 0x1094 JUMP JUMPDEST PUSH1 0x40 MSTORE SWAP2 DUP3 MSTORE DUP5 DUP3 ADD SWAP3 POP DUP4 DUP2 ADD DUP6 ADD SWAP2 DUP9 DUP4 GT ISZERO PUSH2 0x138F JUMPI PUSH1 0x0 DUP1 REVERT JUMPDEST SWAP4 DUP6 ADD SWAP4 JUMPDEST DUP3 DUP6 LT ISZERO PUSH2 0x13AD JUMPI DUP5 MLOAD DUP5 MSTORE SWAP4 DUP6 ADD SWAP4 SWAP3 DUP6 ADD SWAP3 PUSH2 0x1394 JUMP JUMPDEST SWAP9 SWAP8 POP POP POP POP POP POP POP POP JUMP JUMPDEST DUP1 DUP3 MUL DUP2 ISZERO DUP3 DUP3 DIV DUP5 EQ OR PUSH2 0xDC0 JUMPI PUSH2 0xDC0 PUSH2 0x1252 JUMP JUMPDEST PUSH1 0x0 DUP3 PUSH2 0x13ED JUMPI PUSH4 0x4E487B71 PUSH1 0xE0 SHL PUSH1 0x0 MSTORE PUSH1 0x12 PUSH1 0x4 MSTORE PUSH1 0x24 PUSH1 0x0 REVERT JUMPDEST POP DIV SWAP1 JUMP JUMPDEST DUP3 DUP2 MSTORE PUSH1 0x40 PUSH1 0x20 DUP3 ADD MSTORE PUSH1 0x0 PUSH2 0xF54 PUSH1 0x40 DUP4 ADD DUP5 PUSH2 0x127B JUMP INVALID LOG2 PUSH5 0x6970667358 0x22 SLT KECCAK256 PUSH27 0xDD30A5E603618C38B339488B8FCA10BEACCE244D50C8981EBE8C2F 0xCF 0xC8 0xD PUSH5 0x64736F6C63 NUMBER STOP ADDMOD SGT STOP CALLER "},"methodIdentifiers":{"checkOwner()":"cdbce03d","flashSwap(address,address,address,address,address,uint256,uint256,uint256)":"de60dce4","getK()":"ee39e7a0","owner()":"8da5cb5b","pair()":"a8aa1b31","uniswapV2Call(address,uint256,uint256,bytes)":"10d1e85c"}}}}}