{"contracts/v2/flashDirectTest.sol":{"flashDirectTest":{"abi":[{"inputs":[{"internalType":"address","name":"_owner","type":"address"}],"stateMutability":"nonpayable","type":"constructor"},{"anonymous":false,"inputs":[{"indexed":false,"internalType":"string","name":"message","type":"string"}],"name":"log","type":"event"},{"anonymous":false,"inputs":[{"indexed":false,"internalType":"string","name":"message","type":"string"},{"indexed":false,"internalType":"address","name":"val","type":"address"}],"name":"logAddress","type":"event"},{"anonymous":false,"inputs":[{"indexed":false,"internalType":"string","name":"message","type":"string"},{"indexed":false,"internalType":"uint256","name":"val","type":"uint256"}],"name":"logValue","type":"event"},{"stateMutability":"payable","type":"fallback"},{"inputs":[],"name":"checkOwner","outputs":[{"internalType":"address","name":"","type":"address"}],"stateMutability":"view","type":"function"},{"inputs":[{"internalType":"address","name":"loanFactory","type":"address"},{"internalType":"address","name":"loanRouter","type":"address"},{"internalType":"address","name":"targetRouter","type":"address"},{"internalType":"address","name":"token0ID","type":"address"},{"internalType":"address","name":"token1ID","type":"address"},{"internalType":"uint256","name":"amountIn","type":"uint256"},{"internalType":"uint256","name":"amountOut","type":"uint256"},{"internalType":"uint256","name":"amountToRepay","type":"uint256"}],"name":"flashSwap","outputs":[],"stateMutability":"nonpayable","type":"function"},{"inputs":[{"internalType":"address","name":"_sender","type":"address"},{"internalType":"uint256","name":"_amount0","type":"uint256"},{"internalType":"uint256","name":"_amount1","type":"uint256"},{"internalType":"bytes","name":"_data","type":"bytes"}],"name":"uniswapV2Call","outputs":[],"stateMutability":"nonpayable","type":"function"},{"stateMutability":"payable","type":"receive"}],"evm":{"bytecode":{"linkReferences":{},"object":"608060405234801561001057600080fd5b50604051620022793803806200227983398101604081905261003191610056565b600080546001600160a01b0319166001600160a01b0392909216919091179055610086565b60006020828403121561006857600080fd5b81516001600160a01b038116811461007f57600080fd5b9392505050565b6121e380620000966000396000f3fe6080604052600436106100355760003560e01c806310d1e85c1461003e578063cdbce03d1461005e578063de60dce41461008a57005b3661003c57005b005b34801561004a57600080fd5b5061003c610059366004611c47565b6100aa565b34801561006a57600080fd5b50600054604080516001600160a01b039092168252519081900360200190f35b34801561009657600080fd5b5061003c6100a5366004611cdd565b610b18565b6100e0604051806040016040528060158152602001741d5b9a5cddd85c158c90d85b1b08115b9d195c9959605a1b8152506110e2565b604080516002808252606082018352600092602083019080368337019050509050610134604051806040016040528060128152602001714465636f64696e67204c6f616e204461746160701b8152506110e2565b60008080808061014687890189611d7d565b9450945094509450945061018260405180604001604052806011815260200170131bd85b8811185d1848111958dbd91959607a1b8152506110e2565b336001600160a01b0316630dfe16816040518163ffffffff1660e01b8152600401602060405180830381865afa1580156101c0573d6000803e3d6000fd5b505050506040513d601f19601f820116820180604052508101906101e49190611dd8565b866000815181106101f7576101f7611dfc565b60200260200101906001600160a01b031690816001600160a01b031681525050336001600160a01b031663d21220a76040518163ffffffff1660e01b8152600401602060405180830381865afa158015610255573d6000803e3d6000fd5b505050506040513d601f19601f820116820180604052508101906102799190611dd8565b8660018151811061028c5761028c611dfc565b60200260200101906001600160a01b031690816001600160a01b031681525050846001600160a01b031663e6a43905876000815181106102ce576102ce611dfc565b6020026020010151886001815181106102e9576102e9611dfc565b60200260200101516040518363ffffffff1660e01b81526004016103239291906001600160a01b0392831681529116602082015260400190565b602060405180830381865afa158015610340573d6000803e3d6000fd5b505050506040513d601f19601f820116820180604052508101906103649190611dd8565b600180546001600160a01b0319166001600160a01b0392909216918217905560408051808201909152600e81526d02830b4b91030b2323932b9b99d160951b60208201526103b191611128565b6103e760405180604001604052806014815260200173036b9b39739b2b73232b91030b2323932b9b99d160651b81525033611128565b6001546001600160a01b0316331461043c5760405162461bcd60e51b8152602060048201526013602482015272115c9c9bdc8e88155b985d5d1a1bdc9a5e9959606a1b60448201526064015b60405180910390fd5b6001600160a01b038b1630146104885760405162461bcd60e51b815260206004820152601160248201527022b93937b91d102737ba1039b2b73232b960791b6044820152606401610433565b891580610493575088155b6104d85760405162461bcd60e51b81526020600482015260166024820152754572726f723a20496e76616c696420616d6f756e747360501b6044820152606401610433565b6000866000815181106104ed576104ed611dfc565b6020026020010151905060008760018151811061050c5761050c611dfc565b6020026020010151905061054b60405180604001604052806013815260200172020b6b7bab73a18103932b8bab2b9ba32b21d1606d1b8152508d611171565b6105976040518060400160405280601081526020016f02a37b5b2b7181030b2323932b9b99d160851b8152508960008151811061058a5761058a611dfc565b6020026020010151611128565b6105cb60405180604001604052806012815260200171020b6b7bab73a189032bc3832b1ba32b21d160751b8152508c611171565b61060a6040518060400160405280601081526020016f02a37b5b2b7189030b2323932b9b99d160851b8152508960018151811061058a5761058a611dfc565b6106946040518060600160405280602e8152602001612180602e91396040516370a0823160e01b81523060048201526001600160a01b038516906370a08231906024015b602060405180830381865afa15801561066b573d6000803e3d6000fd5b505050506040513d601f19601f8201168201806040525081019061068f9190611e12565b611171565b6000806106a58e87878d8c8c6111b6565b915091506106de60405180604001604052806014815260200173033b2ba20b6b7bab73a39903932b9bab63a399d160651b8152506110e2565b61072360405180604001604052806009815260200168039bbb0b82d982e9d160bd1b8152508360008151811061071657610716611dfc565b6020026020010151611171565b61075b60405180604001604052806009815260200168039bbb0b82d98ae9d160bd1b8152508360018151811061071657610716611dfc565b6107936040518060400160405280600981526020016803932b830bcad982e960bd1b8152508260008151811061071657610716611dfc565b6107cb6040518060400160405280600981526020016803932b830bcad98ae960bd1b8152508260018151811061071657610716611dfc565b6107fc6040518060400160405280601081526020016f02334b730b6103130b630b731b2b99d160851b8152506110e2565b604080518082018252600881526702a37b5b2b7181d160c51b602082015290516370a0823160e01b815230600482015261084a91906001600160a01b038716906370a082319060240161064e565b604080518082018252600881526702a37b5b2b7189d160c51b602082015290516370a0823160e01b815230600482015261089891906001600160a01b038616906370a082319060240161064e565b6108d66040518060400160405280601a81526020017f417070726f76696e672070726f666974207472616e736665722e0000000000008152506110e2565b6040516370a0823160e01b815230600482018190526001600160a01b0385169163095ea7b3919083906370a0823190602401602060405180830381865afa158015610925573d6000803e3d6000fd5b505050506040513d601f19601f820116820180604052508101906109499190611e12565b6040516001600160e01b031960e085901b1681526001600160a01b03909216600483015260248201526044016020604051808303816000875af1158015610994573d6000803e3d6000fd5b505050506040513d601f19601f820116820180604052508101906109b89190611e2b565b506109e260405180604001604052806008815260200167105c1c1c9bdd995960c21b8152506110e2565b6000546040516370a0823160e01b81523060048201526001600160a01b038581169263a9059cbb9291169083906370a0823190602401602060405180830381865afa158015610a35573d6000803e3d6000fd5b505050506040513d601f19601f82011682018060405250810190610a599190611e12565b6040516001600160e01b031960e085901b1681526001600160a01b03909216600483015260248201526044016020604051808303816000875af1158015610aa4573d6000803e3d6000fd5b505050506040513d601f19601f82011682018060405250810190610ac89190611e2b565b50610b076040518060400160405280601b81526020017f5472616e7366657272656420746f6b656e3120746f206f776e657200000000008152506110e2565b505050505050505050505050505050565b610b566040518060400160405280602081526020017f436f6e747261637420666c6173684469726563745465737420456e74657265648152506110e2565b6000546001600160a01b03163314610bc15760405162461bcd60e51b815260206004820152602860248201527f4572726f723a204f6e6c79206f776e65722063616e2063616c6c207468697320604482015267333ab731ba34b7b760c11b6064820152608401610433565b60405163e6a4390560e01b81526001600160a01b038681166004830152858116602483015289169063e6a4390590604401602060405180830381865afa158015610c0f573d6000803e3d6000fd5b505050506040513d601f19601f82011682018060405250810190610c339190611dd8565b600180546001600160a01b0319166001600160a01b0392909216919091179055604080518082019091526014815273030b6b7bab73a24b7103932b8bab2b9ba32b21d160651b6020820152610c889084611171565b610cbe60405180604001604052806014815260200173030b6b7bab73a27baba1032bc3832b1ba32b21d160651b81525083611171565b604080518082018252601e81527f436f6e74726163742042616c616e6365204265666f726520537761703a200000602082015290516370a0823160e01b8152306004820152610d2191906001600160a01b038816906370a082319060240161064e565b60408051808201909152600e81526d02830b4b91030b2323932b9b99d160951b6020820152600154610d5c91906001600160a01b0316611128565b6001546001600160a01b0316610db45760405162461bcd60e51b815260206004820152601a60248201527f4572726f723a205061697220646f6573206e6f742065786973740000000000006044820152606401610433565b604080516001600160a01b038a8116602083015289811682840152881660608201526080810184905260a0808201849052825180830390910181526101008201909252600c60c082019081526b11185d1848195b98dbd9195960a21b60e090920191909152610e22906110e2565b60015460405163095ea7b360e01b81526001600160a01b039182166004820152602481018690529087169063095ea7b3906044016020604051808303816000875af1158015610e75573d6000803e3d6000fd5b505050506040513d601f19601f82011682018060405250810190610e999190611e2b565b50610ed9846040518060400160405280601c81526020017f206f6620746f6b656e3020617070726f76656420666f72207377617000000000815250611bcc565b60015460405163022c0d9f60e01b81526001600160a01b039091169063022c0d9f90610f1090879060009030908790600401611e93565b600060405180830381600087803b158015610f2a57600080fd5b505af1158015610f3e573d6000803e3d6000fd5b5050604080518082018252601e81527f4e657720436f6e74726163742042616c616e63652028546f6b656e30293a0000602082015290516370a0823160e01b8152306004820152610fa693509091506001600160a01b038916906370a082319060240161064e565b604080518082018252601e81527f4e657720436f6e74726163742042616c616e63652028546f6b656e31293a0000602082015290516370a0823160e01b815230600482015261100991906001600160a01b038816906370a082319060240161064e565b604080518082018252601b81527f4e6577204f776e65722042616c616e63652028546f6b656e30293a0000000000602082015260005491516370a0823160e01b81526001600160a01b039283166004820152611070928916906370a082319060240161064e565b604080518082018252601b81527f4e6577204f776e65722042616c616e63652028546f6b656e31293a0000000000602082015260005491516370a0823160e01b81526001600160a01b0392831660048201526110d7928816906370a082319060240161064e565b505050505050505050565b611125816040516024016110f69190611eca565b60408051601f198184030181529190526020810180516001600160e01b031663104c13eb60e21b179052611c0d565b50565b61116d828260405160240161113e929190611edd565b60408051601f198184030181529190526020810180516001600160e01b031663319af33360e01b179052611c0d565b5050565b61116d8282604051602401611187929190611f07565b60408051601f198184030181529190526020810180516001600160e01b0316632d839cb360e21b179052611c0d565b60608060006111c74261012c611f29565b90506000866000815181106111de576111de611dfc565b602002602001015190506000876001815181106111fd576111fd611dfc565b60200260200101519050600267ffffffffffffffff81111561122157611221611d67565b60405190808252806020026020018201604052801561124a578160200160208202803683370190505b50604080516002808252606082018352929750919060208301908036833701905050935061129f6040518060400160405280601081526020016f02a37b5b2b7103130b630b731b2b99d160851b8152506110e2565b604080518082018252600881526702a37b5b2b7181d160c51b602082015290516370a0823160e01b81523060048201526112ed91906001600160a01b038516906370a082319060240161064e565b604080518082018252600881526702a37b5b2b7189d160c51b602082015290516370a0823160e01b815230600482015261133b91906001600160a01b038416906370a082319060240161064e565b61135c6040518060600160405280603181526020016120c9603191396110e2565b60405163095ea7b360e01b81526001600160a01b038781166004830152602482018d905283169063095ea7b3906044016020604051808303816000875af11580156113ab573d6000803e3d6000fd5b505050506040513d601f19601f820116820180604052508101906113cf9190611e2b565b506040516338ed173960e01b81526001600160a01b038716906338ed173990611404908e908e908d9030908a90600401611f94565b6000604051808303816000875af1158015611423573d6000803e3d6000fd5b505050506040513d6000823e601f3d908101601f1916820160405261144b9190810190611fd0565b945061147b6040518060400160405280600d81526020016c5377617020636f6d706c65746560981b8152506110e2565b6114bb60405180604001604052806011815260200170039bbb0b82d982e943a37b5b2b718149d1607d1b8152508660008151811061071657610716611dfc565b6114fb60405180604001604052806011815260200170039bbb0b82d98ae943a37b5b2b718949d1607d1b8152508660018151811061071657610716611dfc565b61152c6040518060400160405280601081526020016f02a37b5b2b7103130b630b731b2b99d160851b8152506110e2565b604080518082018252600881526702a37b5b2b7181d160c51b602082015290516370a0823160e01b815230600482015261157a91906001600160a01b038516906370a082319060240161064e565b604080518082018252600881526702a37b5b2b7189d160c51b602082015290516370a0823160e01b81523060048201526115c891906001600160a01b038416906370a082319060240161064e565b6115e96040518060600160405280603381526020016120fa603391396110e2565b336001600160a01b031663d21220a76040518163ffffffff1660e01b8152600401602060405180830381865afa158015611627573d6000803e3d6000fd5b505050506040513d601f19601f8201168201806040525081019061164b9190611dd8565b8860008151811061165e5761165e611dfc565b60200260200101906001600160a01b031690816001600160a01b031681525050336001600160a01b0316630dfe16816040518163ffffffff1660e01b8152600401602060405180830381865afa1580156116bc573d6000803e3d6000fd5b505050506040513d601f19601f820116820180604052508101906116e09190611dd8565b886001815181106116f3576116f3611dfc565b6001600160a01b0392831660209182029290920101526040516307c0329d60e21b8152600091891690631f00ca7490611732908f908d9060040161208e565b600060405180830381865afa15801561174f573d6000803e3d6000fd5b505050506040513d6000823e601f3d908101601f191682016040526117779190810190611fd0565b90506117c56040518060400160405280601c81526020017f6765745265706179302028746f6b656e315265717569726564293a20000000008152508260008151811061071657610716611dfc565b6118116040518060400160405280601c81526020017f6765745265706179312028746f6b656e304f7574707574293a3a3a20000000008152508260018151811061071657610716611dfc565b61184760405180604001604052806014815260200173031b0b63193b21030b6b7bab73a2932b830bc9d160651b8152508b611171565b6118686040518060600160405280602d8152602001612153602d91396110e2565b61188960405180606001604052806026815260200161212d602691396110e2565b6040516370a0823160e01b81523060048201526001600160a01b0383169063095ea7b3908a9083906370a0823190602401602060405180830381865afa1580156118d7573d6000803e3d6000fd5b505050506040513d601f19601f820116820180604052508101906118fb9190611e12565b6040516001600160e01b031960e085901b1681526001600160a01b03909216600483015260248201526044016020604051808303816000875af1158015611946573d6000803e3d6000fd5b505050506040513d601f19601f8201168201806040525081019061196a9190611e2b565b5061199460405180604001604052806008815260200167105c1c1c9bdd995960c21b8152506110e2565b876001600160a01b0316638803dbee876001815181106119b6576119b6611dfc565b6020026020010151836000815181106119d1576119d1611dfc565b60200260200101518c33896040518663ffffffff1660e01b81526004016119fc959493929190611f94565b6000604051808303816000875af1158015611a1b573d6000803e3d6000fd5b505050506040513d6000823e601f3d908101601f19168201604052611a439190810190611fd0565b9450611a746040518060400160405280600e81526020016d526570617920636f6d706c65746560901b8152506110e2565b611aad6040518060400160405280600a81526020016903932b830bcad982e9d160b51b8152508660008151811061071657610716611dfc565b611ae66040518060400160405280600a81526020016903932b830bcad98ae9d160b51b8152508660018151811061071657610716611dfc565b611b176040518060400160405280601081526020016f02a37b5b2b7103130b630b731b2b99d160851b8152506110e2565b611b866040518060400160405280600881526020016702a37b5b2b7181d160c51b8152508a600081518110611b4e57611b4e611dfc565b60209081029190910101516040516370a0823160e01b81523060048201526001600160a01b03909116906370a082319060240161064e565b611bbd6040518060400160405280600881526020016702a37b5b2b7189d160c51b8152508a600181518110611b4e57611b4e611dfc565b50505050965096945050505050565b61116d8282604051602401611be29291906120af565b60408051601f198184030181529190526020810180516001600160e01b031663643fd0df60e01b1790525b6111258160006a636f6e736f6c652e6c6f679050600080835160208501845afa505050565b6001600160a01b038116811461112557600080fd5b600080600080600060808688031215611c5f57600080fd5b8535611c6a81611c32565b94506020860135935060408601359250606086013567ffffffffffffffff80821115611c9557600080fd5b818801915088601f830112611ca957600080fd5b813581811115611cb857600080fd5b896020828501011115611cca57600080fd5b9699959850939650602001949392505050565b600080600080600080600080610100898b031215611cfa57600080fd5b8835611d0581611c32565b97506020890135611d1581611c32565b96506040890135611d2581611c32565b95506060890135611d3581611c32565b94506080890135611d4581611c32565b979a969950949793969560a0850135955060c08501359460e001359350915050565b634e487b7160e01b600052604160045260246000fd5b600080600080600060a08688031215611d9557600080fd5b8535611da081611c32565b94506020860135611db081611c32565b93506040860135611dc081611c32565b94979396509394606081013594506080013592915050565b600060208284031215611dea57600080fd5b8151611df581611c32565b9392505050565b634e487b7160e01b600052603260045260246000fd5b600060208284031215611e2457600080fd5b5051919050565b600060208284031215611e3d57600080fd5b81518015158114611df557600080fd5b6000815180845260005b81811015611e7357602081850181015186830182015201611e57565b506000602082860101526020601f19601f83011685010191505092915050565b84815283602082015260018060a01b0383166040820152608060608201526000611ec06080830184611e4d565b9695505050505050565b602081526000611df56020830184611e4d565b604081526000611ef06040830185611e4d565b905060018060a01b03831660208301529392505050565b604081526000611f1a6040830185611e4d565b90508260208301529392505050565b80820180821115611f4a57634e487b7160e01b600052601160045260246000fd5b92915050565b600081518084526020808501945080840160005b83811015611f895781516001600160a01b031687529582019590820190600101611f64565b509495945050505050565b85815284602082015260a060408201526000611fb360a0830186611f50565b6001600160a01b0394909416606083015250608001529392505050565b60006020808385031215611fe357600080fd5b825167ffffffffffffffff80821115611ffb57600080fd5b818501915085601f83011261200f57600080fd5b81518181111561202157612021611d67565b8060051b604051601f19603f8301168101818110858211171561204657612046611d67565b60405291825284820192508381018501918883111561206457600080fd5b938501935b8285101561208257845184529385019392850192612069565b98975050505050505050565b8281526040602082015260006120a76040830184611f50565b949350505050565b8281526040602082015260006120a76040830184611e4d56fe5f5f5f5f5f5f5f5f5f5f737761704578616374546f6b656e73466f72546f6b656e735f5f5f5f5f5f5f5f5f5f5f5f5f5f5f5f5f5f5f5f5f5f5f5f5f5f5f5f5f5f5f5f676574416d6f756e7473496e5f5f5f5f5f5f5f5f5f5f5f5f5f5f5f5f5f5f5f5f5f5f417070726f76696e67206c6f616e526f7574657220746f2074726164652067657452657061795f5f5f5f5f5f5f5f5f5f5f73776170546f6b656e73466f724578616374546f6b656e735f5f5f5f5f5f5f5f5f5f4e657720746f6b656e302062616c616e636520286c6f616e6564293a3a3a3a3a3a3a3a3a3a3a3a3a3a3a3a3a3a20a2646970667358221220db383b4fb2e72411be7e6ccd4514bf8c0a92fc74018d518b7fb225fb1edb8d3364736f6c63430008130033","opcodes":"PUSH1 0x80 PUSH1 0x40 MSTORE CALLVALUE DUP1 ISZERO PUSH2 0x10 JUMPI PUSH1 0x0 DUP1 REVERT JUMPDEST POP PUSH1 0x40 MLOAD PUSH3 0x2279 CODESIZE SUB DUP1 PUSH3 0x2279 DUP4 CODECOPY DUP2 ADD PUSH1 0x40 DUP2 SWAP1 MSTORE PUSH2 0x31 SWAP2 PUSH2 0x56 JUMP JUMPDEST PUSH1 0x0 DUP1 SLOAD PUSH1 0x1 PUSH1 0x1 PUSH1 0xA0 SHL SUB NOT AND PUSH1 0x1 PUSH1 0x1 PUSH1 0xA0 SHL SUB SWAP3 SWAP1 SWAP3 AND SWAP2 SWAP1 SWAP2 OR SWAP1 SSTORE PUSH2 0x86 JUMP JUMPDEST PUSH1 0x0 PUSH1 0x20 DUP3 DUP5 SUB SLT ISZERO PUSH2 0x68 JUMPI PUSH1 0x0 DUP1 REVERT JUMPDEST DUP2 MLOAD PUSH1 0x1 PUSH1 0x1 PUSH1 0xA0 SHL SUB DUP2 AND DUP2 EQ PUSH2 0x7F JUMPI PUSH1 0x0 DUP1 REVERT JUMPDEST SWAP4 SWAP3 POP POP POP JUMP JUMPDEST PUSH2 0x21E3 DUP1 PUSH3 0x96 PUSH1 0x0 CODECOPY PUSH1 0x0 RETURN INVALID PUSH1 0x80 PUSH1 0x40 MSTORE PUSH1 0x4 CALLDATASIZE LT PUSH2 0x35 JUMPI PUSH1 0x0 CALLDATALOAD PUSH1 0xE0 SHR DUP1 PUSH4 0x10D1E85C EQ PUSH2 0x3E JUMPI DUP1 PUSH4 0xCDBCE03D EQ PUSH2 0x5E JUMPI DUP1 PUSH4 0xDE60DCE4 EQ PUSH2 0x8A JUMPI STOP JUMPDEST CALLDATASIZE PUSH2 0x3C JUMPI STOP JUMPDEST STOP JUMPDEST CALLVALUE DUP1 ISZERO PUSH2 0x4A JUMPI PUSH1 0x0 DUP1 REVERT JUMPDEST POP PUSH2 0x3C PUSH2 0x59 CALLDATASIZE PUSH1 0x4 PUSH2 0x1C47 JUMP JUMPDEST PUSH2 0xAA JUMP JUMPDEST CALLVALUE DUP1 ISZERO PUSH2 0x6A JUMPI PUSH1 0x0 DUP1 REVERT JUMPDEST POP PUSH1 0x0 SLOAD PUSH1 0x40 DUP1 MLOAD PUSH1 0x1 PUSH1 0x1 PUSH1 0xA0 SHL SUB SWAP1 SWAP3 AND DUP3 MSTORE MLOAD SWAP1 DUP2 SWAP1 SUB PUSH1 0x20 ADD SWAP1 RETURN JUMPDEST CALLVALUE DUP1 ISZERO PUSH2 0x96 JUMPI PUSH1 0x0 DUP1 REVERT JUMPDEST POP PUSH2 0x3C PUSH2 0xA5 CALLDATASIZE PUSH1 0x4 PUSH2 0x1CDD JUMP JUMPDEST PUSH2 0xB18 JUMP JUMPDEST PUSH2 0xE0 PUSH1 0x40 MLOAD DUP1 PUSH1 0x40 ADD PUSH1 0x40 MSTORE DUP1 PUSH1 0x15 DUP2 MSTORE PUSH1 0x20 ADD PUSH21 0x1D5B9A5CDDD85C158C90D85B1B08115B9D195C9959 PUSH1 0x5A SHL DUP2 MSTORE POP PUSH2 0x10E2 JUMP JUMPDEST PUSH1 0x40 DUP1 MLOAD PUSH1 0x2 DUP1 DUP3 MSTORE PUSH1 0x60 DUP3 ADD DUP4 MSTORE PUSH1 0x0 SWAP3 PUSH1 0x20 DUP4 ADD SWAP1 DUP1 CALLDATASIZE DUP4 CALLDATACOPY ADD SWAP1 POP POP SWAP1 POP PUSH2 0x134 PUSH1 0x40 MLOAD DUP1 PUSH1 0x40 ADD PUSH1 0x40 MSTORE DUP1 PUSH1 0x12 DUP2 MSTORE PUSH1 0x20 ADD PUSH18 0x4465636F64696E67204C6F616E2044617461 PUSH1 0x70 SHL DUP2 MSTORE POP PUSH2 0x10E2 JUMP JUMPDEST PUSH1 0x0 DUP1 DUP1 DUP1 DUP1 PUSH2 0x146 DUP8 DUP10 ADD DUP10 PUSH2 0x1D7D JUMP JUMPDEST SWAP5 POP SWAP5 POP SWAP5 POP SWAP5 POP SWAP5 POP PUSH2 0x182 PUSH1 0x40 MLOAD DUP1 PUSH1 0x40 ADD PUSH1 0x40 MSTORE DUP1 PUSH1 0x11 DUP2 MSTORE PUSH1 0x20 ADD PUSH17 0x131BD85B8811185D1848111958DBD91959 PUSH1 0x7A SHL DUP2 MSTORE POP PUSH2 0x10E2 JUMP JUMPDEST CALLER PUSH1 0x1 PUSH1 0x1 PUSH1 0xA0 SHL SUB AND PUSH4 0xDFE1681 PUSH1 0x40 MLOAD DUP2 PUSH4 0xFFFFFFFF AND PUSH1 0xE0 SHL DUP2 MSTORE PUSH1 0x4 ADD PUSH1 0x20 PUSH1 0x40 MLOAD DUP1 DUP4 SUB DUP2 DUP7 GAS STATICCALL ISZERO DUP1 ISZERO PUSH2 0x1C0 JUMPI RETURNDATASIZE PUSH1 0x0 DUP1 RETURNDATACOPY RETURNDATASIZE PUSH1 0x0 REVERT JUMPDEST POP POP POP POP PUSH1 0x40 MLOAD RETURNDATASIZE PUSH1 0x1F NOT PUSH1 0x1F DUP3 ADD AND DUP3 ADD DUP1 PUSH1 0x40 MSTORE POP DUP2 ADD SWAP1 PUSH2 0x1E4 SWAP2 SWAP1 PUSH2 0x1DD8 JUMP JUMPDEST DUP7 PUSH1 0x0 DUP2 MLOAD DUP2 LT PUSH2 0x1F7 JUMPI PUSH2 0x1F7 PUSH2 0x1DFC JUMP JUMPDEST PUSH1 0x20 MUL PUSH1 0x20 ADD ADD SWAP1 PUSH1 0x1 PUSH1 0x1 PUSH1 0xA0 SHL SUB AND SWAP1 DUP2 PUSH1 0x1 PUSH1 0x1 PUSH1 0xA0 SHL SUB AND DUP2 MSTORE POP POP CALLER PUSH1 0x1 PUSH1 0x1 PUSH1 0xA0 SHL SUB AND PUSH4 0xD21220A7 PUSH1 0x40 MLOAD DUP2 PUSH4 0xFFFFFFFF AND PUSH1 0xE0 SHL DUP2 MSTORE PUSH1 0x4 ADD PUSH1 0x20 PUSH1 0x40 MLOAD DUP1 DUP4 SUB DUP2 DUP7 GAS STATICCALL ISZERO DUP1 ISZERO PUSH2 0x255 JUMPI RETURNDATASIZE PUSH1 0x0 DUP1 RETURNDATACOPY RETURNDATASIZE PUSH1 0x0 REVERT JUMPDEST POP POP POP POP PUSH1 0x40 MLOAD RETURNDATASIZE PUSH1 0x1F NOT PUSH1 0x1F DUP3 ADD AND DUP3 ADD DUP1 PUSH1 0x40 MSTORE POP DUP2 ADD SWAP1 PUSH2 0x279 SWAP2 SWAP1 PUSH2 0x1DD8 JUMP JUMPDEST DUP7 PUSH1 0x1 DUP2 MLOAD DUP2 LT PUSH2 0x28C JUMPI PUSH2 0x28C PUSH2 0x1DFC JUMP JUMPDEST PUSH1 0x20 MUL PUSH1 0x20 ADD ADD SWAP1 PUSH1 0x1 PUSH1 0x1 PUSH1 0xA0 SHL SUB AND SWAP1 DUP2 PUSH1 0x1 PUSH1 0x1 PUSH1 0xA0 SHL SUB AND DUP2 MSTORE POP POP DUP5 PUSH1 0x1 PUSH1 0x1 PUSH1 0xA0 SHL SUB AND PUSH4 0xE6A43905 DUP8 PUSH1 0x0 DUP2 MLOAD DUP2 LT PUSH2 0x2CE JUMPI PUSH2 0x2CE PUSH2 0x1DFC JUMP JUMPDEST PUSH1 0x20 MUL PUSH1 0x20 ADD ADD MLOAD DUP9 PUSH1 0x1 DUP2 MLOAD DUP2 LT PUSH2 0x2E9 JUMPI PUSH2 0x2E9 PUSH2 0x1DFC JUMP JUMPDEST PUSH1 0x20 MUL PUSH1 0x20 ADD ADD MLOAD PUSH1 0x40 MLOAD DUP4 PUSH4 0xFFFFFFFF AND PUSH1 0xE0 SHL DUP2 MSTORE PUSH1 0x4 ADD PUSH2 0x323 SWAP3 SWAP2 SWAP1 PUSH1 0x1 PUSH1 0x1 PUSH1 0xA0 SHL SUB SWAP3 DUP4 AND DUP2 MSTORE SWAP2 AND PUSH1 0x20 DUP3 ADD MSTORE PUSH1 0x40 ADD SWAP1 JUMP JUMPDEST PUSH1 0x20 PUSH1 0x40 MLOAD DUP1 DUP4 SUB DUP2 DUP7 GAS STATICCALL ISZERO DUP1 ISZERO PUSH2 0x340 JUMPI RETURNDATASIZE PUSH1 0x0 DUP1 RETURNDATACOPY RETURNDATASIZE PUSH1 0x0 REVERT JUMPDEST POP POP POP POP PUSH1 0x40 MLOAD RETURNDATASIZE PUSH1 0x1F NOT PUSH1 0x1F DUP3 ADD AND DUP3 ADD DUP1 PUSH1 0x40 MSTORE POP DUP2 ADD SWAP1 PUSH2 0x364 SWAP2 SWAP1 PUSH2 0x1DD8 JUMP JUMPDEST PUSH1 0x1 DUP1 SLOAD PUSH1 0x1 PUSH1 0x1 PUSH1 0xA0 SHL SUB NOT AND PUSH1 0x1 PUSH1 0x1 PUSH1 0xA0 SHL SUB SWAP3 SWAP1 SWAP3 AND SWAP2 DUP3 OR SWAP1 SSTORE PUSH1 0x40 DUP1 MLOAD DUP1 DUP3 ADD SWAP1 SWAP2 MSTORE PUSH1 0xE DUP2 MSTORE PUSH14 0x2830B4B91030B2323932B9B99D1 PUSH1 0x95 SHL PUSH1 0x20 DUP3 ADD MSTORE PUSH2 0x3B1 SWAP2 PUSH2 0x1128 JUMP JUMPDEST PUSH2 0x3E7 PUSH1 0x40 MLOAD DUP1 PUSH1 0x40 ADD PUSH1 0x40 MSTORE DUP1 PUSH1 0x14 DUP2 MSTORE PUSH1 0x20 ADD PUSH20 0x36B9B39739B2B73232B91030B2323932B9B99D1 PUSH1 0x65 SHL DUP2 MSTORE POP CALLER PUSH2 0x1128 JUMP JUMPDEST PUSH1 0x1 SLOAD PUSH1 0x1 PUSH1 0x1 PUSH1 0xA0 SHL SUB AND CALLER EQ PUSH2 0x43C JUMPI PUSH1 0x40 MLOAD PUSH3 0x461BCD PUSH1 0xE5 SHL DUP2 MSTORE PUSH1 0x20 PUSH1 0x4 DUP3 ADD MSTORE PUSH1 0x13 PUSH1 0x24 DUP3 ADD MSTORE PUSH19 0x115C9C9BDC8E88155B985D5D1A1BDC9A5E9959 PUSH1 0x6A SHL PUSH1 0x44 DUP3 ADD MSTORE PUSH1 0x64 ADD JUMPDEST PUSH1 0x40 MLOAD DUP1 SWAP2 SUB SWAP1 REVERT JUMPDEST PUSH1 0x1 PUSH1 0x1 PUSH1 0xA0 SHL SUB DUP12 AND ADDRESS EQ PUSH2 0x488 JUMPI PUSH1 0x40 MLOAD PUSH3 0x461BCD PUSH1 0xE5 SHL DUP2 MSTORE PUSH1 0x20 PUSH1 0x4 DUP3 ADD MSTORE PUSH1 0x11 PUSH1 0x24 DUP3 ADD MSTORE PUSH17 0x22B93937B91D102737BA1039B2B73232B9 PUSH1 0x79 SHL PUSH1 0x44 DUP3 ADD MSTORE PUSH1 0x64 ADD PUSH2 0x433 JUMP JUMPDEST DUP10 ISZERO DUP1 PUSH2 0x493 JUMPI POP DUP9 ISZERO JUMPDEST PUSH2 0x4D8 JUMPI PUSH1 0x40 MLOAD PUSH3 0x461BCD PUSH1 0xE5 SHL DUP2 MSTORE PUSH1 0x20 PUSH1 0x4 DUP3 ADD MSTORE PUSH1 0x16 PUSH1 0x24 DUP3 ADD MSTORE PUSH22 0x4572726F723A20496E76616C696420616D6F756E7473 PUSH1 0x50 SHL PUSH1 0x44 DUP3 ADD MSTORE PUSH1 0x64 ADD PUSH2 0x433 JUMP JUMPDEST PUSH1 0x0 DUP7 PUSH1 0x0 DUP2 MLOAD DUP2 LT PUSH2 0x4ED JUMPI PUSH2 0x4ED PUSH2 0x1DFC JUMP JUMPDEST PUSH1 0x20 MUL PUSH1 0x20 ADD ADD MLOAD SWAP1 POP PUSH1 0x0 DUP8 PUSH1 0x1 DUP2 MLOAD DUP2 LT PUSH2 0x50C JUMPI PUSH2 0x50C PUSH2 0x1DFC JUMP JUMPDEST PUSH1 0x20 MUL PUSH1 0x20 ADD ADD MLOAD SWAP1 POP PUSH2 0x54B PUSH1 0x40 MLOAD DUP1 PUSH1 0x40 ADD PUSH1 0x40 MSTORE DUP1 PUSH1 0x13 DUP2 MSTORE PUSH1 0x20 ADD PUSH19 0x20B6B7BAB73A18103932B8BAB2B9BA32B21D1 PUSH1 0x6D SHL DUP2 MSTORE POP DUP14 PUSH2 0x1171 JUMP JUMPDEST PUSH2 0x597 PUSH1 0x40 MLOAD DUP1 PUSH1 0x40 ADD PUSH1 0x40 MSTORE DUP1 PUSH1 0x10 DUP2 MSTORE PUSH1 0x20 ADD PUSH16 0x2A37B5B2B7181030B2323932B9B99D1 PUSH1 0x85 SHL DUP2 MSTORE POP DUP10 PUSH1 0x0 DUP2 MLOAD DUP2 LT PUSH2 0x58A JUMPI PUSH2 0x58A PUSH2 0x1DFC JUMP JUMPDEST PUSH1 0x20 MUL PUSH1 0x20 ADD ADD MLOAD PUSH2 0x1128 JUMP JUMPDEST PUSH2 0x5CB PUSH1 0x40 MLOAD DUP1 PUSH1 0x40 ADD PUSH1 0x40 MSTORE DUP1 PUSH1 0x12 DUP2 MSTORE PUSH1 0x20 ADD PUSH18 0x20B6B7BAB73A189032BC3832B1BA32B21D1 PUSH1 0x75 SHL DUP2 MSTORE POP DUP13 PUSH2 0x1171 JUMP JUMPDEST PUSH2 0x60A PUSH1 0x40 MLOAD DUP1 PUSH1 0x40 ADD PUSH1 0x40 MSTORE DUP1 PUSH1 0x10 DUP2 MSTORE PUSH1 0x20 ADD PUSH16 0x2A37B5B2B7189030B2323932B9B99D1 PUSH1 0x85 SHL DUP2 MSTORE POP DUP10 PUSH1 0x1 DUP2 MLOAD DUP2 LT PUSH2 0x58A JUMPI PUSH2 0x58A PUSH2 0x1DFC JUMP JUMPDEST PUSH2 0x694 PUSH1 0x40 MLOAD DUP1 PUSH1 0x60 ADD PUSH1 0x40 MSTORE DUP1 PUSH1 0x2E DUP2 MSTORE PUSH1 0x20 ADD PUSH2 0x2180 PUSH1 0x2E SWAP2 CODECOPY PUSH1 0x40 MLOAD PUSH4 0x70A08231 PUSH1 0xE0 SHL DUP2 MSTORE ADDRESS PUSH1 0x4 DUP3 ADD MSTORE PUSH1 0x1 PUSH1 0x1 PUSH1 0xA0 SHL SUB DUP6 AND SWAP1 PUSH4 0x70A08231 SWAP1 PUSH1 0x24 ADD JUMPDEST PUSH1 0x20 PUSH1 0x40 MLOAD DUP1 DUP4 SUB DUP2 DUP7 GAS STATICCALL ISZERO DUP1 ISZERO PUSH2 0x66B JUMPI RETURNDATASIZE PUSH1 0x0 DUP1 RETURNDATACOPY RETURNDATASIZE PUSH1 0x0 REVERT JUMPDEST POP POP POP POP PUSH1 0x40 MLOAD RETURNDATASIZE PUSH1 0x1F NOT PUSH1 0x1F DUP3 ADD AND DUP3 ADD DUP1 PUSH1 0x40 MSTORE POP DUP2 ADD SWAP1 PUSH2 0x68F SWAP2 SWAP1 PUSH2 0x1E12 JUMP JUMPDEST PUSH2 0x1171 JUMP JUMPDEST PUSH1 0x0 DUP1 PUSH2 0x6A5 DUP15 DUP8 DUP8 DUP14 DUP13 DUP13 PUSH2 0x11B6 JUMP JUMPDEST SWAP2 POP SWAP2 POP PUSH2 0x6DE PUSH1 0x40 MLOAD DUP1 PUSH1 0x40 ADD PUSH1 0x40 MSTORE DUP1 PUSH1 0x14 DUP2 MSTORE PUSH1 0x20 ADD PUSH20 0x33B2BA20B6B7BAB73A39903932B9BAB63A399D1 PUSH1 0x65 SHL DUP2 MSTORE POP PUSH2 0x10E2 JUMP JUMPDEST PUSH2 0x723 PUSH1 0x40 MLOAD DUP1 PUSH1 0x40 ADD PUSH1 0x40 MSTORE DUP1 PUSH1 0x9 DUP2 MSTORE PUSH1 0x20 ADD PUSH9 0x39BBB0B82D982E9D1 PUSH1 0xBD SHL DUP2 MSTORE POP DUP4 PUSH1 0x0 DUP2 MLOAD DUP2 LT PUSH2 0x716 JUMPI PUSH2 0x716 PUSH2 0x1DFC JUMP JUMPDEST PUSH1 0x20 MUL PUSH1 0x20 ADD ADD MLOAD PUSH2 0x1171 JUMP JUMPDEST PUSH2 0x75B PUSH1 0x40 MLOAD DUP1 PUSH1 0x40 ADD PUSH1 0x40 MSTORE DUP1 PUSH1 0x9 DUP2 MSTORE PUSH1 0x20 ADD PUSH9 0x39BBB0B82D98AE9D1 PUSH1 0xBD SHL DUP2 MSTORE POP DUP4 PUSH1 0x1 DUP2 MLOAD DUP2 LT PUSH2 0x716 JUMPI PUSH2 0x716 PUSH2 0x1DFC JUMP JUMPDEST PUSH2 0x793 PUSH1 0x40 MLOAD DUP1 PUSH1 0x40 ADD PUSH1 0x40 MSTORE DUP1 PUSH1 0x9 DUP2 MSTORE PUSH1 0x20 ADD PUSH9 0x3932B830BCAD982E9 PUSH1 0xBD SHL DUP2 MSTORE POP DUP3 PUSH1 0x0 DUP2 MLOAD DUP2 LT PUSH2 0x716 JUMPI PUSH2 0x716 PUSH2 0x1DFC JUMP JUMPDEST PUSH2 0x7CB PUSH1 0x40 MLOAD DUP1 PUSH1 0x40 ADD PUSH1 0x40 MSTORE DUP1 PUSH1 0x9 DUP2 MSTORE PUSH1 0x20 ADD PUSH9 0x3932B830BCAD98AE9 PUSH1 0xBD SHL DUP2 MSTORE POP DUP3 PUSH1 0x1 DUP2 MLOAD DUP2 LT PUSH2 0x716 JUMPI PUSH2 0x716 PUSH2 0x1DFC JUMP JUMPDEST PUSH2 0x7FC PUSH1 0x40 MLOAD DUP1 PUSH1 0x40 ADD PUSH1 0x40 MSTORE DUP1 PUSH1 0x10 DUP2 MSTORE PUSH1 0x20 ADD PUSH16 0x2334B730B6103130B630B731B2B99D1 PUSH1 0x85 SHL DUP2 MSTORE POP PUSH2 0x10E2 JUMP JUMPDEST PUSH1 0x40 DUP1 MLOAD DUP1 DUP3 ADD DUP3 MSTORE PUSH1 0x8 DUP2 MSTORE PUSH8 0x2A37B5B2B7181D1 PUSH1 0xC5 SHL PUSH1 0x20 DUP3 ADD MSTORE SWAP1 MLOAD PUSH4 0x70A08231 PUSH1 0xE0 SHL DUP2 MSTORE ADDRESS PUSH1 0x4 DUP3 ADD MSTORE PUSH2 0x84A SWAP2 SWAP1 PUSH1 0x1 PUSH1 0x1 PUSH1 0xA0 SHL SUB DUP8 AND SWAP1 PUSH4 0x70A08231 SWAP1 PUSH1 0x24 ADD PUSH2 0x64E JUMP JUMPDEST PUSH1 0x40 DUP1 MLOAD DUP1 DUP3 ADD DUP3 MSTORE PUSH1 0x8 DUP2 MSTORE PUSH8 0x2A37B5B2B7189D1 PUSH1 0xC5 SHL PUSH1 0x20 DUP3 ADD MSTORE SWAP1 MLOAD PUSH4 0x70A08231 PUSH1 0xE0 SHL DUP2 MSTORE ADDRESS PUSH1 0x4 DUP3 ADD MSTORE PUSH2 0x898 SWAP2 SWAP1 PUSH1 0x1 PUSH1 0x1 PUSH1 0xA0 SHL SUB DUP7 AND SWAP1 PUSH4 0x70A08231 SWAP1 PUSH1 0x24 ADD PUSH2 0x64E JUMP JUMPDEST PUSH2 0x8D6 PUSH1 0x40 MLOAD DUP1 PUSH1 0x40 ADD PUSH1 0x40 MSTORE DUP1 PUSH1 0x1A DUP2 MSTORE PUSH1 0x20 ADD PUSH32 0x417070726F76696E672070726F666974207472616E736665722E000000000000 DUP2 MSTORE POP PUSH2 0x10E2 JUMP JUMPDEST PUSH1 0x40 MLOAD PUSH4 0x70A08231 PUSH1 0xE0 SHL DUP2 MSTORE ADDRESS PUSH1 0x4 DUP3 ADD DUP2 SWAP1 MSTORE PUSH1 0x1 PUSH1 0x1 PUSH1 0xA0 SHL SUB DUP6 AND SWAP2 PUSH4 0x95EA7B3 SWAP2 SWAP1 DUP4 SWAP1 PUSH4 0x70A08231 SWAP1 PUSH1 0x24 ADD PUSH1 0x20 PUSH1 0x40 MLOAD DUP1 DUP4 SUB DUP2 DUP7 GAS STATICCALL ISZERO DUP1 ISZERO PUSH2 0x925 JUMPI RETURNDATASIZE PUSH1 0x0 DUP1 RETURNDATACOPY RETURNDATASIZE PUSH1 0x0 REVERT JUMPDEST POP POP POP POP PUSH1 0x40 MLOAD RETURNDATASIZE PUSH1 0x1F NOT PUSH1 0x1F DUP3 ADD AND DUP3 ADD DUP1 PUSH1 0x40 MSTORE POP DUP2 ADD SWAP1 PUSH2 0x949 SWAP2 SWAP1 PUSH2 0x1E12 JUMP JUMPDEST PUSH1 0x40 MLOAD PUSH1 0x1 PUSH1 0x1 PUSH1 0xE0 SHL SUB NOT PUSH1 0xE0 DUP6 SWAP1 SHL AND DUP2 MSTORE PUSH1 0x1 PUSH1 0x1 PUSH1 0xA0 SHL SUB SWAP1 SWAP3 AND PUSH1 0x4 DUP4 ADD MSTORE PUSH1 0x24 DUP3 ADD MSTORE PUSH1 0x44 ADD PUSH1 0x20 PUSH1 0x40 MLOAD DUP1 DUP4 SUB DUP2 PUSH1 0x0 DUP8 GAS CALL ISZERO DUP1 ISZERO PUSH2 0x994 JUMPI RETURNDATASIZE PUSH1 0x0 DUP1 RETURNDATACOPY RETURNDATASIZE PUSH1 0x0 REVERT JUMPDEST POP POP POP POP PUSH1 0x40 MLOAD RETURNDATASIZE PUSH1 0x1F NOT PUSH1 0x1F DUP3 ADD AND DUP3 ADD DUP1 PUSH1 0x40 MSTORE POP DUP2 ADD SWAP1 PUSH2 0x9B8 SWAP2 SWAP1 PUSH2 0x1E2B JUMP JUMPDEST POP PUSH2 0x9E2 PUSH1 0x40 MLOAD DUP1 PUSH1 0x40 ADD PUSH1 0x40 MSTORE DUP1 PUSH1 0x8 DUP2 MSTORE PUSH1 0x20 ADD PUSH8 0x105C1C1C9BDD9959 PUSH1 0xC2 SHL DUP2 MSTORE POP PUSH2 0x10E2 JUMP JUMPDEST PUSH1 0x0 SLOAD PUSH1 0x40 MLOAD PUSH4 0x70A08231 PUSH1 0xE0 SHL DUP2 MSTORE ADDRESS PUSH1 0x4 DUP3 ADD MSTORE PUSH1 0x1 PUSH1 0x1 PUSH1 0xA0 SHL SUB DUP6 DUP2 AND SWAP3 PUSH4 0xA9059CBB SWAP3 SWAP2 AND SWAP1 DUP4 SWAP1 PUSH4 0x70A08231 SWAP1 PUSH1 0x24 ADD PUSH1 0x20 PUSH1 0x40 MLOAD DUP1 DUP4 SUB DUP2 DUP7 GAS STATICCALL ISZERO DUP1 ISZERO PUSH2 0xA35 JUMPI RETURNDATASIZE PUSH1 0x0 DUP1 RETURNDATACOPY RETURNDATASIZE PUSH1 0x0 REVERT JUMPDEST POP POP POP POP PUSH1 0x40 MLOAD RETURNDATASIZE PUSH1 0x1F NOT PUSH1 0x1F DUP3 ADD AND DUP3 ADD DUP1 PUSH1 0x40 MSTORE POP DUP2 ADD SWAP1 PUSH2 0xA59 SWAP2 SWAP1 PUSH2 0x1E12 JUMP JUMPDEST PUSH1 0x40 MLOAD PUSH1 0x1 PUSH1 0x1 PUSH1 0xE0 SHL SUB NOT PUSH1 0xE0 DUP6 SWAP1 SHL AND DUP2 MSTORE PUSH1 0x1 PUSH1 0x1 PUSH1 0xA0 SHL SUB SWAP1 SWAP3 AND PUSH1 0x4 DUP4 ADD MSTORE PUSH1 0x24 DUP3 ADD MSTORE PUSH1 0x44 ADD PUSH1 0x20 PUSH1 0x40 MLOAD DUP1 DUP4 SUB DUP2 PUSH1 0x0 DUP8 GAS CALL ISZERO DUP1 ISZERO PUSH2 0xAA4 JUMPI RETURNDATASIZE PUSH1 0x0 DUP1 RETURNDATACOPY RETURNDATASIZE PUSH1 0x0 REVERT JUMPDEST POP POP POP POP PUSH1 0x40 MLOAD RETURNDATASIZE PUSH1 0x1F NOT PUSH1 0x1F DUP3 ADD AND DUP3 ADD DUP1 PUSH1 0x40 MSTORE POP DUP2 ADD SWAP1 PUSH2 0xAC8 SWAP2 SWAP1 PUSH2 0x1E2B JUMP JUMPDEST POP PUSH2 0xB07 PUSH1 0x40 MLOAD DUP1 PUSH1 0x40 ADD PUSH1 0x40 MSTORE DUP1 PUSH1 0x1B DUP2 MSTORE PUSH1 0x20 ADD PUSH32 0x5472616E7366657272656420746F6B656E3120746F206F776E65720000000000 DUP2 MSTORE POP PUSH2 0x10E2 JUMP JUMPDEST POP POP POP POP POP POP POP POP POP POP POP POP POP POP POP JUMP JUMPDEST PUSH2 0xB56 PUSH1 0x40 MLOAD DUP1 PUSH1 0x40 ADD PUSH1 0x40 MSTORE DUP1 PUSH1 0x20 DUP2 MSTORE PUSH1 0x20 ADD PUSH32 0x436F6E747261637420666C6173684469726563745465737420456E7465726564 DUP2 MSTORE POP PUSH2 0x10E2 JUMP JUMPDEST PUSH1 0x0 SLOAD PUSH1 0x1 PUSH1 0x1 PUSH1 0xA0 SHL SUB AND CALLER EQ PUSH2 0xBC1 JUMPI PUSH1 0x40 MLOAD PUSH3 0x461BCD PUSH1 0xE5 SHL DUP2 MSTORE PUSH1 0x20 PUSH1 0x4 DUP3 ADD MSTORE PUSH1 0x28 PUSH1 0x24 DUP3 ADD MSTORE PUSH32 0x4572726F723A204F6E6C79206F776E65722063616E2063616C6C207468697320 PUSH1 0x44 DUP3 ADD MSTORE PUSH8 0x333AB731BA34B7B7 PUSH1 0xC1 SHL PUSH1 0x64 DUP3 ADD MSTORE PUSH1 0x84 ADD PUSH2 0x433 JUMP JUMPDEST PUSH1 0x40 MLOAD PUSH4 0xE6A43905 PUSH1 0xE0 SHL DUP2 MSTORE PUSH1 0x1 PUSH1 0x1 PUSH1 0xA0 SHL SUB DUP7 DUP2 AND PUSH1 0x4 DUP4 ADD MSTORE DUP6 DUP2 AND PUSH1 0x24 DUP4 ADD MSTORE DUP10 AND SWAP1 PUSH4 0xE6A43905 SWAP1 PUSH1 0x44 ADD PUSH1 0x20 PUSH1 0x40 MLOAD DUP1 DUP4 SUB DUP2 DUP7 GAS STATICCALL ISZERO DUP1 ISZERO PUSH2 0xC0F JUMPI RETURNDATASIZE PUSH1 0x0 DUP1 RETURNDATACOPY RETURNDATASIZE PUSH1 0x0 REVERT JUMPDEST POP POP POP POP PUSH1 0x40 MLOAD RETURNDATASIZE PUSH1 0x1F NOT PUSH1 0x1F DUP3 ADD AND DUP3 ADD DUP1 PUSH1 0x40 MSTORE POP DUP2 ADD SWAP1 PUSH2 0xC33 SWAP2 SWAP1 PUSH2 0x1DD8 JUMP JUMPDEST PUSH1 0x1 DUP1 SLOAD PUSH1 0x1 PUSH1 0x1 PUSH1 0xA0 SHL SUB NOT AND PUSH1 0x1 PUSH1 0x1 PUSH1 0xA0 SHL SUB SWAP3 SWAP1 SWAP3 AND SWAP2 SWAP1 SWAP2 OR SWAP1 SSTORE PUSH1 0x40 DUP1 MLOAD DUP1 DUP3 ADD SWAP1 SWAP2 MSTORE PUSH1 0x14 DUP2 MSTORE PUSH20 0x30B6B7BAB73A24B7103932B8BAB2B9BA32B21D1 PUSH1 0x65 SHL PUSH1 0x20 DUP3 ADD MSTORE PUSH2 0xC88 SWAP1 DUP5 PUSH2 0x1171 JUMP JUMPDEST PUSH2 0xCBE PUSH1 0x40 MLOAD DUP1 PUSH1 0x40 ADD PUSH1 0x40 MSTORE DUP1 PUSH1 0x14 DUP2 MSTORE PUSH1 0x20 ADD PUSH20 0x30B6B7BAB73A27BABA1032BC3832B1BA32B21D1 PUSH1 0x65 SHL DUP2 MSTORE POP DUP4 PUSH2 0x1171 JUMP JUMPDEST PUSH1 0x40 DUP1 MLOAD DUP1 DUP3 ADD DUP3 MSTORE PUSH1 0x1E DUP2 MSTORE PUSH32 0x436F6E74726163742042616C616E6365204265666F726520537761703A200000 PUSH1 0x20 DUP3 ADD MSTORE SWAP1 MLOAD PUSH4 0x70A08231 PUSH1 0xE0 SHL DUP2 MSTORE ADDRESS PUSH1 0x4 DUP3 ADD MSTORE PUSH2 0xD21 SWAP2 SWAP1 PUSH1 0x1 PUSH1 0x1 PUSH1 0xA0 SHL SUB DUP9 AND SWAP1 PUSH4 0x70A08231 SWAP1 PUSH1 0x24 ADD PUSH2 0x64E JUMP JUMPDEST PUSH1 0x40 DUP1 MLOAD DUP1 DUP3 ADD SWAP1 SWAP2 MSTORE PUSH1 0xE DUP2 MSTORE PUSH14 0x2830B4B91030B2323932B9B99D1 PUSH1 0x95 SHL PUSH1 0x20 DUP3 ADD MSTORE PUSH1 0x1 SLOAD PUSH2 0xD5C SWAP2 SWAP1 PUSH1 0x1 PUSH1 0x1 PUSH1 0xA0 SHL SUB AND PUSH2 0x1128 JUMP JUMPDEST PUSH1 0x1 SLOAD PUSH1 0x1 PUSH1 0x1 PUSH1 0xA0 SHL SUB AND PUSH2 0xDB4 JUMPI PUSH1 0x40 MLOAD PUSH3 0x461BCD PUSH1 0xE5 SHL DUP2 MSTORE PUSH1 0x20 PUSH1 0x4 DUP3 ADD MSTORE PUSH1 0x1A PUSH1 0x24 DUP3 ADD MSTORE PUSH32 0x4572726F723A205061697220646F6573206E6F74206578697374000000000000 PUSH1 0x44 DUP3 ADD MSTORE PUSH1 0x64 ADD PUSH2 0x433 JUMP JUMPDEST PUSH1 0x40 DUP1 MLOAD PUSH1 0x1 PUSH1 0x1 PUSH1 0xA0 SHL SUB DUP11 DUP2 AND PUSH1 0x20 DUP4 ADD MSTORE DUP10 DUP2 AND DUP3 DUP5 ADD MSTORE DUP9 AND PUSH1 0x60 DUP3 ADD MSTORE PUSH1 0x80 DUP2 ADD DUP5 SWAP1 MSTORE PUSH1 0xA0 DUP1 DUP3 ADD DUP5 SWAP1 MSTORE DUP3 MLOAD DUP1 DUP4 SUB SWAP1 SWAP2 ADD DUP2 MSTORE PUSH2 0x100 DUP3 ADD SWAP1 SWAP3 MSTORE PUSH1 0xC PUSH1 0xC0 DUP3 ADD SWAP1 DUP2 MSTORE PUSH12 0x11185D1848195B98DBD91959 PUSH1 0xA2 SHL PUSH1 0xE0 SWAP1 SWAP3 ADD SWAP2 SWAP1 SWAP2 MSTORE PUSH2 0xE22 SWAP1 PUSH2 0x10E2 JUMP JUMPDEST PUSH1 0x1 SLOAD PUSH1 0x40 MLOAD PUSH4 0x95EA7B3 PUSH1 0xE0 SHL DUP2 MSTORE PUSH1 0x1 PUSH1 0x1 PUSH1 0xA0 SHL SUB SWAP2 DUP3 AND PUSH1 0x4 DUP3 ADD MSTORE PUSH1 0x24 DUP2 ADD DUP7 SWAP1 MSTORE SWAP1 DUP8 AND SWAP1 PUSH4 0x95EA7B3 SWAP1 PUSH1 0x44 ADD PUSH1 0x20 PUSH1 0x40 MLOAD DUP1 DUP4 SUB DUP2 PUSH1 0x0 DUP8 GAS CALL ISZERO DUP1 ISZERO PUSH2 0xE75 JUMPI RETURNDATASIZE PUSH1 0x0 DUP1 RETURNDATACOPY RETURNDATASIZE PUSH1 0x0 REVERT JUMPDEST POP POP POP POP PUSH1 0x40 MLOAD RETURNDATASIZE PUSH1 0x1F NOT PUSH1 0x1F DUP3 ADD AND DUP3 ADD DUP1 PUSH1 0x40 MSTORE POP DUP2 ADD SWAP1 PUSH2 0xE99 SWAP2 SWAP1 PUSH2 0x1E2B JUMP JUMPDEST POP PUSH2 0xED9 DUP5 PUSH1 0x40 MLOAD DUP1 PUSH1 0x40 ADD PUSH1 0x40 MSTORE DUP1 PUSH1 0x1C DUP2 MSTORE PUSH1 0x20 ADD PUSH32 0x206F6620746F6B656E3020617070726F76656420666F72207377617000000000 DUP2 MSTORE POP PUSH2 0x1BCC JUMP JUMPDEST PUSH1 0x1 SLOAD PUSH1 0x40 MLOAD PUSH4 0x22C0D9F PUSH1 0xE0 SHL DUP2 MSTORE PUSH1 0x1 PUSH1 0x1 PUSH1 0xA0 SHL SUB SWAP1 SWAP2 AND SWAP1 PUSH4 0x22C0D9F SWAP1 PUSH2 0xF10 SWAP1 DUP8 SWAP1 PUSH1 0x0 SWAP1 ADDRESS SWAP1 DUP8 SWAP1 PUSH1 0x4 ADD PUSH2 0x1E93 JUMP JUMPDEST PUSH1 0x0 PUSH1 0x40 MLOAD DUP1 DUP4 SUB DUP2 PUSH1 0x0 DUP8 DUP1 EXTCODESIZE ISZERO DUP1 ISZERO PUSH2 0xF2A JUMPI PUSH1 0x0 DUP1 REVERT JUMPDEST POP GAS CALL ISZERO DUP1 ISZERO PUSH2 0xF3E JUMPI RETURNDATASIZE PUSH1 0x0 DUP1 RETURNDATACOPY RETURNDATASIZE PUSH1 0x0 REVERT JUMPDEST POP POP PUSH1 0x40 DUP1 MLOAD DUP1 DUP3 ADD DUP3 MSTORE PUSH1 0x1E DUP2 MSTORE PUSH32 0x4E657720436F6E74726163742042616C616E63652028546F6B656E30293A0000 PUSH1 0x20 DUP3 ADD MSTORE SWAP1 MLOAD PUSH4 0x70A08231 PUSH1 0xE0 SHL DUP2 MSTORE ADDRESS PUSH1 0x4 DUP3 ADD MSTORE PUSH2 0xFA6 SWAP4 POP SWAP1 SWAP2 POP PUSH1 0x1 PUSH1 0x1 PUSH1 0xA0 SHL SUB DUP10 AND SWAP1 PUSH4 0x70A08231 SWAP1 PUSH1 0x24 ADD PUSH2 0x64E JUMP JUMPDEST PUSH1 0x40 DUP1 MLOAD DUP1 DUP3 ADD DUP3 MSTORE PUSH1 0x1E DUP2 MSTORE PUSH32 0x4E657720436F6E74726163742042616C616E63652028546F6B656E31293A0000 PUSH1 0x20 DUP3 ADD MSTORE SWAP1 MLOAD PUSH4 0x70A08231 PUSH1 0xE0 SHL DUP2 MSTORE ADDRESS PUSH1 0x4 DUP3 ADD MSTORE PUSH2 0x1009 SWAP2 SWAP1 PUSH1 0x1 PUSH1 0x1 PUSH1 0xA0 SHL SUB DUP9 AND SWAP1 PUSH4 0x70A08231 SWAP1 PUSH1 0x24 ADD PUSH2 0x64E JUMP JUMPDEST PUSH1 0x40 DUP1 MLOAD DUP1 DUP3 ADD DUP3 MSTORE PUSH1 0x1B DUP2 MSTORE PUSH32 0x4E6577204F776E65722042616C616E63652028546F6B656E30293A0000000000 PUSH1 0x20 DUP3 ADD MSTORE PUSH1 0x0 SLOAD SWAP2 MLOAD PUSH4 0x70A08231 PUSH1 0xE0 SHL DUP2 MSTORE PUSH1 0x1 PUSH1 0x1 PUSH1 0xA0 SHL SUB SWAP3 DUP4 AND PUSH1 0x4 DUP3 ADD MSTORE PUSH2 0x1070 SWAP3 DUP10 AND SWAP1 PUSH4 0x70A08231 SWAP1 PUSH1 0x24 ADD PUSH2 0x64E JUMP JUMPDEST PUSH1 0x40 DUP1 MLOAD DUP1 DUP3 ADD DUP3 MSTORE PUSH1 0x1B DUP2 MSTORE PUSH32 0x4E6577204F776E65722042616C616E63652028546F6B656E31293A0000000000 PUSH1 0x20 DUP3 ADD MSTORE PUSH1 0x0 SLOAD SWAP2 MLOAD PUSH4 0x70A08231 PUSH1 0xE0 SHL DUP2 MSTORE PUSH1 0x1 PUSH1 0x1 PUSH1 0xA0 SHL SUB SWAP3 DUP4 AND PUSH1 0x4 DUP3 ADD MSTORE PUSH2 0x10D7 SWAP3 DUP9 AND SWAP1 PUSH4 0x70A08231 SWAP1 PUSH1 0x24 ADD PUSH2 0x64E JUMP JUMPDEST POP POP POP POP POP POP POP POP POP JUMP JUMPDEST PUSH2 0x1125 DUP2 PUSH1 0x40 MLOAD PUSH1 0x24 ADD PUSH2 0x10F6 SWAP2 SWAP1 PUSH2 0x1ECA JUMP JUMPDEST PUSH1 0x40 DUP1 MLOAD PUSH1 0x1F NOT DUP2 DUP5 SUB ADD DUP2 MSTORE SWAP2 SWAP1 MSTORE PUSH1 0x20 DUP2 ADD DUP1 MLOAD PUSH1 0x1 PUSH1 0x1 PUSH1 0xE0 SHL SUB AND PUSH4 0x104C13EB PUSH1 0xE2 SHL OR SWAP1 MSTORE PUSH2 0x1C0D JUMP JUMPDEST POP JUMP JUMPDEST PUSH2 0x116D DUP3 DUP3 PUSH1 0x40 MLOAD PUSH1 0x24 ADD PUSH2 0x113E SWAP3 SWAP2 SWAP1 PUSH2 0x1EDD JUMP JUMPDEST PUSH1 0x40 DUP1 MLOAD PUSH1 0x1F NOT DUP2 DUP5 SUB ADD DUP2 MSTORE SWAP2 SWAP1 MSTORE PUSH1 0x20 DUP2 ADD DUP1 MLOAD PUSH1 0x1 PUSH1 0x1 PUSH1 0xE0 SHL SUB AND PUSH4 0x319AF333 PUSH1 0xE0 SHL OR SWAP1 MSTORE PUSH2 0x1C0D JUMP JUMPDEST POP POP JUMP JUMPDEST PUSH2 0x116D DUP3 DUP3 PUSH1 0x40 MLOAD PUSH1 0x24 ADD PUSH2 0x1187 SWAP3 SWAP2 SWAP1 PUSH2 0x1F07 JUMP JUMPDEST PUSH1 0x40 DUP1 MLOAD PUSH1 0x1F NOT DUP2 DUP5 SUB ADD DUP2 MSTORE SWAP2 SWAP1 MSTORE PUSH1 0x20 DUP2 ADD DUP1 MLOAD PUSH1 0x1 PUSH1 0x1 PUSH1 0xE0 SHL SUB AND PUSH4 0x2D839CB3 PUSH1 0xE2 SHL OR SWAP1 MSTORE PUSH2 0x1C0D JUMP JUMPDEST PUSH1 0x60 DUP1 PUSH1 0x0 PUSH2 0x11C7 TIMESTAMP PUSH2 0x12C PUSH2 0x1F29 JUMP JUMPDEST SWAP1 POP PUSH1 0x0 DUP7 PUSH1 0x0 DUP2 MLOAD DUP2 LT PUSH2 0x11DE JUMPI PUSH2 0x11DE PUSH2 0x1DFC JUMP JUMPDEST PUSH1 0x20 MUL PUSH1 0x20 ADD ADD MLOAD SWAP1 POP PUSH1 0x0 DUP8 PUSH1 0x1 DUP2 MLOAD DUP2 LT PUSH2 0x11FD JUMPI PUSH2 0x11FD PUSH2 0x1DFC JUMP JUMPDEST PUSH1 0x20 MUL PUSH1 0x20 ADD ADD MLOAD SWAP1 POP PUSH1 0x2 PUSH8 0xFFFFFFFFFFFFFFFF DUP2 GT ISZERO PUSH2 0x1221 JUMPI PUSH2 0x1221 PUSH2 0x1D67 JUMP JUMPDEST PUSH1 0x40 MLOAD SWAP1 DUP1 DUP3 MSTORE DUP1 PUSH1 0x20 MUL PUSH1 0x20 ADD DUP3 ADD PUSH1 0x40 MSTORE DUP1 ISZERO PUSH2 0x124A JUMPI DUP2 PUSH1 0x20 ADD PUSH1 0x20 DUP3 MUL DUP1 CALLDATASIZE DUP4 CALLDATACOPY ADD SWAP1 POP JUMPDEST POP PUSH1 0x40 DUP1 MLOAD PUSH1 0x2 DUP1 DUP3 MSTORE PUSH1 0x60 DUP3 ADD DUP4 MSTORE SWAP3 SWAP8 POP SWAP2 SWAP1 PUSH1 0x20 DUP4 ADD SWAP1 DUP1 CALLDATASIZE DUP4 CALLDATACOPY ADD SWAP1 POP POP SWAP4 POP PUSH2 0x129F PUSH1 0x40 MLOAD DUP1 PUSH1 0x40 ADD PUSH1 0x40 MSTORE DUP1 PUSH1 0x10 DUP2 MSTORE PUSH1 0x20 ADD PUSH16 0x2A37B5B2B7103130B630B731B2B99D1 PUSH1 0x85 SHL DUP2 MSTORE POP PUSH2 0x10E2 JUMP JUMPDEST PUSH1 0x40 DUP1 MLOAD DUP1 DUP3 ADD DUP3 MSTORE PUSH1 0x8 DUP2 MSTORE PUSH8 0x2A37B5B2B7181D1 PUSH1 0xC5 SHL PUSH1 0x20 DUP3 ADD MSTORE SWAP1 MLOAD PUSH4 0x70A08231 PUSH1 0xE0 SHL DUP2 MSTORE ADDRESS PUSH1 0x4 DUP3 ADD MSTORE PUSH2 0x12ED SWAP2 SWAP1 PUSH1 0x1 PUSH1 0x1 PUSH1 0xA0 SHL SUB DUP6 AND SWAP1 PUSH4 0x70A08231 SWAP1 PUSH1 0x24 ADD PUSH2 0x64E JUMP JUMPDEST PUSH1 0x40 DUP1 MLOAD DUP1 DUP3 ADD DUP3 MSTORE PUSH1 0x8 DUP2 MSTORE PUSH8 0x2A37B5B2B7189D1 PUSH1 0xC5 SHL PUSH1 0x20 DUP3 ADD MSTORE SWAP1 MLOAD PUSH4 0x70A08231 PUSH1 0xE0 SHL DUP2 MSTORE ADDRESS PUSH1 0x4 DUP3 ADD MSTORE PUSH2 0x133B SWAP2 SWAP1 PUSH1 0x1 PUSH1 0x1 PUSH1 0xA0 SHL SUB DUP5 AND SWAP1 PUSH4 0x70A08231 SWAP1 PUSH1 0x24 ADD PUSH2 0x64E JUMP JUMPDEST PUSH2 0x135C PUSH1 0x40 MLOAD DUP1 PUSH1 0x60 ADD PUSH1 0x40 MSTORE DUP1 PUSH1 0x31 DUP2 MSTORE PUSH1 0x20 ADD PUSH2 0x20C9 PUSH1 0x31 SWAP2 CODECOPY PUSH2 0x10E2 JUMP JUMPDEST PUSH1 0x40 MLOAD PUSH4 0x95EA7B3 PUSH1 0xE0 SHL DUP2 MSTORE PUSH1 0x1 PUSH1 0x1 PUSH1 0xA0 SHL SUB DUP8 DUP2 AND PUSH1 0x4 DUP4 ADD MSTORE PUSH1 0x24 DUP3 ADD DUP14 SWAP1 MSTORE DUP4 AND SWAP1 PUSH4 0x95EA7B3 SWAP1 PUSH1 0x44 ADD PUSH1 0x20 PUSH1 0x40 MLOAD DUP1 DUP4 SUB DUP2 PUSH1 0x0 DUP8 GAS CALL ISZERO DUP1 ISZERO PUSH2 0x13AB JUMPI RETURNDATASIZE PUSH1 0x0 DUP1 RETURNDATACOPY RETURNDATASIZE PUSH1 0x0 REVERT JUMPDEST POP POP POP POP PUSH1 0x40 MLOAD RETURNDATASIZE PUSH1 0x1F NOT PUSH1 0x1F DUP3 ADD AND DUP3 ADD DUP1 PUSH1 0x40 MSTORE POP DUP2 ADD SWAP1 PUSH2 0x13CF SWAP2 SWAP1 PUSH2 0x1E2B JUMP JUMPDEST POP PUSH1 0x40 MLOAD PUSH4 0x38ED1739 PUSH1 0xE0 SHL DUP2 MSTORE PUSH1 0x1 PUSH1 0x1 PUSH1 0xA0 SHL SUB DUP8 AND SWAP1 PUSH4 0x38ED1739 SWAP1 PUSH2 0x1404 SWAP1 DUP15 SWAP1 DUP15 SWAP1 DUP14 SWAP1 ADDRESS SWAP1 DUP11 SWAP1 PUSH1 0x4 ADD PUSH2 0x1F94 JUMP JUMPDEST PUSH1 0x0 PUSH1 0x40 MLOAD DUP1 DUP4 SUB DUP2 PUSH1 0x0 DUP8 GAS CALL ISZERO DUP1 ISZERO PUSH2 0x1423 JUMPI RETURNDATASIZE PUSH1 0x0 DUP1 RETURNDATACOPY RETURNDATASIZE PUSH1 0x0 REVERT JUMPDEST POP POP POP POP PUSH1 0x40 MLOAD RETURNDATASIZE PUSH1 0x0 DUP3 RETURNDATACOPY PUSH1 0x1F RETURNDATASIZE SWAP1 DUP2 ADD PUSH1 0x1F NOT AND DUP3 ADD PUSH1 0x40 MSTORE PUSH2 0x144B SWAP2 SWAP1 DUP2 ADD SWAP1 PUSH2 0x1FD0 JUMP JUMPDEST SWAP5 POP PUSH2 0x147B PUSH1 0x40 MLOAD DUP1 PUSH1 0x40 ADD PUSH1 0x40 MSTORE DUP1 PUSH1 0xD DUP2 MSTORE PUSH1 0x20 ADD PUSH13 0x5377617020636F6D706C657465 PUSH1 0x98 SHL DUP2 MSTORE POP PUSH2 0x10E2 JUMP JUMPDEST PUSH2 0x14BB PUSH1 0x40 MLOAD DUP1 PUSH1 0x40 ADD PUSH1 0x40 MSTORE DUP1 PUSH1 0x11 DUP2 MSTORE PUSH1 0x20 ADD PUSH17 0x39BBB0B82D982E943A37B5B2B718149D1 PUSH1 0x7D SHL DUP2 MSTORE POP DUP7 PUSH1 0x0 DUP2 MLOAD DUP2 LT PUSH2 0x716 JUMPI PUSH2 0x716 PUSH2 0x1DFC JUMP JUMPDEST PUSH2 0x14FB PUSH1 0x40 MLOAD DUP1 PUSH1 0x40 ADD PUSH1 0x40 MSTORE DUP1 PUSH1 0x11 DUP2 MSTORE PUSH1 0x20 ADD PUSH17 0x39BBB0B82D98AE943A37B5B2B718949D1 PUSH1 0x7D SHL DUP2 MSTORE POP DUP7 PUSH1 0x1 DUP2 MLOAD DUP2 LT PUSH2 0x716 JUMPI PUSH2 0x716 PUSH2 0x1DFC JUMP JUMPDEST PUSH2 0x152C PUSH1 0x40 MLOAD DUP1 PUSH1 0x40 ADD PUSH1 0x40 MSTORE DUP1 PUSH1 0x10 DUP2 MSTORE PUSH1 0x20 ADD PUSH16 0x2A37B5B2B7103130B630B731B2B99D1 PUSH1 0x85 SHL DUP2 MSTORE POP PUSH2 0x10E2 JUMP JUMPDEST PUSH1 0x40 DUP1 MLOAD DUP1 DUP3 ADD DUP3 MSTORE PUSH1 0x8 DUP2 MSTORE PUSH8 0x2A37B5B2B7181D1 PUSH1 0xC5 SHL PUSH1 0x20 DUP3 ADD MSTORE SWAP1 MLOAD PUSH4 0x70A08231 PUSH1 0xE0 SHL DUP2 MSTORE ADDRESS PUSH1 0x4 DUP3 ADD MSTORE PUSH2 0x157A SWAP2 SWAP1 PUSH1 0x1 PUSH1 0x1 PUSH1 0xA0 SHL SUB DUP6 AND SWAP1 PUSH4 0x70A08231 SWAP1 PUSH1 0x24 ADD PUSH2 0x64E JUMP JUMPDEST PUSH1 0x40 DUP1 MLOAD DUP1 DUP3 ADD DUP3 MSTORE PUSH1 0x8 DUP2 MSTORE PUSH8 0x2A37B5B2B7189D1 PUSH1 0xC5 SHL PUSH1 0x20 DUP3 ADD MSTORE SWAP1 MLOAD PUSH4 0x70A08231 PUSH1 0xE0 SHL DUP2 MSTORE ADDRESS PUSH1 0x4 DUP3 ADD MSTORE PUSH2 0x15C8 SWAP2 SWAP1 PUSH1 0x1 PUSH1 0x1 PUSH1 0xA0 SHL SUB DUP5 AND SWAP1 PUSH4 0x70A08231 SWAP1 PUSH1 0x24 ADD PUSH2 0x64E JUMP JUMPDEST PUSH2 0x15E9 PUSH1 0x40 MLOAD DUP1 PUSH1 0x60 ADD PUSH1 0x40 MSTORE DUP1 PUSH1 0x33 DUP2 MSTORE PUSH1 0x20 ADD PUSH2 0x20FA PUSH1 0x33 SWAP2 CODECOPY PUSH2 0x10E2 JUMP JUMPDEST CALLER PUSH1 0x1 PUSH1 0x1 PUSH1 0xA0 SHL SUB AND PUSH4 0xD21220A7 PUSH1 0x40 MLOAD DUP2 PUSH4 0xFFFFFFFF AND PUSH1 0xE0 SHL DUP2 MSTORE PUSH1 0x4 ADD PUSH1 0x20 PUSH1 0x40 MLOAD DUP1 DUP4 SUB DUP2 DUP7 GAS STATICCALL ISZERO DUP1 ISZERO PUSH2 0x1627 JUMPI RETURNDATASIZE PUSH1 0x0 DUP1 RETURNDATACOPY RETURNDATASIZE PUSH1 0x0 REVERT JUMPDEST POP POP POP POP PUSH1 0x40 MLOAD RETURNDATASIZE PUSH1 0x1F NOT PUSH1 0x1F DUP3 ADD AND DUP3 ADD DUP1 PUSH1 0x40 MSTORE POP DUP2 ADD SWAP1 PUSH2 0x164B SWAP2 SWAP1 PUSH2 0x1DD8 JUMP JUMPDEST DUP9 PUSH1 0x0 DUP2 MLOAD DUP2 LT PUSH2 0x165E JUMPI PUSH2 0x165E PUSH2 0x1DFC JUMP JUMPDEST PUSH1 0x20 MUL PUSH1 0x20 ADD ADD SWAP1 PUSH1 0x1 PUSH1 0x1 PUSH1 0xA0 SHL SUB AND SWAP1 DUP2 PUSH1 0x1 PUSH1 0x1 PUSH1 0xA0 SHL SUB AND DUP2 MSTORE POP POP CALLER PUSH1 0x1 PUSH1 0x1 PUSH1 0xA0 SHL SUB AND PUSH4 0xDFE1681 PUSH1 0x40 MLOAD DUP2 PUSH4 0xFFFFFFFF AND PUSH1 0xE0 SHL DUP2 MSTORE PUSH1 0x4 ADD PUSH1 0x20 PUSH1 0x40 MLOAD DUP1 DUP4 SUB DUP2 DUP7 GAS STATICCALL ISZERO DUP1 ISZERO PUSH2 0x16BC JUMPI RETURNDATASIZE PUSH1 0x0 DUP1 RETURNDATACOPY RETURNDATASIZE PUSH1 0x0 REVERT JUMPDEST POP POP POP POP PUSH1 0x40 MLOAD RETURNDATASIZE PUSH1 0x1F NOT PUSH1 0x1F DUP3 ADD AND DUP3 ADD DUP1 PUSH1 0x40 MSTORE POP DUP2 ADD SWAP1 PUSH2 0x16E0 SWAP2 SWAP1 PUSH2 0x1DD8 JUMP JUMPDEST DUP9 PUSH1 0x1 DUP2 MLOAD DUP2 LT PUSH2 0x16F3 JUMPI PUSH2 0x16F3 PUSH2 0x1DFC JUMP JUMPDEST PUSH1 0x1 PUSH1 0x1 PUSH1 0xA0 SHL SUB SWAP3 DUP4 AND PUSH1 0x20 SWAP2 DUP3 MUL SWAP3 SWAP1 SWAP3 ADD ADD MSTORE PUSH1 0x40 MLOAD PUSH4 0x7C0329D PUSH1 0xE2 SHL DUP2 MSTORE PUSH1 0x0 SWAP2 DUP10 AND SWAP1 PUSH4 0x1F00CA74 SWAP1 PUSH2 0x1732 SWAP1 DUP16 SWAP1 DUP14 SWAP1 PUSH1 0x4 ADD PUSH2 0x208E JUMP JUMPDEST PUSH1 0x0 PUSH1 0x40 MLOAD DUP1 DUP4 SUB DUP2 DUP7 GAS STATICCALL ISZERO DUP1 ISZERO PUSH2 0x174F JUMPI RETURNDATASIZE PUSH1 0x0 DUP1 RETURNDATACOPY RETURNDATASIZE PUSH1 0x0 REVERT JUMPDEST POP POP POP POP PUSH1 0x40 MLOAD RETURNDATASIZE PUSH1 0x0 DUP3 RETURNDATACOPY PUSH1 0x1F RETURNDATASIZE SWAP1 DUP2 ADD PUSH1 0x1F NOT AND DUP3 ADD PUSH1 0x40 MSTORE PUSH2 0x1777 SWAP2 SWAP1 DUP2 ADD SWAP1 PUSH2 0x1FD0 JUMP JUMPDEST SWAP1 POP PUSH2 0x17C5 PUSH1 0x40 MLOAD DUP1 PUSH1 0x40 ADD PUSH1 0x40 MSTORE DUP1 PUSH1 0x1C DUP2 MSTORE PUSH1 0x20 ADD PUSH32 0x6765745265706179302028746F6B656E315265717569726564293A2000000000 DUP2 MSTORE POP DUP3 PUSH1 0x0 DUP2 MLOAD DUP2 LT PUSH2 0x716 JUMPI PUSH2 0x716 PUSH2 0x1DFC JUMP JUMPDEST PUSH2 0x1811 PUSH1 0x40 MLOAD DUP1 PUSH1 0x40 ADD PUSH1 0x40 MSTORE DUP1 PUSH1 0x1C DUP2 MSTORE PUSH1 0x20 ADD PUSH32 0x6765745265706179312028746F6B656E304F7574707574293A3A3A2000000000 DUP2 MSTORE POP DUP3 PUSH1 0x1 DUP2 MLOAD DUP2 LT PUSH2 0x716 JUMPI PUSH2 0x716 PUSH2 0x1DFC JUMP JUMPDEST PUSH2 0x1847 PUSH1 0x40 MLOAD DUP1 PUSH1 0x40 ADD PUSH1 0x40 MSTORE DUP1 PUSH1 0x14 DUP2 MSTORE PUSH1 0x20 ADD PUSH20 0x31B0B63193B21030B6B7BAB73A2932B830BC9D1 PUSH1 0x65 SHL DUP2 MSTORE POP DUP12 PUSH2 0x1171 JUMP JUMPDEST PUSH2 0x1868 PUSH1 0x40 MLOAD DUP1 PUSH1 0x60 ADD PUSH1 0x40 MSTORE DUP1 PUSH1 0x2D DUP2 MSTORE PUSH1 0x20 ADD PUSH2 0x2153 PUSH1 0x2D SWAP2 CODECOPY PUSH2 0x10E2 JUMP JUMPDEST PUSH2 0x1889 PUSH1 0x40 MLOAD DUP1 PUSH1 0x60 ADD PUSH1 0x40 MSTORE DUP1 PUSH1 0x26 DUP2 MSTORE PUSH1 0x20 ADD PUSH2 0x212D PUSH1 0x26 SWAP2 CODECOPY PUSH2 0x10E2 JUMP JUMPDEST PUSH1 0x40 MLOAD PUSH4 0x70A08231 PUSH1 0xE0 SHL DUP2 MSTORE ADDRESS PUSH1 0x4 DUP3 ADD MSTORE PUSH1 0x1 PUSH1 0x1 PUSH1 0xA0 SHL SUB DUP4 AND SWAP1 PUSH4 0x95EA7B3 SWAP1 DUP11 SWAP1 DUP4 SWAP1 PUSH4 0x70A08231 SWAP1 PUSH1 0x24 ADD PUSH1 0x20 PUSH1 0x40 MLOAD DUP1 DUP4 SUB DUP2 DUP7 GAS STATICCALL ISZERO DUP1 ISZERO PUSH2 0x18D7 JUMPI RETURNDATASIZE PUSH1 0x0 DUP1 RETURNDATACOPY RETURNDATASIZE PUSH1 0x0 REVERT JUMPDEST POP POP POP POP PUSH1 0x40 MLOAD RETURNDATASIZE PUSH1 0x1F NOT PUSH1 0x1F DUP3 ADD AND DUP3 ADD DUP1 PUSH1 0x40 MSTORE POP DUP2 ADD SWAP1 PUSH2 0x18FB SWAP2 SWAP1 PUSH2 0x1E12 JUMP JUMPDEST PUSH1 0x40 MLOAD PUSH1 0x1 PUSH1 0x1 PUSH1 0xE0 SHL SUB NOT PUSH1 0xE0 DUP6 SWAP1 SHL AND DUP2 MSTORE PUSH1 0x1 PUSH1 0x1 PUSH1 0xA0 SHL SUB SWAP1 SWAP3 AND PUSH1 0x4 DUP4 ADD MSTORE PUSH1 0x24 DUP3 ADD MSTORE PUSH1 0x44 ADD PUSH1 0x20 PUSH1 0x40 MLOAD DUP1 DUP4 SUB DUP2 PUSH1 0x0 DUP8 GAS CALL ISZERO DUP1 ISZERO PUSH2 0x1946 JUMPI RETURNDATASIZE PUSH1 0x0 DUP1 RETURNDATACOPY RETURNDATASIZE PUSH1 0x0 REVERT JUMPDEST POP POP POP POP PUSH1 0x40 MLOAD RETURNDATASIZE PUSH1 0x1F NOT PUSH1 0x1F DUP3 ADD AND DUP3 ADD DUP1 PUSH1 0x40 MSTORE POP DUP2 ADD SWAP1 PUSH2 0x196A SWAP2 SWAP1 PUSH2 0x1E2B JUMP JUMPDEST POP PUSH2 0x1994 PUSH1 0x40 MLOAD DUP1 PUSH1 0x40 ADD PUSH1 0x40 MSTORE DUP1 PUSH1 0x8 DUP2 MSTORE PUSH1 0x20 ADD PUSH8 0x105C1C1C9BDD9959 PUSH1 0xC2 SHL DUP2 MSTORE POP PUSH2 0x10E2 JUMP JUMPDEST DUP8 PUSH1 0x1 PUSH1 0x1 PUSH1 0xA0 SHL SUB AND PUSH4 0x8803DBEE DUP8 PUSH1 0x1 DUP2 MLOAD DUP2 LT PUSH2 0x19B6 JUMPI PUSH2 0x19B6 PUSH2 0x1DFC JUMP JUMPDEST PUSH1 0x20 MUL PUSH1 0x20 ADD ADD MLOAD DUP4 PUSH1 0x0 DUP2 MLOAD DUP2 LT PUSH2 0x19D1 JUMPI PUSH2 0x19D1 PUSH2 0x1DFC JUMP JUMPDEST PUSH1 0x20 MUL PUSH1 0x20 ADD ADD MLOAD DUP13 CALLER DUP10 PUSH1 0x40 MLOAD DUP7 PUSH4 0xFFFFFFFF AND PUSH1 0xE0 SHL DUP2 MSTORE PUSH1 0x4 ADD PUSH2 0x19FC SWAP6 SWAP5 SWAP4 SWAP3 SWAP2 SWAP1 PUSH2 0x1F94 JUMP JUMPDEST PUSH1 0x0 PUSH1 0x40 MLOAD DUP1 DUP4 SUB DUP2 PUSH1 0x0 DUP8 GAS CALL ISZERO DUP1 ISZERO PUSH2 0x1A1B JUMPI RETURNDATASIZE PUSH1 0x0 DUP1 RETURNDATACOPY RETURNDATASIZE PUSH1 0x0 REVERT JUMPDEST POP POP POP POP PUSH1 0x40 MLOAD RETURNDATASIZE PUSH1 0x0 DUP3 RETURNDATACOPY PUSH1 0x1F RETURNDATASIZE SWAP1 DUP2 ADD PUSH1 0x1F NOT AND DUP3 ADD PUSH1 0x40 MSTORE PUSH2 0x1A43 SWAP2 SWAP1 DUP2 ADD SWAP1 PUSH2 0x1FD0 JUMP JUMPDEST SWAP5 POP PUSH2 0x1A74 PUSH1 0x40 MLOAD DUP1 PUSH1 0x40 ADD PUSH1 0x40 MSTORE DUP1 PUSH1 0xE DUP2 MSTORE PUSH1 0x20 ADD PUSH14 0x526570617920636F6D706C657465 PUSH1 0x90 SHL DUP2 MSTORE POP PUSH2 0x10E2 JUMP JUMPDEST PUSH2 0x1AAD PUSH1 0x40 MLOAD DUP1 PUSH1 0x40 ADD PUSH1 0x40 MSTORE DUP1 PUSH1 0xA DUP2 MSTORE PUSH1 0x20 ADD PUSH10 0x3932B830BCAD982E9D1 PUSH1 0xB5 SHL DUP2 MSTORE POP DUP7 PUSH1 0x0 DUP2 MLOAD DUP2 LT PUSH2 0x716 JUMPI PUSH2 0x716 PUSH2 0x1DFC JUMP JUMPDEST PUSH2 0x1AE6 PUSH1 0x40 MLOAD DUP1 PUSH1 0x40 ADD PUSH1 0x40 MSTORE DUP1 PUSH1 0xA DUP2 MSTORE PUSH1 0x20 ADD PUSH10 0x3932B830BCAD98AE9D1 PUSH1 0xB5 SHL DUP2 MSTORE POP DUP7 PUSH1 0x1 DUP2 MLOAD DUP2 LT PUSH2 0x716 JUMPI PUSH2 0x716 PUSH2 0x1DFC JUMP JUMPDEST PUSH2 0x1B17 PUSH1 0x40 MLOAD DUP1 PUSH1 0x40 ADD PUSH1 0x40 MSTORE DUP1 PUSH1 0x10 DUP2 MSTORE PUSH1 0x20 ADD PUSH16 0x2A37B5B2B7103130B630B731B2B99D1 PUSH1 0x85 SHL DUP2 MSTORE POP PUSH2 0x10E2 JUMP JUMPDEST PUSH2 0x1B86 PUSH1 0x40 MLOAD DUP1 PUSH1 0x40 ADD PUSH1 0x40 MSTORE DUP1 PUSH1 0x8 DUP2 MSTORE PUSH1 0x20 ADD PUSH8 0x2A37B5B2B7181D1 PUSH1 0xC5 SHL DUP2 MSTORE POP DUP11 PUSH1 0x0 DUP2 MLOAD DUP2 LT PUSH2 0x1B4E JUMPI PUSH2 0x1B4E PUSH2 0x1DFC JUMP JUMPDEST PUSH1 0x20 SWAP1 DUP2 MUL SWAP2 SWAP1 SWAP2 ADD ADD MLOAD PUSH1 0x40 MLOAD PUSH4 0x70A08231 PUSH1 0xE0 SHL DUP2 MSTORE ADDRESS PUSH1 0x4 DUP3 ADD MSTORE PUSH1 0x1 PUSH1 0x1 PUSH1 0xA0 SHL SUB SWAP1 SWAP2 AND SWAP1 PUSH4 0x70A08231 SWAP1 PUSH1 0x24 ADD PUSH2 0x64E JUMP JUMPDEST PUSH2 0x1BBD PUSH1 0x40 MLOAD DUP1 PUSH1 0x40 ADD PUSH1 0x40 MSTORE DUP1 PUSH1 0x8 DUP2 MSTORE PUSH1 0x20 ADD PUSH8 0x2A37B5B2B7189D1 PUSH1 0xC5 SHL DUP2 MSTORE POP DUP11 PUSH1 0x1 DUP2 MLOAD DUP2 LT PUSH2 0x1B4E JUMPI PUSH2 0x1B4E PUSH2 0x1DFC JUMP JUMPDEST POP POP POP POP SWAP7 POP SWAP7 SWAP5 POP POP POP POP POP JUMP JUMPDEST PUSH2 0x116D DUP3 DUP3 PUSH1 0x40 MLOAD PUSH1 0x24 ADD PUSH2 0x1BE2 SWAP3 SWAP2 SWAP1 PUSH2 0x20AF JUMP JUMPDEST PUSH1 0x40 DUP1 MLOAD PUSH1 0x1F NOT DUP2 DUP5 SUB ADD DUP2 MSTORE SWAP2 SWAP1 MSTORE PUSH1 0x20 DUP2 ADD DUP1 MLOAD PUSH1 0x1 PUSH1 0x1 PUSH1 0xE0 SHL SUB AND PUSH4 0x643FD0DF PUSH1 0xE0 SHL OR SWAP1 MSTORE JUMPDEST PUSH2 0x1125 DUP2 PUSH1 0x0 PUSH11 0x636F6E736F6C652E6C6F67 SWAP1 POP PUSH1 0x0 DUP1 DUP4 MLOAD PUSH1 0x20 DUP6 ADD DUP5 GAS STATICCALL POP POP POP JUMP JUMPDEST PUSH1 0x1 PUSH1 0x1 PUSH1 0xA0 SHL SUB DUP2 AND DUP2 EQ PUSH2 0x1125 JUMPI PUSH1 0x0 DUP1 REVERT JUMPDEST PUSH1 0x0 DUP1 PUSH1 0x0 DUP1 PUSH1 0x0 PUSH1 0x80 DUP7 DUP9 SUB SLT ISZERO PUSH2 0x1C5F JUMPI PUSH1 0x0 DUP1 REVERT JUMPDEST DUP6 CALLDATALOAD PUSH2 0x1C6A DUP2 PUSH2 0x1C32 JUMP JUMPDEST SWAP5 POP PUSH1 0x20 DUP7 ADD CALLDATALOAD SWAP4 POP PUSH1 0x40 DUP7 ADD CALLDATALOAD SWAP3 POP PUSH1 0x60 DUP7 ADD CALLDATALOAD PUSH8 0xFFFFFFFFFFFFFFFF DUP1 DUP3 GT ISZERO PUSH2 0x1C95 JUMPI PUSH1 0x0 DUP1 REVERT JUMPDEST DUP2 DUP9 ADD SWAP2 POP DUP9 PUSH1 0x1F DUP4 ADD SLT PUSH2 0x1CA9 JUMPI PUSH1 0x0 DUP1 REVERT JUMPDEST DUP2 CALLDATALOAD DUP2 DUP2 GT ISZERO PUSH2 0x1CB8 JUMPI PUSH1 0x0 DUP1 REVERT JUMPDEST DUP10 PUSH1 0x20 DUP3 DUP6 ADD ADD GT ISZERO PUSH2 0x1CCA JUMPI PUSH1 0x0 DUP1 REVERT JUMPDEST SWAP7 SWAP10 SWAP6 SWAP9 POP SWAP4 SWAP7 POP PUSH1 0x20 ADD SWAP5 SWAP4 SWAP3 POP POP POP JUMP JUMPDEST PUSH1 0x0 DUP1 PUSH1 0x0 DUP1 PUSH1 0x0 DUP1 PUSH1 0x0 DUP1 PUSH2 0x100 DUP10 DUP12 SUB SLT ISZERO PUSH2 0x1CFA JUMPI PUSH1 0x0 DUP1 REVERT JUMPDEST DUP9 CALLDATALOAD PUSH2 0x1D05 DUP2 PUSH2 0x1C32 JUMP JUMPDEST SWAP8 POP PUSH1 0x20 DUP10 ADD CALLDATALOAD PUSH2 0x1D15 DUP2 PUSH2 0x1C32 JUMP JUMPDEST SWAP7 POP PUSH1 0x40 DUP10 ADD CALLDATALOAD PUSH2 0x1D25 DUP2 PUSH2 0x1C32 JUMP JUMPDEST SWAP6 POP PUSH1 0x60 DUP10 ADD CALLDATALOAD PUSH2 0x1D35 DUP2 PUSH2 0x1C32 JUMP JUMPDEST SWAP5 POP PUSH1 0x80 DUP10 ADD CALLDATALOAD PUSH2 0x1D45 DUP2 PUSH2 0x1C32 JUMP JUMPDEST SWAP8 SWAP11 SWAP7 SWAP10 POP SWAP5 SWAP8 SWAP4 SWAP7 SWAP6 PUSH1 0xA0 DUP6 ADD CALLDATALOAD SWAP6 POP PUSH1 0xC0 DUP6 ADD CALLDATALOAD SWAP5 PUSH1 0xE0 ADD CALLDATALOAD SWAP4 POP SWAP2 POP POP JUMP JUMPDEST PUSH4 0x4E487B71 PUSH1 0xE0 SHL PUSH1 0x0 MSTORE PUSH1 0x41 PUSH1 0x4 MSTORE PUSH1 0x24 PUSH1 0x0 REVERT JUMPDEST PUSH1 0x0 DUP1 PUSH1 0x0 DUP1 PUSH1 0x0 PUSH1 0xA0 DUP7 DUP9 SUB SLT ISZERO PUSH2 0x1D95 JUMPI PUSH1 0x0 DUP1 REVERT JUMPDEST DUP6 CALLDATALOAD PUSH2 0x1DA0 DUP2 PUSH2 0x1C32 JUMP JUMPDEST SWAP5 POP PUSH1 0x20 DUP7 ADD CALLDATALOAD PUSH2 0x1DB0 DUP2 PUSH2 0x1C32 JUMP JUMPDEST SWAP4 POP PUSH1 0x40 DUP7 ADD CALLDATALOAD PUSH2 0x1DC0 DUP2 PUSH2 0x1C32 JUMP JUMPDEST SWAP5 SWAP8 SWAP4 SWAP7 POP SWAP4 SWAP5 PUSH1 0x60 DUP2 ADD CALLDATALOAD SWAP5 POP PUSH1 0x80 ADD CALLDATALOAD SWAP3 SWAP2 POP POP JUMP JUMPDEST PUSH1 0x0 PUSH1 0x20 DUP3 DUP5 SUB SLT ISZERO PUSH2 0x1DEA JUMPI PUSH1 0x0 DUP1 REVERT JUMPDEST DUP2 MLOAD PUSH2 0x1DF5 DUP2 PUSH2 0x1C32 JUMP JUMPDEST SWAP4 SWAP3 POP POP POP JUMP JUMPDEST PUSH4 0x4E487B71 PUSH1 0xE0 SHL PUSH1 0x0 MSTORE PUSH1 0x32 PUSH1 0x4 MSTORE PUSH1 0x24 PUSH1 0x0 REVERT JUMPDEST PUSH1 0x0 PUSH1 0x20 DUP3 DUP5 SUB SLT ISZERO PUSH2 0x1E24 JUMPI PUSH1 0x0 DUP1 REVERT JUMPDEST POP MLOAD SWAP2 SWAP1 POP JUMP JUMPDEST PUSH1 0x0 PUSH1 0x20 DUP3 DUP5 SUB SLT ISZERO PUSH2 0x1E3D JUMPI PUSH1 0x0 DUP1 REVERT JUMPDEST DUP2 MLOAD DUP1 ISZERO ISZERO DUP2 EQ PUSH2 0x1DF5 JUMPI PUSH1 0x0 DUP1 REVERT JUMPDEST PUSH1 0x0 DUP2 MLOAD DUP1 DUP5 MSTORE PUSH1 0x0 JUMPDEST DUP2 DUP2 LT ISZERO PUSH2 0x1E73 JUMPI PUSH1 0x20 DUP2 DUP6 ADD DUP2 ADD MLOAD DUP7 DUP4 ADD DUP3 ADD MSTORE ADD PUSH2 0x1E57 JUMP JUMPDEST POP PUSH1 0x0 PUSH1 0x20 DUP3 DUP7 ADD ADD MSTORE PUSH1 0x20 PUSH1 0x1F NOT PUSH1 0x1F DUP4 ADD AND DUP6 ADD ADD SWAP2 POP POP SWAP3 SWAP2 POP POP JUMP JUMPDEST DUP5 DUP2 MSTORE DUP4 PUSH1 0x20 DUP3 ADD MSTORE PUSH1 0x1 DUP1 PUSH1 0xA0 SHL SUB DUP4 AND PUSH1 0x40 DUP3 ADD MSTORE PUSH1 0x80 PUSH1 0x60 DUP3 ADD MSTORE PUSH1 0x0 PUSH2 0x1EC0 PUSH1 0x80 DUP4 ADD DUP5 PUSH2 0x1E4D JUMP JUMPDEST SWAP7 SWAP6 POP POP POP POP POP POP JUMP JUMPDEST PUSH1 0x20 DUP2 MSTORE PUSH1 0x0 PUSH2 0x1DF5 PUSH1 0x20 DUP4 ADD DUP5 PUSH2 0x1E4D JUMP JUMPDEST PUSH1 0x40 DUP2 MSTORE PUSH1 0x0 PUSH2 0x1EF0 PUSH1 0x40 DUP4 ADD DUP6 PUSH2 0x1E4D JUMP JUMPDEST SWAP1 POP PUSH1 0x1 DUP1 PUSH1 0xA0 SHL SUB DUP4 AND PUSH1 0x20 DUP4 ADD MSTORE SWAP4 SWAP3 POP POP POP JUMP JUMPDEST PUSH1 0x40 DUP2 MSTORE PUSH1 0x0 PUSH2 0x1F1A PUSH1 0x40 DUP4 ADD DUP6 PUSH2 0x1E4D JUMP JUMPDEST SWAP1 POP DUP3 PUSH1 0x20 DUP4 ADD MSTORE SWAP4 SWAP3 POP POP POP JUMP JUMPDEST DUP1 DUP3 ADD DUP1 DUP3 GT ISZERO PUSH2 0x1F4A JUMPI PUSH4 0x4E487B71 PUSH1 0xE0 SHL PUSH1 0x0 MSTORE PUSH1 0x11 PUSH1 0x4 MSTORE PUSH1 0x24 PUSH1 0x0 REVERT JUMPDEST SWAP3 SWAP2 POP POP JUMP JUMPDEST PUSH1 0x0 DUP2 MLOAD DUP1 DUP5 MSTORE PUSH1 0x20 DUP1 DUP6 ADD SWAP5 POP DUP1 DUP5 ADD PUSH1 0x0 JUMPDEST DUP4 DUP2 LT ISZERO PUSH2 0x1F89 JUMPI DUP2 MLOAD PUSH1 0x1 PUSH1 0x1 PUSH1 0xA0 SHL SUB AND DUP8 MSTORE SWAP6 DUP3 ADD SWAP6 SWAP1 DUP3 ADD SWAP1 PUSH1 0x1 ADD PUSH2 0x1F64 JUMP JUMPDEST POP SWAP5 SWAP6 SWAP5 POP POP POP POP POP JUMP JUMPDEST DUP6 DUP2 MSTORE DUP5 PUSH1 0x20 DUP3 ADD MSTORE PUSH1 0xA0 PUSH1 0x40 DUP3 ADD MSTORE PUSH1 0x0 PUSH2 0x1FB3 PUSH1 0xA0 DUP4 ADD DUP7 PUSH2 0x1F50 JUMP JUMPDEST PUSH1 0x1 PUSH1 0x1 PUSH1 0xA0 SHL SUB SWAP5 SWAP1 SWAP5 AND PUSH1 0x60 DUP4 ADD MSTORE POP PUSH1 0x80 ADD MSTORE SWAP4 SWAP3 POP POP POP JUMP JUMPDEST PUSH1 0x0 PUSH1 0x20 DUP1 DUP4 DUP6 SUB SLT ISZERO PUSH2 0x1FE3 JUMPI PUSH1 0x0 DUP1 REVERT JUMPDEST DUP3 MLOAD PUSH8 0xFFFFFFFFFFFFFFFF DUP1 DUP3 GT ISZERO PUSH2 0x1FFB JUMPI PUSH1 0x0 DUP1 REVERT JUMPDEST DUP2 DUP6 ADD SWAP2 POP DUP6 PUSH1 0x1F DUP4 ADD SLT PUSH2 0x200F JUMPI PUSH1 0x0 DUP1 REVERT JUMPDEST DUP2 MLOAD DUP2 DUP2 GT ISZERO PUSH2 0x2021 JUMPI PUSH2 0x2021 PUSH2 0x1D67 JUMP JUMPDEST DUP1 PUSH1 0x5 SHL PUSH1 0x40 MLOAD PUSH1 0x1F NOT PUSH1 0x3F DUP4 ADD AND DUP2 ADD DUP2 DUP2 LT DUP6 DUP3 GT OR ISZERO PUSH2 0x2046 JUMPI PUSH2 0x2046 PUSH2 0x1D67 JUMP JUMPDEST PUSH1 0x40 MSTORE SWAP2 DUP3 MSTORE DUP5 DUP3 ADD SWAP3 POP DUP4 DUP2 ADD DUP6 ADD SWAP2 DUP9 DUP4 GT ISZERO PUSH2 0x2064 JUMPI PUSH1 0x0 DUP1 REVERT JUMPDEST SWAP4 DUP6 ADD SWAP4 JUMPDEST DUP3 DUP6 LT ISZERO PUSH2 0x2082 JUMPI DUP5 MLOAD DUP5 MSTORE SWAP4 DUP6 ADD SWAP4 SWAP3 DUP6 ADD SWAP3 PUSH2 0x2069 JUMP JUMPDEST SWAP9 SWAP8 POP POP POP POP POP POP POP POP JUMP JUMPDEST DUP3 DUP2 MSTORE PUSH1 0x40 PUSH1 0x20 DUP3 ADD MSTORE PUSH1 0x0 PUSH2 0x20A7 PUSH1 0x40 DUP4 ADD DUP5 PUSH2 0x1F50 JUMP JUMPDEST SWAP5 SWAP4 POP POP POP POP JUMP JUMPDEST DUP3 DUP2 MSTORE PUSH1 0x40 PUSH1 0x20 DUP3 ADD MSTORE PUSH1 0x0 PUSH2 0x20A7 PUSH1 0x40 DUP4 ADD DUP5 PUSH2 0x1E4D JUMP INVALID 0x5F 0x5F 0x5F 0x5F 0x5F 0x5F 0x5F 0x5F 0x5F 0x5F PUSH20 0x7761704578616374546F6B656E73466F72546F6B PUSH6 0x6E735F5F5F5F 0x5F 0x5F 0x5F 0x5F 0x5F 0x5F 0x5F 0x5F 0x5F 0x5F 0x5F 0x5F 0x5F 0x5F 0x5F 0x5F 0x5F 0x5F 0x5F 0x5F 0x5F 0x5F 0x5F 0x5F 0x5F 0x5F 0x5F 0x5F PUSH8 0x6574416D6F756E74 PUSH20 0x496E5F5F5F5F5F5F5F5F5F5F5F5F5F5F5F5F5F5F 0x5F 0x5F 0x5F 0x5F COINBASE PUSH17 0x70726F76696E67206C6F616E526F757465 PUSH19 0x20746F2074726164652067657452657061795F 0x5F 0x5F 0x5F 0x5F 0x5F 0x5F 0x5F 0x5F 0x5F 0x5F PUSH20 0x776170546F6B656E73466F724578616374546F6B PUSH6 0x6E735F5F5F5F 0x5F 0x5F 0x5F 0x5F 0x5F 0x5F 0x4E PUSH6 0x7720746F6B65 PUSH15 0x302062616C616E636520286C6F616E PUSH6 0x64293A3A3A3A GASPRICE GASPRICE GASPRICE GASPRICE GASPRICE GASPRICE GASPRICE GASPRICE GASPRICE GASPRICE GASPRICE GASPRICE GASPRICE GASPRICE KECCAK256 LOG2 PUSH5 0x6970667358 0x22 SLT KECCAK256 0xDB CODESIZE EXTCODESIZE 0x4F 0xB2 0xE7 0x24 GT 0xBE PUSH31 0x6CCD4514BF8C0A92FC74018D518B7FB225FB1EDB8D3364736F6C6343000813 STOP CALLER "},"methodIdentifiers":{"checkOwner()":"cdbce03d","flashSwap(address,address,address,address,address,uint256,uint256,uint256)":"de60dce4","uniswapV2Call(address,uint256,uint256,bytes)":"10d1e85c"}}}}}