{"contracts/v2/swap.sol":{"Swap":{"abi":[{"inputs":[{"internalType":"address","name":"_owner","type":"address"}],"stateMutability":"nonpayable","type":"constructor"},{"anonymous":false,"inputs":[{"indexed":false,"internalType":"string","name":"message","type":"string"}],"name":"log","type":"event"},{"anonymous":false,"inputs":[{"indexed":false,"internalType":"string","name":"message","type":"string"},{"indexed":false,"internalType":"address","name":"val","type":"address"}],"name":"logAddress","type":"event"},{"anonymous":false,"inputs":[{"indexed":false,"internalType":"string","name":"message","type":"string"},{"indexed":false,"internalType":"uint256","name":"val","type":"uint256"}],"name":"logValue","type":"event"},{"inputs":[],"name":"checkOwner","outputs":[{"internalType":"address","name":"","type":"address"}],"stateMutability":"view","type":"function"},{"inputs":[{"internalType":"address","name":"routerAID","type":"address"},{"internalType":"address","name":"routerBID","type":"address"},{"internalType":"uint256","name":"tradeSize","type":"uint256"},{"internalType":"uint256","name":"amountOutA","type":"uint256"},{"internalType":"address[]","name":"path0","type":"address[]"},{"internalType":"address[]","name":"path1","type":"address[]"},{"internalType":"address","name":"to","type":"address"},{"internalType":"uint256","name":"deadline","type":"uint256"}],"name":"swapMulti","outputs":[],"stateMutability":"nonpayable","type":"function"},{"inputs":[{"internalType":"address","name":"routerAID","type":"address"},{"internalType":"address","name":"routerBID","type":"address"},{"internalType":"uint256","name":"tradeSize","type":"uint256"},{"internalType":"uint256","name":"amountOutA","type":"uint256"},{"internalType":"address[]","name":"path0","type":"address[]"},{"internalType":"address[]","name":"path1","type":"address[]"},{"internalType":"address","name":"to","type":"address"},{"internalType":"uint256","name":"deadline","type":"uint256"}],"name":"swapSingle","outputs":[],"stateMutability":"nonpayable","type":"function"}],"evm":{"bytecode":{"linkReferences":{},"object":"608060405234801561001057600080fd5b50604051611b32380380611b3283398101604081905261002f91610054565b600080546001600160a01b0319166001600160a01b0392909216919091179055610084565b60006020828403121561006657600080fd5b81516001600160a01b038116811461007d57600080fd5b9392505050565b611a9f806100936000396000f3fe608060405234801561001057600080fd5b50600436106100415760003560e01c806306204fb91461004657806329b9d97b1461005b578063cdbce03d1461006e575b600080fd5b6100596100543660046116c1565b61008d565b005b6100596100693660046116c1565b610415565b600054604080516001600160a01b039092168252519081900360200190f35b6100ae604051806060016040528060258152602001611a45602591396106b2565b6000846000815181106100c3576100c3611774565b602002602001015190506000856001815181106100e2576100e2611774565b6020908102919091010151905089896100fd848484846106f8565b6040516370a0823160e01b81523360048201526000906001600160a01b038616906370a0823190602401602060405180830381865afa158015610144573d6000803e3d6000fd5b505050506040513d601f19601f82011682018060405250810190610168919061178a565b90506101956040518060400160405280600981526020016803130b630b731b29d160bd1b815250826108bc565b8a8110156101f65760405162461bcd60e51b8152602060048201526024808201527f537761704d756c74693a20494e53554646494349454e545f494e5055545f414d60448201526313d5539560e21b60648201526084015b60405180910390fd5b604051636eb1769f60e11b81523360048201523060248201526000906001600160a01b0387169063dd62ed3e90604401602060405180830381865afa158015610243573d6000803e3d6000fd5b505050506040513d601f19601f82011682018060405250810190610267919061178a565b90506102966040518060400160405280600b81526020016a030b63637bbb0b731b29d160ad1b815250826108bc565b8b8110156102e65760405162461bcd60e51b815260206004820181905260248201527f537761704d756c74693a20434f4e54524143545f4e4f545f415050524f56454460448201526064016101ed565b6103136040518060400160405280600b81526020016a03a3930b232a9b4bd329d160ad1b8152508d6108bc565b61032384848e8e8e8e8e8e610905565b6040516370a0823160e01b81523060048201526001600160a01b0387169063a9059cbb90339083906370a0823190602401602060405180830381865afa158015610371573d6000803e3d6000fd5b505050506040513d601f19601f82011682018060405250810190610395919061178a565b6040516001600160e01b031960e085901b1681526001600160a01b03909216600483015260248201526044016020604051808303816000875af11580156103e0573d6000803e3d6000fd5b505050506040513d601f19601f8201168201806040525081019061040491906117a3565b505050505050505050505050505050565b610436604051806060016040528060278152602001611a1e602791396106b2565b60008460008151811061044b5761044b611774565b6020026020010151905060008560018151811061046a5761046a611774565b602090810291909101015190508989610485848484846106f8565b6040516370a0823160e01b81523360048201526000906001600160a01b038616906370a0823190602401602060405180830381865afa1580156104cc573d6000803e3d6000fd5b505050506040513d601f19601f820116820180604052508101906104f0919061178a565b905061051d6040518060400160405280600981526020016803130b630b731b29d160bd1b815250826108bc565b8a81101561057b5760405162461bcd60e51b815260206004820152602560248201527f5377617053696e676c653a20494e53554646494349454e545f494e5055545f416044820152641353d5539560da1b60648201526084016101ed565b604051636eb1769f60e11b81523360048201523060248201526000906001600160a01b0387169063dd62ed3e90604401602060405180830381865afa1580156105c8573d6000803e3d6000fd5b505050506040513d601f19601f820116820180604052508101906105ec919061178a565b905061061b6040518060400160405280600b81526020016a030b63637bbb0b731b29d160ad1b815250826108bc565b8b8110156106755760405162461bcd60e51b815260206004820152602160248201527f5377617053696e676c653a20434f4e54524143545f4e4f545f415050524f56456044820152601160fa1b60648201526084016101ed565b6106a26040518060400160405280600b81526020016a03a3930b232a9b4bd329d160ad1b8152508d6108bc565b61032384848e8e8e8e8e8e610d2f565b6106f5816040516024016106c69190611812565b60408051601f198184030181529190526020810180516001600160e01b031663104c13eb60e21b17905261129c565b50565b60405163095ea7b360e01b81526001600160a01b038381166004830152600019602483015285169063095ea7b3906044016020604051808303816000875af1158015610748573d6000803e3d6000fd5b505050506040513d601f19601f8201168201806040525081019061076c91906117a3565b6107b85760405162461bcd60e51b815260206004820152601760248201527f617070726f766520726f7574657241206661696c65642e00000000000000000060448201526064016101ed565b60405163095ea7b360e01b81526001600160a01b038281166004830152600019602483015284169063095ea7b3906044016020604051808303816000875af1158015610808573d6000803e3d6000fd5b505050506040513d601f19601f8201168201806040525081019061082c91906117a3565b6108785760405162461bcd60e51b815260206004820152601760248201527f617070726f766520726f7574657242206661696c65642e00000000000000000060448201526064016101ed565b6108b66040518060400160405280601b81526020017f5377617053696e676c653a20746f6b656e7320617070726f76656400000000008152506106b2565b50505050565b61090182826040516024016108d2929190611825565b60408051601f198184030181529190526020810180516001600160e01b0316632d839cb360e21b17905261129c565b5050565b60008460008151811061091a5761091a611774565b6020026020010151905060008560018151811061093957610939611774565b6020026020010151905060008a6001600160a01b031663d06ca61f8a896040518363ffffffff1660e01b815260040161097392919061188b565b600060405180830381865afa158015610990573d6000803e3d6000fd5b505050506040513d6000823e601f3d908101601f191682016040526109b891908101906118ac565b90506109f260405180604001604052806016815260200175030b6b7bab73a39a7baba209032bc3832b1ba32b21d160551b815250896108bc565b610a4460405180604001604052806016815260200175030b6b7bab73a39a7baba209030b1ba3ab0b61d1d1d160551b81525082600181518110610a3757610a37611774565b60200260200101516108bc565b60008a6001600160a01b031663d06ca61f83600181518110610a6857610a68611774565b6020026020010151896040518363ffffffff1660e01b8152600401610a8e92919061188b565b600060405180830381865afa158015610aab573d6000803e3d6000fd5b505050506040513d6000823e601f3d908101601f19168201604052610ad391908101906118ac565b90508981600181518110610ae957610ae9611774565b602002602001015111610b5b5760405162461bcd60e51b815260206004820152603460248201527f4572726f72205377617053696e676c653a20726f75746572422e676574416d6f604482015273756e74734f7574203d3c20747261646553697a6560601b60648201526084016101ed565b6040516370a0823160e01b81523360048201526000906001600160a01b038616906370a0823190602401602060405180830381865afa158015610ba2573d6000803e3d6000fd5b505050506040513d601f19601f82011682018060405250810190610bc6919061178a565b90508a811015610be85760405162461bcd60e51b81526004016101ed9061193d565b610bf485858f8f6106f8565b610c0185858f8f8f6112a5565b60008d6001600160a01b03166338ed17398d86600181518110610c2657610c26611774565b60200260200101518d308c6040518663ffffffff1660e01b8152600401610c51959493929190611984565b6000604051808303816000875af1158015610c70573d6000803e3d6000fd5b505050506040513d6000823e601f3d908101601f19168201604052610c9891908101906118ac565b90508c6001600160a01b0316638803dbee82600181518110610cbc57610cbc611774565b60200260200101518e8c8c8c6040518663ffffffff1660e01b8152600401610ce8959493929190611984565b6000604051808303816000875af1158015610d07573d6000803e3d6000fd5b505050506040513d6000823e601f3d908101601f1916820160405261040491908101906118ac565b600084600081518110610d4457610d44611774565b60200260200101519050600085600181518110610d6357610d63611774565b6020026020010151905060008a6001600160a01b031663d06ca61f8a896040518363ffffffff1660e01b8152600401610d9d92919061188b565b600060405180830381865afa158015610dba573d6000803e3d6000fd5b505050506040513d6000823e601f3d908101601f19168201604052610de291908101906118ac565b90508781600181518110610df857610df8611774565b60200260200101511015610e6b5760405162461bcd60e51b815260206004820152603460248201527f4572726f72205377617053696e676c653a20726f75746572412e676574416d6f604482015273756e74734f7574203c20616d6f756e744f75744160601b60648201526084016101ed565b60405163d06ca61f60e01b81526000906001600160a01b038c169063d06ca61f90610e9c908c908b9060040161188b565b600060405180830381865afa158015610eb9573d6000803e3d6000fd5b505050506040513d6000823e601f3d908101601f19168201604052610ee191908101906118ac565b90508981600181518110610ef757610ef7611774565b602002602001015111610f685760405162461bcd60e51b815260206004820152603360248201527f4572726f72205377617053696e676c653a20726f75746572422e676574416d6f604482015272756e74734f7574203c20747261646553697a6560681b60648201526084016101ed565b6040516370a0823160e01b81523360048201526000906001600160a01b038616906370a0823190602401602060405180830381865afa158015610faf573d6000803e3d6000fd5b505050506040513d601f19601f82011682018060405250810190610fd3919061178a565b90508a811015610ff55760405162461bcd60e51b81526004016101ed9061193d565b61100185858f8f6106f8565b61100e85858f8f8f6112a5565b6110976040518060600160405280603681526020016119e8603691396040516370a0823160e01b81523060048201526001600160a01b038816906370a0823190602401602060405180830381865afa15801561106e573d6000803e3d6000fd5b505050506040513d601f19601f82011682018060405250810190611092919061178a565b6108bc565b60008d6001600160a01b03166338ed17398d866001815181106110bc576110bc611774565b60200260200101518d308c6040518663ffffffff1660e01b81526004016110e7959493929190611984565b6000604051808303816000875af1158015611106573d6000803e3d6000fd5b505050506040513d6000823e601f3d908101601f1916820160405261112e91908101906118ac565b905061116760405180604001604052806008815260200167039bbb0b824b71d160c51b81525082600181518110610a3757610a37611774565b60008d6001600160a01b03166338ed17398360018151811061118b5761118b611774565b6020026020010151866001815181106111a6576111a6611774565b60200260200101518d8d8d6040518663ffffffff1660e01b81526004016111d1959493929190611984565b6000604051808303816000875af11580156111f0573d6000803e3d6000fd5b505050506040513d6000823e601f3d908101601f1916820160405261121891908101906118ac565b905061125260405180604001604052806009815260200168039bbb0b827baba1d160bd1b81525082600181518110610a3757610a37611774565b610404604051806040016040528060088152602001670283937b334ba1d160c51b8152508e8360018151811061128a5761128a611774565b602002602001015161109291906119c0565b6106f5816115a7565b604051636eb1769f60e11b81523060048201526001600160a01b0384811660248301526000919087169063dd62ed3e90604401602060405180830381865afa1580156112f5573d6000803e3d6000fd5b505050506040513d601f19601f82011682018060405250810190611319919061178a565b905061135a6040518060400160405280602081526020017f436f6e747261637420616c6c6f77616e636520666f7220726f75746572413a20815250826108bc565b604051636eb1769f60e11b81523060048201526001600160a01b0384811660248301526000919087169063dd62ed3e90604401602060405180830381865afa1580156113aa573d6000803e3d6000fd5b505050506040513d601f19601f820116820180604052508101906113ce919061178a565b905061140f6040518060400160405280602081526020017f436f6e747261637420616c6c6f77616e636520666f7220726f75746572423a20815250826108bc565b828210156114755760405162461bcd60e51b815260206004820152602d60248201527f5377617053696e676c653a20434f4e54524143545f4e4f545f415050524f564560448201526c445f464f525f524f555445524160981b60648201526084016101ed565b828110156114db5760405162461bcd60e51b815260206004820152602d60248201527f5377617053696e676c653a20434f4e54524143545f4e4f545f415050524f564560448201526c222fa327a92fa927aaaa22a92160991b60648201526084016101ed565b6040516323b872dd60e01b8152336004820152306024820152604481018490526001600160a01b038816906323b872dd906064016020604051808303816000875af115801561152e573d6000803e3d6000fd5b505050506040513d601f19601f8201168201806040525081019061155291906117a3565b61159e5760405162461bcd60e51b815260206004820152601f60248201527f7472616e7366657246726f6d206d73672e73656e646572206661696c65642e0060448201526064016101ed565b50505050505050565b60006a636f6e736f6c652e6c6f679050600080835160208501845afa505050565b80356001600160a01b03811681146115df57600080fd5b919050565b634e487b7160e01b600052604160045260246000fd5b604051601f8201601f1916810167ffffffffffffffff81118282101715611623576116236115e4565b604052919050565b600067ffffffffffffffff821115611645576116456115e4565b5060051b60200190565b600082601f83011261166057600080fd5b813560206116756116708361162b565b6115fa565b82815260059290921b8401810191818101908684111561169457600080fd5b8286015b848110156116b6576116a9816115c8565b8352918301918301611698565b509695505050505050565b600080600080600080600080610100898b0312156116de57600080fd5b6116e7896115c8565b97506116f560208a016115c8565b96506040890135955060608901359450608089013567ffffffffffffffff8082111561172057600080fd5b61172c8c838d0161164f565b955060a08b013591508082111561174257600080fd5b5061174f8b828c0161164f565b93505061175e60c08a016115c8565b915060e089013590509295985092959890939650565b634e487b7160e01b600052603260045260246000fd5b60006020828403121561179c57600080fd5b5051919050565b6000602082840312156117b557600080fd5b815180151581146117c557600080fd5b9392505050565b6000815180845260005b818110156117f2576020818501810151868301820152016117d6565b506000602082860101526020601f19601f83011685010191505092915050565b6020815260006117c560208301846117cc565b60408152600061183860408301856117cc565b90508260208301529392505050565b600081518084526020808501945080840160005b838110156118805781516001600160a01b03168752958201959082019060010161185b565b509495945050505050565b8281526040602082015260006118a46040830184611847565b949350505050565b600060208083850312156118bf57600080fd5b825167ffffffffffffffff8111156118d657600080fd5b8301601f810185136118e757600080fd5b80516118f56116708261162b565b81815260059190911b8201830190838101908783111561191457600080fd5b928401925b8284101561193257835182529284019290840190611919565b979650505050505050565b60208082526027908201527f5377617053696e676c653a20494e53554646494349454e545f57414c4c45545f60408201526642414c414e434560c81b606082015260800190565b85815284602082015260a0604082015260006119a360a0830186611847565b6001600160a01b0394909416606083015250608001529392505050565b818103818111156119e157634e487b7160e01b600052601160045260246000fd5b9291505056fe746f6b656e73207478276420616e6420617070726f76616c7320646f6e652e204e657720436f6e74726163742062616c616e63653a205377617053696e676c653a207377617053696e676c6520636f6e747261637420656e7465726564537761704d756c74693a20737761704d756c746920636f6e747261637420656e7465726564a2646970667358221220c2d06ad91634b5c3bcc27e65d7fa52e0f573cd5203a6c714d188e5d9429d188a64736f6c63430008130033","opcodes":"PUSH1 0x80 PUSH1 0x40 MSTORE CALLVALUE DUP1 ISZERO PUSH2 0x10 JUMPI PUSH1 0x0 DUP1 REVERT JUMPDEST POP PUSH1 0x40 MLOAD PUSH2 0x1B32 CODESIZE SUB DUP1 PUSH2 0x1B32 DUP4 CODECOPY DUP2 ADD PUSH1 0x40 DUP2 SWAP1 MSTORE PUSH2 0x2F SWAP2 PUSH2 0x54 JUMP JUMPDEST PUSH1 0x0 DUP1 SLOAD PUSH1 0x1 PUSH1 0x1 PUSH1 0xA0 SHL SUB NOT AND PUSH1 0x1 PUSH1 0x1 PUSH1 0xA0 SHL SUB SWAP3 SWAP1 SWAP3 AND SWAP2 SWAP1 SWAP2 OR SWAP1 SSTORE PUSH2 0x84 JUMP JUMPDEST PUSH1 0x0 PUSH1 0x20 DUP3 DUP5 SUB SLT ISZERO PUSH2 0x66 JUMPI PUSH1 0x0 DUP1 REVERT JUMPDEST DUP2 MLOAD PUSH1 0x1 PUSH1 0x1 PUSH1 0xA0 SHL SUB DUP2 AND DUP2 EQ PUSH2 0x7D JUMPI PUSH1 0x0 DUP1 REVERT JUMPDEST SWAP4 SWAP3 POP POP POP JUMP JUMPDEST PUSH2 0x1A9F DUP1 PUSH2 0x93 PUSH1 0x0 CODECOPY PUSH1 0x0 RETURN INVALID PUSH1 0x80 PUSH1 0x40 MSTORE CALLVALUE DUP1 ISZERO PUSH2 0x10 JUMPI PUSH1 0x0 DUP1 REVERT JUMPDEST POP PUSH1 0x4 CALLDATASIZE LT PUSH2 0x41 JUMPI PUSH1 0x0 CALLDATALOAD PUSH1 0xE0 SHR DUP1 PUSH4 0x6204FB9 EQ PUSH2 0x46 JUMPI DUP1 PUSH4 0x29B9D97B EQ PUSH2 0x5B JUMPI DUP1 PUSH4 0xCDBCE03D EQ PUSH2 0x6E JUMPI JUMPDEST PUSH1 0x0 DUP1 REVERT JUMPDEST PUSH2 0x59 PUSH2 0x54 CALLDATASIZE PUSH1 0x4 PUSH2 0x16C1 JUMP JUMPDEST PUSH2 0x8D JUMP JUMPDEST STOP JUMPDEST PUSH2 0x59 PUSH2 0x69 CALLDATASIZE PUSH1 0x4 PUSH2 0x16C1 JUMP JUMPDEST PUSH2 0x415 JUMP JUMPDEST PUSH1 0x0 SLOAD PUSH1 0x40 DUP1 MLOAD PUSH1 0x1 PUSH1 0x1 PUSH1 0xA0 SHL SUB SWAP1 SWAP3 AND DUP3 MSTORE MLOAD SWAP1 DUP2 SWAP1 SUB PUSH1 0x20 ADD SWAP1 RETURN JUMPDEST PUSH2 0xAE PUSH1 0x40 MLOAD DUP1 PUSH1 0x60 ADD PUSH1 0x40 MSTORE DUP1 PUSH1 0x25 DUP2 MSTORE PUSH1 0x20 ADD PUSH2 0x1A45 PUSH1 0x25 SWAP2 CODECOPY PUSH2 0x6B2 JUMP JUMPDEST PUSH1 0x0 DUP5 PUSH1 0x0 DUP2 MLOAD DUP2 LT PUSH2 0xC3 JUMPI PUSH2 0xC3 PUSH2 0x1774 JUMP JUMPDEST PUSH1 0x20 MUL PUSH1 0x20 ADD ADD MLOAD SWAP1 POP PUSH1 0x0 DUP6 PUSH1 0x1 DUP2 MLOAD DUP2 LT PUSH2 0xE2 JUMPI PUSH2 0xE2 PUSH2 0x1774 JUMP JUMPDEST PUSH1 0x20 SWAP1 DUP2 MUL SWAP2 SWAP1 SWAP2 ADD ADD MLOAD SWAP1 POP DUP10 DUP10 PUSH2 0xFD DUP5 DUP5 DUP5 DUP5 PUSH2 0x6F8 JUMP JUMPDEST PUSH1 0x40 MLOAD PUSH4 0x70A08231 PUSH1 0xE0 SHL DUP2 MSTORE CALLER PUSH1 0x4 DUP3 ADD MSTORE PUSH1 0x0 SWAP1 PUSH1 0x1 PUSH1 0x1 PUSH1 0xA0 SHL SUB DUP7 AND SWAP1 PUSH4 0x70A08231 SWAP1 PUSH1 0x24 ADD PUSH1 0x20 PUSH1 0x40 MLOAD DUP1 DUP4 SUB DUP2 DUP7 GAS STATICCALL ISZERO DUP1 ISZERO PUSH2 0x144 JUMPI RETURNDATASIZE PUSH1 0x0 DUP1 RETURNDATACOPY RETURNDATASIZE PUSH1 0x0 REVERT JUMPDEST POP POP POP POP PUSH1 0x40 MLOAD RETURNDATASIZE PUSH1 0x1F NOT PUSH1 0x1F DUP3 ADD AND DUP3 ADD DUP1 PUSH1 0x40 MSTORE POP DUP2 ADD SWAP1 PUSH2 0x168 SWAP2 SWAP1 PUSH2 0x178A JUMP JUMPDEST SWAP1 POP PUSH2 0x195 PUSH1 0x40 MLOAD DUP1 PUSH1 0x40 ADD PUSH1 0x40 MSTORE DUP1 PUSH1 0x9 DUP2 MSTORE PUSH1 0x20 ADD PUSH9 0x3130B630B731B29D1 PUSH1 0xBD SHL DUP2 MSTORE POP DUP3 PUSH2 0x8BC JUMP JUMPDEST DUP11 DUP2 LT ISZERO PUSH2 0x1F6 JUMPI PUSH1 0x40 MLOAD PUSH3 0x461BCD PUSH1 0xE5 SHL DUP2 MSTORE PUSH1 0x20 PUSH1 0x4 DUP3 ADD MSTORE PUSH1 0x24 DUP1 DUP3 ADD MSTORE PUSH32 0x537761704D756C74693A20494E53554646494349454E545F494E5055545F414D PUSH1 0x44 DUP3 ADD MSTORE PUSH4 0x13D55395 PUSH1 0xE2 SHL PUSH1 0x64 DUP3 ADD MSTORE PUSH1 0x84 ADD JUMPDEST PUSH1 0x40 MLOAD DUP1 SWAP2 SUB SWAP1 REVERT JUMPDEST PUSH1 0x40 MLOAD PUSH4 0x6EB1769F PUSH1 0xE1 SHL DUP2 MSTORE CALLER PUSH1 0x4 DUP3 ADD MSTORE ADDRESS PUSH1 0x24 DUP3 ADD MSTORE PUSH1 0x0 SWAP1 PUSH1 0x1 PUSH1 0x1 PUSH1 0xA0 SHL SUB DUP8 AND SWAP1 PUSH4 0xDD62ED3E SWAP1 PUSH1 0x44 ADD PUSH1 0x20 PUSH1 0x40 MLOAD DUP1 DUP4 SUB DUP2 DUP7 GAS STATICCALL ISZERO DUP1 ISZERO PUSH2 0x243 JUMPI RETURNDATASIZE PUSH1 0x0 DUP1 RETURNDATACOPY RETURNDATASIZE PUSH1 0x0 REVERT JUMPDEST POP POP POP POP PUSH1 0x40 MLOAD RETURNDATASIZE PUSH1 0x1F NOT PUSH1 0x1F DUP3 ADD AND DUP3 ADD DUP1 PUSH1 0x40 MSTORE POP DUP2 ADD SWAP1 PUSH2 0x267 SWAP2 SWAP1 PUSH2 0x178A JUMP JUMPDEST SWAP1 POP PUSH2 0x296 PUSH1 0x40 MLOAD DUP1 PUSH1 0x40 ADD PUSH1 0x40 MSTORE DUP1 PUSH1 0xB DUP2 MSTORE PUSH1 0x20 ADD PUSH11 0x30B63637BBB0B731B29D1 PUSH1 0xAD SHL DUP2 MSTORE POP DUP3 PUSH2 0x8BC JUMP JUMPDEST DUP12 DUP2 LT ISZERO PUSH2 0x2E6 JUMPI PUSH1 0x40 MLOAD PUSH3 0x461BCD PUSH1 0xE5 SHL DUP2 MSTORE PUSH1 0x20 PUSH1 0x4 DUP3 ADD DUP2 SWAP1 MSTORE PUSH1 0x24 DUP3 ADD MSTORE PUSH32 0x537761704D756C74693A20434F4E54524143545F4E4F545F415050524F564544 PUSH1 0x44 DUP3 ADD MSTORE PUSH1 0x64 ADD PUSH2 0x1ED JUMP JUMPDEST PUSH2 0x313 PUSH1 0x40 MLOAD DUP1 PUSH1 0x40 ADD PUSH1 0x40 MSTORE DUP1 PUSH1 0xB DUP2 MSTORE PUSH1 0x20 ADD PUSH11 0x3A3930B232A9B4BD329D1 PUSH1 0xAD SHL DUP2 MSTORE POP DUP14 PUSH2 0x8BC JUMP JUMPDEST PUSH2 0x323 DUP5 DUP5 DUP15 DUP15 DUP15 DUP15 DUP15 DUP15 PUSH2 0x905 JUMP JUMPDEST PUSH1 0x40 MLOAD PUSH4 0x70A08231 PUSH1 0xE0 SHL DUP2 MSTORE ADDRESS PUSH1 0x4 DUP3 ADD MSTORE PUSH1 0x1 PUSH1 0x1 PUSH1 0xA0 SHL SUB DUP8 AND SWAP1 PUSH4 0xA9059CBB SWAP1 CALLER SWAP1 DUP4 SWAP1 PUSH4 0x70A08231 SWAP1 PUSH1 0x24 ADD PUSH1 0x20 PUSH1 0x40 MLOAD DUP1 DUP4 SUB DUP2 DUP7 GAS STATICCALL ISZERO DUP1 ISZERO PUSH2 0x371 JUMPI RETURNDATASIZE PUSH1 0x0 DUP1 RETURNDATACOPY RETURNDATASIZE PUSH1 0x0 REVERT JUMPDEST POP POP POP POP PUSH1 0x40 MLOAD RETURNDATASIZE PUSH1 0x1F NOT PUSH1 0x1F DUP3 ADD AND DUP3 ADD DUP1 PUSH1 0x40 MSTORE POP DUP2 ADD SWAP1 PUSH2 0x395 SWAP2 SWAP1 PUSH2 0x178A JUMP JUMPDEST PUSH1 0x40 MLOAD PUSH1 0x1 PUSH1 0x1 PUSH1 0xE0 SHL SUB NOT PUSH1 0xE0 DUP6 SWAP1 SHL AND DUP2 MSTORE PUSH1 0x1 PUSH1 0x1 PUSH1 0xA0 SHL SUB SWAP1 SWAP3 AND PUSH1 0x4 DUP4 ADD MSTORE PUSH1 0x24 DUP3 ADD MSTORE PUSH1 0x44 ADD PUSH1 0x20 PUSH1 0x40 MLOAD DUP1 DUP4 SUB DUP2 PUSH1 0x0 DUP8 GAS CALL ISZERO DUP1 ISZERO PUSH2 0x3E0 JUMPI RETURNDATASIZE PUSH1 0x0 DUP1 RETURNDATACOPY RETURNDATASIZE PUSH1 0x0 REVERT JUMPDEST POP POP POP POP PUSH1 0x40 MLOAD RETURNDATASIZE PUSH1 0x1F NOT PUSH1 0x1F DUP3 ADD AND DUP3 ADD DUP1 PUSH1 0x40 MSTORE POP DUP2 ADD SWAP1 PUSH2 0x404 SWAP2 SWAP1 PUSH2 0x17A3 JUMP JUMPDEST POP POP POP POP POP POP POP POP POP POP POP POP POP POP POP JUMP JUMPDEST PUSH2 0x436 PUSH1 0x40 MLOAD DUP1 PUSH1 0x60 ADD PUSH1 0x40 MSTORE DUP1 PUSH1 0x27 DUP2 MSTORE PUSH1 0x20 ADD PUSH2 0x1A1E PUSH1 0x27 SWAP2 CODECOPY PUSH2 0x6B2 JUMP JUMPDEST PUSH1 0x0 DUP5 PUSH1 0x0 DUP2 MLOAD DUP2 LT PUSH2 0x44B JUMPI PUSH2 0x44B PUSH2 0x1774 JUMP JUMPDEST PUSH1 0x20 MUL PUSH1 0x20 ADD ADD MLOAD SWAP1 POP PUSH1 0x0 DUP6 PUSH1 0x1 DUP2 MLOAD DUP2 LT PUSH2 0x46A JUMPI PUSH2 0x46A PUSH2 0x1774 JUMP JUMPDEST PUSH1 0x20 SWAP1 DUP2 MUL SWAP2 SWAP1 SWAP2 ADD ADD MLOAD SWAP1 POP DUP10 DUP10 PUSH2 0x485 DUP5 DUP5 DUP5 DUP5 PUSH2 0x6F8 JUMP JUMPDEST PUSH1 0x40 MLOAD PUSH4 0x70A08231 PUSH1 0xE0 SHL DUP2 MSTORE CALLER PUSH1 0x4 DUP3 ADD MSTORE PUSH1 0x0 SWAP1 PUSH1 0x1 PUSH1 0x1 PUSH1 0xA0 SHL SUB DUP7 AND SWAP1 PUSH4 0x70A08231 SWAP1 PUSH1 0x24 ADD PUSH1 0x20 PUSH1 0x40 MLOAD DUP1 DUP4 SUB DUP2 DUP7 GAS STATICCALL ISZERO DUP1 ISZERO PUSH2 0x4CC JUMPI RETURNDATASIZE PUSH1 0x0 DUP1 RETURNDATACOPY RETURNDATASIZE PUSH1 0x0 REVERT JUMPDEST POP POP POP POP PUSH1 0x40 MLOAD RETURNDATASIZE PUSH1 0x1F NOT PUSH1 0x1F DUP3 ADD AND DUP3 ADD DUP1 PUSH1 0x40 MSTORE POP DUP2 ADD SWAP1 PUSH2 0x4F0 SWAP2 SWAP1 PUSH2 0x178A JUMP JUMPDEST SWAP1 POP PUSH2 0x51D PUSH1 0x40 MLOAD DUP1 PUSH1 0x40 ADD PUSH1 0x40 MSTORE DUP1 PUSH1 0x9 DUP2 MSTORE PUSH1 0x20 ADD PUSH9 0x3130B630B731B29D1 PUSH1 0xBD SHL DUP2 MSTORE POP DUP3 PUSH2 0x8BC JUMP JUMPDEST DUP11 DUP2 LT ISZERO PUSH2 0x57B JUMPI PUSH1 0x40 MLOAD PUSH3 0x461BCD PUSH1 0xE5 SHL DUP2 MSTORE PUSH1 0x20 PUSH1 0x4 DUP3 ADD MSTORE PUSH1 0x25 PUSH1 0x24 DUP3 ADD MSTORE PUSH32 0x5377617053696E676C653A20494E53554646494349454E545F494E5055545F41 PUSH1 0x44 DUP3 ADD MSTORE PUSH5 0x1353D55395 PUSH1 0xDA SHL PUSH1 0x64 DUP3 ADD MSTORE PUSH1 0x84 ADD PUSH2 0x1ED JUMP JUMPDEST PUSH1 0x40 MLOAD PUSH4 0x6EB1769F PUSH1 0xE1 SHL DUP2 MSTORE CALLER PUSH1 0x4 DUP3 ADD MSTORE ADDRESS PUSH1 0x24 DUP3 ADD MSTORE PUSH1 0x0 SWAP1 PUSH1 0x1 PUSH1 0x1 PUSH1 0xA0 SHL SUB DUP8 AND SWAP1 PUSH4 0xDD62ED3E SWAP1 PUSH1 0x44 ADD PUSH1 0x20 PUSH1 0x40 MLOAD DUP1 DUP4 SUB DUP2 DUP7 GAS STATICCALL ISZERO DUP1 ISZERO PUSH2 0x5C8 JUMPI RETURNDATASIZE PUSH1 0x0 DUP1 RETURNDATACOPY RETURNDATASIZE PUSH1 0x0 REVERT JUMPDEST POP POP POP POP PUSH1 0x40 MLOAD RETURNDATASIZE PUSH1 0x1F NOT PUSH1 0x1F DUP3 ADD AND DUP3 ADD DUP1 PUSH1 0x40 MSTORE POP DUP2 ADD SWAP1 PUSH2 0x5EC SWAP2 SWAP1 PUSH2 0x178A JUMP JUMPDEST SWAP1 POP PUSH2 0x61B PUSH1 0x40 MLOAD DUP1 PUSH1 0x40 ADD PUSH1 0x40 MSTORE DUP1 PUSH1 0xB DUP2 MSTORE PUSH1 0x20 ADD PUSH11 0x30B63637BBB0B731B29D1 PUSH1 0xAD SHL DUP2 MSTORE POP DUP3 PUSH2 0x8BC JUMP JUMPDEST DUP12 DUP2 LT ISZERO PUSH2 0x675 JUMPI PUSH1 0x40 MLOAD PUSH3 0x461BCD PUSH1 0xE5 SHL DUP2 MSTORE PUSH1 0x20 PUSH1 0x4 DUP3 ADD MSTORE PUSH1 0x21 PUSH1 0x24 DUP3 ADD MSTORE PUSH32 0x5377617053696E676C653A20434F4E54524143545F4E4F545F415050524F5645 PUSH1 0x44 DUP3 ADD MSTORE PUSH1 0x11 PUSH1 0xFA SHL PUSH1 0x64 DUP3 ADD MSTORE PUSH1 0x84 ADD PUSH2 0x1ED JUMP JUMPDEST PUSH2 0x6A2 PUSH1 0x40 MLOAD DUP1 PUSH1 0x40 ADD PUSH1 0x40 MSTORE DUP1 PUSH1 0xB DUP2 MSTORE PUSH1 0x20 ADD PUSH11 0x3A3930B232A9B4BD329D1 PUSH1 0xAD SHL DUP2 MSTORE POP DUP14 PUSH2 0x8BC JUMP JUMPDEST PUSH2 0x323 DUP5 DUP5 DUP15 DUP15 DUP15 DUP15 DUP15 DUP15 PUSH2 0xD2F JUMP JUMPDEST PUSH2 0x6F5 DUP2 PUSH1 0x40 MLOAD PUSH1 0x24 ADD PUSH2 0x6C6 SWAP2 SWAP1 PUSH2 0x1812 JUMP JUMPDEST PUSH1 0x40 DUP1 MLOAD PUSH1 0x1F NOT DUP2 DUP5 SUB ADD DUP2 MSTORE SWAP2 SWAP1 MSTORE PUSH1 0x20 DUP2 ADD DUP1 MLOAD PUSH1 0x1 PUSH1 0x1 PUSH1 0xE0 SHL SUB AND PUSH4 0x104C13EB PUSH1 0xE2 SHL OR SWAP1 MSTORE PUSH2 0x129C JUMP JUMPDEST POP JUMP JUMPDEST PUSH1 0x40 MLOAD PUSH4 0x95EA7B3 PUSH1 0xE0 SHL DUP2 MSTORE PUSH1 0x1 PUSH1 0x1 PUSH1 0xA0 SHL SUB DUP4 DUP2 AND PUSH1 0x4 DUP4 ADD MSTORE PUSH1 0x0 NOT PUSH1 0x24 DUP4 ADD MSTORE DUP6 AND SWAP1 PUSH4 0x95EA7B3 SWAP1 PUSH1 0x44 ADD PUSH1 0x20 PUSH1 0x40 MLOAD DUP1 DUP4 SUB DUP2 PUSH1 0x0 DUP8 GAS CALL ISZERO DUP1 ISZERO PUSH2 0x748 JUMPI RETURNDATASIZE PUSH1 0x0 DUP1 RETURNDATACOPY RETURNDATASIZE PUSH1 0x0 REVERT JUMPDEST POP POP POP POP PUSH1 0x40 MLOAD RETURNDATASIZE PUSH1 0x1F NOT PUSH1 0x1F DUP3 ADD AND DUP3 ADD DUP1 PUSH1 0x40 MSTORE POP DUP2 ADD SWAP1 PUSH2 0x76C SWAP2 SWAP1 PUSH2 0x17A3 JUMP JUMPDEST PUSH2 0x7B8 JUMPI PUSH1 0x40 MLOAD PUSH3 0x461BCD PUSH1 0xE5 SHL DUP2 MSTORE PUSH1 0x20 PUSH1 0x4 DUP3 ADD MSTORE PUSH1 0x17 PUSH1 0x24 DUP3 ADD MSTORE PUSH32 0x617070726F766520726F7574657241206661696C65642E000000000000000000 PUSH1 0x44 DUP3 ADD MSTORE PUSH1 0x64 ADD PUSH2 0x1ED JUMP JUMPDEST PUSH1 0x40 MLOAD PUSH4 0x95EA7B3 PUSH1 0xE0 SHL DUP2 MSTORE PUSH1 0x1 PUSH1 0x1 PUSH1 0xA0 SHL SUB DUP3 DUP2 AND PUSH1 0x4 DUP4 ADD MSTORE PUSH1 0x0 NOT PUSH1 0x24 DUP4 ADD MSTORE DUP5 AND SWAP1 PUSH4 0x95EA7B3 SWAP1 PUSH1 0x44 ADD PUSH1 0x20 PUSH1 0x40 MLOAD DUP1 DUP4 SUB DUP2 PUSH1 0x0 DUP8 GAS CALL ISZERO DUP1 ISZERO PUSH2 0x808 JUMPI RETURNDATASIZE PUSH1 0x0 DUP1 RETURNDATACOPY RETURNDATASIZE PUSH1 0x0 REVERT JUMPDEST POP POP POP POP PUSH1 0x40 MLOAD RETURNDATASIZE PUSH1 0x1F NOT PUSH1 0x1F DUP3 ADD AND DUP3 ADD DUP1 PUSH1 0x40 MSTORE POP DUP2 ADD SWAP1 PUSH2 0x82C SWAP2 SWAP1 PUSH2 0x17A3 JUMP JUMPDEST PUSH2 0x878 JUMPI PUSH1 0x40 MLOAD PUSH3 0x461BCD PUSH1 0xE5 SHL DUP2 MSTORE PUSH1 0x20 PUSH1 0x4 DUP3 ADD MSTORE PUSH1 0x17 PUSH1 0x24 DUP3 ADD MSTORE PUSH32 0x617070726F766520726F7574657242206661696C65642E000000000000000000 PUSH1 0x44 DUP3 ADD MSTORE PUSH1 0x64 ADD PUSH2 0x1ED JUMP JUMPDEST PUSH2 0x8B6 PUSH1 0x40 MLOAD DUP1 PUSH1 0x40 ADD PUSH1 0x40 MSTORE DUP1 PUSH1 0x1B DUP2 MSTORE PUSH1 0x20 ADD PUSH32 0x5377617053696E676C653A20746F6B656E7320617070726F7665640000000000 DUP2 MSTORE POP PUSH2 0x6B2 JUMP JUMPDEST POP POP POP POP JUMP JUMPDEST PUSH2 0x901 DUP3 DUP3 PUSH1 0x40 MLOAD PUSH1 0x24 ADD PUSH2 0x8D2 SWAP3 SWAP2 SWAP1 PUSH2 0x1825 JUMP JUMPDEST PUSH1 0x40 DUP1 MLOAD PUSH1 0x1F NOT DUP2 DUP5 SUB ADD DUP2 MSTORE SWAP2 SWAP1 MSTORE PUSH1 0x20 DUP2 ADD DUP1 MLOAD PUSH1 0x1 PUSH1 0x1 PUSH1 0xE0 SHL SUB AND PUSH4 0x2D839CB3 PUSH1 0xE2 SHL OR SWAP1 MSTORE PUSH2 0x129C JUMP JUMPDEST POP POP JUMP JUMPDEST PUSH1 0x0 DUP5 PUSH1 0x0 DUP2 MLOAD DUP2 LT PUSH2 0x91A JUMPI PUSH2 0x91A PUSH2 0x1774 JUMP JUMPDEST PUSH1 0x20 MUL PUSH1 0x20 ADD ADD MLOAD SWAP1 POP PUSH1 0x0 DUP6 PUSH1 0x1 DUP2 MLOAD DUP2 LT PUSH2 0x939 JUMPI PUSH2 0x939 PUSH2 0x1774 JUMP JUMPDEST PUSH1 0x20 MUL PUSH1 0x20 ADD ADD MLOAD SWAP1 POP PUSH1 0x0 DUP11 PUSH1 0x1 PUSH1 0x1 PUSH1 0xA0 SHL SUB AND PUSH4 0xD06CA61F DUP11 DUP10 PUSH1 0x40 MLOAD DUP4 PUSH4 0xFFFFFFFF AND PUSH1 0xE0 SHL DUP2 MSTORE PUSH1 0x4 ADD PUSH2 0x973 SWAP3 SWAP2 SWAP1 PUSH2 0x188B JUMP JUMPDEST PUSH1 0x0 PUSH1 0x40 MLOAD DUP1 DUP4 SUB DUP2 DUP7 GAS STATICCALL ISZERO DUP1 ISZERO PUSH2 0x990 JUMPI RETURNDATASIZE PUSH1 0x0 DUP1 RETURNDATACOPY RETURNDATASIZE PUSH1 0x0 REVERT JUMPDEST POP POP POP POP PUSH1 0x40 MLOAD RETURNDATASIZE PUSH1 0x0 DUP3 RETURNDATACOPY PUSH1 0x1F RETURNDATASIZE SWAP1 DUP2 ADD PUSH1 0x1F NOT AND DUP3 ADD PUSH1 0x40 MSTORE PUSH2 0x9B8 SWAP2 SWAP1 DUP2 ADD SWAP1 PUSH2 0x18AC JUMP JUMPDEST SWAP1 POP PUSH2 0x9F2 PUSH1 0x40 MLOAD DUP1 PUSH1 0x40 ADD PUSH1 0x40 MSTORE DUP1 PUSH1 0x16 DUP2 MSTORE PUSH1 0x20 ADD PUSH22 0x30B6B7BAB73A39A7BABA209032BC3832B1BA32B21D1 PUSH1 0x55 SHL DUP2 MSTORE POP DUP10 PUSH2 0x8BC JUMP JUMPDEST PUSH2 0xA44 PUSH1 0x40 MLOAD DUP1 PUSH1 0x40 ADD PUSH1 0x40 MSTORE DUP1 PUSH1 0x16 DUP2 MSTORE PUSH1 0x20 ADD PUSH22 0x30B6B7BAB73A39A7BABA209030B1BA3AB0B61D1D1D1 PUSH1 0x55 SHL DUP2 MSTORE POP DUP3 PUSH1 0x1 DUP2 MLOAD DUP2 LT PUSH2 0xA37 JUMPI PUSH2 0xA37 PUSH2 0x1774 JUMP JUMPDEST PUSH1 0x20 MUL PUSH1 0x20 ADD ADD MLOAD PUSH2 0x8BC JUMP JUMPDEST PUSH1 0x0 DUP11 PUSH1 0x1 PUSH1 0x1 PUSH1 0xA0 SHL SUB AND PUSH4 0xD06CA61F DUP4 PUSH1 0x1 DUP2 MLOAD DUP2 LT PUSH2 0xA68 JUMPI PUSH2 0xA68 PUSH2 0x1774 JUMP JUMPDEST PUSH1 0x20 MUL PUSH1 0x20 ADD ADD MLOAD DUP10 PUSH1 0x40 MLOAD DUP4 PUSH4 0xFFFFFFFF AND PUSH1 0xE0 SHL DUP2 MSTORE PUSH1 0x4 ADD PUSH2 0xA8E SWAP3 SWAP2 SWAP1 PUSH2 0x188B JUMP JUMPDEST PUSH1 0x0 PUSH1 0x40 MLOAD DUP1 DUP4 SUB DUP2 DUP7 GAS STATICCALL ISZERO DUP1 ISZERO PUSH2 0xAAB JUMPI RETURNDATASIZE PUSH1 0x0 DUP1 RETURNDATACOPY RETURNDATASIZE PUSH1 0x0 REVERT JUMPDEST POP POP POP POP PUSH1 0x40 MLOAD RETURNDATASIZE PUSH1 0x0 DUP3 RETURNDATACOPY PUSH1 0x1F RETURNDATASIZE SWAP1 DUP2 ADD PUSH1 0x1F NOT AND DUP3 ADD PUSH1 0x40 MSTORE PUSH2 0xAD3 SWAP2 SWAP1 DUP2 ADD SWAP1 PUSH2 0x18AC JUMP JUMPDEST SWAP1 POP DUP10 DUP2 PUSH1 0x1 DUP2 MLOAD DUP2 LT PUSH2 0xAE9 JUMPI PUSH2 0xAE9 PUSH2 0x1774 JUMP JUMPDEST PUSH1 0x20 MUL PUSH1 0x20 ADD ADD MLOAD GT PUSH2 0xB5B JUMPI PUSH1 0x40 MLOAD PUSH3 0x461BCD PUSH1 0xE5 SHL DUP2 MSTORE PUSH1 0x20 PUSH1 0x4 DUP3 ADD MSTORE PUSH1 0x34 PUSH1 0x24 DUP3 ADD MSTORE PUSH32 0x4572726F72205377617053696E676C653A20726F75746572422E676574416D6F PUSH1 0x44 DUP3 ADD MSTORE PUSH20 0x756E74734F7574203D3C20747261646553697A65 PUSH1 0x60 SHL PUSH1 0x64 DUP3 ADD MSTORE PUSH1 0x84 ADD PUSH2 0x1ED JUMP JUMPDEST PUSH1 0x40 MLOAD PUSH4 0x70A08231 PUSH1 0xE0 SHL DUP2 MSTORE CALLER PUSH1 0x4 DUP3 ADD MSTORE PUSH1 0x0 SWAP1 PUSH1 0x1 PUSH1 0x1 PUSH1 0xA0 SHL SUB DUP7 AND SWAP1 PUSH4 0x70A08231 SWAP1 PUSH1 0x24 ADD PUSH1 0x20 PUSH1 0x40 MLOAD DUP1 DUP4 SUB DUP2 DUP7 GAS STATICCALL ISZERO DUP1 ISZERO PUSH2 0xBA2 JUMPI RETURNDATASIZE PUSH1 0x0 DUP1 RETURNDATACOPY RETURNDATASIZE PUSH1 0x0 REVERT JUMPDEST POP POP POP POP PUSH1 0x40 MLOAD RETURNDATASIZE PUSH1 0x1F NOT PUSH1 0x1F DUP3 ADD AND DUP3 ADD DUP1 PUSH1 0x40 MSTORE POP DUP2 ADD SWAP1 PUSH2 0xBC6 SWAP2 SWAP1 PUSH2 0x178A JUMP JUMPDEST SWAP1 POP DUP11 DUP2 LT ISZERO PUSH2 0xBE8 JUMPI PUSH1 0x40 MLOAD PUSH3 0x461BCD PUSH1 0xE5 SHL DUP2 MSTORE PUSH1 0x4 ADD PUSH2 0x1ED SWAP1 PUSH2 0x193D JUMP JUMPDEST PUSH2 0xBF4 DUP6 DUP6 DUP16 DUP16 PUSH2 0x6F8 JUMP JUMPDEST PUSH2 0xC01 DUP6 DUP6 DUP16 DUP16 DUP16 PUSH2 0x12A5 JUMP JUMPDEST PUSH1 0x0 DUP14 PUSH1 0x1 PUSH1 0x1 PUSH1 0xA0 SHL SUB AND PUSH4 0x38ED1739 DUP14 DUP7 PUSH1 0x1 DUP2 MLOAD DUP2 LT PUSH2 0xC26 JUMPI PUSH2 0xC26 PUSH2 0x1774 JUMP JUMPDEST PUSH1 0x20 MUL PUSH1 0x20 ADD ADD MLOAD DUP14 ADDRESS DUP13 PUSH1 0x40 MLOAD DUP7 PUSH4 0xFFFFFFFF AND PUSH1 0xE0 SHL DUP2 MSTORE PUSH1 0x4 ADD PUSH2 0xC51 SWAP6 SWAP5 SWAP4 SWAP3 SWAP2 SWAP1 PUSH2 0x1984 JUMP JUMPDEST PUSH1 0x0 PUSH1 0x40 MLOAD DUP1 DUP4 SUB DUP2 PUSH1 0x0 DUP8 GAS CALL ISZERO DUP1 ISZERO PUSH2 0xC70 JUMPI RETURNDATASIZE PUSH1 0x0 DUP1 RETURNDATACOPY RETURNDATASIZE PUSH1 0x0 REVERT JUMPDEST POP POP POP POP PUSH1 0x40 MLOAD RETURNDATASIZE PUSH1 0x0 DUP3 RETURNDATACOPY PUSH1 0x1F RETURNDATASIZE SWAP1 DUP2 ADD PUSH1 0x1F NOT AND DUP3 ADD PUSH1 0x40 MSTORE PUSH2 0xC98 SWAP2 SWAP1 DUP2 ADD SWAP1 PUSH2 0x18AC JUMP JUMPDEST SWAP1 POP DUP13 PUSH1 0x1 PUSH1 0x1 PUSH1 0xA0 SHL SUB AND PUSH4 0x8803DBEE DUP3 PUSH1 0x1 DUP2 MLOAD DUP2 LT PUSH2 0xCBC JUMPI PUSH2 0xCBC PUSH2 0x1774 JUMP JUMPDEST PUSH1 0x20 MUL PUSH1 0x20 ADD ADD MLOAD DUP15 DUP13 DUP13 DUP13 PUSH1 0x40 MLOAD DUP7 PUSH4 0xFFFFFFFF AND PUSH1 0xE0 SHL DUP2 MSTORE PUSH1 0x4 ADD PUSH2 0xCE8 SWAP6 SWAP5 SWAP4 SWAP3 SWAP2 SWAP1 PUSH2 0x1984 JUMP JUMPDEST PUSH1 0x0 PUSH1 0x40 MLOAD DUP1 DUP4 SUB DUP2 PUSH1 0x0 DUP8 GAS CALL ISZERO DUP1 ISZERO PUSH2 0xD07 JUMPI RETURNDATASIZE PUSH1 0x0 DUP1 RETURNDATACOPY RETURNDATASIZE PUSH1 0x0 REVERT JUMPDEST POP POP POP POP PUSH1 0x40 MLOAD RETURNDATASIZE PUSH1 0x0 DUP3 RETURNDATACOPY PUSH1 0x1F RETURNDATASIZE SWAP1 DUP2 ADD PUSH1 0x1F NOT AND DUP3 ADD PUSH1 0x40 MSTORE PUSH2 0x404 SWAP2 SWAP1 DUP2 ADD SWAP1 PUSH2 0x18AC JUMP JUMPDEST PUSH1 0x0 DUP5 PUSH1 0x0 DUP2 MLOAD DUP2 LT PUSH2 0xD44 JUMPI PUSH2 0xD44 PUSH2 0x1774 JUMP JUMPDEST PUSH1 0x20 MUL PUSH1 0x20 ADD ADD MLOAD SWAP1 POP PUSH1 0x0 DUP6 PUSH1 0x1 DUP2 MLOAD DUP2 LT PUSH2 0xD63 JUMPI PUSH2 0xD63 PUSH2 0x1774 JUMP JUMPDEST PUSH1 0x20 MUL PUSH1 0x20 ADD ADD MLOAD SWAP1 POP PUSH1 0x0 DUP11 PUSH1 0x1 PUSH1 0x1 PUSH1 0xA0 SHL SUB AND PUSH4 0xD06CA61F DUP11 DUP10 PUSH1 0x40 MLOAD DUP4 PUSH4 0xFFFFFFFF AND PUSH1 0xE0 SHL DUP2 MSTORE PUSH1 0x4 ADD PUSH2 0xD9D SWAP3 SWAP2 SWAP1 PUSH2 0x188B JUMP JUMPDEST PUSH1 0x0 PUSH1 0x40 MLOAD DUP1 DUP4 SUB DUP2 DUP7 GAS STATICCALL ISZERO DUP1 ISZERO PUSH2 0xDBA JUMPI RETURNDATASIZE PUSH1 0x0 DUP1 RETURNDATACOPY RETURNDATASIZE PUSH1 0x0 REVERT JUMPDEST POP POP POP POP PUSH1 0x40 MLOAD RETURNDATASIZE PUSH1 0x0 DUP3 RETURNDATACOPY PUSH1 0x1F RETURNDATASIZE SWAP1 DUP2 ADD PUSH1 0x1F NOT AND DUP3 ADD PUSH1 0x40 MSTORE PUSH2 0xDE2 SWAP2 SWAP1 DUP2 ADD SWAP1 PUSH2 0x18AC JUMP JUMPDEST SWAP1 POP DUP8 DUP2 PUSH1 0x1 DUP2 MLOAD DUP2 LT PUSH2 0xDF8 JUMPI PUSH2 0xDF8 PUSH2 0x1774 JUMP JUMPDEST PUSH1 0x20 MUL PUSH1 0x20 ADD ADD MLOAD LT ISZERO PUSH2 0xE6B JUMPI PUSH1 0x40 MLOAD PUSH3 0x461BCD PUSH1 0xE5 SHL DUP2 MSTORE PUSH1 0x20 PUSH1 0x4 DUP3 ADD MSTORE PUSH1 0x34 PUSH1 0x24 DUP3 ADD MSTORE PUSH32 0x4572726F72205377617053696E676C653A20726F75746572412E676574416D6F PUSH1 0x44 DUP3 ADD MSTORE PUSH20 0x756E74734F7574203C20616D6F756E744F757441 PUSH1 0x60 SHL PUSH1 0x64 DUP3 ADD MSTORE PUSH1 0x84 ADD PUSH2 0x1ED JUMP JUMPDEST PUSH1 0x40 MLOAD PUSH4 0xD06CA61F PUSH1 0xE0 SHL DUP2 MSTORE PUSH1 0x0 SWAP1 PUSH1 0x1 PUSH1 0x1 PUSH1 0xA0 SHL SUB DUP13 AND SWAP1 PUSH4 0xD06CA61F SWAP1 PUSH2 0xE9C SWAP1 DUP13 SWAP1 DUP12 SWAP1 PUSH1 0x4 ADD PUSH2 0x188B JUMP JUMPDEST PUSH1 0x0 PUSH1 0x40 MLOAD DUP1 DUP4 SUB DUP2 DUP7 GAS STATICCALL ISZERO DUP1 ISZERO PUSH2 0xEB9 JUMPI RETURNDATASIZE PUSH1 0x0 DUP1 RETURNDATACOPY RETURNDATASIZE PUSH1 0x0 REVERT JUMPDEST POP POP POP POP PUSH1 0x40 MLOAD RETURNDATASIZE PUSH1 0x0 DUP3 RETURNDATACOPY PUSH1 0x1F RETURNDATASIZE SWAP1 DUP2 ADD PUSH1 0x1F NOT AND DUP3 ADD PUSH1 0x40 MSTORE PUSH2 0xEE1 SWAP2 SWAP1 DUP2 ADD SWAP1 PUSH2 0x18AC JUMP JUMPDEST SWAP1 POP DUP10 DUP2 PUSH1 0x1 DUP2 MLOAD DUP2 LT PUSH2 0xEF7 JUMPI PUSH2 0xEF7 PUSH2 0x1774 JUMP JUMPDEST PUSH1 0x20 MUL PUSH1 0x20 ADD ADD MLOAD GT PUSH2 0xF68 JUMPI PUSH1 0x40 MLOAD PUSH3 0x461BCD PUSH1 0xE5 SHL DUP2 MSTORE PUSH1 0x20 PUSH1 0x4 DUP3 ADD MSTORE PUSH1 0x33 PUSH1 0x24 DUP3 ADD MSTORE PUSH32 0x4572726F72205377617053696E676C653A20726F75746572422E676574416D6F PUSH1 0x44 DUP3 ADD MSTORE PUSH19 0x756E74734F7574203C20747261646553697A65 PUSH1 0x68 SHL PUSH1 0x64 DUP3 ADD MSTORE PUSH1 0x84 ADD PUSH2 0x1ED JUMP JUMPDEST PUSH1 0x40 MLOAD PUSH4 0x70A08231 PUSH1 0xE0 SHL DUP2 MSTORE CALLER PUSH1 0x4 DUP3 ADD MSTORE PUSH1 0x0 SWAP1 PUSH1 0x1 PUSH1 0x1 PUSH1 0xA0 SHL SUB DUP7 AND SWAP1 PUSH4 0x70A08231 SWAP1 PUSH1 0x24 ADD PUSH1 0x20 PUSH1 0x40 MLOAD DUP1 DUP4 SUB DUP2 DUP7 GAS STATICCALL ISZERO DUP1 ISZERO PUSH2 0xFAF JUMPI RETURNDATASIZE PUSH1 0x0 DUP1 RETURNDATACOPY RETURNDATASIZE PUSH1 0x0 REVERT JUMPDEST POP POP POP POP PUSH1 0x40 MLOAD RETURNDATASIZE PUSH1 0x1F NOT PUSH1 0x1F DUP3 ADD AND DUP3 ADD DUP1 PUSH1 0x40 MSTORE POP DUP2 ADD SWAP1 PUSH2 0xFD3 SWAP2 SWAP1 PUSH2 0x178A JUMP JUMPDEST SWAP1 POP DUP11 DUP2 LT ISZERO PUSH2 0xFF5 JUMPI PUSH1 0x40 MLOAD PUSH3 0x461BCD PUSH1 0xE5 SHL DUP2 MSTORE PUSH1 0x4 ADD PUSH2 0x1ED SWAP1 PUSH2 0x193D JUMP JUMPDEST PUSH2 0x1001 DUP6 DUP6 DUP16 DUP16 PUSH2 0x6F8 JUMP JUMPDEST PUSH2 0x100E DUP6 DUP6 DUP16 DUP16 DUP16 PUSH2 0x12A5 JUMP JUMPDEST PUSH2 0x1097 PUSH1 0x40 MLOAD DUP1 PUSH1 0x60 ADD PUSH1 0x40 MSTORE DUP1 PUSH1 0x36 DUP2 MSTORE PUSH1 0x20 ADD PUSH2 0x19E8 PUSH1 0x36 SWAP2 CODECOPY PUSH1 0x40 MLOAD PUSH4 0x70A08231 PUSH1 0xE0 SHL DUP2 MSTORE ADDRESS PUSH1 0x4 DUP3 ADD MSTORE PUSH1 0x1 PUSH1 0x1 PUSH1 0xA0 SHL SUB DUP9 AND SWAP1 PUSH4 0x70A08231 SWAP1 PUSH1 0x24 ADD PUSH1 0x20 PUSH1 0x40 MLOAD DUP1 DUP4 SUB DUP2 DUP7 GAS STATICCALL ISZERO DUP1 ISZERO PUSH2 0x106E JUMPI RETURNDATASIZE PUSH1 0x0 DUP1 RETURNDATACOPY RETURNDATASIZE PUSH1 0x0 REVERT JUMPDEST POP POP POP POP PUSH1 0x40 MLOAD RETURNDATASIZE PUSH1 0x1F NOT PUSH1 0x1F DUP3 ADD AND DUP3 ADD DUP1 PUSH1 0x40 MSTORE POP DUP2 ADD SWAP1 PUSH2 0x1092 SWAP2 SWAP1 PUSH2 0x178A JUMP JUMPDEST PUSH2 0x8BC JUMP JUMPDEST PUSH1 0x0 DUP14 PUSH1 0x1 PUSH1 0x1 PUSH1 0xA0 SHL SUB AND PUSH4 0x38ED1739 DUP14 DUP7 PUSH1 0x1 DUP2 MLOAD DUP2 LT PUSH2 0x10BC JUMPI PUSH2 0x10BC PUSH2 0x1774 JUMP JUMPDEST PUSH1 0x20 MUL PUSH1 0x20 ADD ADD MLOAD DUP14 ADDRESS DUP13 PUSH1 0x40 MLOAD DUP7 PUSH4 0xFFFFFFFF AND PUSH1 0xE0 SHL DUP2 MSTORE PUSH1 0x4 ADD PUSH2 0x10E7 SWAP6 SWAP5 SWAP4 SWAP3 SWAP2 SWAP1 PUSH2 0x1984 JUMP JUMPDEST PUSH1 0x0 PUSH1 0x40 MLOAD DUP1 DUP4 SUB DUP2 PUSH1 0x0 DUP8 GAS CALL ISZERO DUP1 ISZERO PUSH2 0x1106 JUMPI RETURNDATASIZE PUSH1 0x0 DUP1 RETURNDATACOPY RETURNDATASIZE PUSH1 0x0 REVERT JUMPDEST POP POP POP POP PUSH1 0x40 MLOAD RETURNDATASIZE PUSH1 0x0 DUP3 RETURNDATACOPY PUSH1 0x1F RETURNDATASIZE SWAP1 DUP2 ADD PUSH1 0x1F NOT AND DUP3 ADD PUSH1 0x40 MSTORE PUSH2 0x112E SWAP2 SWAP1 DUP2 ADD SWAP1 PUSH2 0x18AC JUMP JUMPDEST SWAP1 POP PUSH2 0x1167 PUSH1 0x40 MLOAD DUP1 PUSH1 0x40 ADD PUSH1 0x40 MSTORE DUP1 PUSH1 0x8 DUP2 MSTORE PUSH1 0x20 ADD PUSH8 0x39BBB0B824B71D1 PUSH1 0xC5 SHL DUP2 MSTORE POP DUP3 PUSH1 0x1 DUP2 MLOAD DUP2 LT PUSH2 0xA37 JUMPI PUSH2 0xA37 PUSH2 0x1774 JUMP JUMPDEST PUSH1 0x0 DUP14 PUSH1 0x1 PUSH1 0x1 PUSH1 0xA0 SHL SUB AND PUSH4 0x38ED1739 DUP4 PUSH1 0x1 DUP2 MLOAD DUP2 LT PUSH2 0x118B JUMPI PUSH2 0x118B PUSH2 0x1774 JUMP JUMPDEST PUSH1 0x20 MUL PUSH1 0x20 ADD ADD MLOAD DUP7 PUSH1 0x1 DUP2 MLOAD DUP2 LT PUSH2 0x11A6 JUMPI PUSH2 0x11A6 PUSH2 0x1774 JUMP JUMPDEST PUSH1 0x20 MUL PUSH1 0x20 ADD ADD MLOAD DUP14 DUP14 DUP14 PUSH1 0x40 MLOAD DUP7 PUSH4 0xFFFFFFFF AND PUSH1 0xE0 SHL DUP2 MSTORE PUSH1 0x4 ADD PUSH2 0x11D1 SWAP6 SWAP5 SWAP4 SWAP3 SWAP2 SWAP1 PUSH2 0x1984 JUMP JUMPDEST PUSH1 0x0 PUSH1 0x40 MLOAD DUP1 DUP4 SUB DUP2 PUSH1 0x0 DUP8 GAS CALL ISZERO DUP1 ISZERO PUSH2 0x11F0 JUMPI RETURNDATASIZE PUSH1 0x0 DUP1 RETURNDATACOPY RETURNDATASIZE PUSH1 0x0 REVERT JUMPDEST POP POP POP POP PUSH1 0x40 MLOAD RETURNDATASIZE PUSH1 0x0 DUP3 RETURNDATACOPY PUSH1 0x1F RETURNDATASIZE SWAP1 DUP2 ADD PUSH1 0x1F NOT AND DUP3 ADD PUSH1 0x40 MSTORE PUSH2 0x1218 SWAP2 SWAP1 DUP2 ADD SWAP1 PUSH2 0x18AC JUMP JUMPDEST SWAP1 POP PUSH2 0x1252 PUSH1 0x40 MLOAD DUP1 PUSH1 0x40 ADD PUSH1 0x40 MSTORE DUP1 PUSH1 0x9 DUP2 MSTORE PUSH1 0x20 ADD PUSH9 0x39BBB0B827BABA1D1 PUSH1 0xBD SHL DUP2 MSTORE POP DUP3 PUSH1 0x1 DUP2 MLOAD DUP2 LT PUSH2 0xA37 JUMPI PUSH2 0xA37 PUSH2 0x1774 JUMP JUMPDEST PUSH2 0x404 PUSH1 0x40 MLOAD DUP1 PUSH1 0x40 ADD PUSH1 0x40 MSTORE DUP1 PUSH1 0x8 DUP2 MSTORE PUSH1 0x20 ADD PUSH8 0x283937B334BA1D1 PUSH1 0xC5 SHL DUP2 MSTORE POP DUP15 DUP4 PUSH1 0x1 DUP2 MLOAD DUP2 LT PUSH2 0x128A JUMPI PUSH2 0x128A PUSH2 0x1774 JUMP JUMPDEST PUSH1 0x20 MUL PUSH1 0x20 ADD ADD MLOAD PUSH2 0x1092 SWAP2 SWAP1 PUSH2 0x19C0 JUMP JUMPDEST PUSH2 0x6F5 DUP2 PUSH2 0x15A7 JUMP JUMPDEST PUSH1 0x40 MLOAD PUSH4 0x6EB1769F PUSH1 0xE1 SHL DUP2 MSTORE ADDRESS PUSH1 0x4 DUP3 ADD MSTORE PUSH1 0x1 PUSH1 0x1 PUSH1 0xA0 SHL SUB DUP5 DUP2 AND PUSH1 0x24 DUP4 ADD MSTORE PUSH1 0x0 SWAP2 SWAP1 DUP8 AND SWAP1 PUSH4 0xDD62ED3E SWAP1 PUSH1 0x44 ADD PUSH1 0x20 PUSH1 0x40 MLOAD DUP1 DUP4 SUB DUP2 DUP7 GAS STATICCALL ISZERO DUP1 ISZERO PUSH2 0x12F5 JUMPI RETURNDATASIZE PUSH1 0x0 DUP1 RETURNDATACOPY RETURNDATASIZE PUSH1 0x0 REVERT JUMPDEST POP POP POP POP PUSH1 0x40 MLOAD RETURNDATASIZE PUSH1 0x1F NOT PUSH1 0x1F DUP3 ADD AND DUP3 ADD DUP1 PUSH1 0x40 MSTORE POP DUP2 ADD SWAP1 PUSH2 0x1319 SWAP2 SWAP1 PUSH2 0x178A JUMP JUMPDEST SWAP1 POP PUSH2 0x135A PUSH1 0x40 MLOAD DUP1 PUSH1 0x40 ADD PUSH1 0x40 MSTORE DUP1 PUSH1 0x20 DUP2 MSTORE PUSH1 0x20 ADD PUSH32 0x436F6E747261637420616C6C6F77616E636520666F7220726F75746572413A20 DUP2 MSTORE POP DUP3 PUSH2 0x8BC JUMP JUMPDEST PUSH1 0x40 MLOAD PUSH4 0x6EB1769F PUSH1 0xE1 SHL DUP2 MSTORE ADDRESS PUSH1 0x4 DUP3 ADD MSTORE PUSH1 0x1 PUSH1 0x1 PUSH1 0xA0 SHL SUB DUP5 DUP2 AND PUSH1 0x24 DUP4 ADD MSTORE PUSH1 0x0 SWAP2 SWAP1 DUP8 AND SWAP1 PUSH4 0xDD62ED3E SWAP1 PUSH1 0x44 ADD PUSH1 0x20 PUSH1 0x40 MLOAD DUP1 DUP4 SUB DUP2 DUP7 GAS STATICCALL ISZERO DUP1 ISZERO PUSH2 0x13AA JUMPI RETURNDATASIZE PUSH1 0x0 DUP1 RETURNDATACOPY RETURNDATASIZE PUSH1 0x0 REVERT JUMPDEST POP POP POP POP PUSH1 0x40 MLOAD RETURNDATASIZE PUSH1 0x1F NOT PUSH1 0x1F DUP3 ADD AND DUP3 ADD DUP1 PUSH1 0x40 MSTORE POP DUP2 ADD SWAP1 PUSH2 0x13CE SWAP2 SWAP1 PUSH2 0x178A JUMP JUMPDEST SWAP1 POP PUSH2 0x140F PUSH1 0x40 MLOAD DUP1 PUSH1 0x40 ADD PUSH1 0x40 MSTORE DUP1 PUSH1 0x20 DUP2 MSTORE PUSH1 0x20 ADD PUSH32 0x436F6E747261637420616C6C6F77616E636520666F7220726F75746572423A20 DUP2 MSTORE POP DUP3 PUSH2 0x8BC JUMP JUMPDEST DUP3 DUP3 LT ISZERO PUSH2 0x1475 JUMPI PUSH1 0x40 MLOAD PUSH3 0x461BCD PUSH1 0xE5 SHL DUP2 MSTORE PUSH1 0x20 PUSH1 0x4 DUP3 ADD MSTORE PUSH1 0x2D PUSH1 0x24 DUP3 ADD MSTORE PUSH32 0x5377617053696E676C653A20434F4E54524143545F4E4F545F415050524F5645 PUSH1 0x44 DUP3 ADD MSTORE PUSH13 0x445F464F525F524F5554455241 PUSH1 0x98 SHL PUSH1 0x64 DUP3 ADD MSTORE PUSH1 0x84 ADD PUSH2 0x1ED JUMP JUMPDEST DUP3 DUP2 LT ISZERO PUSH2 0x14DB JUMPI PUSH1 0x40 MLOAD PUSH3 0x461BCD PUSH1 0xE5 SHL DUP2 MSTORE PUSH1 0x20 PUSH1 0x4 DUP3 ADD MSTORE PUSH1 0x2D PUSH1 0x24 DUP3 ADD MSTORE PUSH32 0x5377617053696E676C653A20434F4E54524143545F4E4F545F415050524F5645 PUSH1 0x44 DUP3 ADD MSTORE PUSH13 0x222FA327A92FA927AAAA22A921 PUSH1 0x99 SHL PUSH1 0x64 DUP3 ADD MSTORE PUSH1 0x84 ADD PUSH2 0x1ED JUMP JUMPDEST PUSH1 0x40 MLOAD PUSH4 0x23B872DD PUSH1 0xE0 SHL DUP2 MSTORE CALLER PUSH1 0x4 DUP3 ADD MSTORE ADDRESS PUSH1 0x24 DUP3 ADD MSTORE PUSH1 0x44 DUP2 ADD DUP5 SWAP1 MSTORE PUSH1 0x1 PUSH1 0x1 PUSH1 0xA0 SHL SUB DUP9 AND SWAP1 PUSH4 0x23B872DD SWAP1 PUSH1 0x64 ADD PUSH1 0x20 PUSH1 0x40 MLOAD DUP1 DUP4 SUB DUP2 PUSH1 0x0 DUP8 GAS CALL ISZERO DUP1 ISZERO PUSH2 0x152E JUMPI RETURNDATASIZE PUSH1 0x0 DUP1 RETURNDATACOPY RETURNDATASIZE PUSH1 0x0 REVERT JUMPDEST POP POP POP POP PUSH1 0x40 MLOAD RETURNDATASIZE PUSH1 0x1F NOT PUSH1 0x1F DUP3 ADD AND DUP3 ADD DUP1 PUSH1 0x40 MSTORE POP DUP2 ADD SWAP1 PUSH2 0x1552 SWAP2 SWAP1 PUSH2 0x17A3 JUMP JUMPDEST PUSH2 0x159E JUMPI PUSH1 0x40 MLOAD PUSH3 0x461BCD PUSH1 0xE5 SHL DUP2 MSTORE PUSH1 0x20 PUSH1 0x4 DUP3 ADD MSTORE PUSH1 0x1F PUSH1 0x24 DUP3 ADD MSTORE PUSH32 0x7472616E7366657246726F6D206D73672E73656E646572206661696C65642E00 PUSH1 0x44 DUP3 ADD MSTORE PUSH1 0x64 ADD PUSH2 0x1ED JUMP JUMPDEST POP POP POP POP POP POP POP JUMP JUMPDEST PUSH1 0x0 PUSH11 0x636F6E736F6C652E6C6F67 SWAP1 POP PUSH1 0x0 DUP1 DUP4 MLOAD PUSH1 0x20 DUP6 ADD DUP5 GAS STATICCALL POP POP POP JUMP JUMPDEST DUP1 CALLDATALOAD PUSH1 0x1 PUSH1 0x1 PUSH1 0xA0 SHL SUB DUP2 AND DUP2 EQ PUSH2 0x15DF JUMPI PUSH1 0x0 DUP1 REVERT JUMPDEST SWAP2 SWAP1 POP JUMP JUMPDEST PUSH4 0x4E487B71 PUSH1 0xE0 SHL PUSH1 0x0 MSTORE PUSH1 0x41 PUSH1 0x4 MSTORE PUSH1 0x24 PUSH1 0x0 REVERT JUMPDEST PUSH1 0x40 MLOAD PUSH1 0x1F DUP3 ADD PUSH1 0x1F NOT AND DUP2 ADD PUSH8 0xFFFFFFFFFFFFFFFF DUP2 GT DUP3 DUP3 LT OR ISZERO PUSH2 0x1623 JUMPI PUSH2 0x1623 PUSH2 0x15E4 JUMP JUMPDEST PUSH1 0x40 MSTORE SWAP2 SWAP1 POP JUMP JUMPDEST PUSH1 0x0 PUSH8 0xFFFFFFFFFFFFFFFF DUP3 GT ISZERO PUSH2 0x1645 JUMPI PUSH2 0x1645 PUSH2 0x15E4 JUMP JUMPDEST POP PUSH1 0x5 SHL PUSH1 0x20 ADD SWAP1 JUMP JUMPDEST PUSH1 0x0 DUP3 PUSH1 0x1F DUP4 ADD SLT PUSH2 0x1660 JUMPI PUSH1 0x0 DUP1 REVERT JUMPDEST DUP2 CALLDATALOAD PUSH1 0x20 PUSH2 0x1675 PUSH2 0x1670 DUP4 PUSH2 0x162B JUMP JUMPDEST PUSH2 0x15FA JUMP JUMPDEST DUP3 DUP2 MSTORE PUSH1 0x5 SWAP3 SWAP1 SWAP3 SHL DUP5 ADD DUP2 ADD SWAP2 DUP2 DUP2 ADD SWAP1 DUP7 DUP5 GT ISZERO PUSH2 0x1694 JUMPI PUSH1 0x0 DUP1 REVERT JUMPDEST DUP3 DUP7 ADD JUMPDEST DUP5 DUP2 LT ISZERO PUSH2 0x16B6 JUMPI PUSH2 0x16A9 DUP2 PUSH2 0x15C8 JUMP JUMPDEST DUP4 MSTORE SWAP2 DUP4 ADD SWAP2 DUP4 ADD PUSH2 0x1698 JUMP JUMPDEST POP SWAP7 SWAP6 POP POP POP POP POP POP JUMP JUMPDEST PUSH1 0x0 DUP1 PUSH1 0x0 DUP1 PUSH1 0x0 DUP1 PUSH1 0x0 DUP1 PUSH2 0x100 DUP10 DUP12 SUB SLT ISZERO PUSH2 0x16DE JUMPI PUSH1 0x0 DUP1 REVERT JUMPDEST PUSH2 0x16E7 DUP10 PUSH2 0x15C8 JUMP JUMPDEST SWAP8 POP PUSH2 0x16F5 PUSH1 0x20 DUP11 ADD PUSH2 0x15C8 JUMP JUMPDEST SWAP7 POP PUSH1 0x40 DUP10 ADD CALLDATALOAD SWAP6 POP PUSH1 0x60 DUP10 ADD CALLDATALOAD SWAP5 POP PUSH1 0x80 DUP10 ADD CALLDATALOAD PUSH8 0xFFFFFFFFFFFFFFFF DUP1 DUP3 GT ISZERO PUSH2 0x1720 JUMPI PUSH1 0x0 DUP1 REVERT JUMPDEST PUSH2 0x172C DUP13 DUP4 DUP14 ADD PUSH2 0x164F JUMP JUMPDEST SWAP6 POP PUSH1 0xA0 DUP12 ADD CALLDATALOAD SWAP2 POP DUP1 DUP3 GT ISZERO PUSH2 0x1742 JUMPI PUSH1 0x0 DUP1 REVERT JUMPDEST POP PUSH2 0x174F DUP12 DUP3 DUP13 ADD PUSH2 0x164F JUMP JUMPDEST SWAP4 POP POP PUSH2 0x175E PUSH1 0xC0 DUP11 ADD PUSH2 0x15C8 JUMP JUMPDEST SWAP2 POP PUSH1 0xE0 DUP10 ADD CALLDATALOAD SWAP1 POP SWAP3 SWAP6 SWAP9 POP SWAP3 SWAP6 SWAP9 SWAP1 SWAP4 SWAP7 POP JUMP JUMPDEST PUSH4 0x4E487B71 PUSH1 0xE0 SHL PUSH1 0x0 MSTORE PUSH1 0x32 PUSH1 0x4 MSTORE PUSH1 0x24 PUSH1 0x0 REVERT JUMPDEST PUSH1 0x0 PUSH1 0x20 DUP3 DUP5 SUB SLT ISZERO PUSH2 0x179C JUMPI PUSH1 0x0 DUP1 REVERT JUMPDEST POP MLOAD SWAP2 SWAP1 POP JUMP JUMPDEST PUSH1 0x0 PUSH1 0x20 DUP3 DUP5 SUB SLT ISZERO PUSH2 0x17B5 JUMPI PUSH1 0x0 DUP1 REVERT JUMPDEST DUP2 MLOAD DUP1 ISZERO ISZERO DUP2 EQ PUSH2 0x17C5 JUMPI PUSH1 0x0 DUP1 REVERT JUMPDEST SWAP4 SWAP3 POP POP POP JUMP JUMPDEST PUSH1 0x0 DUP2 MLOAD DUP1 DUP5 MSTORE PUSH1 0x0 JUMPDEST DUP2 DUP2 LT ISZERO PUSH2 0x17F2 JUMPI PUSH1 0x20 DUP2 DUP6 ADD DUP2 ADD MLOAD DUP7 DUP4 ADD DUP3 ADD MSTORE ADD PUSH2 0x17D6 JUMP JUMPDEST POP PUSH1 0x0 PUSH1 0x20 DUP3 DUP7 ADD ADD MSTORE PUSH1 0x20 PUSH1 0x1F NOT PUSH1 0x1F DUP4 ADD AND DUP6 ADD ADD SWAP2 POP POP SWAP3 SWAP2 POP POP JUMP JUMPDEST PUSH1 0x20 DUP2 MSTORE PUSH1 0x0 PUSH2 0x17C5 PUSH1 0x20 DUP4 ADD DUP5 PUSH2 0x17CC JUMP JUMPDEST PUSH1 0x40 DUP2 MSTORE PUSH1 0x0 PUSH2 0x1838 PUSH1 0x40 DUP4 ADD DUP6 PUSH2 0x17CC JUMP JUMPDEST SWAP1 POP DUP3 PUSH1 0x20 DUP4 ADD MSTORE SWAP4 SWAP3 POP POP POP JUMP JUMPDEST PUSH1 0x0 DUP2 MLOAD DUP1 DUP5 MSTORE PUSH1 0x20 DUP1 DUP6 ADD SWAP5 POP DUP1 DUP5 ADD PUSH1 0x0 JUMPDEST DUP4 DUP2 LT ISZERO PUSH2 0x1880 JUMPI DUP2 MLOAD PUSH1 0x1 PUSH1 0x1 PUSH1 0xA0 SHL SUB AND DUP8 MSTORE SWAP6 DUP3 ADD SWAP6 SWAP1 DUP3 ADD SWAP1 PUSH1 0x1 ADD PUSH2 0x185B JUMP JUMPDEST POP SWAP5 SWAP6 SWAP5 POP POP POP POP POP JUMP JUMPDEST DUP3 DUP2 MSTORE PUSH1 0x40 PUSH1 0x20 DUP3 ADD MSTORE PUSH1 0x0 PUSH2 0x18A4 PUSH1 0x40 DUP4 ADD DUP5 PUSH2 0x1847 JUMP JUMPDEST SWAP5 SWAP4 POP POP POP POP JUMP JUMPDEST PUSH1 0x0 PUSH1 0x20 DUP1 DUP4 DUP6 SUB SLT ISZERO PUSH2 0x18BF JUMPI PUSH1 0x0 DUP1 REVERT JUMPDEST DUP3 MLOAD PUSH8 0xFFFFFFFFFFFFFFFF DUP2 GT ISZERO PUSH2 0x18D6 JUMPI PUSH1 0x0 DUP1 REVERT JUMPDEST DUP4 ADD PUSH1 0x1F DUP2 ADD DUP6 SGT PUSH2 0x18E7 JUMPI PUSH1 0x0 DUP1 REVERT JUMPDEST DUP1 MLOAD PUSH2 0x18F5 PUSH2 0x1670 DUP3 PUSH2 0x162B JUMP JUMPDEST DUP2 DUP2 MSTORE PUSH1 0x5 SWAP2 SWAP1 SWAP2 SHL DUP3 ADD DUP4 ADD SWAP1 DUP4 DUP2 ADD SWAP1 DUP8 DUP4 GT ISZERO PUSH2 0x1914 JUMPI PUSH1 0x0 DUP1 REVERT JUMPDEST SWAP3 DUP5 ADD SWAP3 JUMPDEST DUP3 DUP5 LT ISZERO PUSH2 0x1932 JUMPI DUP4 MLOAD DUP3 MSTORE SWAP3 DUP5 ADD SWAP3 SWAP1 DUP5 ADD SWAP1 PUSH2 0x1919 JUMP JUMPDEST SWAP8 SWAP7 POP POP POP POP POP POP POP JUMP JUMPDEST PUSH1 0x20 DUP1 DUP3 MSTORE PUSH1 0x27 SWAP1 DUP3 ADD MSTORE PUSH32 0x5377617053696E676C653A20494E53554646494349454E545F57414C4C45545F PUSH1 0x40 DUP3 ADD MSTORE PUSH7 0x42414C414E4345 PUSH1 0xC8 SHL PUSH1 0x60 DUP3 ADD MSTORE PUSH1 0x80 ADD SWAP1 JUMP JUMPDEST DUP6 DUP2 MSTORE DUP5 PUSH1 0x20 DUP3 ADD MSTORE PUSH1 0xA0 PUSH1 0x40 DUP3 ADD MSTORE PUSH1 0x0 PUSH2 0x19A3 PUSH1 0xA0 DUP4 ADD DUP7 PUSH2 0x1847 JUMP JUMPDEST PUSH1 0x1 PUSH1 0x1 PUSH1 0xA0 SHL SUB SWAP5 SWAP1 SWAP5 AND PUSH1 0x60 DUP4 ADD MSTORE POP PUSH1 0x80 ADD MSTORE SWAP4 SWAP3 POP POP POP JUMP JUMPDEST DUP2 DUP2 SUB DUP2 DUP2 GT ISZERO PUSH2 0x19E1 JUMPI PUSH4 0x4E487B71 PUSH1 0xE0 SHL PUSH1 0x0 MSTORE PUSH1 0x11 PUSH1 0x4 MSTORE PUSH1 0x24 PUSH1 0x0 REVERT JUMPDEST SWAP3 SWAP2 POP POP JUMP INVALID PUSH21 0x6F6B656E73207478276420616E6420617070726F76 PUSH2 0x6C73 KECCAK256 PUSH5 0x6F6E652E20 0x4E PUSH6 0x7720436F6E74 PUSH19 0x6163742062616C616E63653A20537761705369 PUSH15 0x676C653A207377617053696E676C65 KECCAK256 PUSH4 0x6F6E7472 PUSH2 0x6374 KECCAK256 PUSH6 0x6E7465726564 MSTORE8 PUSH24 0x61704D756C74693A20737761704D756C746920636F6E7472 PUSH2 0x6374 KECCAK256 PUSH6 0x6E7465726564 LOG2 PUSH5 0x6970667358 0x22 SLT KECCAK256 0xC2 0xD0 PUSH11 0xD91634B5C3BCC27E65D7FA MSTORE 0xE0 CREATE2 PUSH20 0xCD5203A6C714D188E5D9429D188A64736F6C6343 STOP ADDMOD SGT STOP CALLER "},"methodIdentifiers":{"checkOwner()":"cdbce03d","swapMulti(address,address,uint256,uint256,address[],address[],address,uint256)":"06204fb9","swapSingle(address,address,uint256,uint256,address[],address[],address,uint256)":"29b9d97b"}}}}}