{"contracts/v2/SwapSingle.sol":{"SwapSingle":{"abi":[{"inputs":[{"internalType":"address","name":"_owner","type":"address"}],"stateMutability":"nonpayable","type":"constructor"},{"anonymous":false,"inputs":[{"indexed":false,"internalType":"string","name":"message","type":"string"}],"name":"log","type":"event"},{"anonymous":false,"inputs":[{"indexed":false,"internalType":"string","name":"message","type":"string"},{"indexed":false,"internalType":"address","name":"val","type":"address"}],"name":"logAddress","type":"event"},{"anonymous":false,"inputs":[{"indexed":false,"internalType":"string","name":"message","type":"string"},{"indexed":false,"internalType":"uint256","name":"val","type":"uint256"}],"name":"logValue","type":"event"},{"inputs":[],"name":"checkOwner","outputs":[{"internalType":"address","name":"","type":"address"}],"stateMutability":"view","type":"function"},{"inputs":[{"internalType":"address","name":"routerAID","type":"address"},{"internalType":"address","name":"routerBID","type":"address"},{"internalType":"uint256","name":"tradeSize","type":"uint256"},{"internalType":"uint256","name":"amountOutA","type":"uint256"},{"internalType":"uint256","name":"amountOutB","type":"uint256"},{"internalType":"address[]","name":"path0","type":"address[]"},{"internalType":"address[]","name":"path1","type":"address[]"},{"internalType":"address","name":"to","type":"address"},{"internalType":"uint256","name":"deadline","type":"uint256"}],"name":"swapSingle","outputs":[],"stateMutability":"nonpayable","type":"function"}],"evm":{"bytecode":{"linkReferences":{},"object":"608060405234801561001057600080fd5b50604051610ab4380380610ab483398101604081905261002f91610054565b600080546001600160a01b0319166001600160a01b0392909216919091179055610084565b60006020828403121561006657600080fd5b81516001600160a01b038116811461007d57600080fd5b9392505050565b610a21806100936000396000f3fe608060405234801561001057600080fd5b50600436106100365760003560e01c80630c05c7af1461003b578063cdbce03d14610050575b600080fd5b61004e61004936600461070e565b61006f565b005b600054604080516001600160a01b039092168252519081900360200190f35b6100ad6040518060400160405280601c81526020017f5377617053696e676c653a20636f6e747261637420656e7465726564000000008152506105aa565b6000846000815181106100c2576100c26107cb565b60200260200101519050600085600187516100dd91906107e1565b815181106100ed576100ed6107cb565b602090810291909101015160405163095ea7b360e01b81526001600160a01b03808e166004830152602482018c90529192508c918c919085169063095ea7b3906044016020604051808303816000875af115801561014f573d6000803e3d6000fd5b505050506040513d601f19601f820116820180604052508101906101739190610808565b506040516338ed173960e01b81526000906001600160a01b038416906338ed1739906101ab908f908f908e9030908d90600401610875565b6000604051808303816000875af11580156101ca573d6000803e3d6000fd5b505050506040513d6000823e601f3d908101601f191682016040526101f291908101906108b1565b90506102326040518060400160405280602081526020017f5377617053696e676c653a206669727374207377617020636f6d706c657465648152506105aa565b6000826001600160a01b031663d06ca61f83600181518110610256576102566107cb565b60200260200101518b6040518363ffffffff1660e01b815260040161027c929190610942565b600060405180830381865afa158015610299573d6000803e3d6000fd5b505050506040513d6000823e601f3d908101601f191682016040526102c191908101906108b1565b9050816001815181106102d6576102d66107cb565b6020026020010151816001815181106102f1576102f16107cb565b6020026020010151116103605760405162461bcd60e51b815260206004820152602d60248201527f4572726f72205377617053696e676c653a20496e73756666696369656e74206f60448201526c1d5d1c1d5d0e8815185c99d95d609a1b606482015260840160405180910390fd5b846001600160a01b031663095ea7b38f84600181518110610383576103836107cb565b60200260200101516040518363ffffffff1660e01b81526004016103bc9291906001600160a01b03929092168252602082015260400190565b6020604051808303816000875af11580156103db573d6000803e3d6000fd5b505050506040513d601f19601f820116820180604052508101906103ff9190610808565b50826001600160a01b03166338ed173983600181518110610422576104226107cb565b60200260200101518d8c8c8c6040518663ffffffff1660e01b815260040161044e959493929190610875565b6000604051808303816000875af115801561046d573d6000803e3d6000fd5b505050506040513d6000823e601f3d908101601f1916820160405261049591908101906108b1565b506104b76040518060600160405280602181526020016109cb602191396105aa565b6040516370a0823160e01b81523060048201526001600160a01b0387169063a9059cbb90339083906370a0823190602401602060405180830381865afa158015610505573d6000803e3d6000fd5b505050506040513d601f19601f820116820180604052508101906105299190610963565b6040516001600160e01b031960e085901b1681526001600160a01b03909216600483015260248201526044016020604051808303816000875af1158015610574573d6000803e3d6000fd5b505050506040513d601f19601f820116820180604052508101906105989190610808565b50505050505050505050505050505050565b6105ed816040516024016105be919061097c565b60408051601f198184030181529190526020810180516001600160e01b031663104c13eb60e21b1790526105f0565b50565b6105ed8160006a636f6e736f6c652e6c6f679050600080835160208501845afa505050565b80356001600160a01b038116811461062c57600080fd5b919050565b634e487b7160e01b600052604160045260246000fd5b604051601f8201601f1916810167ffffffffffffffff8111828210171561067057610670610631565b604052919050565b600067ffffffffffffffff82111561069257610692610631565b5060051b60200190565b600082601f8301126106ad57600080fd5b813560206106c26106bd83610678565b610647565b82815260059290921b840181019181810190868411156106e157600080fd5b8286015b84811015610703576106f681610615565b83529183019183016106e5565b509695505050505050565b60008060008060008060008060006101208a8c03121561072d57600080fd5b6107368a610615565b985061074460208b01610615565b975060408a0135965060608a0135955060808a0135945060a08a013567ffffffffffffffff8082111561077657600080fd5b6107828d838e0161069c565b955060c08c013591508082111561079857600080fd5b506107a58c828d0161069c565b9350506107b460e08b01610615565b91506101008a013590509295985092959850929598565b634e487b7160e01b600052603260045260246000fd5b8181038181111561080257634e487b7160e01b600052601160045260246000fd5b92915050565b60006020828403121561081a57600080fd5b8151801515811461082a57600080fd5b9392505050565b600081518084526020808501945080840160005b8381101561086a5781516001600160a01b031687529582019590820190600101610845565b509495945050505050565b85815284602082015260a06040820152600061089460a0830186610831565b6001600160a01b0394909416606083015250608001529392505050565b600060208083850312156108c457600080fd5b825167ffffffffffffffff8111156108db57600080fd5b8301601f810185136108ec57600080fd5b80516108fa6106bd82610678565b81815260059190911b8201830190838101908783111561091957600080fd5b928401925b828410156109375783518252928401929084019061091e565b979650505050505050565b82815260406020820152600061095b6040830184610831565b949350505050565b60006020828403121561097557600080fd5b5051919050565b600060208083528351808285015260005b818110156109a95785810183015185820160400152820161098d565b506000604082860101526040601f19601f830116850101925050509291505056fe5377617053696e676c653a207365636f6e64207377617020636f6d706c65746564a2646970667358221220c046537e0c15a5040cd36baa60042e7c6187cf47ba96d94613bbe99f612859df64736f6c63430008130033","opcodes":"PUSH1 0x80 PUSH1 0x40 MSTORE CALLVALUE DUP1 ISZERO PUSH2 0x10 JUMPI PUSH1 0x0 DUP1 REVERT JUMPDEST POP PUSH1 0x40 MLOAD PUSH2 0xAB4 CODESIZE SUB DUP1 PUSH2 0xAB4 DUP4 CODECOPY DUP2 ADD PUSH1 0x40 DUP2 SWAP1 MSTORE PUSH2 0x2F SWAP2 PUSH2 0x54 JUMP JUMPDEST PUSH1 0x0 DUP1 SLOAD PUSH1 0x1 PUSH1 0x1 PUSH1 0xA0 SHL SUB NOT AND PUSH1 0x1 PUSH1 0x1 PUSH1 0xA0 SHL SUB SWAP3 SWAP1 SWAP3 AND SWAP2 SWAP1 SWAP2 OR SWAP1 SSTORE PUSH2 0x84 JUMP JUMPDEST PUSH1 0x0 PUSH1 0x20 DUP3 DUP5 SUB SLT ISZERO PUSH2 0x66 JUMPI PUSH1 0x0 DUP1 REVERT JUMPDEST DUP2 MLOAD PUSH1 0x1 PUSH1 0x1 PUSH1 0xA0 SHL SUB DUP2 AND DUP2 EQ PUSH2 0x7D JUMPI PUSH1 0x0 DUP1 REVERT JUMPDEST SWAP4 SWAP3 POP POP POP JUMP JUMPDEST PUSH2 0xA21 DUP1 PUSH2 0x93 PUSH1 0x0 CODECOPY PUSH1 0x0 RETURN INVALID PUSH1 0x80 PUSH1 0x40 MSTORE CALLVALUE DUP1 ISZERO PUSH2 0x10 JUMPI PUSH1 0x0 DUP1 REVERT JUMPDEST POP PUSH1 0x4 CALLDATASIZE LT PUSH2 0x36 JUMPI PUSH1 0x0 CALLDATALOAD PUSH1 0xE0 SHR DUP1 PUSH4 0xC05C7AF EQ PUSH2 0x3B JUMPI DUP1 PUSH4 0xCDBCE03D EQ PUSH2 0x50 JUMPI JUMPDEST PUSH1 0x0 DUP1 REVERT JUMPDEST PUSH2 0x4E PUSH2 0x49 CALLDATASIZE PUSH1 0x4 PUSH2 0x70E JUMP JUMPDEST PUSH2 0x6F JUMP JUMPDEST STOP JUMPDEST PUSH1 0x0 SLOAD PUSH1 0x40 DUP1 MLOAD PUSH1 0x1 PUSH1 0x1 PUSH1 0xA0 SHL SUB SWAP1 SWAP3 AND DUP3 MSTORE MLOAD SWAP1 DUP2 SWAP1 SUB PUSH1 0x20 ADD SWAP1 RETURN JUMPDEST PUSH2 0xAD PUSH1 0x40 MLOAD DUP1 PUSH1 0x40 ADD PUSH1 0x40 MSTORE DUP1 PUSH1 0x1C DUP2 MSTORE PUSH1 0x20 ADD PUSH32 0x5377617053696E676C653A20636F6E747261637420656E746572656400000000 DUP2 MSTORE POP PUSH2 0x5AA JUMP JUMPDEST PUSH1 0x0 DUP5 PUSH1 0x0 DUP2 MLOAD DUP2 LT PUSH2 0xC2 JUMPI PUSH2 0xC2 PUSH2 0x7CB JUMP JUMPDEST PUSH1 0x20 MUL PUSH1 0x20 ADD ADD MLOAD SWAP1 POP PUSH1 0x0 DUP6 PUSH1 0x1 DUP8 MLOAD PUSH2 0xDD SWAP2 SWAP1 PUSH2 0x7E1 JUMP JUMPDEST DUP2 MLOAD DUP2 LT PUSH2 0xED JUMPI PUSH2 0xED PUSH2 0x7CB JUMP JUMPDEST PUSH1 0x20 SWAP1 DUP2 MUL SWAP2 SWAP1 SWAP2 ADD ADD MLOAD PUSH1 0x40 MLOAD PUSH4 0x95EA7B3 PUSH1 0xE0 SHL DUP2 MSTORE PUSH1 0x1 PUSH1 0x1 PUSH1 0xA0 SHL SUB DUP1 DUP15 AND PUSH1 0x4 DUP4 ADD MSTORE PUSH1 0x24 DUP3 ADD DUP13 SWAP1 MSTORE SWAP2 SWAP3 POP DUP13 SWAP2 DUP13 SWAP2 SWAP1 DUP6 AND SWAP1 PUSH4 0x95EA7B3 SWAP1 PUSH1 0x44 ADD PUSH1 0x20 PUSH1 0x40 MLOAD DUP1 DUP4 SUB DUP2 PUSH1 0x0 DUP8 GAS CALL ISZERO DUP1 ISZERO PUSH2 0x14F JUMPI RETURNDATASIZE PUSH1 0x0 DUP1 RETURNDATACOPY RETURNDATASIZE PUSH1 0x0 REVERT JUMPDEST POP POP POP POP PUSH1 0x40 MLOAD RETURNDATASIZE PUSH1 0x1F NOT PUSH1 0x1F DUP3 ADD AND DUP3 ADD DUP1 PUSH1 0x40 MSTORE POP DUP2 ADD SWAP1 PUSH2 0x173 SWAP2 SWAP1 PUSH2 0x808 JUMP JUMPDEST POP PUSH1 0x40 MLOAD PUSH4 0x38ED1739 PUSH1 0xE0 SHL DUP2 MSTORE PUSH1 0x0 SWAP1 PUSH1 0x1 PUSH1 0x1 PUSH1 0xA0 SHL SUB DUP5 AND SWAP1 PUSH4 0x38ED1739 SWAP1 PUSH2 0x1AB SWAP1 DUP16 SWAP1 DUP16 SWAP1 DUP15 SWAP1 ADDRESS SWAP1 DUP14 SWAP1 PUSH1 0x4 ADD PUSH2 0x875 JUMP JUMPDEST PUSH1 0x0 PUSH1 0x40 MLOAD DUP1 DUP4 SUB DUP2 PUSH1 0x0 DUP8 GAS CALL ISZERO DUP1 ISZERO PUSH2 0x1CA JUMPI RETURNDATASIZE PUSH1 0x0 DUP1 RETURNDATACOPY RETURNDATASIZE PUSH1 0x0 REVERT JUMPDEST POP POP POP POP PUSH1 0x40 MLOAD RETURNDATASIZE PUSH1 0x0 DUP3 RETURNDATACOPY PUSH1 0x1F RETURNDATASIZE SWAP1 DUP2 ADD PUSH1 0x1F NOT AND DUP3 ADD PUSH1 0x40 MSTORE PUSH2 0x1F2 SWAP2 SWAP1 DUP2 ADD SWAP1 PUSH2 0x8B1 JUMP JUMPDEST SWAP1 POP PUSH2 0x232 PUSH1 0x40 MLOAD DUP1 PUSH1 0x40 ADD PUSH1 0x40 MSTORE DUP1 PUSH1 0x20 DUP2 MSTORE PUSH1 0x20 ADD PUSH32 0x5377617053696E676C653A206669727374207377617020636F6D706C65746564 DUP2 MSTORE POP PUSH2 0x5AA JUMP JUMPDEST PUSH1 0x0 DUP3 PUSH1 0x1 PUSH1 0x1 PUSH1 0xA0 SHL SUB AND PUSH4 0xD06CA61F DUP4 PUSH1 0x1 DUP2 MLOAD DUP2 LT PUSH2 0x256 JUMPI PUSH2 0x256 PUSH2 0x7CB JUMP JUMPDEST PUSH1 0x20 MUL PUSH1 0x20 ADD ADD MLOAD DUP12 PUSH1 0x40 MLOAD DUP4 PUSH4 0xFFFFFFFF AND PUSH1 0xE0 SHL DUP2 MSTORE PUSH1 0x4 ADD PUSH2 0x27C SWAP3 SWAP2 SWAP1 PUSH2 0x942 JUMP JUMPDEST PUSH1 0x0 PUSH1 0x40 MLOAD DUP1 DUP4 SUB DUP2 DUP7 GAS STATICCALL ISZERO DUP1 ISZERO PUSH2 0x299 JUMPI RETURNDATASIZE PUSH1 0x0 DUP1 RETURNDATACOPY RETURNDATASIZE PUSH1 0x0 REVERT JUMPDEST POP POP POP POP PUSH1 0x40 MLOAD RETURNDATASIZE PUSH1 0x0 DUP3 RETURNDATACOPY PUSH1 0x1F RETURNDATASIZE SWAP1 DUP2 ADD PUSH1 0x1F NOT AND DUP3 ADD PUSH1 0x40 MSTORE PUSH2 0x2C1 SWAP2 SWAP1 DUP2 ADD SWAP1 PUSH2 0x8B1 JUMP JUMPDEST SWAP1 POP DUP2 PUSH1 0x1 DUP2 MLOAD DUP2 LT PUSH2 0x2D6 JUMPI PUSH2 0x2D6 PUSH2 0x7CB JUMP JUMPDEST PUSH1 0x20 MUL PUSH1 0x20 ADD ADD MLOAD DUP2 PUSH1 0x1 DUP2 MLOAD DUP2 LT PUSH2 0x2F1 JUMPI PUSH2 0x2F1 PUSH2 0x7CB JUMP JUMPDEST PUSH1 0x20 MUL PUSH1 0x20 ADD ADD MLOAD GT PUSH2 0x360 JUMPI PUSH1 0x40 MLOAD PUSH3 0x461BCD PUSH1 0xE5 SHL DUP2 MSTORE PUSH1 0x20 PUSH1 0x4 DUP3 ADD MSTORE PUSH1 0x2D PUSH1 0x24 DUP3 ADD MSTORE PUSH32 0x4572726F72205377617053696E676C653A20496E73756666696369656E74206F PUSH1 0x44 DUP3 ADD MSTORE PUSH13 0x1D5D1C1D5D0E8815185C99D95D PUSH1 0x9A SHL PUSH1 0x64 DUP3 ADD MSTORE PUSH1 0x84 ADD PUSH1 0x40 MLOAD DUP1 SWAP2 SUB SWAP1 REVERT JUMPDEST DUP5 PUSH1 0x1 PUSH1 0x1 PUSH1 0xA0 SHL SUB AND PUSH4 0x95EA7B3 DUP16 DUP5 PUSH1 0x1 DUP2 MLOAD DUP2 LT PUSH2 0x383 JUMPI PUSH2 0x383 PUSH2 0x7CB JUMP JUMPDEST PUSH1 0x20 MUL PUSH1 0x20 ADD ADD MLOAD PUSH1 0x40 MLOAD DUP4 PUSH4 0xFFFFFFFF AND PUSH1 0xE0 SHL DUP2 MSTORE PUSH1 0x4 ADD PUSH2 0x3BC SWAP3 SWAP2 SWAP1 PUSH1 0x1 PUSH1 0x1 PUSH1 0xA0 SHL SUB SWAP3 SWAP1 SWAP3 AND DUP3 MSTORE PUSH1 0x20 DUP3 ADD MSTORE PUSH1 0x40 ADD SWAP1 JUMP JUMPDEST PUSH1 0x20 PUSH1 0x40 MLOAD DUP1 DUP4 SUB DUP2 PUSH1 0x0 DUP8 GAS CALL ISZERO DUP1 ISZERO PUSH2 0x3DB JUMPI RETURNDATASIZE PUSH1 0x0 DUP1 RETURNDATACOPY RETURNDATASIZE PUSH1 0x0 REVERT JUMPDEST POP POP POP POP PUSH1 0x40 MLOAD RETURNDATASIZE PUSH1 0x1F NOT PUSH1 0x1F DUP3 ADD AND DUP3 ADD DUP1 PUSH1 0x40 MSTORE POP DUP2 ADD SWAP1 PUSH2 0x3FF SWAP2 SWAP1 PUSH2 0x808 JUMP JUMPDEST POP DUP3 PUSH1 0x1 PUSH1 0x1 PUSH1 0xA0 SHL SUB AND PUSH4 0x38ED1739 DUP4 PUSH1 0x1 DUP2 MLOAD DUP2 LT PUSH2 0x422 JUMPI PUSH2 0x422 PUSH2 0x7CB JUMP JUMPDEST PUSH1 0x20 MUL PUSH1 0x20 ADD ADD MLOAD DUP14 DUP13 DUP13 DUP13 PUSH1 0x40 MLOAD DUP7 PUSH4 0xFFFFFFFF AND PUSH1 0xE0 SHL DUP2 MSTORE PUSH1 0x4 ADD PUSH2 0x44E SWAP6 SWAP5 SWAP4 SWAP3 SWAP2 SWAP1 PUSH2 0x875 JUMP JUMPDEST PUSH1 0x0 PUSH1 0x40 MLOAD DUP1 DUP4 SUB DUP2 PUSH1 0x0 DUP8 GAS CALL ISZERO DUP1 ISZERO PUSH2 0x46D JUMPI RETURNDATASIZE PUSH1 0x0 DUP1 RETURNDATACOPY RETURNDATASIZE PUSH1 0x0 REVERT JUMPDEST POP POP POP POP PUSH1 0x40 MLOAD RETURNDATASIZE PUSH1 0x0 DUP3 RETURNDATACOPY PUSH1 0x1F RETURNDATASIZE SWAP1 DUP2 ADD PUSH1 0x1F NOT AND DUP3 ADD PUSH1 0x40 MSTORE PUSH2 0x495 SWAP2 SWAP1 DUP2 ADD SWAP1 PUSH2 0x8B1 JUMP JUMPDEST POP PUSH2 0x4B7 PUSH1 0x40 MLOAD DUP1 PUSH1 0x60 ADD PUSH1 0x40 MSTORE DUP1 PUSH1 0x21 DUP2 MSTORE PUSH1 0x20 ADD PUSH2 0x9CB PUSH1 0x21 SWAP2 CODECOPY PUSH2 0x5AA JUMP JUMPDEST PUSH1 0x40 MLOAD PUSH4 0x70A08231 PUSH1 0xE0 SHL DUP2 MSTORE ADDRESS PUSH1 0x4 DUP3 ADD MSTORE PUSH1 0x1 PUSH1 0x1 PUSH1 0xA0 SHL SUB DUP8 AND SWAP1 PUSH4 0xA9059CBB SWAP1 CALLER SWAP1 DUP4 SWAP1 PUSH4 0x70A08231 SWAP1 PUSH1 0x24 ADD PUSH1 0x20 PUSH1 0x40 MLOAD DUP1 DUP4 SUB DUP2 DUP7 GAS STATICCALL ISZERO DUP1 ISZERO PUSH2 0x505 JUMPI RETURNDATASIZE PUSH1 0x0 DUP1 RETURNDATACOPY RETURNDATASIZE PUSH1 0x0 REVERT JUMPDEST POP POP POP POP PUSH1 0x40 MLOAD RETURNDATASIZE PUSH1 0x1F NOT PUSH1 0x1F DUP3 ADD AND DUP3 ADD DUP1 PUSH1 0x40 MSTORE POP DUP2 ADD SWAP1 PUSH2 0x529 SWAP2 SWAP1 PUSH2 0x963 JUMP JUMPDEST PUSH1 0x40 MLOAD PUSH1 0x1 PUSH1 0x1 PUSH1 0xE0 SHL SUB NOT PUSH1 0xE0 DUP6 SWAP1 SHL AND DUP2 MSTORE PUSH1 0x1 PUSH1 0x1 PUSH1 0xA0 SHL SUB SWAP1 SWAP3 AND PUSH1 0x4 DUP4 ADD MSTORE PUSH1 0x24 DUP3 ADD MSTORE PUSH1 0x44 ADD PUSH1 0x20 PUSH1 0x40 MLOAD DUP1 DUP4 SUB DUP2 PUSH1 0x0 DUP8 GAS CALL ISZERO DUP1 ISZERO PUSH2 0x574 JUMPI RETURNDATASIZE PUSH1 0x0 DUP1 RETURNDATACOPY RETURNDATASIZE PUSH1 0x0 REVERT JUMPDEST POP POP POP POP PUSH1 0x40 MLOAD RETURNDATASIZE PUSH1 0x1F NOT PUSH1 0x1F DUP3 ADD AND DUP3 ADD DUP1 PUSH1 0x40 MSTORE POP DUP2 ADD SWAP1 PUSH2 0x598 SWAP2 SWAP1 PUSH2 0x808 JUMP JUMPDEST POP POP POP POP POP POP POP POP POP POP POP POP POP POP POP POP JUMP JUMPDEST PUSH2 0x5ED DUP2 PUSH1 0x40 MLOAD PUSH1 0x24 ADD PUSH2 0x5BE SWAP2 SWAP1 PUSH2 0x97C JUMP JUMPDEST PUSH1 0x40 DUP1 MLOAD PUSH1 0x1F NOT DUP2 DUP5 SUB ADD DUP2 MSTORE SWAP2 SWAP1 MSTORE PUSH1 0x20 DUP2 ADD DUP1 MLOAD PUSH1 0x1 PUSH1 0x1 PUSH1 0xE0 SHL SUB AND PUSH4 0x104C13EB PUSH1 0xE2 SHL OR SWAP1 MSTORE PUSH2 0x5F0 JUMP JUMPDEST POP JUMP JUMPDEST PUSH2 0x5ED DUP2 PUSH1 0x0 PUSH11 0x636F6E736F6C652E6C6F67 SWAP1 POP PUSH1 0x0 DUP1 DUP4 MLOAD PUSH1 0x20 DUP6 ADD DUP5 GAS STATICCALL POP POP POP JUMP JUMPDEST DUP1 CALLDATALOAD PUSH1 0x1 PUSH1 0x1 PUSH1 0xA0 SHL SUB DUP2 AND DUP2 EQ PUSH2 0x62C JUMPI PUSH1 0x0 DUP1 REVERT JUMPDEST SWAP2 SWAP1 POP JUMP JUMPDEST PUSH4 0x4E487B71 PUSH1 0xE0 SHL PUSH1 0x0 MSTORE PUSH1 0x41 PUSH1 0x4 MSTORE PUSH1 0x24 PUSH1 0x0 REVERT JUMPDEST PUSH1 0x40 MLOAD PUSH1 0x1F DUP3 ADD PUSH1 0x1F NOT AND DUP2 ADD PUSH8 0xFFFFFFFFFFFFFFFF DUP2 GT DUP3 DUP3 LT OR ISZERO PUSH2 0x670 JUMPI PUSH2 0x670 PUSH2 0x631 JUMP JUMPDEST PUSH1 0x40 MSTORE SWAP2 SWAP1 POP JUMP JUMPDEST PUSH1 0x0 PUSH8 0xFFFFFFFFFFFFFFFF DUP3 GT ISZERO PUSH2 0x692 JUMPI PUSH2 0x692 PUSH2 0x631 JUMP JUMPDEST POP PUSH1 0x5 SHL PUSH1 0x20 ADD SWAP1 JUMP JUMPDEST PUSH1 0x0 DUP3 PUSH1 0x1F DUP4 ADD SLT PUSH2 0x6AD JUMPI PUSH1 0x0 DUP1 REVERT JUMPDEST DUP2 CALLDATALOAD PUSH1 0x20 PUSH2 0x6C2 PUSH2 0x6BD DUP4 PUSH2 0x678 JUMP JUMPDEST PUSH2 0x647 JUMP JUMPDEST DUP3 DUP2 MSTORE PUSH1 0x5 SWAP3 SWAP1 SWAP3 SHL DUP5 ADD DUP2 ADD SWAP2 DUP2 DUP2 ADD SWAP1 DUP7 DUP5 GT ISZERO PUSH2 0x6E1 JUMPI PUSH1 0x0 DUP1 REVERT JUMPDEST DUP3 DUP7 ADD JUMPDEST DUP5 DUP2 LT ISZERO PUSH2 0x703 JUMPI PUSH2 0x6F6 DUP2 PUSH2 0x615 JUMP JUMPDEST DUP4 MSTORE SWAP2 DUP4 ADD SWAP2 DUP4 ADD PUSH2 0x6E5 JUMP JUMPDEST POP SWAP7 SWAP6 POP POP POP POP POP POP JUMP JUMPDEST PUSH1 0x0 DUP1 PUSH1 0x0 DUP1 PUSH1 0x0 DUP1 PUSH1 0x0 DUP1 PUSH1 0x0 PUSH2 0x120 DUP11 DUP13 SUB SLT ISZERO PUSH2 0x72D JUMPI PUSH1 0x0 DUP1 REVERT JUMPDEST PUSH2 0x736 DUP11 PUSH2 0x615 JUMP JUMPDEST SWAP9 POP PUSH2 0x744 PUSH1 0x20 DUP12 ADD PUSH2 0x615 JUMP JUMPDEST SWAP8 POP PUSH1 0x40 DUP11 ADD CALLDATALOAD SWAP7 POP PUSH1 0x60 DUP11 ADD CALLDATALOAD SWAP6 POP PUSH1 0x80 DUP11 ADD CALLDATALOAD SWAP5 POP PUSH1 0xA0 DUP11 ADD CALLDATALOAD PUSH8 0xFFFFFFFFFFFFFFFF DUP1 DUP3 GT ISZERO PUSH2 0x776 JUMPI PUSH1 0x0 DUP1 REVERT JUMPDEST PUSH2 0x782 DUP14 DUP4 DUP15 ADD PUSH2 0x69C JUMP JUMPDEST SWAP6 POP PUSH1 0xC0 DUP13 ADD CALLDATALOAD SWAP2 POP DUP1 DUP3 GT ISZERO PUSH2 0x798 JUMPI PUSH1 0x0 DUP1 REVERT JUMPDEST POP PUSH2 0x7A5 DUP13 DUP3 DUP14 ADD PUSH2 0x69C JUMP JUMPDEST SWAP4 POP POP PUSH2 0x7B4 PUSH1 0xE0 DUP12 ADD PUSH2 0x615 JUMP JUMPDEST SWAP2 POP PUSH2 0x100 DUP11 ADD CALLDATALOAD SWAP1 POP SWAP3 SWAP6 SWAP9 POP SWAP3 SWAP6 SWAP9 POP SWAP3 SWAP6 SWAP9 JUMP JUMPDEST PUSH4 0x4E487B71 PUSH1 0xE0 SHL PUSH1 0x0 MSTORE PUSH1 0x32 PUSH1 0x4 MSTORE PUSH1 0x24 PUSH1 0x0 REVERT JUMPDEST DUP2 DUP2 SUB DUP2 DUP2 GT ISZERO PUSH2 0x802 JUMPI PUSH4 0x4E487B71 PUSH1 0xE0 SHL PUSH1 0x0 MSTORE PUSH1 0x11 PUSH1 0x4 MSTORE PUSH1 0x24 PUSH1 0x0 REVERT JUMPDEST SWAP3 SWAP2 POP POP JUMP JUMPDEST PUSH1 0x0 PUSH1 0x20 DUP3 DUP5 SUB SLT ISZERO PUSH2 0x81A JUMPI PUSH1 0x0 DUP1 REVERT JUMPDEST DUP2 MLOAD DUP1 ISZERO ISZERO DUP2 EQ PUSH2 0x82A JUMPI PUSH1 0x0 DUP1 REVERT JUMPDEST SWAP4 SWAP3 POP POP POP JUMP JUMPDEST PUSH1 0x0 DUP2 MLOAD DUP1 DUP5 MSTORE PUSH1 0x20 DUP1 DUP6 ADD SWAP5 POP DUP1 DUP5 ADD PUSH1 0x0 JUMPDEST DUP4 DUP2 LT ISZERO PUSH2 0x86A JUMPI DUP2 MLOAD PUSH1 0x1 PUSH1 0x1 PUSH1 0xA0 SHL SUB AND DUP8 MSTORE SWAP6 DUP3 ADD SWAP6 SWAP1 DUP3 ADD SWAP1 PUSH1 0x1 ADD PUSH2 0x845 JUMP JUMPDEST POP SWAP5 SWAP6 SWAP5 POP POP POP POP POP JUMP JUMPDEST DUP6 DUP2 MSTORE DUP5 PUSH1 0x20 DUP3 ADD MSTORE PUSH1 0xA0 PUSH1 0x40 DUP3 ADD MSTORE PUSH1 0x0 PUSH2 0x894 PUSH1 0xA0 DUP4 ADD DUP7 PUSH2 0x831 JUMP JUMPDEST PUSH1 0x1 PUSH1 0x1 PUSH1 0xA0 SHL SUB SWAP5 SWAP1 SWAP5 AND PUSH1 0x60 DUP4 ADD MSTORE POP PUSH1 0x80 ADD MSTORE SWAP4 SWAP3 POP POP POP JUMP JUMPDEST PUSH1 0x0 PUSH1 0x20 DUP1 DUP4 DUP6 SUB SLT ISZERO PUSH2 0x8C4 JUMPI PUSH1 0x0 DUP1 REVERT JUMPDEST DUP3 MLOAD PUSH8 0xFFFFFFFFFFFFFFFF DUP2 GT ISZERO PUSH2 0x8DB JUMPI PUSH1 0x0 DUP1 REVERT JUMPDEST DUP4 ADD PUSH1 0x1F DUP2 ADD DUP6 SGT PUSH2 0x8EC JUMPI PUSH1 0x0 DUP1 REVERT JUMPDEST DUP1 MLOAD PUSH2 0x8FA PUSH2 0x6BD DUP3 PUSH2 0x678 JUMP JUMPDEST DUP2 DUP2 MSTORE PUSH1 0x5 SWAP2 SWAP1 SWAP2 SHL DUP3 ADD DUP4 ADD SWAP1 DUP4 DUP2 ADD SWAP1 DUP8 DUP4 GT ISZERO PUSH2 0x919 JUMPI PUSH1 0x0 DUP1 REVERT JUMPDEST SWAP3 DUP5 ADD SWAP3 JUMPDEST DUP3 DUP5 LT ISZERO PUSH2 0x937 JUMPI DUP4 MLOAD DUP3 MSTORE SWAP3 DUP5 ADD SWAP3 SWAP1 DUP5 ADD SWAP1 PUSH2 0x91E JUMP JUMPDEST SWAP8 SWAP7 POP POP POP POP POP POP POP JUMP JUMPDEST DUP3 DUP2 MSTORE PUSH1 0x40 PUSH1 0x20 DUP3 ADD MSTORE PUSH1 0x0 PUSH2 0x95B PUSH1 0x40 DUP4 ADD DUP5 PUSH2 0x831 JUMP JUMPDEST SWAP5 SWAP4 POP POP POP POP JUMP JUMPDEST PUSH1 0x0 PUSH1 0x20 DUP3 DUP5 SUB SLT ISZERO PUSH2 0x975 JUMPI PUSH1 0x0 DUP1 REVERT JUMPDEST POP MLOAD SWAP2 SWAP1 POP JUMP JUMPDEST PUSH1 0x0 PUSH1 0x20 DUP1 DUP4 MSTORE DUP4 MLOAD DUP1 DUP3 DUP6 ADD MSTORE PUSH1 0x0 JUMPDEST DUP2 DUP2 LT ISZERO PUSH2 0x9A9 JUMPI DUP6 DUP2 ADD DUP4 ADD MLOAD DUP6 DUP3 ADD PUSH1 0x40 ADD MSTORE DUP3 ADD PUSH2 0x98D JUMP JUMPDEST POP PUSH1 0x0 PUSH1 0x40 DUP3 DUP7 ADD ADD MSTORE PUSH1 0x40 PUSH1 0x1F NOT PUSH1 0x1F DUP4 ADD AND DUP6 ADD ADD SWAP3 POP POP POP SWAP3 SWAP2 POP POP JUMP INVALID MSTORE8 PUSH24 0x617053696E676C653A207365636F6E64207377617020636F PUSH14 0x706C65746564A264697066735822 SLT KECCAK256 0xC0 CHAINID MSTORE8 PUSH31 0xC15A5040CD36BAA60042E7C6187CF47BA96D94613BBE99F612859DF64736F PUSH13 0x63430008130033000000000000 "},"methodIdentifiers":{"checkOwner()":"cdbce03d","swapSingle(address,address,uint256,uint256,uint256,address[],address[],address,uint256)":"0c05c7af"}}}}}