{
  "_format": "hh-sol-artifact-1",
  "contractName": "tiny",
  "sourceName": "contracts/v2/tiny.sol",
  "abi": [
    {
      "inputs": [],
      "name": "howTiny",
      "outputs": [
        {
          "internalType": "string",
          "name": "",
          "type": "string"
        }
      ],
      "stateMutability": "view",
      "type": "function"
    }
  ],
  "bytecode": "0x608060405234801561001057600080fd5b5060df8061001f6000396000f3fe6080604052348015600f57600080fd5b506004361060285760003560e01c8063e2660b8b14602d575b600080fd5b6040805180820182526007815266736f2074696e7960c81b6020820152905160549190605d565b60405180910390f35b600060208083528351808285015260005b81811015608857858101830151858201604001528201606e565b506000604082860101526040601f19601f830116850101925050509291505056fea2646970667358221220cadb7f45a2b66fab6cd1d55272ec8ab5e3ecc323478d68a75a74158aab40c31564736f6c63430008130033",
  "linkReferences": {},
  "deployedLinkReferences": {}
}