{
  "_format": "hh-sol-artifact-1",
  "contractName": "Swap",
  "sourceName": "contracts/v2/swap.sol",
  "abi": [
    {
      "inputs": [
        {
          "internalType": "address",
          "name": "_owner",
          "type": "address"
        }
      ],
      "stateMutability": "nonpayable",
      "type": "constructor"
    },
    {
      "anonymous": false,
      "inputs": [
        {
          "indexed": false,
          "internalType": "string",
          "name": "message",
          "type": "string"
        }
      ],
      "name": "log",
      "type": "event"
    },
    {
      "anonymous": false,
      "inputs": [
        {
          "indexed": false,
          "internalType": "string",
          "name": "message",
          "type": "string"
        },
        {
          "indexed": false,
          "internalType": "address",
          "name": "val",
          "type": "address"
        }
      ],
      "name": "logAddress",
      "type": "event"
    },
    {
      "anonymous": false,
      "inputs": [
        {
          "indexed": false,
          "internalType": "string",
          "name": "message",
          "type": "string"
        },
        {
          "indexed": false,
          "internalType": "uint256",
          "name": "val",
          "type": "uint256"
        }
      ],
      "name": "logValue",
      "type": "event"
    },
    {
      "inputs": [],
      "name": "checkOwner",
      "outputs": [
        {
          "internalType": "address",
          "name": "",
          "type": "address"
        }
      ],
      "stateMutability": "view",
      "type": "function"
    },
    {
      "inputs": [
        {
          "internalType": "address",
          "name": "routerAID",
          "type": "address"
        },
        {
          "internalType": "address",
          "name": "routerBID",
          "type": "address"
        },
        {
          "internalType": "uint256",
          "name": "tradeSize",
          "type": "uint256"
        },
        {
          "internalType": "uint256",
          "name": "amountOutA",
          "type": "uint256"
        },
        {
          "internalType": "address[]",
          "name": "path0",
          "type": "address[]"
        },
        {
          "internalType": "address[]",
          "name": "path1",
          "type": "address[]"
        },
        {
          "internalType": "address",
          "name": "to",
          "type": "address"
        },
        {
          "internalType": "uint256",
          "name": "deadline",
          "type": "uint256"
        }
      ],
      "name": "swapMulti",
      "outputs": [],
      "stateMutability": "nonpayable",
      "type": "function"
    },
    {
      "inputs": [
        {
          "internalType": "address",
          "name": "routerAID",
          "type": "address"
        },
        {
          "internalType": "address",
          "name": "routerBID",
          "type": "address"
        },
        {
          "internalType": "uint256",
          "name": "tradeSize",
          "type": "uint256"
        },
        {
          "internalType": "uint256",
          "name": "amountOutA",
          "type": "uint256"
        },
        {
          "internalType": "address[]",
          "name": "path0",
          "type": "address[]"
        },
        {
          "internalType": "address[]",
          "name": "path1",
          "type": "address[]"
        },
        {
          "internalType": "address",
          "name": "to",
          "type": "address"
        },
        {
          "internalType": "uint256",
          "name": "deadline",
          "type": "uint256"
        }
      ],
      "name": "swapSingle",
      "outputs": [],
      "stateMutability": "nonpayable",
      "type": "function"
    }
  ],
  "bytecode": "0x608060405234801561001057600080fd5b50604051611a98380380611a9883398101604081905261002f91610054565b600080546001600160a01b0319166001600160a01b0392909216919091179055610084565b60006020828403121561006657600080fd5b81516001600160a01b038116811461007d57600080fd5b9392505050565b611a05806100936000396000f3fe608060405234801561001057600080fd5b50600436106100415760003560e01c806306204fb91461004657806329b9d97b1461005b578063cdbce03d1461006e575b600080fd5b610059610054366004611580565b61008d565b005b610059610069366004611580565b610415565b600054604080516001600160a01b039092168252519081900360200190f35b6100ae6040518060600160405280602581526020016119ab602591396106b2565b6000846000815181106100c3576100c3611633565b602002602001015190506000856001815181106100e2576100e2611633565b6020908102919091010151905089896100fd848484846106f8565b6040516370a0823160e01b81523360048201526000906001600160a01b038616906370a0823190602401602060405180830381865afa158015610144573d6000803e3d6000fd5b505050506040513d601f19601f820116820180604052508101906101689190611649565b90506101956040518060400160405280600981526020016803130b630b731b29d160bd1b815250826108bc565b8a8110156101f65760405162461bcd60e51b8152602060048201526024808201527f537761704d756c74693a20494e53554646494349454e545f494e5055545f414d60448201526313d5539560e21b60648201526084015b60405180910390fd5b604051636eb1769f60e11b81523360048201523060248201526000906001600160a01b0387169063dd62ed3e90604401602060405180830381865afa158015610243573d6000803e3d6000fd5b505050506040513d601f19601f820116820180604052508101906102679190611649565b90506102966040518060400160405280600b81526020016a030b63637bbb0b731b29d160ad1b815250826108bc565b8b8110156102e65760405162461bcd60e51b815260206004820181905260248201527f537761704d756c74693a20434f4e54524143545f4e4f545f415050524f56454460448201526064016101ed565b6103136040518060400160405280600b81526020016a03a3930b232a9b4bd329d160ad1b8152508d6108bc565b61032384848e8e8e8e8e8e610905565b6040516370a0823160e01b81523060048201526001600160a01b0387169063a9059cbb90339083906370a0823190602401602060405180830381865afa158015610371573d6000803e3d6000fd5b505050506040513d601f19601f820116820180604052508101906103959190611649565b6040516001600160e01b031960e085901b1681526001600160a01b03909216600483015260248201526044016020604051808303816000875af11580156103e0573d6000803e3d6000fd5b505050506040513d601f19601f820116820180604052508101906104049190611662565b505050505050505050505050505050565b610436604051806060016040528060278152602001611984602791396106b2565b60008460008151811061044b5761044b611633565b6020026020010151905060008560018151811061046a5761046a611633565b602090810291909101015190508989610485848484846106f8565b6040516370a0823160e01b81523360048201526000906001600160a01b038616906370a0823190602401602060405180830381865afa1580156104cc573d6000803e3d6000fd5b505050506040513d601f19601f820116820180604052508101906104f09190611649565b905061051d6040518060400160405280600981526020016803130b630b731b29d160bd1b815250826108bc565b8a81101561057b5760405162461bcd60e51b815260206004820152602560248201527f5377617053696e676c653a20494e53554646494349454e545f494e5055545f416044820152641353d5539560da1b60648201526084016101ed565b604051636eb1769f60e11b81523360048201523060248201526000906001600160a01b0387169063dd62ed3e90604401602060405180830381865afa1580156105c8573d6000803e3d6000fd5b505050506040513d601f19601f820116820180604052508101906105ec9190611649565b905061061b6040518060400160405280600b81526020016a030b63637bbb0b731b29d160ad1b815250826108bc565b8b8110156106755760405162461bcd60e51b815260206004820152602160248201527f5377617053696e676c653a20434f4e54524143545f4e4f545f415050524f56456044820152601160fa1b60648201526084016101ed565b6106a26040518060400160405280600b81526020016a03a3930b232a9b4bd329d160ad1b8152508d6108bc565b61032384848e8e8e8e8e8e610c7a565b6106f5816040516024016106c691906116d1565b60408051601f198184030181529190526020810180516001600160e01b031663104c13eb60e21b17905261115b565b50565b60405163095ea7b360e01b81526001600160a01b038381166004830152600019602483015285169063095ea7b3906044016020604051808303816000875af1158015610748573d6000803e3d6000fd5b505050506040513d601f19601f8201168201806040525081019061076c9190611662565b6107b85760405162461bcd60e51b815260206004820152601760248201527f617070726f766520726f7574657241206661696c65642e00000000000000000060448201526064016101ed565b60405163095ea7b360e01b81526001600160a01b038281166004830152600019602483015284169063095ea7b3906044016020604051808303816000875af1158015610808573d6000803e3d6000fd5b505050506040513d601f19601f8201168201806040525081019061082c9190611662565b6108785760405162461bcd60e51b815260206004820152601760248201527f617070726f766520726f7574657242206661696c65642e00000000000000000060448201526064016101ed565b6108b66040518060400160405280601b81526020017f5377617053696e676c653a20746f6b656e7320617070726f76656400000000008152506106b2565b50505050565b61090182826040516024016108d29291906116e4565b60408051601f198184030181529190526020810180516001600160e01b0316632d839cb360e21b17905261115b565b5050565b60008460008151811061091a5761091a611633565b6020026020010151905060008560018151811061093957610939611633565b6020026020010151905060008a6001600160a01b031663d06ca61f8a896040518363ffffffff1660e01b815260040161097392919061174a565b600060405180830381865afa158015610990573d6000803e3d6000fd5b505050506040513d6000823e601f3d908101601f191682016040526109b8919081019061176b565b905087816001815181106109ce576109ce611633565b602002602001015110156109f45760405162461bcd60e51b81526004016101ed906117fc565b60405163d06ca61f60e01b81526000906001600160a01b038c169063d06ca61f90610a25908c908b9060040161174a565b600060405180830381865afa158015610a42573d6000803e3d6000fd5b505050506040513d6000823e601f3d908101601f19168201604052610a6a919081019061176b565b90508981600181518110610a8057610a80611633565b60200260200101511015610aa65760405162461bcd60e51b81526004016101ed90611850565b6040516370a0823160e01b81523360048201526000906001600160a01b038616906370a0823190602401602060405180830381865afa158015610aed573d6000803e3d6000fd5b505050506040513d601f19601f82011682018060405250810190610b119190611649565b90508a811015610b335760405162461bcd60e51b81526004016101ed906118a3565b610b3f85858f8f6106f8565b610b4c85858f8f8f611164565b60008d6001600160a01b03166338ed17398d86600181518110610b7157610b71611633565b60200260200101518d308c6040518663ffffffff1660e01b8152600401610b9c9594939291906118ea565b6000604051808303816000875af1158015610bbb573d6000803e3d6000fd5b505050506040513d6000823e601f3d908101601f19168201604052610be3919081019061176b565b90508c6001600160a01b0316638803dbee82600181518110610c0757610c07611633565b60200260200101518e8c8c8c6040518663ffffffff1660e01b8152600401610c339594939291906118ea565b6000604051808303816000875af1158015610c52573d6000803e3d6000fd5b505050506040513d6000823e601f3d908101601f19168201604052610404919081019061176b565b600084600081518110610c8f57610c8f611633565b60200260200101519050600085600181518110610cae57610cae611633565b6020026020010151905060008a6001600160a01b031663d06ca61f8a896040518363ffffffff1660e01b8152600401610ce892919061174a565b600060405180830381865afa158015610d05573d6000803e3d6000fd5b505050506040513d6000823e601f3d908101601f19168201604052610d2d919081019061176b565b90508781600181518110610d4357610d43611633565b60200260200101511015610d695760405162461bcd60e51b81526004016101ed906117fc565b60405163d06ca61f60e01b81526000906001600160a01b038c169063d06ca61f90610d9a908c908b9060040161174a565b600060405180830381865afa158015610db7573d6000803e3d6000fd5b505050506040513d6000823e601f3d908101601f19168201604052610ddf919081019061176b565b90508981600181518110610df557610df5611633565b602002602001015111610e1a5760405162461bcd60e51b81526004016101ed90611850565b6040516370a0823160e01b81523360048201526000906001600160a01b038616906370a0823190602401602060405180830381865afa158015610e61573d6000803e3d6000fd5b505050506040513d601f19601f82011682018060405250810190610e859190611649565b90508a811015610ea75760405162461bcd60e51b81526004016101ed906118a3565b610eb385858f8f6106f8565b610ec085858f8f8f611164565b610f4960405180606001604052806036815260200161194e603691396040516370a0823160e01b81523060048201526001600160a01b038816906370a0823190602401602060405180830381865afa158015610f20573d6000803e3d6000fd5b505050506040513d601f19601f82011682018060405250810190610f449190611649565b6108bc565b60008d6001600160a01b03166338ed17398d86600181518110610f6e57610f6e611633565b60200260200101518d308c6040518663ffffffff1660e01b8152600401610f999594939291906118ea565b6000604051808303816000875af1158015610fb8573d6000803e3d6000fd5b505050506040513d6000823e601f3d908101601f19168201604052610fe0919081019061176b565b905061102660405180604001604052806008815260200167039bbb0b824b71d160c51b8152508260018151811061101957611019611633565b60200260200101516108bc565b60008d6001600160a01b03166338ed17398360018151811061104a5761104a611633565b60200260200101518660018151811061106557611065611633565b60200260200101518d8d8d6040518663ffffffff1660e01b81526004016110909594939291906118ea565b6000604051808303816000875af11580156110af573d6000803e3d6000fd5b505050506040513d6000823e601f3d908101601f191682016040526110d7919081019061176b565b905061111160405180604001604052806009815260200168039bbb0b827baba1d160bd1b8152508260018151811061101957611019611633565b610404604051806040016040528060088152602001670283937b334ba1d160c51b8152508e8360018151811061114957611149611633565b6020026020010151610f449190611926565b6106f581611466565b604051636eb1769f60e11b81523060048201526001600160a01b0384811660248301526000919087169063dd62ed3e90604401602060405180830381865afa1580156111b4573d6000803e3d6000fd5b505050506040513d601f19601f820116820180604052508101906111d89190611649565b90506112196040518060400160405280602081526020017f436f6e747261637420616c6c6f77616e636520666f7220726f75746572413a20815250826108bc565b604051636eb1769f60e11b81523060048201526001600160a01b0384811660248301526000919087169063dd62ed3e90604401602060405180830381865afa158015611269573d6000803e3d6000fd5b505050506040513d601f19601f8201168201806040525081019061128d9190611649565b90506112ce6040518060400160405280602081526020017f436f6e747261637420616c6c6f77616e636520666f7220726f75746572423a20815250826108bc565b828210156113345760405162461bcd60e51b815260206004820152602d60248201527f5377617053696e676c653a20434f4e54524143545f4e4f545f415050524f564560448201526c445f464f525f524f555445524160981b60648201526084016101ed565b8281101561139a5760405162461bcd60e51b815260206004820152602d60248201527f5377617053696e676c653a20434f4e54524143545f4e4f545f415050524f564560448201526c222fa327a92fa927aaaa22a92160991b60648201526084016101ed565b6040516323b872dd60e01b8152336004820152306024820152604481018490526001600160a01b038816906323b872dd906064016020604051808303816000875af11580156113ed573d6000803e3d6000fd5b505050506040513d601f19601f820116820180604052508101906114119190611662565b61145d5760405162461bcd60e51b815260206004820152601f60248201527f7472616e7366657246726f6d206d73672e73656e646572206661696c65642e0060448201526064016101ed565b50505050505050565b60006a636f6e736f6c652e6c6f679050600080835160208501845afa505050565b80356001600160a01b038116811461149e57600080fd5b919050565b634e487b7160e01b600052604160045260246000fd5b604051601f8201601f1916810167ffffffffffffffff811182821017156114e2576114e26114a3565b604052919050565b600067ffffffffffffffff821115611504576115046114a3565b5060051b60200190565b600082601f83011261151f57600080fd5b8135602061153461152f836114ea565b6114b9565b82815260059290921b8401810191818101908684111561155357600080fd5b8286015b848110156115755761156881611487565b8352918301918301611557565b509695505050505050565b600080600080600080600080610100898b03121561159d57600080fd5b6115a689611487565b97506115b460208a01611487565b96506040890135955060608901359450608089013567ffffffffffffffff808211156115df57600080fd5b6115eb8c838d0161150e565b955060a08b013591508082111561160157600080fd5b5061160e8b828c0161150e565b93505061161d60c08a01611487565b915060e089013590509295985092959890939650565b634e487b7160e01b600052603260045260246000fd5b60006020828403121561165b57600080fd5b5051919050565b60006020828403121561167457600080fd5b8151801515811461168457600080fd5b9392505050565b6000815180845260005b818110156116b157602081850181015186830182015201611695565b506000602082860101526020601f19601f83011685010191505092915050565b602081526000611684602083018461168b565b6040815260006116f7604083018561168b565b90508260208301529392505050565b600081518084526020808501945080840160005b8381101561173f5781516001600160a01b03168752958201959082019060010161171a565b509495945050505050565b8281526040602082015260006117636040830184611706565b949350505050565b6000602080838503121561177e57600080fd5b825167ffffffffffffffff81111561179557600080fd5b8301601f810185136117a657600080fd5b80516117b461152f826114ea565b81815260059190911b820183019083810190878311156117d357600080fd5b928401925b828410156117f1578351825292840192908401906117d8565b979650505050505050565b60208082526034908201527f4572726f72205377617053696e676c653a20726f75746572412e676574416d6f604082015273756e74734f7574203c20616d6f756e744f75744160601b606082015260800190565b60208082526033908201527f4572726f72205377617053696e676c653a20726f75746572422e676574416d6f604082015272756e74734f7574203c20747261646553697a6560681b606082015260800190565b60208082526027908201527f5377617053696e676c653a20494e53554646494349454e545f57414c4c45545f60408201526642414c414e434560c81b606082015260800190565b85815284602082015260a06040820152600061190960a0830186611706565b6001600160a01b0394909416606083015250608001529392505050565b8181038181111561194757634e487b7160e01b600052601160045260246000fd5b9291505056fe746f6b656e73207478276420616e6420617070726f76616c7320646f6e652e204e657720436f6e74726163742062616c616e63653a205377617053696e676c653a207377617053696e676c6520636f6e747261637420656e7465726564537761704d756c74693a20737761704d756c746920636f6e747261637420656e7465726564a26469706673582212207728f23c05146b759c3cc21d0a12992ba5e65aaa3d1f41e9edbf4dde196a32cc64736f6c63430008130033",
  "linkReferences": {},
  "deployedLinkReferences": {}
}