{
  "_format": "hh-sol-artifact-1",
  "contractName": "Swap",
  "sourceName": "contracts/v2/swap.sol",
  "abi": [
    {
      "inputs": [
        {
          "internalType": "address",
          "name": "_owner",
          "type": "address"
        }
      ],
      "stateMutability": "nonpayable",
      "type": "constructor"
    },
    {
      "anonymous": false,
      "inputs": [
        {
          "indexed": false,
          "internalType": "string",
          "name": "message",
          "type": "string"
        }
      ],
      "name": "log",
      "type": "event"
    },
    {
      "anonymous": false,
      "inputs": [
        {
          "indexed": false,
          "internalType": "string",
          "name": "message",
          "type": "string"
        },
        {
          "indexed": false,
          "internalType": "address",
          "name": "val",
          "type": "address"
        }
      ],
      "name": "logAddress",
      "type": "event"
    },
    {
      "anonymous": false,
      "inputs": [
        {
          "indexed": false,
          "internalType": "string",
          "name": "message",
          "type": "string"
        },
        {
          "indexed": false,
          "internalType": "uint256",
          "name": "val",
          "type": "uint256"
        }
      ],
      "name": "logValue",
      "type": "event"
    },
    {
      "inputs": [],
      "name": "checkOwner",
      "outputs": [
        {
          "internalType": "address",
          "name": "",
          "type": "address"
        }
      ],
      "stateMutability": "view",
      "type": "function"
    },
    {
      "inputs": [
        {
          "internalType": "address",
          "name": "routerAID",
          "type": "address"
        },
        {
          "internalType": "address",
          "name": "routerBID",
          "type": "address"
        },
        {
          "internalType": "uint256",
          "name": "tradeSize",
          "type": "uint256"
        },
        {
          "internalType": "uint256",
          "name": "amountOutA",
          "type": "uint256"
        },
        {
          "internalType": "address[]",
          "name": "path0",
          "type": "address[]"
        },
        {
          "internalType": "address[]",
          "name": "path1",
          "type": "address[]"
        },
        {
          "internalType": "address",
          "name": "to",
          "type": "address"
        },
        {
          "internalType": "uint256",
          "name": "deadline",
          "type": "uint256"
        }
      ],
      "name": "swapMulti",
      "outputs": [],
      "stateMutability": "nonpayable",
      "type": "function"
    },
    {
      "inputs": [
        {
          "internalType": "address",
          "name": "routerAID",
          "type": "address"
        },
        {
          "internalType": "address",
          "name": "routerBID",
          "type": "address"
        },
        {
          "internalType": "uint256",
          "name": "tradeSize",
          "type": "uint256"
        },
        {
          "internalType": "uint256",
          "name": "amountOutA",
          "type": "uint256"
        },
        {
          "internalType": "address[]",
          "name": "path0",
          "type": "address[]"
        },
        {
          "internalType": "address[]",
          "name": "path1",
          "type": "address[]"
        },
        {
          "internalType": "address",
          "name": "to",
          "type": "address"
        },
        {
          "internalType": "uint256",
          "name": "deadline",
          "type": "uint256"
        }
      ],
      "name": "swapSingle",
      "outputs": [],
      "stateMutability": "nonpayable",
      "type": "function"
    }
  ],
  "bytecode": "0x608060405234801561001057600080fd5b50604051611b32380380611b3283398101604081905261002f91610054565b600080546001600160a01b0319166001600160a01b0392909216919091179055610084565b60006020828403121561006657600080fd5b81516001600160a01b038116811461007d57600080fd5b9392505050565b611a9f806100936000396000f3fe608060405234801561001057600080fd5b50600436106100415760003560e01c806306204fb91461004657806329b9d97b1461005b578063cdbce03d1461006e575b600080fd5b6100596100543660046116c1565b61008d565b005b6100596100693660046116c1565b610415565b600054604080516001600160a01b039092168252519081900360200190f35b6100ae604051806060016040528060258152602001611a45602591396106b2565b6000846000815181106100c3576100c3611774565b602002602001015190506000856001815181106100e2576100e2611774565b6020908102919091010151905089896100fd848484846106f8565b6040516370a0823160e01b81523360048201526000906001600160a01b038616906370a0823190602401602060405180830381865afa158015610144573d6000803e3d6000fd5b505050506040513d601f19601f82011682018060405250810190610168919061178a565b90506101956040518060400160405280600981526020016803130b630b731b29d160bd1b815250826108bc565b8a8110156101f65760405162461bcd60e51b8152602060048201526024808201527f537761704d756c74693a20494e53554646494349454e545f494e5055545f414d60448201526313d5539560e21b60648201526084015b60405180910390fd5b604051636eb1769f60e11b81523360048201523060248201526000906001600160a01b0387169063dd62ed3e90604401602060405180830381865afa158015610243573d6000803e3d6000fd5b505050506040513d601f19601f82011682018060405250810190610267919061178a565b90506102966040518060400160405280600b81526020016a030b63637bbb0b731b29d160ad1b815250826108bc565b8b8110156102e65760405162461bcd60e51b815260206004820181905260248201527f537761704d756c74693a20434f4e54524143545f4e4f545f415050524f56454460448201526064016101ed565b6103136040518060400160405280600b81526020016a03a3930b232a9b4bd329d160ad1b8152508d6108bc565b61032384848e8e8e8e8e8e610905565b6040516370a0823160e01b81523060048201526001600160a01b0387169063a9059cbb90339083906370a0823190602401602060405180830381865afa158015610371573d6000803e3d6000fd5b505050506040513d601f19601f82011682018060405250810190610395919061178a565b6040516001600160e01b031960e085901b1681526001600160a01b03909216600483015260248201526044016020604051808303816000875af11580156103e0573d6000803e3d6000fd5b505050506040513d601f19601f8201168201806040525081019061040491906117a3565b505050505050505050505050505050565b610436604051806060016040528060278152602001611a1e602791396106b2565b60008460008151811061044b5761044b611774565b6020026020010151905060008560018151811061046a5761046a611774565b602090810291909101015190508989610485848484846106f8565b6040516370a0823160e01b81523360048201526000906001600160a01b038616906370a0823190602401602060405180830381865afa1580156104cc573d6000803e3d6000fd5b505050506040513d601f19601f820116820180604052508101906104f0919061178a565b905061051d6040518060400160405280600981526020016803130b630b731b29d160bd1b815250826108bc565b8a81101561057b5760405162461bcd60e51b815260206004820152602560248201527f5377617053696e676c653a20494e53554646494349454e545f494e5055545f416044820152641353d5539560da1b60648201526084016101ed565b604051636eb1769f60e11b81523360048201523060248201526000906001600160a01b0387169063dd62ed3e90604401602060405180830381865afa1580156105c8573d6000803e3d6000fd5b505050506040513d601f19601f820116820180604052508101906105ec919061178a565b905061061b6040518060400160405280600b81526020016a030b63637bbb0b731b29d160ad1b815250826108bc565b8b8110156106755760405162461bcd60e51b815260206004820152602160248201527f5377617053696e676c653a20434f4e54524143545f4e4f545f415050524f56456044820152601160fa1b60648201526084016101ed565b6106a26040518060400160405280600b81526020016a03a3930b232a9b4bd329d160ad1b8152508d6108bc565b61032384848e8e8e8e8e8e610d2f565b6106f5816040516024016106c69190611812565b60408051601f198184030181529190526020810180516001600160e01b031663104c13eb60e21b17905261129c565b50565b60405163095ea7b360e01b81526001600160a01b038381166004830152600019602483015285169063095ea7b3906044016020604051808303816000875af1158015610748573d6000803e3d6000fd5b505050506040513d601f19601f8201168201806040525081019061076c91906117a3565b6107b85760405162461bcd60e51b815260206004820152601760248201527f617070726f766520726f7574657241206661696c65642e00000000000000000060448201526064016101ed565b60405163095ea7b360e01b81526001600160a01b038281166004830152600019602483015284169063095ea7b3906044016020604051808303816000875af1158015610808573d6000803e3d6000fd5b505050506040513d601f19601f8201168201806040525081019061082c91906117a3565b6108785760405162461bcd60e51b815260206004820152601760248201527f617070726f766520726f7574657242206661696c65642e00000000000000000060448201526064016101ed565b6108b66040518060400160405280601b81526020017f5377617053696e676c653a20746f6b656e7320617070726f76656400000000008152506106b2565b50505050565b61090182826040516024016108d2929190611825565b60408051601f198184030181529190526020810180516001600160e01b0316632d839cb360e21b17905261129c565b5050565b60008460008151811061091a5761091a611774565b6020026020010151905060008560018151811061093957610939611774565b6020026020010151905060008a6001600160a01b031663d06ca61f8a896040518363ffffffff1660e01b815260040161097392919061188b565b600060405180830381865afa158015610990573d6000803e3d6000fd5b505050506040513d6000823e601f3d908101601f191682016040526109b891908101906118ac565b90506109f260405180604001604052806016815260200175030b6b7bab73a39a7baba209032bc3832b1ba32b21d160551b815250896108bc565b610a4460405180604001604052806016815260200175030b6b7bab73a39a7baba209030b1ba3ab0b61d1d1d160551b81525082600181518110610a3757610a37611774565b60200260200101516108bc565b60008a6001600160a01b031663d06ca61f83600181518110610a6857610a68611774565b6020026020010151896040518363ffffffff1660e01b8152600401610a8e92919061188b565b600060405180830381865afa158015610aab573d6000803e3d6000fd5b505050506040513d6000823e601f3d908101601f19168201604052610ad391908101906118ac565b90508981600181518110610ae957610ae9611774565b602002602001015111610b5b5760405162461bcd60e51b815260206004820152603460248201527f4572726f72205377617053696e676c653a20726f75746572422e676574416d6f604482015273756e74734f7574203d3c20747261646553697a6560601b60648201526084016101ed565b6040516370a0823160e01b81523360048201526000906001600160a01b038616906370a0823190602401602060405180830381865afa158015610ba2573d6000803e3d6000fd5b505050506040513d601f19601f82011682018060405250810190610bc6919061178a565b90508a811015610be85760405162461bcd60e51b81526004016101ed9061193d565b610bf485858f8f6106f8565b610c0185858f8f8f6112a5565b60008d6001600160a01b03166338ed17398d86600181518110610c2657610c26611774565b60200260200101518d308c6040518663ffffffff1660e01b8152600401610c51959493929190611984565b6000604051808303816000875af1158015610c70573d6000803e3d6000fd5b505050506040513d6000823e601f3d908101601f19168201604052610c9891908101906118ac565b90508c6001600160a01b0316638803dbee82600181518110610cbc57610cbc611774565b60200260200101518e8c8c8c6040518663ffffffff1660e01b8152600401610ce8959493929190611984565b6000604051808303816000875af1158015610d07573d6000803e3d6000fd5b505050506040513d6000823e601f3d908101601f1916820160405261040491908101906118ac565b600084600081518110610d4457610d44611774565b60200260200101519050600085600181518110610d6357610d63611774565b6020026020010151905060008a6001600160a01b031663d06ca61f8a896040518363ffffffff1660e01b8152600401610d9d92919061188b565b600060405180830381865afa158015610dba573d6000803e3d6000fd5b505050506040513d6000823e601f3d908101601f19168201604052610de291908101906118ac565b90508781600181518110610df857610df8611774565b60200260200101511015610e6b5760405162461bcd60e51b815260206004820152603460248201527f4572726f72205377617053696e676c653a20726f75746572412e676574416d6f604482015273756e74734f7574203c20616d6f756e744f75744160601b60648201526084016101ed565b60405163d06ca61f60e01b81526000906001600160a01b038c169063d06ca61f90610e9c908c908b9060040161188b565b600060405180830381865afa158015610eb9573d6000803e3d6000fd5b505050506040513d6000823e601f3d908101601f19168201604052610ee191908101906118ac565b90508981600181518110610ef757610ef7611774565b602002602001015111610f685760405162461bcd60e51b815260206004820152603360248201527f4572726f72205377617053696e676c653a20726f75746572422e676574416d6f604482015272756e74734f7574203c20747261646553697a6560681b60648201526084016101ed565b6040516370a0823160e01b81523360048201526000906001600160a01b038616906370a0823190602401602060405180830381865afa158015610faf573d6000803e3d6000fd5b505050506040513d601f19601f82011682018060405250810190610fd3919061178a565b90508a811015610ff55760405162461bcd60e51b81526004016101ed9061193d565b61100185858f8f6106f8565b61100e85858f8f8f6112a5565b6110976040518060600160405280603681526020016119e8603691396040516370a0823160e01b81523060048201526001600160a01b038816906370a0823190602401602060405180830381865afa15801561106e573d6000803e3d6000fd5b505050506040513d601f19601f82011682018060405250810190611092919061178a565b6108bc565b60008d6001600160a01b03166338ed17398d866001815181106110bc576110bc611774565b60200260200101518d308c6040518663ffffffff1660e01b81526004016110e7959493929190611984565b6000604051808303816000875af1158015611106573d6000803e3d6000fd5b505050506040513d6000823e601f3d908101601f1916820160405261112e91908101906118ac565b905061116760405180604001604052806008815260200167039bbb0b824b71d160c51b81525082600181518110610a3757610a37611774565b60008d6001600160a01b03166338ed17398360018151811061118b5761118b611774565b6020026020010151866001815181106111a6576111a6611774565b60200260200101518d8d8d6040518663ffffffff1660e01b81526004016111d1959493929190611984565b6000604051808303816000875af11580156111f0573d6000803e3d6000fd5b505050506040513d6000823e601f3d908101601f1916820160405261121891908101906118ac565b905061125260405180604001604052806009815260200168039bbb0b827baba1d160bd1b81525082600181518110610a3757610a37611774565b610404604051806040016040528060088152602001670283937b334ba1d160c51b8152508e8360018151811061128a5761128a611774565b602002602001015161109291906119c0565b6106f5816115a7565b604051636eb1769f60e11b81523060048201526001600160a01b0384811660248301526000919087169063dd62ed3e90604401602060405180830381865afa1580156112f5573d6000803e3d6000fd5b505050506040513d601f19601f82011682018060405250810190611319919061178a565b905061135a6040518060400160405280602081526020017f436f6e747261637420616c6c6f77616e636520666f7220726f75746572413a20815250826108bc565b604051636eb1769f60e11b81523060048201526001600160a01b0384811660248301526000919087169063dd62ed3e90604401602060405180830381865afa1580156113aa573d6000803e3d6000fd5b505050506040513d601f19601f820116820180604052508101906113ce919061178a565b905061140f6040518060400160405280602081526020017f436f6e747261637420616c6c6f77616e636520666f7220726f75746572423a20815250826108bc565b828210156114755760405162461bcd60e51b815260206004820152602d60248201527f5377617053696e676c653a20434f4e54524143545f4e4f545f415050524f564560448201526c445f464f525f524f555445524160981b60648201526084016101ed565b828110156114db5760405162461bcd60e51b815260206004820152602d60248201527f5377617053696e676c653a20434f4e54524143545f4e4f545f415050524f564560448201526c222fa327a92fa927aaaa22a92160991b60648201526084016101ed565b6040516323b872dd60e01b8152336004820152306024820152604481018490526001600160a01b038816906323b872dd906064016020604051808303816000875af115801561152e573d6000803e3d6000fd5b505050506040513d601f19601f8201168201806040525081019061155291906117a3565b61159e5760405162461bcd60e51b815260206004820152601f60248201527f7472616e7366657246726f6d206d73672e73656e646572206661696c65642e0060448201526064016101ed565b50505050505050565b60006a636f6e736f6c652e6c6f679050600080835160208501845afa505050565b80356001600160a01b03811681146115df57600080fd5b919050565b634e487b7160e01b600052604160045260246000fd5b604051601f8201601f1916810167ffffffffffffffff81118282101715611623576116236115e4565b604052919050565b600067ffffffffffffffff821115611645576116456115e4565b5060051b60200190565b600082601f83011261166057600080fd5b813560206116756116708361162b565b6115fa565b82815260059290921b8401810191818101908684111561169457600080fd5b8286015b848110156116b6576116a9816115c8565b8352918301918301611698565b509695505050505050565b600080600080600080600080610100898b0312156116de57600080fd5b6116e7896115c8565b97506116f560208a016115c8565b96506040890135955060608901359450608089013567ffffffffffffffff8082111561172057600080fd5b61172c8c838d0161164f565b955060a08b013591508082111561174257600080fd5b5061174f8b828c0161164f565b93505061175e60c08a016115c8565b915060e089013590509295985092959890939650565b634e487b7160e01b600052603260045260246000fd5b60006020828403121561179c57600080fd5b5051919050565b6000602082840312156117b557600080fd5b815180151581146117c557600080fd5b9392505050565b6000815180845260005b818110156117f2576020818501810151868301820152016117d6565b506000602082860101526020601f19601f83011685010191505092915050565b6020815260006117c560208301846117cc565b60408152600061183860408301856117cc565b90508260208301529392505050565b600081518084526020808501945080840160005b838110156118805781516001600160a01b03168752958201959082019060010161185b565b509495945050505050565b8281526040602082015260006118a46040830184611847565b949350505050565b600060208083850312156118bf57600080fd5b825167ffffffffffffffff8111156118d657600080fd5b8301601f810185136118e757600080fd5b80516118f56116708261162b565b81815260059190911b8201830190838101908783111561191457600080fd5b928401925b8284101561193257835182529284019290840190611919565b979650505050505050565b60208082526027908201527f5377617053696e676c653a20494e53554646494349454e545f57414c4c45545f60408201526642414c414e434560c81b606082015260800190565b85815284602082015260a0604082015260006119a360a0830186611847565b6001600160a01b0394909416606083015250608001529392505050565b818103818111156119e157634e487b7160e01b600052601160045260246000fd5b9291505056fe746f6b656e73207478276420616e6420617070726f76616c7320646f6e652e204e657720436f6e74726163742062616c616e63653a205377617053696e676c653a207377617053696e676c6520636f6e747261637420656e7465726564537761704d756c74693a20737761704d756c746920636f6e747261637420656e7465726564a2646970667358221220c2d06ad91634b5c3bcc27e65d7fa52e0f573cd5203a6c714d188e5d9429d188a64736f6c63430008130033",
  "linkReferences": {},
  "deployedLinkReferences": {}
}