{
  "_format": "hh-sol-artifact-1",
  "contractName": "flashMulti",
  "sourceName": "contracts/v2/flashMulti.sol",
  "abi": [
    {
      "inputs": [
        {
          "internalType": "address",
          "name": "_owner",
          "type": "address"
        }
      ],
      "stateMutability": "nonpayable",
      "type": "constructor"
    },
    {
      "anonymous": false,
      "inputs": [
        {
          "indexed": false,
          "internalType": "string",
          "name": "message",
          "type": "string"
        }
      ],
      "name": "log",
      "type": "event"
    },
    {
      "anonymous": false,
      "inputs": [
        {
          "indexed": false,
          "internalType": "string",
          "name": "message",
          "type": "string"
        },
        {
          "indexed": false,
          "internalType": "address",
          "name": "val",
          "type": "address"
        }
      ],
      "name": "logAddress",
      "type": "event"
    },
    {
      "anonymous": false,
      "inputs": [
        {
          "indexed": false,
          "internalType": "string",
          "name": "message",
          "type": "string"
        },
        {
          "indexed": false,
          "internalType": "uint256",
          "name": "val",
          "type": "uint256"
        }
      ],
      "name": "logValue",
      "type": "event"
    },
    {
      "inputs": [],
      "name": "checkOwner",
      "outputs": [
        {
          "internalType": "address",
          "name": "",
          "type": "address"
        }
      ],
      "stateMutability": "view",
      "type": "function"
    },
    {
      "inputs": [
        {
          "internalType": "address",
          "name": "loanFactory",
          "type": "address"
        },
        {
          "internalType": "address",
          "name": "loanRouter",
          "type": "address"
        },
        {
          "internalType": "address",
          "name": "recipientRouter",
          "type": "address"
        },
        {
          "internalType": "address",
          "name": "token0ID",
          "type": "address"
        },
        {
          "internalType": "address",
          "name": "token1ID",
          "type": "address"
        },
        {
          "internalType": "uint256",
          "name": "amount0In",
          "type": "uint256"
        },
        {
          "internalType": "uint256",
          "name": "amount1Out",
          "type": "uint256"
        },
        {
          "internalType": "uint256",
          "name": "amountToRepay",
          "type": "uint256"
        }
      ],
      "name": "flashSwap",
      "outputs": [],
      "stateMutability": "nonpayable",
      "type": "function"
    },
    {
      "inputs": [],
      "name": "getK",
      "outputs": [
        {
          "internalType": "uint256",
          "name": "k",
          "type": "uint256"
        }
      ],
      "stateMutability": "view",
      "type": "function"
    },
    {
      "inputs": [
        {
          "internalType": "address",
          "name": "sender",
          "type": "address"
        },
        {
          "internalType": "uint256",
          "name": "amount0",
          "type": "uint256"
        },
        {
          "internalType": "uint256",
          "name": "amount1",
          "type": "uint256"
        },
        {
          "internalType": "bytes",
          "name": "data",
          "type": "bytes"
        }
      ],
      "name": "uniswapV2Call",
      "outputs": [],
      "stateMutability": "nonpayable",
      "type": "function"
    }
  ],
  "bytecode": "0x608060405234801561001057600080fd5b506040516112cc3803806112cc83398101604081905261002f91610054565b600080546001600160a01b0319166001600160a01b0392909216919091179055610084565b60006020828403121561006657600080fd5b81516001600160a01b038116811461007d57600080fd5b9392505050565b611239806100936000396000f3fe608060405234801561001057600080fd5b506004361061004c5760003560e01c806310d1e85c14610051578063cdbce03d14610066578063de60dce414610086578063ee39e7a014610099575b600080fd5b61006461005f366004610d6c565b6100af565b005b6000546040516001600160a01b0390911681526020015b60405180910390f35b610064610094366004610e02565b6104fc565b6100a16107f0565b60405190815260200161007d565b6040805160028082526060820183526000926020830190803683370190505090506000808080806100e287890189610ea2565b94509450945094509450336001600160a01b0316630dfe16816040518163ffffffff1660e01b8152600401602060405180830381865afa15801561012a573d6000803e3d6000fd5b505050506040513d601f19601f8201168201806040525081019061014e9190610efd565b8660008151811061016157610161610f21565b60200260200101906001600160a01b031690816001600160a01b031681525050336001600160a01b031663d21220a76040518163ffffffff1660e01b8152600401602060405180830381865afa1580156101bf573d6000803e3d6000fd5b505050506040513d601f19601f820116820180604052508101906101e39190610efd565b866001815181106101f6576101f6610f21565b60200260200101906001600160a01b031690816001600160a01b031681525050846001600160a01b031663e6a439058760008151811061023857610238610f21565b60200260200101518860018151811061025357610253610f21565b60200260200101516040518363ffffffff1660e01b815260040161028d9291906001600160a01b0392831681529116602082015260400190565b602060405180830381865afa1580156102aa573d6000803e3d6000fd5b505050506040513d601f19601f820116820180604052508101906102ce9190610efd565b600180546001600160a01b0319166001600160a01b0392909216918217905533146103365760405162461bcd60e51b8152602060048201526013602482015272115c9c9bdc8e88155b985d5d1a1bdc9a5e9959606a1b60448201526064015b60405180910390fd5b6001600160a01b038b1630146103825760405162461bcd60e51b815260206004820152601160248201527022b93937b91d102737ba1039b2b73232b960791b604482015260640161032d565b89158061038d575088155b6103d25760405162461bcd60e51b81526020600482015260166024820152754572726f723a20496e76616c696420616d6f756e747360501b604482015260640161032d565b6000866001815181106103e7576103e7610f21565b6020026020010151905060006104018c848689898d61088f565b6000546040516370a0823160e01b81523060048201529192506001600160a01b038481169263a9059cbb92919091169083906370a0823190602401602060405180830381865afa158015610459573d6000803e3d6000fd5b505050506040513d601f19601f8201168201806040525081019061047d9190610f37565b6040516001600160e01b031960e085901b1681526001600160a01b03909216600483015260248201526044016020604051808303816000875af11580156104c8573d6000803e3d6000fd5b505050506040513d601f19601f820116820180604052508101906104ec9190610f50565b5050505050505050505050505050565b6000546001600160a01b031633146105675760405162461bcd60e51b815260206004820152602860248201527f4572726f723a204f6e6c79206f776e65722063616e2063616c6c207468697320604482015267333ab731ba34b7b760c11b606482015260840161032d565b60405163e6a4390560e01b81526001600160a01b038681166004830152858116602483015289169063e6a4390590604401602060405180830381865afa1580156105b5573d6000803e3d6000fd5b505050506040513d601f19601f820116820180604052508101906105d99190610efd565b600180546001600160a01b0319166001600160a01b039290921691821790556106445760405162461bcd60e51b815260206004820152601a60248201527f4572726f723a205061697220646f6573206e6f74206578697374000000000000604482015260640161032d565b604080516001600160a01b03808b166020830152808a169282019290925290871660608201526080810183905260a0810182905260009060c00160408051808303601f190181529082905260015463095ea7b360e01b83526001600160a01b0390811660048401526024830187905290925087169063095ea7b3906044016020604051808303816000875af11580156106e1573d6000803e3d6000fd5b505050506040513d601f19601f820116820180604052508101906107059190610f50565b506000841161077c5760405162461bcd60e51b815260206004820152603a60248201527f4572726f723a20496e76616c696420616d6f756e7430496e3a20616d6f756e7460448201527f30496e206d7573742062652067726561746572207468616e2030000000000000606482015260840161032d565b60015460405163022c0d9f60e01b81526001600160a01b039091169063022c0d9f906107b390879060009030908790600401610f72565b600060405180830381600087803b1580156107cd57600080fd5b505af11580156107e1573d6000803e3d6000fd5b50505050505050505050505050565b6000806000600160009054906101000a90046001600160a01b03166001600160a01b0316630902f1ac6040518163ffffffff1660e01b8152600401606060405180830381865afa158015610848573d6000803e3d6000fd5b505050506040513d601f19601f8201168201806040525081019061086c9190610ffa565b5090925090506108886001600160701b03808416908316610b51565b9250505090565b600080826000815181106108a5576108a5610f21565b602002602001015190506000836001815181106108c4576108c4610f21565b60200260200101519050600043600a6108dd9190611060565b905060006108ec8b8988610bbe565b60405163095ea7b360e01b81526001600160a01b038981166004830152602482018e90529192509085169063095ea7b3906044016020604051808303816000875af115801561093f573d6000803e3d6000fd5b505050506040513d601f19601f820116820180604052508101906109639190610f50565b506040516338ed173960e01b81526001600160a01b038816906338ed173990610998908e908d908b90309089906004016110b7565b6000604051808303816000875af11580156109b7573d6000803e3d6000fd5b505050506040513d6000823e601f3d908101601f191682016040526109df91908101906110f3565b6001815181106109f1576109f1610f21565b60200260200101519450826001600160a01b031663095ea7b33383600081518110610a1e57610a1e610f21565b60200260200101516040518363ffffffff1660e01b8152600401610a579291906001600160a01b03929092168252602082015260400190565b6020604051808303816000875af1158015610a76573d6000803e3d6000fd5b505050506040513d601f19601f82011682018060405250810190610a9a9190610f50565b50826001600160a01b03166323b872dd303384600081518110610abf57610abf610f21565b60209081029190910101516040516001600160e01b031960e086901b1681526001600160a01b03938416600482015292909116602483015260448201526064016020604051808303816000875af1158015610b1e573d6000803e3d6000fd5b505050506040513d601f19601f82011682018060405250810190610b429190610f50565b50505050509695505050505050565b6000811580610b7557508282610b6781836111b1565b9250610b7390836111c8565b145b610bb85760405162461bcd60e51b815260206004820152601460248201527364732d6d6174682d6d756c2d6f766572666c6f7760601b604482015260640161032d565b92915050565b6060336001600160a01b031663d21220a76040518163ffffffff1660e01b8152600401602060405180830381865afa158015610bfe573d6000803e3d6000fd5b505050506040513d601f19601f82011682018060405250810190610c229190610efd565b82600081518110610c3557610c35610f21565b60200260200101906001600160a01b031690816001600160a01b031681525050336001600160a01b0316630dfe16816040518163ffffffff1660e01b8152600401602060405180830381865afa158015610c93573d6000803e3d6000fd5b505050506040513d601f19601f82011682018060405250810190610cb79190610efd565b82600181518110610cca57610cca610f21565b6001600160a01b0392831660209182029290920101526040516307c0329d60e21b815290841690631f00ca7490610d0790879086906004016111ea565b600060405180830381865afa158015610d24573d6000803e3d6000fd5b505050506040513d6000823e601f3d908101601f19168201604052610d4c91908101906110f3565b949350505050565b6001600160a01b0381168114610d6957600080fd5b50565b600080600080600060808688031215610d8457600080fd5b8535610d8f81610d54565b94506020860135935060408601359250606086013567ffffffffffffffff80821115610dba57600080fd5b818801915088601f830112610dce57600080fd5b813581811115610ddd57600080fd5b896020828501011115610def57600080fd5b9699959850939650602001949392505050565b600080600080600080600080610100898b031215610e1f57600080fd5b8835610e2a81610d54565b97506020890135610e3a81610d54565b96506040890135610e4a81610d54565b95506060890135610e5a81610d54565b94506080890135610e6a81610d54565b979a969950949793969560a0850135955060c08501359460e001359350915050565b634e487b7160e01b600052604160045260246000fd5b600080600080600060a08688031215610eba57600080fd5b8535610ec581610d54565b94506020860135610ed581610d54565b93506040860135610ee581610d54565b94979396509394606081013594506080013592915050565b600060208284031215610f0f57600080fd5b8151610f1a81610d54565b9392505050565b634e487b7160e01b600052603260045260246000fd5b600060208284031215610f4957600080fd5b5051919050565b600060208284031215610f6257600080fd5b81518015158114610f1a57600080fd5b84815260006020858184015260018060a01b038516604084015260806060840152835180608085015260005b81811015610fba5785810183015185820160a001528201610f9e565b50600060a0828601015260a0601f19601f8301168501019250505095945050505050565b80516001600160701b0381168114610ff557600080fd5b919050565b60008060006060848603121561100f57600080fd5b61101884610fde565b925061102660208501610fde565b9150604084015163ffffffff8116811461103f57600080fd5b809150509250925092565b634e487b7160e01b600052601160045260246000fd5b80820180821115610bb857610bb861104a565b600081518084526020808501945080840160005b838110156110ac5781516001600160a01b031687529582019590820190600101611087565b509495945050505050565b85815284602082015260a0604082015260006110d660a0830186611073565b6001600160a01b0394909416606083015250608001529392505050565b6000602080838503121561110657600080fd5b825167ffffffffffffffff8082111561111e57600080fd5b818501915085601f83011261113257600080fd5b81518181111561114457611144610e8c565b8060051b604051601f19603f8301168101818110858211171561116957611169610e8c565b60405291825284820192508381018501918883111561118757600080fd5b938501935b828510156111a55784518452938501939285019261118c565b98975050505050505050565b8082028115828204841417610bb857610bb861104a565b6000826111e557634e487b7160e01b600052601260045260246000fd5b500490565b828152604060208201526000610d4c604083018461107356fea26469706673582212203364f7252fa3e73c723c3fbc92e446e7474524d4a180f625e71f5408a5ea481c64736f6c63430008130033",
  "linkReferences": {},
  "deployedLinkReferences": {}
}