{
  "_format": "hh-sol-artifact-1",
  "contractName": "flashMulti",
  "sourceName": "contracts/v2/flashMulti.sol",
  "abi": [
    {
      "inputs": [
        {
          "internalType": "address",
          "name": "_owner",
          "type": "address"
        }
      ],
      "stateMutability": "nonpayable",
      "type": "constructor"
    },
    {
      "anonymous": false,
      "inputs": [
        {
          "indexed": false,
          "internalType": "string",
          "name": "message",
          "type": "string"
        }
      ],
      "name": "log",
      "type": "event"
    },
    {
      "anonymous": false,
      "inputs": [
        {
          "indexed": false,
          "internalType": "string",
          "name": "message",
          "type": "string"
        },
        {
          "indexed": false,
          "internalType": "address",
          "name": "val",
          "type": "address"
        }
      ],
      "name": "logAddress",
      "type": "event"
    },
    {
      "anonymous": false,
      "inputs": [
        {
          "indexed": false,
          "internalType": "string",
          "name": "message",
          "type": "string"
        },
        {
          "indexed": false,
          "internalType": "uint256",
          "name": "val",
          "type": "uint256"
        }
      ],
      "name": "logValue",
      "type": "event"
    },
    {
      "stateMutability": "payable",
      "type": "fallback"
    },
    {
      "inputs": [],
      "name": "checkOwner",
      "outputs": [
        {
          "internalType": "address",
          "name": "",
          "type": "address"
        }
      ],
      "stateMutability": "view",
      "type": "function"
    },
    {
      "inputs": [
        {
          "internalType": "address",
          "name": "loanFactory",
          "type": "address"
        },
        {
          "internalType": "address",
          "name": "loanRouter",
          "type": "address"
        },
        {
          "internalType": "address",
          "name": "recipientRouter",
          "type": "address"
        },
        {
          "internalType": "address",
          "name": "token0ID",
          "type": "address"
        },
        {
          "internalType": "address",
          "name": "token1ID",
          "type": "address"
        },
        {
          "internalType": "uint256",
          "name": "amount0In",
          "type": "uint256"
        },
        {
          "internalType": "uint256",
          "name": "amount1Out",
          "type": "uint256"
        },
        {
          "internalType": "uint256",
          "name": "amountToRepay",
          "type": "uint256"
        }
      ],
      "name": "flashSwap",
      "outputs": [],
      "stateMutability": "nonpayable",
      "type": "function"
    },
    {
      "inputs": [],
      "name": "getK",
      "outputs": [
        {
          "internalType": "uint256",
          "name": "k",
          "type": "uint256"
        }
      ],
      "stateMutability": "view",
      "type": "function"
    },
    {
      "inputs": [],
      "name": "owner",
      "outputs": [
        {
          "internalType": "address",
          "name": "",
          "type": "address"
        }
      ],
      "stateMutability": "view",
      "type": "function"
    },
    {
      "inputs": [],
      "name": "pair",
      "outputs": [
        {
          "internalType": "contract IUniswapV2Pair",
          "name": "",
          "type": "address"
        }
      ],
      "stateMutability": "view",
      "type": "function"
    },
    {
      "inputs": [
        {
          "internalType": "address",
          "name": "sender",
          "type": "address"
        },
        {
          "internalType": "uint256",
          "name": "amount0",
          "type": "uint256"
        },
        {
          "internalType": "uint256",
          "name": "amount1",
          "type": "uint256"
        },
        {
          "internalType": "bytes",
          "name": "data",
          "type": "bytes"
        }
      ],
      "name": "uniswapV2Call",
      "outputs": [],
      "stateMutability": "nonpayable",
      "type": "function"
    },
    {
      "stateMutability": "payable",
      "type": "receive"
    }
  ],
  "bytecode": "0x608060405234801561001057600080fd5b506040516114d43803806114d483398101604081905261002f91610054565b600080546001600160a01b0319166001600160a01b0392909216919091179055610084565b60006020828403121561006657600080fd5b81516001600160a01b038116811461007d57600080fd5b9392505050565b611441806100936000396000f3fe6080604052600436106100565760003560e01c806310d1e85c1461005f5780638da5cb5b1461007f578063a8aa1b31146100bc578063cdbce03d146100dc578063de60dce4146100fa578063ee39e7a01461011a57005b3661005d57005b005b34801561006b57600080fd5b5061005d61007a366004610f74565b61013d565b34801561008b57600080fd5b5060005461009f906001600160a01b031681565b6040516001600160a01b0390911681526020015b60405180910390f35b3480156100c857600080fd5b5060015461009f906001600160a01b031681565b3480156100e857600080fd5b506000546001600160a01b031661009f565b34801561010657600080fd5b5061005d61011536600461100a565b610665565b34801561012657600080fd5b5061012f61094a565b6040519081526020016100b3565b604080516002808252606082018352600092602083019080368337019050509050600080808080610170878901896110aa565b94509450945094509450336001600160a01b0316630dfe16816040518163ffffffff1660e01b8152600401602060405180830381865afa1580156101b8573d6000803e3d6000fd5b505050506040513d601f19601f820116820180604052508101906101dc9190611105565b866000815181106101ef576101ef611129565b60200260200101906001600160a01b031690816001600160a01b031681525050336001600160a01b031663d21220a76040518163ffffffff1660e01b8152600401602060405180830381865afa15801561024d573d6000803e3d6000fd5b505050506040513d601f19601f820116820180604052508101906102719190611105565b8660018151811061028457610284611129565b60200260200101906001600160a01b031690816001600160a01b031681525050846001600160a01b031663e6a43905876000815181106102c6576102c6611129565b6020026020010151886001815181106102e1576102e1611129565b60200260200101516040518363ffffffff1660e01b815260040161031b9291906001600160a01b0392831681529116602082015260400190565b602060405180830381865afa158015610338573d6000803e3d6000fd5b505050506040513d601f19601f8201168201806040525081019061035c9190611105565b600180546001600160a01b0319166001600160a01b0392909216918217905533146103c45760405162461bcd60e51b8152602060048201526013602482015272115c9c9bdc8e88155b985d5d1a1bdc9a5e9959606a1b60448201526064015b60405180910390fd5b6001600160a01b038b1630146104105760405162461bcd60e51b815260206004820152601160248201527022b93937b91d102737ba1039b2b73232b960791b60448201526064016103bb565b89158061041b575088155b6104605760405162461bcd60e51b81526020600482015260166024820152754572726f723a20496e76616c696420616d6f756e747360501b60448201526064016103bb565b60008660018151811061047557610475611129565b60200260200101519050600061048f8c848689898d6109e9565b6000546040516370a0823160e01b81523060048201529192506001600160a01b038481169263a9059cbb92919091169083906370a0823190602401602060405180830381865afa1580156104e7573d6000803e3d6000fd5b505050506040513d601f19601f8201168201806040525081019061050b919061113f565b6040516001600160e01b031960e085901b1681526001600160a01b03909216600483015260248201526044016020604051808303816000875af1158015610556573d6000803e3d6000fd5b505050506040513d601f19601f8201168201806040525081019061057a9190611158565b506040516370a0823160e01b81523060048201526001600160a01b038316906370a0823190602401602060405180830381865afa1580156105bf573d6000803e3d6000fd5b505050506040513d601f19601f820116820180604052508101906105e3919061113f565b156106565760405162461bcd60e51b815260206004820152603860248201527f4572726f723a205472616e73666572206661696c65642064756520746f20746f60448201527f6b656e312062616c616e6365206e6f74206265696e672030000000000000000060648201526084016103bb565b50505050505050505050505050565b6000546001600160a01b031633146106d05760405162461bcd60e51b815260206004820152602860248201527f4572726f723a204f6e6c79206f776e65722063616e2063616c6c207468697320604482015267333ab731ba34b7b760c11b60648201526084016103bb565b60405163e6a4390560e01b81526001600160a01b038681166004830152858116602483015289169063e6a4390590604401602060405180830381865afa15801561071e573d6000803e3d6000fd5b505050506040513d601f19601f820116820180604052508101906107429190611105565b600180546001600160a01b0319166001600160a01b039290921691821790556107ad5760405162461bcd60e51b815260206004820152601a60248201527f4572726f723a205061697220646f6573206e6f7420657869737400000000000060448201526064016103bb565b604080516001600160a01b03808b166020830152808a169282019290925290871660608201526080810183905260a0810182905260009060c00160408051808303601f190181529082905260015463095ea7b360e01b83526001600160a01b0390811660048401526024830187905290925087169063095ea7b3906044016020604051808303816000875af115801561084a573d6000803e3d6000fd5b505050506040513d601f19601f8201168201806040525081019061086e9190611158565b50600084116108e55760405162461bcd60e51b815260206004820152603a60248201527f4572726f723a20496e76616c696420616d6f756e7430496e3a20616d6f756e7460448201527f30496e206d7573742062652067726561746572207468616e203000000000000060648201526084016103bb565b60015460405163022c0d9f60e01b81526001600160a01b039091169063022c0d9f9061091c9087906000903090879060040161117a565b600060405180830381600087803b15801561093657600080fd5b505af1158015610656573d6000803e3d6000fd5b6000806000600160009054906101000a90046001600160a01b03166001600160a01b0316630902f1ac6040518163ffffffff1660e01b8152600401606060405180830381865afa1580156109a2573d6000803e3d6000fd5b505050506040513d601f19601f820116820180604052508101906109c69190611202565b5090925090506109e26001600160701b03808416908316610d59565b9250505090565b600080826000815181106109ff576109ff611129565b60200260200101519050600083600181518110610a1e57610a1e611129565b60200260200101519050600043600a610a379190611268565b90506000610a468b8988610dc6565b60405163095ea7b360e01b81526001600160a01b038981166004830152602482018e90529192509085169063095ea7b3906044016020604051808303816000875af1158015610a99573d6000803e3d6000fd5b505050506040513d601f19601f82011682018060405250810190610abd9190611158565b506040516338ed173960e01b81526001600160a01b038816906338ed173990610af2908e908d908b90309089906004016112bf565b6000604051808303816000875af1158015610b11573d6000803e3d6000fd5b505050506040513d6000823e601f3d908101601f19168201604052610b3991908101906112fb565b600181518110610b4b57610b4b611129565b60200260200101519450826001600160a01b031663095ea7b33383600081518110610b7857610b78611129565b60200260200101516040518363ffffffff1660e01b8152600401610bb19291906001600160a01b03929092168252602082015260400190565b6020604051808303816000875af1158015610bd0573d6000803e3d6000fd5b505050506040513d601f19601f82011682018060405250810190610bf49190611158565b50826001600160a01b03166323b872dd303384600081518110610c1957610c19611129565b60209081029190910101516040516001600160e01b031960e086901b1681526001600160a01b03938416600482015292909116602483015260448201526064016020604051808303816000875af1158015610c78573d6000803e3d6000fd5b505050506040513d601f19601f82011682018060405250810190610c9c9190611158565b506040516370a0823160e01b81523060048201526001600160a01b038416906370a0823190602401602060405180830381865afa158015610ce1573d6000803e3d6000fd5b505050506040513d601f19601f82011682018060405250810190610d05919061113f565b15610d4b5760405162461bcd60e51b8152602060048201526016602482015275115c9c9bdc8e88151c985b9cd9995c8819985a5b195960521b60448201526064016103bb565b505050509695505050505050565b6000811580610d7d57508282610d6f81836113b9565b9250610d7b90836113d0565b145b610dc05760405162461bcd60e51b815260206004820152601460248201527364732d6d6174682d6d756c2d6f766572666c6f7760601b60448201526064016103bb565b92915050565b6060336001600160a01b031663d21220a76040518163ffffffff1660e01b8152600401602060405180830381865afa158015610e06573d6000803e3d6000fd5b505050506040513d601f19601f82011682018060405250810190610e2a9190611105565b82600081518110610e3d57610e3d611129565b60200260200101906001600160a01b031690816001600160a01b031681525050336001600160a01b0316630dfe16816040518163ffffffff1660e01b8152600401602060405180830381865afa158015610e9b573d6000803e3d6000fd5b505050506040513d601f19601f82011682018060405250810190610ebf9190611105565b82600181518110610ed257610ed2611129565b6001600160a01b0392831660209182029290920101526040516307c0329d60e21b815290841690631f00ca7490610f0f90879086906004016113f2565b600060405180830381865afa158015610f2c573d6000803e3d6000fd5b505050506040513d6000823e601f3d908101601f19168201604052610f5491908101906112fb565b949350505050565b6001600160a01b0381168114610f7157600080fd5b50565b600080600080600060808688031215610f8c57600080fd5b8535610f9781610f5c565b94506020860135935060408601359250606086013567ffffffffffffffff80821115610fc257600080fd5b818801915088601f830112610fd657600080fd5b813581811115610fe557600080fd5b896020828501011115610ff757600080fd5b9699959850939650602001949392505050565b600080600080600080600080610100898b03121561102757600080fd5b883561103281610f5c565b9750602089013561104281610f5c565b9650604089013561105281610f5c565b9550606089013561106281610f5c565b9450608089013561107281610f5c565b979a969950949793969560a0850135955060c08501359460e001359350915050565b634e487b7160e01b600052604160045260246000fd5b600080600080600060a086880312156110c257600080fd5b85356110cd81610f5c565b945060208601356110dd81610f5c565b935060408601356110ed81610f5c565b94979396509394606081013594506080013592915050565b60006020828403121561111757600080fd5b815161112281610f5c565b9392505050565b634e487b7160e01b600052603260045260246000fd5b60006020828403121561115157600080fd5b5051919050565b60006020828403121561116a57600080fd5b8151801515811461112257600080fd5b84815260006020858184015260018060a01b038516604084015260806060840152835180608085015260005b818110156111c25785810183015185820160a0015282016111a6565b50600060a0828601015260a0601f19601f8301168501019250505095945050505050565b80516001600160701b03811681146111fd57600080fd5b919050565b60008060006060848603121561121757600080fd5b611220846111e6565b925061122e602085016111e6565b9150604084015163ffffffff8116811461124757600080fd5b809150509250925092565b634e487b7160e01b600052601160045260246000fd5b80820180821115610dc057610dc0611252565b600081518084526020808501945080840160005b838110156112b45781516001600160a01b03168752958201959082019060010161128f565b509495945050505050565b85815284602082015260a0604082015260006112de60a083018661127b565b6001600160a01b0394909416606083015250608001529392505050565b6000602080838503121561130e57600080fd5b825167ffffffffffffffff8082111561132657600080fd5b818501915085601f83011261133a57600080fd5b81518181111561134c5761134c611094565b8060051b604051601f19603f8301168101818110858211171561137157611371611094565b60405291825284820192508381018501918883111561138f57600080fd5b938501935b828510156113ad57845184529385019392850192611394565b98975050505050505050565b8082028115828204841417610dc057610dc0611252565b6000826113ed57634e487b7160e01b600052601260045260246000fd5b500490565b828152604060208201526000610f54604083018461127b56fea26469706673582212207add30a5e603618c38b339488b8fca10beacce244d50c8981ebe8c2fcfc80d6464736f6c63430008130033",
  "linkReferences": {},
  "deployedLinkReferences": {}
}