{
  "_format": "hh-sol-artifact-1",
  "contractName": "SwapSingleTest",
  "sourceName": "contracts/v2/SwapSingleTest.sol",
  "abi": [
    {
      "inputs": [
        {
          "internalType": "address",
          "name": "_owner",
          "type": "address"
        }
      ],
      "stateMutability": "nonpayable",
      "type": "constructor"
    },
    {
      "anonymous": false,
      "inputs": [
        {
          "indexed": false,
          "internalType": "string",
          "name": "message",
          "type": "string"
        }
      ],
      "name": "log",
      "type": "event"
    },
    {
      "anonymous": false,
      "inputs": [
        {
          "indexed": false,
          "internalType": "string",
          "name": "message",
          "type": "string"
        },
        {
          "indexed": false,
          "internalType": "address",
          "name": "val",
          "type": "address"
        }
      ],
      "name": "logAddress",
      "type": "event"
    },
    {
      "anonymous": false,
      "inputs": [
        {
          "indexed": false,
          "internalType": "string",
          "name": "message",
          "type": "string"
        },
        {
          "indexed": false,
          "internalType": "uint256",
          "name": "val",
          "type": "uint256"
        }
      ],
      "name": "logValue",
      "type": "event"
    },
    {
      "inputs": [],
      "name": "checkOwner",
      "outputs": [
        {
          "internalType": "address",
          "name": "",
          "type": "address"
        }
      ],
      "stateMutability": "view",
      "type": "function"
    },
    {
      "inputs": [
        {
          "internalType": "address",
          "name": "router0ID",
          "type": "address"
        },
        {
          "internalType": "address",
          "name": "router1ID",
          "type": "address"
        },
        {
          "internalType": "address",
          "name": "token0ID",
          "type": "address"
        },
        {
          "internalType": "address",
          "name": "token1ID",
          "type": "address"
        },
        {
          "internalType": "uint256",
          "name": "amountIn",
          "type": "uint256"
        },
        {
          "internalType": "uint256",
          "name": "amountOutMin0",
          "type": "uint256"
        },
        {
          "internalType": "uint256",
          "name": "amountOutMin1",
          "type": "uint256"
        },
        {
          "internalType": "address[]",
          "name": "path0",
          "type": "address[]"
        },
        {
          "internalType": "address[]",
          "name": "path1",
          "type": "address[]"
        },
        {
          "internalType": "address",
          "name": "to",
          "type": "address"
        },
        {
          "internalType": "uint256",
          "name": "deadline",
          "type": "uint256"
        }
      ],
      "name": "swapSingle",
      "outputs": [],
      "stateMutability": "nonpayable",
      "type": "function"
    }
  ],
  "bytecode": "0x608060405234801561001057600080fd5b50604051610ad9380380610ad983398101604081905261002f91610054565b600080546001600160a01b0319166001600160a01b0392909216919091179055610084565b60006020828403121561006657600080fd5b81516001600160a01b038116811461007d57600080fd5b9392505050565b610a46806100936000396000f3fe608060405234801561001057600080fd5b50600436106100365760003560e01c8063145f4aa01461003b578063cdbce03d14610050575b600080fd5b61004e610049366004610732565b61006f565b005b600054604080516001600160a01b039092168252519081900360200190f35b6100ad6040518060400160405280601c81526020017f5377617053696e676c653a20636f6e747261637420656e7465726564000000008152506105ce565b60405163d06ca61f60e01b8152899089908d908d906000906001600160a01b0384169063d06ca61f906100e6908f908d9060040161085b565b600060405180830381865afa158015610103573d6000803e3d6000fd5b505050506040513d6000823e601f3d908101601f1916820160405261012b919081019061087c565b90508a816001815181106101415761014161090d565b602002602001015110156101b45760405162461bcd60e51b815260206004820152602f60248201527f4572726f72205377617053696e676c653a20496e73756666696369656e74206f60448201526e1d5d1c1d5d0e88131bd85b941bdbdb608a1b60648201526084015b60405180910390fd5b6000836001600160a01b03166338ed17398e8e8d308c6040518663ffffffff1660e01b81526004016101ea959493929190610923565b6000604051808303816000875af1158015610209573d6000803e3d6000fd5b505050506040513d6000823e601f3d908101601f19168201604052610231919081019061087c565b90506102716040518060400160405280602081526020017f5377617053696e676c653a206669727374207377617020636f6d706c657465648152506105ce565b846001600160a01b031663095ea7b384836001815181106102945761029461090d565b60200260200101516040518363ffffffff1660e01b81526004016102cd9291906001600160a01b03929092168252602082015260400190565b6020604051808303816000875af11580156102ec573d6000803e3d6000fd5b505050506040513d601f19601f82011682018060405250810190610310919061095f565b506000836001600160a01b031663d06ca61f836001815181106103355761033561090d565b60200260200101518c6040518363ffffffff1660e01b815260040161035b92919061085b565b600060405180830381865afa158015610378573d6000803e3d6000fd5b505050506040513d6000823e601f3d908101601f191682016040526103a0919081019061087c565b90508b816001815181106103b6576103b661090d565b6020026020010151116104215760405162461bcd60e51b815260206004820152602d60248201527f4572726f72205377617053696e676c653a20496e73756666696369656e74206f60448201526c1d5d1c1d5d0e8815185c99d95d609a1b60648201526084016101ab565b836001600160a01b03166338ed1739836001815181106104435761044361090d565b60200260200101518e8d8d8d6040518663ffffffff1660e01b815260040161046f959493929190610923565b6000604051808303816000875af115801561048e573d6000803e3d6000fd5b505050506040513d6000823e601f3d908101601f191682016040526104b6919081019061087c565b506104d86040518060600160405280602181526020016109f0602191396105ce565b6040516370a0823160e01b81523060048201526001600160a01b0388169063a9059cbb90339083906370a0823190602401602060405180830381865afa158015610526573d6000803e3d6000fd5b505050506040513d601f19601f8201168201806040525081019061054a9190610988565b6040516001600160e01b031960e085901b1681526001600160a01b03909216600483015260248201526044016020604051808303816000875af1158015610595573d6000803e3d6000fd5b505050506040513d601f19601f820116820180604052508101906105b9919061095f565b50505050505050505050505050505050505050565b610611816040516024016105e291906109a1565b60408051601f198184030181529190526020810180516001600160e01b031663104c13eb60e21b179052610614565b50565b6106118160006a636f6e736f6c652e6c6f679050600080835160208501845afa505050565b80356001600160a01b038116811461065057600080fd5b919050565b634e487b7160e01b600052604160045260246000fd5b604051601f8201601f1916810167ffffffffffffffff8111828210171561069457610694610655565b604052919050565b600067ffffffffffffffff8211156106b6576106b6610655565b5060051b60200190565b600082601f8301126106d157600080fd5b813560206106e66106e18361069c565b61066b565b82815260059290921b8401810191818101908684111561070557600080fd5b8286015b848110156107275761071a81610639565b8352918301918301610709565b509695505050505050565b60008060008060008060008060008060006101608c8e03121561075457600080fd5b61075d8c610639565b9a5061076b60208d01610639565b995061077960408d01610639565b985061078760608d01610639565b975060808c0135965060a08c0135955060c08c0135945067ffffffffffffffff8060e08e013511156107b857600080fd5b6107c88e60e08f01358f016106c0565b9450806101008e013511156107dc57600080fd5b506107ee8d6101008e01358e016106c0565b92506107fd6101208d01610639565b91506101408c013590509295989b509295989b9093969950565b600081518084526020808501945080840160005b838110156108505781516001600160a01b03168752958201959082019060010161082b565b509495945050505050565b8281526040602082015260006108746040830184610817565b949350505050565b6000602080838503121561088f57600080fd5b825167ffffffffffffffff8111156108a657600080fd5b8301601f810185136108b757600080fd5b80516108c56106e18261069c565b81815260059190911b820183019083810190878311156108e457600080fd5b928401925b82841015610902578351825292840192908401906108e9565b979650505050505050565b634e487b7160e01b600052603260045260246000fd5b85815284602082015260a06040820152600061094260a0830186610817565b6001600160a01b0394909416606083015250608001529392505050565b60006020828403121561097157600080fd5b8151801515811461098157600080fd5b9392505050565b60006020828403121561099a57600080fd5b5051919050565b600060208083528351808285015260005b818110156109ce578581018301518582016040015282016109b2565b506000604082860101526040601f19601f830116850101925050509291505056fe5377617053696e676c653a207365636f6e64207377617020636f6d706c65746564a2646970667358221220dcad2ef3f34c4abee2d160c62ab1c6ed7595b7d0b50e6629c0ccfcb1ee139dcb64736f6c63430008130033",
  "linkReferences": {},
  "deployedLinkReferences": {}
}