{
  "_format": "hh-sol-artifact-1",
  "contractName": "SwapSingleTest",
  "sourceName": "contracts/v2/SwapSingleTest.sol",
  "abi": [
    {
      "inputs": [
        {
          "internalType": "address",
          "name": "_owner",
          "type": "address"
        }
      ],
      "stateMutability": "nonpayable",
      "type": "constructor"
    },
    {
      "anonymous": false,
      "inputs": [
        {
          "indexed": false,
          "internalType": "string",
          "name": "message",
          "type": "string"
        }
      ],
      "name": "log",
      "type": "event"
    },
    {
      "anonymous": false,
      "inputs": [
        {
          "indexed": false,
          "internalType": "string",
          "name": "message",
          "type": "string"
        },
        {
          "indexed": false,
          "internalType": "address",
          "name": "val",
          "type": "address"
        }
      ],
      "name": "logAddress",
      "type": "event"
    },
    {
      "anonymous": false,
      "inputs": [
        {
          "indexed": false,
          "internalType": "string",
          "name": "message",
          "type": "string"
        },
        {
          "indexed": false,
          "internalType": "uint256",
          "name": "val",
          "type": "uint256"
        }
      ],
      "name": "logValue",
      "type": "event"
    },
    {
      "inputs": [],
      "name": "checkOwner",
      "outputs": [
        {
          "internalType": "address",
          "name": "",
          "type": "address"
        }
      ],
      "stateMutability": "view",
      "type": "function"
    },
    {
      "inputs": [
        {
          "internalType": "address",
          "name": "router0ID",
          "type": "address"
        },
        {
          "internalType": "address",
          "name": "router1ID",
          "type": "address"
        },
        {
          "internalType": "address",
          "name": "token0ID",
          "type": "address"
        },
        {
          "internalType": "address",
          "name": "token1ID",
          "type": "address"
        },
        {
          "internalType": "uint256",
          "name": "amountIn",
          "type": "uint256"
        },
        {
          "internalType": "uint256",
          "name": "amountOutMin0",
          "type": "uint256"
        },
        {
          "internalType": "uint256",
          "name": "amountOutMin1",
          "type": "uint256"
        },
        {
          "internalType": "address[]",
          "name": "path0",
          "type": "address[]"
        },
        {
          "internalType": "address[]",
          "name": "path1",
          "type": "address[]"
        },
        {
          "internalType": "address",
          "name": "to",
          "type": "address"
        },
        {
          "internalType": "uint256",
          "name": "deadline",
          "type": "uint256"
        }
      ],
      "name": "swapSingle",
      "outputs": [],
      "stateMutability": "nonpayable",
      "type": "function"
    }
  ],
  "bytecode": "0x608060405234801561001057600080fd5b50604051610a52380380610a5283398101604081905261002f91610054565b600080546001600160a01b0319166001600160a01b0392909216919091179055610084565b60006020828403121561006657600080fd5b81516001600160a01b038116811461007d57600080fd5b9392505050565b6109bf806100936000396000f3fe608060405234801561001057600080fd5b50600436106100365760003560e01c8063145f4aa01461003b578063cdbce03d14610050575b600080fd5b61004e6100493660046106ab565b61006f565b005b600054604080516001600160a01b039092168252519081900360200190f35b6100ad6040518060400160405280601c81526020017f5377617053696e676c653a20636f6e747261637420656e746572656400000000815250610547565b60405163d06ca61f60e01b8152899089908d908d906001600160a01b0383169063d06ca61f906100e3908e908c906004016107d4565b600060405180830381865afa158015610100573d6000803e3d6000fd5b505050506040513d6000823e601f3d908101601f1916820160405261012891908101906107f5565b506040516338ed173960e01b81526000906001600160a01b038416906338ed173990610160908f908f908e9030908d90600401610886565b6000604051808303816000875af115801561017f573d6000803e3d6000fd5b505050506040513d6000823e601f3d908101601f191682016040526101a791908101906107f5565b90506101e76040518060400160405280602081526020017f5377617053696e676c653a206669727374207377617020636f6d706c65746564815250610547565b836001600160a01b031663095ea7b3838360018151811061020a5761020a6108c2565b60200260200101516040518363ffffffff1660e01b81526004016102439291906001600160a01b03929092168252602082015260400190565b6020604051808303816000875af1158015610262573d6000803e3d6000fd5b505050506040513d601f19601f8201168201806040525081019061028691906108d8565b506000826001600160a01b031663d06ca61f836001815181106102ab576102ab6108c2565b60200260200101518b6040518363ffffffff1660e01b81526004016102d19291906107d4565b600060405180830381865afa1580156102ee573d6000803e3d6000fd5b505050506040513d6000823e601f3d908101601f1916820160405261031691908101906107f5565b90508a8160018151811061032c5761032c6108c2565b60200260200101511161039b5760405162461bcd60e51b815260206004820152602d60248201527f4572726f72205377617053696e676c653a20496e73756666696369656e74206f60448201526c1d5d1c1d5d0e8815185c99d95d609a1b606482015260840160405180910390fd5b826001600160a01b03166338ed1739836001815181106103bd576103bd6108c2565b60200260200101518d8c8c8c6040518663ffffffff1660e01b81526004016103e9959493929190610886565b6000604051808303816000875af1158015610408573d6000803e3d6000fd5b505050506040513d6000823e601f3d908101601f1916820160405261043091908101906107f5565b5061045260405180606001604052806021815260200161096960219139610547565b6040516370a0823160e01b81523060048201526001600160a01b0387169063a9059cbb90339083906370a0823190602401602060405180830381865afa1580156104a0573d6000803e3d6000fd5b505050506040513d601f19601f820116820180604052508101906104c49190610901565b6040516001600160e01b031960e085901b1681526001600160a01b03909216600483015260248201526044016020604051808303816000875af115801561050f573d6000803e3d6000fd5b505050506040513d601f19601f8201168201806040525081019061053391906108d8565b505050505050505050505050505050505050565b61058a8160405160240161055b919061091a565b60408051601f198184030181529190526020810180516001600160e01b031663104c13eb60e21b17905261058d565b50565b61058a8160006a636f6e736f6c652e6c6f679050600080835160208501845afa505050565b80356001600160a01b03811681146105c957600080fd5b919050565b634e487b7160e01b600052604160045260246000fd5b604051601f8201601f1916810167ffffffffffffffff8111828210171561060d5761060d6105ce565b604052919050565b600067ffffffffffffffff82111561062f5761062f6105ce565b5060051b60200190565b600082601f83011261064a57600080fd5b8135602061065f61065a83610615565b6105e4565b82815260059290921b8401810191818101908684111561067e57600080fd5b8286015b848110156106a057610693816105b2565b8352918301918301610682565b509695505050505050565b60008060008060008060008060008060006101608c8e0312156106cd57600080fd5b6106d68c6105b2565b9a506106e460208d016105b2565b99506106f260408d016105b2565b985061070060608d016105b2565b975060808c0135965060a08c0135955060c08c0135945067ffffffffffffffff8060e08e0135111561073157600080fd5b6107418e60e08f01358f01610639565b9450806101008e0135111561075557600080fd5b506107678d6101008e01358e01610639565b92506107766101208d016105b2565b91506101408c013590509295989b509295989b9093969950565b600081518084526020808501945080840160005b838110156107c95781516001600160a01b0316875295820195908201906001016107a4565b509495945050505050565b8281526040602082015260006107ed6040830184610790565b949350505050565b6000602080838503121561080857600080fd5b825167ffffffffffffffff81111561081f57600080fd5b8301601f8101851361083057600080fd5b805161083e61065a82610615565b81815260059190911b8201830190838101908783111561085d57600080fd5b928401925b8284101561087b57835182529284019290840190610862565b979650505050505050565b85815284602082015260a0604082015260006108a560a0830186610790565b6001600160a01b0394909416606083015250608001529392505050565b634e487b7160e01b600052603260045260246000fd5b6000602082840312156108ea57600080fd5b815180151581146108fa57600080fd5b9392505050565b60006020828403121561091357600080fd5b5051919050565b600060208083528351808285015260005b818110156109475785810183015185820160400152820161092b565b506000604082860101526040601f19601f830116850101925050509291505056fe5377617053696e676c653a207365636f6e64207377617020636f6d706c65746564a264697066735822122079f2c90f06124911f8dbe688178f651f0a182c15a10445a4f8d56501bf079a6a64736f6c63430008130033",
  "linkReferences": {},
  "deployedLinkReferences": {}
}